:100000000C9422040C9453040C9453040C94530445
:100010000C9453040C9453040C9453040C94530404
:100020000C9453040C94381B0C94C91A0C945E1A4B
:100030000C9453040C9453040C9453040C945304E4
:100040000C9453040C9453040C9453040C945304D4
:100050000C9453040C9453040C9453040C943018D3
:100060000C9453040C9404190C94DA180C94530453
:100070000C9453040C9453040C9453040C945304A4
:100080000C9453040C9453040C9453040C94530494
:100090000C94A4180C947A180C9453040C943A19E8
:1000A0000C9453040C9453040C94A21B0C9453040E
:1000B0000C9453040C9453040C9453040C94530464
:1000C0000C9453040C9453040C9453040C94530454
:1000D0000C9453040C9453040C9453040C94530444
:1000E0000C94530408000000BE922449123EABAAAF
:1000F000AA2ABECDCCCC4C3E00000080BEABAAAA42
:10010000AA3E00000000BF000000803F0000000089
:1001100000084178D3BB4387D1133D190E3CC3BDC2
:100120004282AD2B3E68EC8276BED98FE1A93E4C6F
:1001300080EFFFBE01C4FF7F3F00000000000C9471
:1001400068050C94E02F0C943F050C947C0B0C94E8
:100150006A070C946D0B0C94CA060C945E050C9403
:1001600076050C94F20B0C94C6100C94A2110C940E
:100170009D330C9455040C94F7060C9454050C9480
:100180006C0B0C9449050C94C30B0C947A050C94DD
:1001900051050C9445050C945A050C94B7070C9422
:1001A00020050C9428070C947F050C944D050C94A5
:1001B00006070C94960B0C949C060C941D050C944D
:1001C00084050C941A070C941F050C948F0B0C9447
:1001D000C9060C94770C0C9472050C9464050C946D
:1001E00080050C946C050C9464221F1C1F1E1F1E9E
:1001F0001F1F1E1F1E4602000000FF0800053E5B79
:100200004F5B3E053E6B4F6B3E051C3E7C3E1C0526
:10021000183C7E3C18051C577D571C051C5E7F5EF4
:100220001C0400183C1805FFE7C3E7FF040018246E
:100230001805FFE7DBE7FF0530483A060E052629DB
:1002400079292605407F05050705407F05253F05DF
:100250005A3CE73C5A057F3E1C1C0805081C1C3E06
:100260007F0514227F221405FFFFFFFFFF05F0F03A
:10027000F0F0F003FFFFFF05000000FFFF050F0F88
:100280000F0F0F0508047E04080510207E201005BE
:1002900008082A1C0805081C2A080805AA00550099
:1002A000AA05AA55AA55AA0530383E383005060ECB
:1002B0003E0E06020000015F0307000705147F14CD
:1002C0007F1405444AFF4A32056313086463053608
:1002D000494936480107033E41410341413E050873
:1002E0002A1C2A080508083E08080260E0040808DD
:1002F0000808026060056010080403053E51494586
:100300003E0304027F05714949494605414949496F
:1003100036050F0808087F054F49494931053E4910
:1003200049493005030101017F0536494949360530
:10033000064949493E026C6C026CEC030814220425
:100340001414141403221408050159090906053E62
:10035000415D594E057E0909097E057F49494936A7
:10036000053E41414141057F4141413E057F4949AB
:100370004941057F09090901053E41414979057F48
:100380000808087F03417F4105304141413F057F17
:1003900008142241057F40404040057F020C027F47
:1003A000057F0408107F053E4141413E057F090954
:1003B0000906053E4141617E057F0919294605462A
:1003C000494949310501017F0101053F4040403F56
:1003D000051F2040201F053F4038403F056314089B
:1003E0001463050304780403056151494543037F01
:1003F00041410503040810600341417F05040201E7
:100400000204048080808003010204043844447C98
:10041000047F4444380438444444043844447F044A
:100420003854545804047E05010418A4A47C047FA5
:10043000040478017D0384857C047F102844017FB7
:10044000057C04780478047C040478043844443837
:1004500004FC24241804182424FC047C0404080448
:100460005854543403047F04043C40407C041C2052
:10047000407C053C4030403C046C10106C041CA0D7
:10048000A07C046454544C0408364141017F04416B
:100490004136080402010201057F4141417F053ECA
:1004A00055555541053844443844057C2A2A3E14A4
:1004B000057E0202060605027E027E02056355499C
:1004C0004163053844443C0405407E201E20050657
:1004D000027E0202086313086463006060052A2A32
:1004E0002A2A2A03514A4403444A51050000FF01C5
:1004F0000303E080FF0536123624360302050202AC
:100500001818021010053040FF0101041F01011EE0
:10051000000000000901017F017F020C027F000042
:10052000000000000100017D0418247E2404447EA4
:10053000454105221C141C2205012A7C2A01017751
:10054000044E55553903020002077E81BDA5A581E1
:100550007E0326292F0508142A14220408080818E7
:1005600003080808077E81BD95A9817E0501010168
:1005700001010302050203242E2403191512031599
:10058000150A02020104F82040780506097F017F60
:10059000021818040080A0C003121F100326292689
:1005A0000522142A140808402F1008041E117C0884
:1005B000402F10080462554C0915553F1008041EC1
:1005C000117C053048484D4005781516147805789B
:1005D00014161578057A1514157A057816151679F6
:1005E000057815141578057814151478077E09090F
:1005F0007F494941059EA1612121057C545546440E
:10060000057C54564544057E55544546057C555455
:10061000454403457E4403447E4503467D460345E9
:100620007C4505087F49413E057C0A11227D05383D
:1006300044454638053844464538053A4544453A28
:1006400005384645463905384544453805221408DD
:100650001422057C625A463E053C4041423C053C22
:100660004042413C053C4241423C053C4140413C0A
:100670000502047A0502043F12120C057E49494E18
:1006800030043845467C043844467D043846457E6F
:10069000043A45467D043845447D04304A4D7A0786
:1006A00020545438545458049CA26222043855569D
:1006B000580438545659043856555A043855545924
:1006C00002017A027A0103027902030278020430FD
:1006D0004B4B3C047A090A710430494A30043048D3
:1006E0004A3104304A49320432494A3104394444D7
:1006F000390508082A08080438544C38043841429F
:10070000780438404279043842417A043A40407AC9
:100710000418A0A27904FC282810041AA0A07A00CA
:10072000002100240027002A002D003000330001A2
:10073000010000040107010A010000220025002831
:10074000002B002E003100340002010000050108DA
:10075000010B01000020002300260029002C002F9F
:100760000032000001000003010601090105050532
:1007700005070508080808020202020A0A08080418
:100780000404040101010101010101030303030346
:10079000030303040707070C0C0C0C0C0C0C0C02D5
:1007A00002020206060606060606060B0B0B0B0BDC
:1007B0000B0B0B01021020200808102040102040D5
:1007C0008002010201080402010102040810204015
:1007D0008080402010080402018004020180402033
:1007E000100804020108040201010204081020405C
:1007F00080010204081020408000000A0B02090C4E
:100800000D0E0807030401000000000000000000B6
:1008100000000000000000000000000000000000D8
:100820000000000000121110000000000000000095
:1008300000000000000000000000000000000000B8
:100840006422E02F11241FBECFEFD1E2DEBFCDBF67
:1008500000E00CBF12E0A0E0B2E0EEE8FDE600E050
:100860000BBF02C007900D92A03BB107D9F726E05D
:10087000A0EBB2E001C01D92AC35B207E1F714E085
:10088000C1E2D4E000E006C021970109802FFE01FB
:100890000E948733C032D10780E00807A9F70E9481
:1008A00057230C94B5360C9400002F923F924F9230
:1008B0005F926F927F928F929F92AF92BF92CF92F0
:1008C000DF92EF92FF920F931F93CF93DF93FC0180
:1008D000411551056105710521F441E050E060E0EA
:1008E00070E0848595850696958784872285338573
:1008F000E480F580821B930B95958795CBEADAEA25
:100900008C9FD0018D9FB00D9C9FB00D1124AE1512
:10091000BF0514F035872487C485D5854A835B835A
:100920006C837D83088119812F0124E1420E511CC3
:1009300084899589C817D90711F4158B048B84898C
:1009400095891201712C612C6F01AEE0CA0ED11C89
:100950006E147F040CF053C0DC01AD90BC90119775
:10096000CA15DB0511F40D931C93DC0112968D90D2
:100970009D90AD90BC90159784169506A606B70677
:1009800058F4D2014D915C91119759834883CD93CE
:10099000DC9340E050E0BA01D1012D903C90C816A4
:1009A000D90669F1DC014D905C90D201AD90BC900C
:1009B0001197CA15DB0511F40D931C93D201129601
:1009C0008D909D90AD90BC90159784169506A606C7
:1009D000B70658F4DC014D915C9111975983488317
:1009E000CD93DC9340E050E0BA01C414D50439F053
:1009F000D2018D919C91BFEF6B1A7B0AA9CFD101D7
:100A000012966D917D918D919C9115976683778358
:100A100080879187DF91CF911F910F91FF90EF9089
:100A2000DF90CF90BF90AF909F908F907F906F900E
:100A30005F904F903F902F9008950C945504089527
:100A400008958150823108F05AC0E82FF0E08827DD
:100A5000E35DFA4F8F4F0C9487334D0551053F05E9
:100A6000450549057F0554055A055E056405680579
:100A70006C05720576057F057A05800584058091F1
:100A800080008F77809380000895809180008F7D13
:100A9000F9CF80918000877FF5CF84B58F7784BDB3
:100AA000089584B58F7DFBCF8091B0008F778093C0
:100AB000B00008958091B0008F7DF9CF80919000B3
:100AC0008F77809390000895809190008F7DF9CF6B
:100AD00080919000877FF5CF8091A0008F778093E1
:100AE000A00008958091A0008F7DF9CF8091A00093
:100AF000877FF5CF809120018F7780932001089523
:100B0000809120018F7DF9CF80912001877FF5CFE3
:100B1000CF93DF93282F30E0F901E750F84F84910D
:100B2000F901ED54F84FD491F901E359F84FC4910C
:100B3000CC23A1F081110E942105EC2FF0E0EE0FF3
:100B4000FF1FED5AF84FA591B491EC91ED2381E090
:100B500090E009F480E0DF91CF91089580E090E08B
:100B6000FACF1F93CF93DF93282F30E0F901E7509E
:100B7000F84F8491F901ED54F84FD491F901E359FC
:100B8000F84FC491CC23A9F0162F81110E942105A2
:100B9000EC2FF0E0EE0FFF1FE75CF84FA591B4914A
:100BA0008FB7F894EC91111108C0D095DE23DC9337
:100BB0008FBFDF91CF911F910895DE2BF8CFCF9398
:100BC000DF9390E0FC01ED54F84F24918359984F46
:100BD000FC0184918823C9F090E0880F991FFC01E3
:100BE000E15EF84FA591B491FC01E75CF84FC59127
:100BF000D49161110DC09FB7F8948C9120958223F8
:100C00008C938881282328839FBFDF91CF910895FB
:100C1000623051F49FB7F8943C91822F80958323E2
:100C20008C93E8812E2BEFCF8FB7F894EC912E2B7D
:100C30002C938FBFEACF863308F0865320917B0038
:100C4000982F9870277F922B90937B0087708064F9
:100C500080937C0080917A00806480937A008091F8
:100C60007A0086FDFCCF80917800909179000895FC
:100C70003FB7F8948091C1039091C203A091C30340
:100C8000B091C40326B5A89B05C02F3F19F001966B
:100C9000A11DB11D3FBFBA2FA92F982F8827BC01D6
:100CA000CD01620F711D811D911D42E0660F771FFE
:100CB000881F991F4A95D1F708958F929F92AF92FE
:100CC000BF92CF92DF92EF92FF926B017C010E9464
:100CD00038064B015C01C114D104E104F104B9F000
:100CE0000E943806681979098A099B09683E734091
:100CF0008105910580F321E0C21AD108E108F108CD
:100D000088EE880E83E0981EA11CB11CE4CFFF90F2
:100D1000EF90DF90CF90BF90AF909F908F9008950D
:100D20002FB7F8946091BD037091BE038091BF030B
:100D30009091C0032FBF08950F931F930E94380610
:100D400000913E0310913F032091400330914103F5
:100D5000DC01CB01801B910BA20BB30B8D3D25E079
:100D60009207A105B10590F080933A0390933B035D
:100D7000A0933C03B0933D030E94380660933E036A
:100D800070933F0380934003909341031F910F9111
:100D900008950895AF92BF92CF92DF92EF92FF92A3
:100DA0000F931F93CF93DF936C017B018B01040F93
:100DB000151FEB015E01AE18BF08C017D10759F02F
:100DC0006991D601ED91FC910190F081E02DC60171
:100DD0001995892B79F7C501DF91CF911F910F915B
:100DE000FF90EF90DF90CF90BF90AF900895FC01FF
:100DF000538D448D252F30E0842F90E0821B930B80
:100E0000541710F0CF96089501970895FC01918D25
:100E1000828D981761F0A28DAE0FBF2FB11D5D9628
:100E20008C91928D9F5F9F73928F90E008958FEFCA
:100E30009FEF0895FC01918D828D981731F0828D7E
:100E4000E80FF11D858D90E008958FEF9FEF0895D5
:100E5000FC01918D228D892F90E0805C9F4F821B39
:100E600091098F73992708958EE394E00E942807D3
:100E700021E0892B09F420E0822F08958BED94E086
:100E80000E94280721E0892B09F420E0822F089591
:100E9000FC01A48DA80FB92FB11DA35ABF4F2C91EF
:100EA000848D90E001968F739927848FA689B789E6
:100EB0002C93A089B1898C91837080648C93938DDD
:100EC000848D981306C00288F389E02D80818F7D80
:100ED00080830895EF92FF920F931F93CF93DF9338
:100EE000EC0181E0888F9B8D8C8D98131AC0E88966
:100EF000F989808185FF15C09FB7F894EE89FF8935
:100F00006083E889F98980818370806480839FBFD2
:100F100081E090E0DF91CF911F910F91FF90EF90D2
:100F20000895F62E0B8D10E00F5F1F4F0F731127E2
:100F3000E02E8C8D8E110CC00FB607FCFACFE8891D
:100F4000F989808185FFF5CFCE010E944807F1CF56
:100F5000EB8DEC0FFD2FF11DE35AFF4FF0829FB791
:100F6000F8940B8FEA89FB8980818062CFCFCF9381
:100F7000DF93EC01888D8823B9F0AA89BB89E889C1
:100F8000F9898C9185FD03C0808186FD0DC00FB667
:100F900007FCF7CF8C9185FFF2CF808185FFEDCFE5
:100FA000CE010E944807E9CFDF91CF91089580E0FC
:100FB00090E0892B29F00E943E0781110E940000D9
:100FC00080E090E0892B29F00E94340781110E9473
:100FD000000080E090E0892B49F080E090E0892BD0
:100FE00029F00E94000081110E94000080E090E042
:100FF000892B49F080E090E0892B29F00E940000C5
:1010000081110C9400000895EF92FF920F931F93AB
:10101000CF93DF93EC0169813881432F50E02A811F
:10102000822F90E0EAEEF1E021E0261730F474918F
:10103000870F911D2F5F3196F8CF633018F0337012
:1010400009F401966DE671E0469F9001479F300DCF
:10105000569F300D1124215031094D5F5F4F569539
:10106000479556954795240F351F280F391FA8E13E
:10107000B0E00E9495312B817B018C01E20EF11CC6
:10108000011D111DA8019701ACE3B0E00E94683179
:101090002C817B018C01E20EF11C011D111DA801A8
:1010A00097010E946831AB01BC019D81892F90E0BE
:1010B000B0E0A0E080589C4BA249B74C8A019B014C
:1010C000080F191F2A1F3B1FC901B801DF91CF91DB
:1010D0001F910F91FF90EF9008958F929F92AF9282
:1010E000BF92CF92DF92EF92FF92CF93DF93EC010A
:1010F0006A017B0180E8C81A83E4D80A8DE6E80A11
:1011000088E3F80A8CE3882E912CA12CB12CC7011E
:10111000B601A50194010E9473316D83CA01B90122
:10112000A50194010E9473316C83C701B60120E1CF
:101130003EE040E050E00E947331CA01B90128E16D
:1011400030E040E050E00E9473316B83C701B6018C
:1011500020E831E541E050E00E947331188263E9F4
:101160007EEF8881982F937041E050E011F050E0BD
:1011700040E0FA01E359FE4F2E173F0740F0FB0114
:10118000E41BF50B2E0F3F1F8F5F8883EACF81E0B2
:10119000898389818C30A0F4482F4150550BFA0186
:1011A000E651FE4FE491911103C0823009F4EF5FE4
:1011B000F0E02E173F0720F02E1B3F0B8F5FE8CF8C
:1011C0002F5F2A83DF91CF91FF90EF90DF90CF9038
:1011D000BF90AF909F908F9008952091DB02260FD3
:1011E0003327331F21323105ECF420913804FC0100
:1011F00090E080E0243069F082E00895A091DB0265
:101200002191AC0145545D4FA40FB52FB11D2C9316
:101210000196861798F38091DB02680F6093DB02DA
:1012200080E0089581E008951092380481E0809371
:1012300017041092120461E084E10E94B10561E09C
:1012400085E10E94B105E9EBF0E080818E7F80832B
:1012500080818D7F808388E48093B80085E48093CB
:10126000BC0008951092CB031092CA031092CF03D2
:101270001092F1030E9414098FE195E09093C80346
:101280008093C70380E295E09093C6038093C503E3
:101290000895CF93DF9391E09093BA028823B9F039
:1012A000C091B800D091BA008091BC008A7B809335
:1012B000BC0060E084E10E94B10560E085E10E942D
:1012C000B1050E941409D093BA00C093B800DF9111
:1012D000CF9108958F929F92AF92BF92CF92DF925B
:1012E000EF92FF920F931F93CF93DF93D82FC62FC8
:1012F000142F613208F09CC00E9438066B017C01FB
:101300008091380481116FC081E08093380410937C
:1013100017049FEF90931604109215049C0F90935E
:1013200014048093130480911304DD0FD82BD09301
:10133000130480911204813009F07CC010921204D1
:101340000E9438066B017C01809113048093BB00DE
:1013500080913A0490913B04A0913C04B0913D04EB
:10136000892B8A2B8B2BA1F00E94380600913A041E
:1013700010913B0420913C0430913D046C197D098F
:101380008E099F09061717072807390708F44CC06C
:101390008091BC0083FDD8CF85EC8093BC000E9477
:1013A00038066B017C0180913804813009F444C017
:1013B000809115048C1710F4C0911504E2EFF3E04E
:1013C000A8E1B4E080E08C1359C08C2FDF91CF915D
:1013D0001F910F91FF90EF90DF90CF90BF90AF9053
:1013E0009F908F90089580913A0490913B04A09132
:1013F0003C04B0913D04892B8A2B8B2B09F480CFC0
:101400000E94380680903A0490903B04A0903C04DF
:10141000B0903D046C197D098E099F0986169706C8
:10142000A806B90608F06CCF809139040E944909DA
:10143000C0E0CBCF85EEB1CF80913A0490913B04D0
:10144000A0913C04B0913D04892B8A2B8B2B09F48D
:10145000AACF0E94380600913A0410913B042091D3
:101460003C0430913D046C197D098E099F090617D3
:1014700017072807390708F096CFD6CF91919D938B
:101480008F5FA1CF8F929F92AF92BF92CF92DF9248
:10149000EF92FF920F931F93CF93DF93D091F103BD
:1014A000D13208F0D7C0182FC091F0030E9438063F
:1014B0006B017C018091380481116BC082E08093C4
:1014C0003804109317048FEF8093160410921504BC
:1014D000D0931404A0EDB3E0E2EFF3E080E0D81382
:1014E00091C01092130480911304CC0FC82BC093A9
:1014F000130480911204813009F088C01092120404
:101500000E9438066B017C01809113048093BB001C
:1015100080913A0490913B04A0913C04B0913D0429
:10152000892B8A2B8B2BA1F00E94380600913A045C
:1015300010913B0420913C0430913D046C197D09CD
:101540008E099F09061717072807390708F442C0B4
:101550008091BC0083FDD8CF85EC8093BC000E94B5
:1015600038066B017C0180913804823009F450C048
:10157000809116048F3F09F46FC080911604803269
:1015800009F46CC080911604803309F469C084E0CA
:1015900026C080913A0490913B04A0913C04B09104
:1015A0003D04892B8A2B8B2B09F484CF0E943806AB
:1015B00080903A0490903B04A0903C04B0903D048D
:1015C0006C197D098E099F0986169706A806B9062B
:1015D00008F070CF809139040E94490985E010928B
:1015E000CF031092F1031092CE03DF91CF911F91A0
:1015F0000F91FF90EF90DF90CF90BF90AF909F90B2
:101600008F9008959D9191938F5F69CF85EEA5CFBF
:1016100080913A0490913B04A0913C04B0913D0428
:10162000892B8A2B8B2B09F49ECF0E9438060091C0
:101630003A0410913B0420913C0430913D046C1914
:101640007D098E099F09061717072807390708F033
:101650008ACFC0CF81E0C3CF80E0C1CF82E0BFCFCF
:1016600083E0BDCF8F3F11F48091460291E09093CB
:10167000CE038093F0031092CF031092F10381E028
:101680000E94420A91E0811190E0892F0895CF9342
:10169000DF93EC018B818823A1F0888191E0909306
:1016A000CE038093F0031092CF031092F10381E0F8
:1016B0000E94420A91E0811190E0892FDF91CF9141
:1016C00008950E94320981E08B83CE010E94470B6E
:1016D000982F8111E2CFF1CF0895E091CB03809153
:1016E000CA03E81730F4F0E0E85EFB4F808190E039
:1016F00008958FEF9FEF08959091CB038091CA03D7
:101700002FEF3FEF981748F4E92FF0E0E85EFB4F2A
:10171000208130E09F5F9093CB03C90108958091B1
:10172000CA039091CB03891B990B0895CF92DF9246
:10173000EF92FF920F931F93CF93DF937C01CB0126
:101740008A012091CE03222389F0EB016B01C40EA4
:10175000D51ECC15DD0569F06991D701ED91FC919D
:101760000190F081E02DC7011995F3CF642F0E94FD
:10177000ED08C801DF91CF911F910F91FF90EF907D
:10178000DF90CF900895CF93DF931F92CDB7DEB750
:1017900069832091CE032223F9F02091F1032032B6
:1017A00058F021E030E0FC013383228390E080E0B8
:1017B0000F90DF91CF9108958091CF03E82FF0E053
:1017C000E053FC4F998190838F5F8093CF03809388
:1017D000F10381E090E0ECCF61E0CE0101960E9440
:1017E000ED08F7CF90E080E00895CF93DF93EC0110
:1017F0002A813B81D901B595A795A80FB91FE8812A
:10180000F98120FF08C08D919C911197E80FF91F75
:101810000190F081E02DCD01DF91CF911994CF920D
:10182000DF92EF92FF920F931F93DC011C962D9194
:101830003C911D972A5F3F4F1D963C932E931C971A
:101840001A96ED91FC911B972E1B3F0B2D30310505
:1018500024F01D96FC93EE931C971C960D90BC9162
:10186000A02D12964D935D936D937C931597C6842E
:10187000D784E088F18800851185228533856281CF
:101880007381848195810617170728073907D0F0DF
:10189000C616D706E806F90650F0C701B6010617C6
:1018A000170728073907D0F4C901B80117C0601716
:1018B00071078207930790F0C016D106E206F3067F
:1018C00030F40CC0C016D106E206F30668F3C61663
:1018D000D706E806F90610F4C701B6011F910F916B
:1018E000FF90EF90DF90CF9008950C940F0CCF9263
:1018F000DF92EF92FF920E943806C0903303D0909F
:101900003403E0903503F09036036C197D098E099D
:101910009F096338764081059105C0F00E94380622
:101920006C197D098E099F0960932F037093300312
:1019300080933103909332030E94380660933303FF
:10194000709334038093350390933603FF90EF90A8
:10195000DF90CF900895E2E6F3E080E0919189274F
:1019600093E0E63BF907D1F78093B6030895E2E6EA
:10197000F3E08091AB029091AC02A091AD02B091E6
:10198000AE0280839183A283B3838CED95E095832F
:10199000848384E690E09783868380EA9FE0918742
:1019A00080879387828784EE9EE09587848783E291
:1019B00090E09787868789E091E0918B808B82E029
:1019C00090E0938B828B958B848B978B868B918FFA
:1019D000808F128E138E148E158E168E178E10A277
:1019E00011A212A213A214A215A281E086A39AE06A
:1019F00097A396E490A711A682A728E53BE134A718
:101A000023A715A616A617A610AA11AA12AA13AAEA
:101A100014AA15AA16AA17AA10AE11AE12AE13AECA
:101A200014AE15AE17AE16AE1092A3031092A20319
:101A30001092A4038093A5038CE390E09093A703F6
:101A40008093A60388E790E09093A9038093A8036E
:101A50008FEF9FEF9093AB038093AA0380E197E20F
:101A60009093AD038093AC031092AE031092AF033A
:101A70001092B0031092B10381E090E0A0E0B0E0DA
:101A80008093B2039093B303A093B403B093B503D0
:101A90000C94AB0C4F925F926F927F929F92AF9299
:101AA000BF92CF92DF92EF92FF920F931F93CF934B
:101AB000DF93F82FD62F843610F0D3E6F3E680912B
:101AC000B802EAE06E2F0E945333C82FA92FB0E06E
:101AD00020EA36E841E050E00E9468316B017C0169
:101AE0002C2F30E0A0E1B7E20E949531C60ED71E40
:101AF000E81EF91E8F2F6E2F0E945333492FC80EF8
:101B0000D11CE11CF11C8D2F0E945333582F292F1B
:101B100030E0A8EEB3E00E949531C60ED71EE81E55
:101B2000F91E252F30E0A4E6B0E00E949531C60EE4
:101B3000D71EE81EF91E242F30E0AAE0B0E00E9474
:101B40009531C60ED71EE81EF91E10910706A0900B
:101B50000806B12C0091FD059090EC05C12FD0E056
:101B6000CD51DA4F8AE0482E512C612C712C112373
:101B7000A9F11150E0E021E030E040E050E0E11751
:101B800040F4AAE0B0E00E9468319B01AC01EF5F35
:101B9000F6CFCE01835E9540C216D306E406F50665
:101BA00018F49A822197E3CFB50102C07595679525
:101BB0008A95E2F760FF10C0C701B6010E94733139
:101BC000CA01B901A30192010E9473316D517A4F8C
:101BD000FB0181858A83E6CF802FFCCFDF91CF91F7
:101BE0001F910F91FF90EF90DF90CF90BF90AF903B
:101BF0009F907F906F905F904F90089524E630E023
:101C0000B9010E947333482FCB01B9010E9473338D
:101C1000642F0C944A0DCF92DF92EF92FF92CF93F4
:101C2000DF93C4E6D0E08BE30E941B06BC01990F52
:101C3000880B990B0E9416309B01AC01C701B601BD
:101C40000E94A5316B017C01219769F720E030E00B
:101C500048EC52E40E94113220E030E74DE956E4AE
:101C60000E94753020E030EC4FE754E40E941132BE
:101C700020E030E040EA50E40E9475309B01AC0166
:101C800060E876E885EA97E40E94A431DF91CF917D
:101C9000FF90EF90DF90CF90089580E00895089531
:101CA0002F923F924F925F926F927F928F929F926C
:101CB000AF92BF92CF92DF92EF92FF920F931F935A
:101CC000CF93DF932B013C015A014901D0E0C0E0E2
:101CD0009BE8292E3324339484010C1B1D0B013205
:101CE000110510F000E210E0F090460280914E02E3
:101CF000882379F08FEFF8120AC0809146020E9483
:101D0000320B811106C0C1010197F1F7EFCF8F2D82
:101D1000F6CFA0914402B0914502E1E0E093CE03FA
:101D2000F092F0031092CF031092F103409147021A
:101D3000509148026091490270914A0241305840E6
:101D40006105710590F0B301A2014C0F5D1F611D8B
:101D5000711D9927872F762F652FED91FC91119793
:101D60000190F081E02DCD01199580914402909170
:101D70004502DC01ED91FC910190F081E02D6C2F8A
:101D8000640D199581E00E94420A41E0602F8F2D79
:101D90000E946A091092CB038093CA036501CC0E9E
:101DA000DD1E7601C7018C199D098017910778F413
:101DB0008091440290914502DC01ED91FC910284F6
:101DC000F385E02D1995F70181937F01EBCFC00FCB
:101DD000D11FC815D90508F47FCFDF91CF911F918E
:101DE0000F91FF90EF90DF90CF90BF90AF909F90BA
:101DF0008F907F906F905F904F903F902F900895BD
:101E00004F925F926F927F928F929F92AF92BF920A
:101E1000CF92DF92EF92FF920F931F93CF93DF93B6
:101E200000D000D01F92CDB7DEB78C011982A090F0
:101E3000CC03B090CD03D50114968D919C9115974C
:101E4000892B09F468C011968D919C9112972C9161
:101E500031E03093CE032093F0031092CF03109221
:101E6000F103DC01ED91FC910280F381E02D41E072
:101E700050E0BE016F5F7F4F1995019709F04BC08D
:101E800080E00E94420A811146C0D12CC12CB7E0EB
:101E90006B2E712CF501848195817301EC18FD087E
:101EA0008E159F0508F47C0141E0C3018E199F093E
:101EB000C816D90608F440E06E2DD5018C910E9419
:101EC0006A091092CB038093CA038E151F0419F57B
:101ED00088248394912C8C0E9D1E8C0C9D1C2401B7
:101EE000C401841995098E159F0570F4F50181814F
:101EF0009281DC01ED91FC910284F385E02D19952E
:101F0000F40181934F01ECCFCE0CDF1CF7E0CF162C
:101F1000D10408F4BFCFE981EF77FA81FB805D81BE
:101F20004E814F778F81282F30E094E035952795AB
:101F30009A95E1F7922F990F990F291B220F280FDD
:101F4000D8012C93842F90E024E0959587952A95CD
:101F5000E1F7982F990F990F891B880F840F11961D
:101F60008C931197652F70E034E0759567953A95DD
:101F7000E1F7862F880F880F681B660F650F129692
:101F80006C9312974F2D50E064E0559547956A95F4
:101F9000E1F7842F880F880F481B440F4F0D1396CD
:101FA0004C9313972F2F30E074E0359527957A9551
:101FB000E1F7822F880F880F281B220F2F0F14960E
:101FC0002C9314978E2F90E0F4E095958795FA95D1
:101FD000E1F7982F990F990F891B880F8E0F15968F
:101FE0008C93C80127960FB6F894DEBF0FBECDBF05
:101FF000DF91CF911F910F91FF90EF90DF90CF90E5
:10200000BF90AF909F908F907F906F905F904F9018
:102010000895EF92FF920F931F93CF93DF938091D8
:102020002D068823A1F080912306882361F08FB7C5
:10203000F89490912306913071F59DB39093C90364
:102040009DB39DBB8FBF80E58CBD81E08DBD60E001
:1020500080912C060E94B10580912D068823F1F015
:1020600030E020E08091300690E0880F991F28171B
:10207000390708F03DC0E0913306F0913406E20FD5
:10208000F31F80818EBD00000DB407FEFDCF8EB51D
:102090002F5F3F4FE7CF8093C903D5CFD0E0C0E09B
:1020A0008091300690E0880F991FC817D90700F576
:1020B000E0913306F0913406EC0FFD1F0081F090A3
:1020C0002B06E0902A0618E0602F661F6627661F21
:1020D0008E2D0E94B105000F61E08F2D0E94B10589
:1020E00060E08F2D0E94B105115071F72196D8CF75
:1020F00061E080912C060E94B10580912D06882315
:1021000071F080912306882351F09FB7F8942091B5
:1021100023068091C903213049F48DBB9FBFDF9115
:10212000CF911F910F91FF90EF9008958FBFF7CF40
:10213000EF92FF920F931F93CF93DF938C01D0E028
:10214000C0E0E62EF12CF80181A597010C2E02C00B
:10215000359527950A94E2F761E020FF60E00E9440
:10216000B10560E0F80180A50E94B10561E0F801C9
:1021700080A50E94B1052196C830D10521F7DF91D5
:10218000CF911F910F91FF90EF900895EF92FF92E2
:102190000F931F93CF93DF93EC018B01E42E61E04B
:1021A00088A50E94B10560E08FA10E94B1058BE473
:1021B00090E00197F1F7E00EF12EF11C0E151F05CE
:1021C00039F0F80161918F01CE010E949810F6CF8D
:1021D0008BE490E00197F1F761E08FA1DF91CF915F
:1021E0001F910F91FF90EF900C94B105CF93DF9367
:1021F00000D01F921F92CDB7DEB740E1649F9001DF
:102200001124622BFC01668F678F60A361A328E114
:1022100029836A836B836C836D8345E0BE016F5FA6
:102220007F4F0E94C6100F900F900F900F900F904D
:10223000DF91CF910895CF93DF9300D01F921F922B
:10224000CDB7DEB720E12983FC0124A121502A83E8
:10225000F0E16F9F90011124622BFC01638F648F6A
:10226000658F6B836C836D8345E0BE016F5F7F4F2D
:102270000E94C6100F900F900F900F900F90DF915B
:10228000CF910895CF93DF931F921F92CDB7DEB702
:10229000FC0161157105B1F4442391F08FEF83A324
:1022A00088E0898383A18A8342E0BE016F5F7F4F0C
:1022B000CF010E94C6100F900F90DF91CF9108952B
:1022C00013A2EECF83A1442319F0682B63A3E8CFB8
:1022D00060956823FBCFFC0144A1339620E04217B0
:1022E00019F011922F5FFBCF4F5FBC016E5F7F4FE4
:1022F0000C94C6100F931F93CF93DF931F92CDB70B
:10230000DEB78C018BE490E00197F1F7F8011282BF
:1023100062E0C8010E941B1162E0C8010E94F61031
:10232000C8010E946B118DE0898341E0BE016F5F9F
:102330007F4FC8010E94C6100F90DF91CF911F916F
:102340000F910895CF92DF92FF920F931F93CF9337
:10235000DF93EC01162F61E088A50E94B10560E0D3
:102360008FA10E94B10583E090E00197F1F7612F02
:102370006864CE010E94981062E089A50E94DF0582
:1023800010E000E0F12CCC24C394D12C60E088A5AF
:102390000E94B10561E088A50E94B10589A50E944F
:1023A0008805892B39F0C601002E01C0880F0A94D8
:1023B000EAF7F82A0F5F1F4F0830110539F783E05D
:1023C00090E00197F1F761E08FA10E94B10561E013
:1023D00089A50E94DF058F2DDF91CF911F910F916D
:1023E000FF90DF90CF900895E5E2F6E0438550E05E
:1023F000440F551F70E060E0868597850C94A736E2
:10240000DF92EF92FF920F931F93CF93DF9399E0A8
:10241000899F80011124F12CE12CC82FD0E0DD240C
:10242000D394DE0CE0913106F0913206E00FF11FFB
:10243000808590E00E2C02C0959587950A94E2F76E
:1024400080FF2DC00E94F411809130068150990BBD
:102450008C1B9D0B880F991F2091330630913406F9
:10246000820F931FFC01D082E0913106F091320679
:10247000E00FF11FEE0DFF1D40812091300621502D
:10248000330B2C1B3D0B220F331F80913306909191
:102490003406280F391FF90141830E940910FFEF0C
:1024A000EF1AFF0A88E0E816F10409F0B8CF80912E
:1024B000310690913206080F191FF8011086DF913E
:1024C000CF911F910F91FF90EF90DF9008952F9281
:1024D0003F924F925F926F927F929F92AF92BF9284
:1024E000CF92DF92EF92FF920F931F93CF93DF93E0
:1024F000262F582F5770D3E096958795DA95E1F7F8
:10250000E82FC091270630913006CC2309F485C00E
:10251000C0E0831708F060C039E0389F1001399F90
:10252000300C1124C12CD12C7601C3942601370123
:10253000052E04C0440C551C661C771C0A94D2F767
:10254000B42CF42DF09567E070E0651B710904C0B0
:10255000CC0CDD1CEE1CFF1C6A95D2F7AC2C3C2D7C
:102560003095B0E0A0E0622F70E007E010E0AD0130
:10257000E0903106F0903206E20CF31C209129061F
:10258000909028066B010A2E02C0D594C7940A9435
:10259000E2F7C0FE34C0222319F0A8014A1B5B0BEE
:1025A0004E0D5F1DEA012881FB2C9110FA2C2F297A
:1025B000EA0128831196A830B105C9F620913106A9
:1025C00030913206E101C20FD31F2FEF2887C0914F
:1025D0003906C11180C0C1E08C2FDF91CF911F91CE
:1025E0000F91FF90EF90DF90CF90BF90AF909F90B2
:1025F0007F906F905F904F903F902F90089522238F
:1026000019F0A8014A1B5B0B4E0D5F1DEA012881E2
:10261000FF2E9110F32E2F21CBCF8317E8F63091A8
:1026200028063323C1F02295622F70E09B01359577
:102630002795359527952373660F771F660F771FAC
:102640006C7C262B30E0B901759567956575220F76
:10265000331F2A7A262B39E0389FE001399FD00DAD
:102660001124A0913106B0913206AC0FBD1FE52EAA
:10267000F12C3091290667E070E06E197F09311165
:1026800001C0B701A60FB71F2C93A0913106B091DE
:102690003206AC0FBD1F18962C9118973091290661
:1026A000332399F0C7E0D0E0CE19DF0941E050E0D4
:1026B00060E070E004C0440F551F661F771FCA9585
:1026C000D2F7422B18964C9382CF41E001C0440FC1
:1026D0005A95EAF7F6CF20913006E21708F07BCF43
:1026E0000E94001279CF8F929F92AF92BF92CF92A9
:1026F000DF92EF92FF92CF93DF9300D000D000D013
:102700001F92CDB7DEB74B015C018AE0E7E6F2E04D
:10271000DE01119601900D928A95E1F7C50120EA3C
:1027200036E841E050E00E9473318AE0C82ED12C97
:10273000E12CF12CCA01B901A70196010E94733165
:1027400021E030E02C0F3D1F620F731FFB01608101
:1027500081E190E00E946712C501B40120E137E2F7
:1027600040E050E00E947331CA01B901A70196010F
:102770000E94733121E030E02C0F3D1F620F731F68
:10278000FB01608182E190E00E946712C501B40103
:1027900028EE33E040E050E00E947331CA01B901F5
:1027A000A70196010E94733121E030E02C0F3D1FFC
:1027B000620F731FFB01608183E190E00E9467124A
:1027C000C501B40124E630E040E050E00E947331DE
:1027D000CA01B901A70196010E94733121E030E0DE
:1027E0002C0F3D1F620F731FFB01608184E190E09D
:1027F0000E946712C501B401A70196010E947331BE
:102800004B01CA01B901A70196010E94733121E071
:1028100030E02C0F3D1F620F731FFB01608185E1CB
:1028200090E00E946712E1E0F0E0EC0FFD1FE80D80
:10283000F91D608186E190E02A960FB6F894DEBF1C
:102840000FBECDBFDF91CF91FF90EF90DF90CF9083
:10285000BF90AF909F908F900C946712EF92FF9271
:102860000F931F93CF93DF93FF24F394D0E0C0E046
:1028700001E010E0B9E0EB2E0E94F41198010C2E5B
:1028800002C0220F331F0A94E2F7E0E090E080914B
:102890003006E817E0F5EE9DB0011124A091310655
:1028A000B0913206A60FB71F18964C9150E0422304
:1028B0005323452B51F14E2F50E08150990B841B2F
:1028C000950B880F991FA0913306B0913406A80F7D
:1028D000B91FFC92A0913106B0913206A60FB71F26
:1028E000AC0FBD1F6C91809130068150990B841BF9
:1028F000950B880F991F4091330650913406840F31
:10290000951FDC0111966C9391E0EF5FC0CF9111A0
:102910000E9409102196F394C830D10509F0ACCF7C
:1029200080E099E020913006821758F4E09131065A
:10293000F0913206899FE00DF11D112410868F5F02
:10294000F1CFDF91CF911F910F91FF90EF900895FC
:10295000FF920F931F93CF93DF938A30910508F076
:1029600068C0EB018C01F09030060E94F41140E049
:102970005FEF5F0D0230110509F44EC088F40115B8
:102980001105E1F00130110509F43FC04F5F541704
:1029900088F7DF91CF911F910F91FF900C94091050
:1029A0000330110509F43FC00430110579F791E0B7
:1029B000209709F490E0919589E005C091E0209777
:1029C00009F090E08CE0642F70E0209130062150F7
:1029D000330B261B370B220F331FE0913306F09188
:1029E0003406E20FF31F8083209130062150330B11
:1029F000261B370B220F331F60913306709134066C
:102A0000260F371FF9019183C1CF9C2FC830D10504
:102A10000CF097E08BE0D7CF9C2FC031D1050CF0A4
:102A20009FE08AE0D0CF91E0209709F490E08FE01A
:102A3000CACF21E06130710509F020E00B9761F009
:102A4000209339066130710549F4DF91CF911F91D0
:102A50000F91FF900C942E1420933A06DF91CF91A2
:102A60001F910F91FF90089590913006915080E052
:102A700069E058E04FEF869F90011124A091310644
:102A8000B0913206A20FB31FFD01752F11927A95F6
:102A9000E9F7E0913106F0913206E20FF31F40872B
:102AA0008F5F981740F78091390681110C942E148E
:102AB00008958F929F92AF92BF92CF92DF92EF9242
:102AC000FF9285E40E941B06BC01990F880B990BAD
:102AD0000E9416306B017C01C0920703D09208035C
:102AE000E0920903F0920A0320E030E04AE754E460
:102AF0000E9475304B015C01A701960160E070EC0B
:102B00008FE794E40E94A4319B01AC01C501B4019C
:102B10000E9411322DE336EF4AE355E40E94113250
:102B20000E94C63220913502309136024091370220
:102B3000509138020E9411322FE03FEC4BE55BE3ED
:102B40000E94A5319B01AC0160E070E080E89FE34A
:102B50000E94113223E333E948E853E40E94A43190
:102B60006B017C0120E030E048E452EC0E940F3021
:102B700087FD33C020E030E048E453E4C701B601EC
:102B80000E94B93218164CF18090270390902803C8
:102B9000A0902903B0902A03A5019401C701B601B2
:102BA0000E94A4312DEC3CEC4CEC5DE30E947530AE
:102BB000A50194010E94A531609327037093280317
:102BC0008093290390932A03FF90EF90DF90CF909A
:102BD000BF90AF909F908F9008956AE979EF89E751
:102BE00094ECF2CF85ED8093BC0080913A049091F3
:102BF0003B04A0913C04B0913D040796A11DB11D7A
:102C000023E0B695A795979587952A95D1F72091BA
:102C1000BC0024FD03C010923804089540913A048A
:102C200050913B0460913C0470913D04452B462B30
:102C3000472B69F30097A105B10541F02AE22A95D7
:102C4000F1F700C00197A109B109E1CF80913904E2
:102C50000C944909CF92DF92EF92FF920F931F934A
:102C6000CF93DF93EB017B0125E5E20EF11C8B0195
:102C70006C01C61AD70AC601800F911F0E9433311A
:102C8000F80181938F01EE15FF05A9F7CE01DF91C1
:102C9000CF911F910F91FF90EF90DF90CF9008950B
:102CA0002F923F924F925F926F927F928F929F925C
:102CB000AF92BF92CF92DF92EF92FF920F931F934A
:102CC000CF93DF93CDB7DEB7C65BD1090FB6F894CB
:102CD000DEBF0FBECDBF0E94AB0C8091B90290E069
:102CE000982F8827BE016A5A7F4F8C5D9E4F0E94A5
:102CF0002A1645E550E062E673E0CE018A5A9F4FFE
:102D00000E949136892B21F48091FE0281118BC1A2
:102D1000F8948091FE02811152C18091B90290E035
:102D2000982F88279C012C5D3E4FCD54DF4F39836F
:102D30002883C35BD0402901032E000C6608770866
:102D40008091470290914802A0914902B0914A02B5
:102D5000B301A2014B5A5F4F6F4F7F4F481759077E
:102D60006A077B0708F4BEC0AC01421B530BCB546F
:102D7000DF4F59834883C55BD040A0914B02B0918F
:102D80004C02C555DF4FB983A883CB5AD0405F971B
:102D900044F0EEE1F0E0C555DF4FF983E883CB5A0C
:102DA000D04010E000E0CB54DF4F28813981C55B73
:102DB000D0400217130708F002C11901201A310A86
:102DC000C555DF4F48815981CB5AD0404215530534
:102DD0000CF41A0152E0251631040CF457C080910E
:102DE0004B0290914C02C355DF4F99838883CD5A93
:102DF000D0404C01B12CA12C73016201C00ED11E38
:102E0000E11CF11CC701B601A50194010E947331B8
:102E1000C155DF4F288339834A835B83CF5AD04023
:102E200091E0C91AD108E108F108B101032C000CA6
:102E3000880B990B6C0D7D1D8E1D9F1DA5019401A6
:102E40000E947331C155DF4FA881B981CF5AD0405C
:102E5000A217B307D8F44D01BFEF8B1A9B0AC355D5
:102E6000DF4FE881F981CD5AD0408E9E10018F9EB0
:102E7000300C9E9E300C1124CD54DF4F88819981F7
:102E8000C35BD040800F911F281A390AF090460288
:102E90008091470290914802A0914902B0914A0264
:102EA0000097A140B10560F0D301C201800F911FCE
:102EB000A11DB11D0097A140B10510F06894F2F872
:102EC00080914E028823B9F03FEF80914602F312C1
:102ED0008F2D0E94320B81110EC08BE891E001977B
:102EE000F1F7EECF85E590E0CB54DF4F99838883EF
:102EF000C55BD04042CFA0914402B091450241E071
:102F00004093CE03F092F0031092CF031092F1039E
:102F100040914702509148026091490270914A02E3
:102F2000413058406105710590F0B301A201400F96
:102F3000511F611D711D9927872F762F652FED91E8
:102F4000FC9111970190F081E02DCD0119958091B0
:102F5000440290914502DC01ED91FC910190F081D9
:102F6000E02D64E2600F1995F12C2F2D30E0221531
:102F70003305A4F48091440290914502200F311F43
:102F8000D901AE59BC4FFC0120813181F90120816A
:102F900031816C91F9011995F394E7CF81E00E949A
:102FA000420A020D131D80914E028111FCCE6091E8
:102FB0004D0270E090E080E00E945D06F4CE00914A
:102FC000B90210E0102F002747EBA42E43E0B42EE7
:102FD00052E6E52E53E0F52E0F531240D7019D9097
:102FE0007D016801CA0EDB1EC6010E9433319816AE
:102FF00021F0692DC6010E943B31AE14BF0471F768
:1030000078941091B902812F90E0982F8827BE0103
:103010006F5F7F4F8C5D9E4F0E942A161F5F13309B
:10302000E1F01093B902CA54DF4F0FB6F894DEBF37
:103030000FBECDBFDF91CF911F910F91FF90EF9009
:10304000DF90CF90BF90AF909F908F907F906F90C8
:103050005F904F903F902F9008951092B902E3CF68
:103060001F920F920FB60F9211242F933F938F93BD
:103070009F93AF93BF938091BD039091BE03A091A6
:10308000BF03B091C0033091BC0323E0230F2D3761
:1030900058F50196A11DB11D2093BC038093BD037B
:1030A0009093BE03A093BF03B093C0038091C1036C
:1030B0009091C203A091C303B091C4030196A11DD6
:1030C000B11D8093C1039093C203A093C303B09337
:1030D000C403BF91AF919F918F913F912F910F901A
:1030E0000FBE0F901F90189526E8230F0296A11D82
:1030F000B11DD2CF1F920F920FB60F9211240BB6B3
:103100000F922F933F934F935F936F937F938F9380
:103110009F93AF93BF93EF93FF938EE394E00E944E
:103120004807FF91EF91BF91AF919F918F917F9150
:103130006F915F914F913F912F910F900BBE0F9028
:103140000FBE0F901F9018951F920F920FB60F92FF
:1031500011240BB60F922F938F939F93EF93FF93AE
:10316000E0914E04F0914F048081E0915404F0917D
:10317000550482FD1DC09081809157048F5F8F732D
:1031800020915804821741F0E0915704F0E0E25C8E
:10319000FB4F958F80935704FF91EF919F918F91F3
:1031A0002F910F900BBE0F900FBE0F901F90189590
:1031B0008081F2CF1F920F920FB60F9211240BB69F
:1031C0000F922F933F934F935F936F937F938F93C0
:1031D0009F93AF93BF93EF93FF938BED94E00E9487
:1031E0004807FF91EF91BF91AF919F918F917F9190
:1031F0006F915F914F913F912F910F900BBE0F9068
:103200000FBE0F901F9018951F920F920FB60F923E
:1032100011240BB60F922F938F939F93EF93FF93ED
:10322000E091EB04F091EC048081E091F104F091E5
:10323000F20482FD1DC090818091F4048F5F8F7332
:103240002091F504821741F0E091F404F0E0E5529A
:10325000FB4F958F8093F404FF91EF919F918F9195
:103260002F910F900BBE0F900FBE0F901F901895CF
:103270008081F2CF1F920F920FB60F9211240BB6DE
:103280000F922F933F934F935F936F937F938F93FF
:103290009F93AF93BF93EF93FF938091B900887F83
:1032A000803609F44DC008F040C0883209F4A9C046
:1032B00028F5803109F49DC0C8F4882309F4FBC0C7
:1032C000883009F496C0FF91EF91BF91AF919F9123
:1032D0008F917F916F915F914F913F912F910F90BF
:1032E0000BBE0F900FBE0F901F901895883109F4F8
:1032F00088C0803241F78093160414C0803409F4EA
:103300009DC040F48033B9F38833E9F68093160406
:1033100085ECB0C0803509F485C0883509F496C0C5
:10332000883489F60E94F215CECF883909F48CC012
:1033300038F5883729F050F4883611F0803719F6BF
:1033400083E0809338041092FD0257C0883809F456
:103350007BC0803919F0803809F0B5CF8091FD022B
:10336000803208F071C0E091FD0281E08E0F809301
:10337000FD028091BB00F0E0E352FD4F80833DC031
:10338000803B39F0E0F4803A09F479C0883A09F0DA
:103390009ACF84E0809338041092DC021092DB0212
:1033A000E091C703F091C80319958091DB02811168
:1033B0000FC081E08093DB021092BB0209C0803C09
:1033C00009F4A6CF883C09F4A3CF883B09F07BCF52
:1033D000E091DC0281E08E0F8093DC02F0E0E554A6
:1033E000FD4F80818093BB009091DC028091DB02D5
:1033F00029C0809113048093BB0085EC8093BC00AE
:1034000062CF9091150480911404981758F5E091BB
:10341000150481E08E0F80931504F0E0EE50FC4F10
:103420008081E9CFE091150481E08E0F809315042F
:103430008091BB00F0E0EE50FC4F8083909115042A
:10344000809114049817C8F285E8D8CFE09115044C
:1034500081E08E0F809315048091BB00F0E0EE5068
:10346000FC4F80838091170481115CCF81E08093B1
:10347000120484EA8093BC001092380424CF85ECB7
:103480008093BC00109238048091FD02803230F4A9
:10349000E091FD02F0E0E352FD4F10826091FD02E9
:1034A00070E0E091C503F091C6038DED92E01995AF
:1034B0001092FD0208CF1092160434CF1F920F9283
:1034C0000FB60F9211240BB60F922F933F934F9389
:1034D0005F936F937F938F939F93AF93BF93CF939C
:1034E000EF93FF9390910601C0913903C0958091AD
:1034F00044038923C82390933903C0FF05C0E0919A
:103500001E02F0911F021995C1FF05C0E091200233
:10351000F09121021995C2FF05C0E0912202F091BD
:1035200023021995C3FF05C0E0912402F091250202
:103530001995C4FF05C0E0913B02F0913C0219953A
:10354000C5FF05C0E0912602F09127021995C6FF3C
:1035500005C0E0912802F09129021995C7FF05C026
:10356000E0912A02F0912B021995FF91EF91CF91F2
:10357000BF91AF919F918F917F916F915F914F918B
:103580003F912F910F900BBE0F900FBE0F901F9089
:1035900018951F920F920FB60F9211240BB60F922F
:1035A0002F933F934F935F936F937F938F939F934B
:1035B000AF93BF93CF93EF93FF939CB1809103019F
:1035C0009170880F892BC0913803C0959091430367
:1035D000C923C82380933803C0FF05C0E0911002BF
:1035E000F09111021995C1FF05C0E0911202F0910E
:1035F00013021995C2FF05C0E0911402F091150263
:103600001995C3FF05C0E0911602F09117021995B4
:10361000C4FF05C0E0913902F0913A021995C5FF47
:1036200005C0E0911802F09119021995C6FF05C076
:10363000E0911A02F0911B021995C7FF05C0E091B5
:103640001C02F0911D021995FF91EF91CF91BF914E
:10365000AF919F918F917F916F915F914F913F912A
:103660002F910F900BBE0F900FBE0F901F901895CB
:103670001F920F920FB60F9211240BB60F922F9339
:103680003F934F935F936F937F938F939F93AF93EA
:10369000BF93CF93EF93FF9393B1C0913703C0953E
:1036A000809142038923C82390933703C4FF05C048
:1036B000E0910002F09101021995C5FF05C0E0916B
:1036C0000202F09103021995C6FF05C0E0910402C1
:1036D000F09105021995C7FF05C0E0910602F0912F
:1036E00007021995C0FF05C0E0910802F091090298
:1036F0001995C1FF05C0E0910A02F0910B021995DE
:10370000C2FF05C0E0910C02F0910D021995C3FFB4
:1037100005C0E0910E02F0910F021995FF91EF9113
:10372000CF91BF91AF919F918F917F916F915F9159
:103730004F913F912F910F900BBE0F900FBE0F90A6
:103740001F9018951F920F920FB60F9211240BB66F
:103750000F922F923F924F925F926F927F928F9231
:103760009F92AF92BF92CF92DF92EF92FF920F9310
:103770001F932F933F934F935F936F937F938F93F9
:103780009F93AF93BF93EF93FF93CF93DF93CDB707
:10379000DEB76197DEBFCDBF8091B6029091B702D0
:1037A00001969093B7028093B6020E94380600916A
:1037B0003303109134032091350330913603601B9D
:1037C000710B820B930B603472448F409105A0F40F
:1037D00040912F0350913003609131037091320377
:1037E0008EE995E00E94F50B9B01AC01283E83E039
:1037F00038074105510518F420E030E0A901209375
:103800005A0330935B0340935C0350935D0321158F
:1038100031054105510509F440C060E472E48FE0D0
:1038200090E00E947331A0916803B09169030E94F7
:10383000683160935A0370935B0380935C039093A9
:103840005D032091B20321FF12C00E94143022E1D7
:1038500034E14FE15FE30E9475300E948A32609349
:103860005A0370935B0380935C0390935D036091B4
:103870005A0370915B0380915C0390915D0324E691
:1038800030E040E050E00E94733120935A033093BF
:103890005B0340935C0350935D03C0904A03D09058
:1038A0004B03E0904C03F0904D0360915A037091EC
:1038B0005B0380915C0390915D030E941430A7012B
:1038C00096010E94A43120E030E040E05FE30E94D6
:1038D0007530A70196010E94A53160934A03709349
:1038E0004B0380934C0390934D030E943806009144
:1038F0003E0310913F032091400330914103601B30
:10390000710B820B930BC12CD12C76016034724465
:103910008F40910570F440913A0350913B036091C0
:103920003C0370913D0384E895E00E94F50B6B0128
:103930007C01C0925003D0925103E0925203F09266
:10394000530340905E0350905F036090600370905B
:103950006103C114D104E104F10409F466C32090A9
:1039600088053090890500918E0510918F05F8012A
:1039700030E020E060E070E0CB012215330564F414
:1039800082809380A480B580680D791D8A1D9B1D5F
:103990002F5F3F4F3696F1CF9101032C000C440B63
:1039A000550B2E873F87488B598B0E9473314901F5
:1039B0005A01F0E0E0E01A861B861C861D86E2159F
:1039C000F305FCF4D80112966D917D918D919C9137
:1039D0001597681979098A099B099B01AC010E9416
:1039E00043332A853B854C855D85260F371F481F4D
:1039F000591F2A873B874C875D8731960A5F1F4F87
:103A0000DECF8090AA039090AB03B12CA12C6A85E5
:103A10007B858C859D852E853F85488959890E94A7
:103A20007331ECE05695479537952795EA95D1F790
:103A3000281539054A055B05A0F58091660390912C
:103A4000670364E670E00E945F334B0160E472E458
:103A50008FE090E0A70196010E947331D4010E948B
:103A60006831609350037093510380935203909395
:103A700053030E941430A30192010E94A4312DEC43
:103A80003CEC4CE45EE30E947530A30192010E947D
:103A9000A53160935E0370935F03809360039093FE
:103AA000610380914503882371F080918C0381111B
:103AB0000AC08EE20E94880561E0892B09F060E06F
:103AC0008EE20E94B10581E40E941B06BC01990FA1
:103AD000880B990B0E9416306B017C01C092070382
:103AE000D0920803E0920903F0920A0320E030E04C
:103AF0004CE553E40E9475304B015C01A70196012F
:103B000060E070EC8FE794E40E94A4319B01AC016B
:103B1000C501B4010E9411325B016C016091700318
:103B20007091710390E080E00E9414307B018C0161
:103B30009B01AC01B501C6010E940F3087FD14C086
:103B4000609172037091730390E080E00E941430E2
:103B50007B018C019B01AC01B501C6010E94B93209
:103B6000181614F0750186012DEC3CEC44E251E48A
:103B7000B701C8010E9475309B01AC0160E070E89C
:103B800082EA94E40E94A4314B015C0125E531EC0A
:103B900048EA5CE3B701C8010E9475309701A801AB
:103BA0000E9475309B01AC01C501B4010E94A53192
:103BB00020E030E04AE754E40E9411329B01AC015E
:103BC00060E070E080E89FE30E94A4314B015C015B
:103BD000C0900303D0900403E0900503F090060327
:103BE000AC019B0160E070E080E89FE30E94A4319B
:103BF000A70196010E94A43120910F033091100378
:103C000040911103509112030E947530A701960153
:103C10000E94A5316A877B878C879D876093030309
:103C2000709304038093050390930603C090FF02F2
:103C3000D0900003E0900103F0900203A7019601E9
:103C4000C501B4010E94A43120910B0330910C03F3
:103C500040910D0350910E030E947530A70196010B
:103C60000E94A5316B017C01C092FF02D09200033B
:103C7000E0920103F09202030E94900600912B0350
:103C800010912C0320912D0330912E03601B710B9A
:103C9000820B930B613477478B41910590F00E9422
:103CA000900660932B0370932C0380932D039093C5
:103CB0002E03C092B002D092B102E092B202F09212
:103CC000B30280E40E941B06BC01990F880B990B7C
:103CD0000E9416306B017C0120E030E04CE553E49B
:103CE0000E9475304B015C01A701960160E070EC09
:103CF0008FE794E40E94A4319B01AC01C501B4019B
:103D00000E94113220E030E04AE754E40E94113270
:103D10000E94C6322091350230913602409137021E
:103D2000509138020E941132C0901F03D09020039E
:103D3000E0902103F09022032FE03FEC4BE55BE3A2
:103D40000E94A5319B01AC0160E070E080E89FE338
:103D50000E94113223E333E948E853E40E94A4317E
:103D6000A70196010E94A43120911B0330911C03EE
:103D700040911D0350911E030E947530A7019601CA
:103D80000E94A53160931F03709320038093210349
:103D90009093220384E40E941B06BC01990F880BB8
:103DA000990B0E9416306B017C0120E030E04CE55D
:103DB00053E40E9475304B015C01A701960160E05D
:103DC00070EC8FE794E40E94A4319B01AC01C50123
:103DD000B4010E94113220E030E04AE754E40E942E
:103DE00011320E94C632209131023091320240914C
:103DF0003302509134020E941132C0902303D090BC
:103E00002403E0902503F09026032FE03FEC4BE5E0
:103E10005BE30E94A5319B01AC0160E070E080E8AB
:103E20009FE30E94113223E333E948E853E40E9400
:103E3000A431A70196010E94A4312091170330916B
:103E400018034091190350911A030E947530A7017D
:103E500096010E94A53160932303709324038093FD
:103E600025039093260385E40E941B06BC01990F4D
:103E7000880B990B0E9416306B017C01C0920703DE
:103E8000D0920803E0920903F0920A0320E030E0A8
:103E90004AE754E40E9475304B015C01A70196018A
:103EA00060E070EC8FE794E40E94A4319B01AC01C8
:103EB000C501B4010E9411322DE336EF4AE355E407
:103EC0000E9411320E94C63220912D0230912E02A2
:103ED00040912F02509130020E941132C09027036E
:103EE000D0902803E0902903F0902A032FE03FECC4
:103EF0004BE55BE30E94A5319B01AC0160E070E003
:103F000080E89FE30E94113223E333E948E853E459
:103F10000E94A431A70196010E94A43120911303AD
:103F20003091140340911503509116030E9475308F
:103F3000A70196010E94A53160932703709328037F
:103F40008093290390932A038FE30E941B068C0120
:103F50008FE30E941B06080F191F8FE30E941B06A8
:103F6000080F191F8FE30E941B06080F191F8FE30C
:103F70000E941B06080F191F8FE30E941B06080FE3
:103F8000191F8FE30E941B06800F911F813243E0AF
:103F9000940748F473E0969587957A95E1F79093A6
:103FA0004903809348038091B4029091B502019631
:103FB0009093B5028093B402049709F088C0809072
:103FC0004A0390904B03A0904C03B0904D03C50161
:103FD000B4010E948A326B01F12CE12CE091DD05E5
:103FE0005091D3055E872090C20506E010E00E1BBD
:103FF000110907541A4F6AE0462E512C612C712C7E
:10400000EE2309F440C033243A943E0EF0E021E060
:1040100030E040E050E0F315D8F4AAE0B0E00E94B0
:1040200068319B01AC01FF5FF6CFA301920160E014
:1040300070E0CB010E94A43120E030E040E05FE37B
:1040400022CDEE85D801EC930F5F1F4FE32DD8CF23
:10405000C216D306E406F50628F4E13091F7D8013C
:104060002C92F2CFC701B6010E947331CA01B90187
:10407000A30192010E94733167547A4FFB0181853D
:10408000D8018C93E1CFC0905403D0905503E090B9
:104090005603F0905703A7019601C501B4010E9491
:1040A000A4312AE037ED43E25CE30E947530A701BA
:1040B00096010E94A5316093540370935503809339
:1040C0005603909357031092B5021092B402609178
:1040D0005E0370915F0380916003909161030E9481
:1040E0008A3229E0E1E7F2E0DE01119601900D92BB
:1040F0002A95E1F7B12CA12C9B01A50160E070E0AD
:1041000080E090E005E00E94663419012A013B013D
:104110004C0128E5A22E3BE1B32EC12CD12CE12C81
:10412000F12C00E010E091010E9491332E8740ECC9
:10413000A42E5AEDB52E9101A201B301C4010E9433
:104140009133022F132F0730110514F006E010E011
:1041500092E0F92E6801BFEFCB1ADB0A8F2D90E0B9
:10416000C816D9062CF06FEF0E946712F394F6CFB1
:1041700083E0800FE82EF12CE5E0EE1540F060E0E2
:10418000C7010E946712FFEFEF1AFF0AF5CF2E85D5
:10419000277030E040E050E060E070E080E090E0C8
:1041A000A1E00E947F34E1E0F0E0EC0FFD1FE20FA0
:1041B000F31F6081C80102960E9467128091470335
:1041C000882351F06FEF86E090E00E9467126FEF56
:1041D00087E090E00E94671260912C0270E090E00E
:1041E00080E00E9414302A853B854C855D850E94C5
:1041F00075306B017C018091B20382FF80C02DE895
:1042000031E447E85EE3C701B6010E9475306B01F7
:104210007C0120E030E0A9010E940F3087FD8DC0B5
:1042200020E030E046EC52E4C701B6010E94B9320A
:1042300018160CF484C0C701B6010E948A3262309D
:1042400008F077C08091050180628093050160933A
:10425000B8020091A6031091A703B80190E080E096
:104260000E9414309B01AC0160911F0370912003E8
:1042700080912103909122030E94A4316B017C0163
:104280006091A8037091A903601B710B90E080E01E
:104290000E9414309B01AC01C701B6010E9411328B
:1042A00020E030E040E851E40E9475300E94833203
:1042B00010E077FD06C06131710514F060E170E037
:1042C000162F85E0EAE7F2E0DE01119601900D92EB
:1042D0008A95E1F7E12EF12CF694E794F694E794B1
:1042E00008E0670127E0C20ED11C802F90E0C816BD
:1042F000D9063CF16FEF0E9467120F5FF6CF20E006
:1043000030E0A901C701B6010E940F3087FD15C03A
:1043100020E030E046EC52E4C701B6010E94B93219
:1043200018166CF0C701B6010E948A326A3008F490
:1043300089CF809105018F7D88CF60E083CF63E6D0
:10434000F8CFE12FE370EC0FFD2FF11DD2806D2D22
:10435000C70108960E94671209E00E0D10E00C30AC
:1043600038F460E0C8010E9467120F5F1F4FF7CF5B
:1043700060E034E0E316F10409F46D2D8CE090E088
:104380000E94671260E08DE090E00E94671260E09A
:104390008EE090E00E94671260E08FE090E00E9463
:1043A000671261960FB6F894DEBF0FBECDBFDF91E6
:1043B000CF91FF91EF91BF91AF919F918F917F919D
:1043C0006F915F914F913F912F911F910F91FF90AE
:1043D000EF90DF90CF90BF90AF909F908F907F90A5
:1043E0006F905F904F903F902F900F900BBE0F906B
:1043F0000FBE0F901F901895CF93DF93EC01862F7F
:1044000092E1E5E5F2E0DE01199601900D929A95B0
:10441000E1F79FEF9DA390E19EA396E09CA323E884
:1044200032E0398328836FA327E028A799A761E0AA
:104430000E94DF0561E088A50E94DF0561E089A593
:104440000E94DF0561E08FA10E94B10561E088A5AF
:104450000E94B10560E089A5DF91CF910C94B10570
:10446000CF93DF93EC01198218821B821A821D827E
:104470001C8261E070E090E080E00E94B03500971F
:10448000A1F0998388831B821A822C813D81232B82
:1044900011F4FC0110821D821C826FEA72E0888197
:1044A0009981DF91CF910C94AE36888199810097E4
:1044B00011F00E942735198218821D821C821B82EE
:1044C0001A82DF91CF910895CF93DF93EEE3F4E06A
:1044D0001382128288EE93E0A0E0B0E0848395839B
:1044E000A683B7832BE832E0318320834DEC50E084
:1044F000558744874CEC50E05787468748EC50E09E
:10450000518B408B49EC50E0538B428B4AEC50E08E
:10451000558B448B4EEC50E0578B468B118E128E90
:10452000138E148EEBEDF4E0138212828483958354
:10453000A683B7833183208325EC30E03587248739
:1045400024EC30E03787268720EC30E0318B208B5D
:1045500021EC30E0338B228B22EC30E0358B248B46
:1045600026EC30E0378B268B118E128E138E148E34
:10457000E8E7F5E01382128284839583A683B783EC
:104580008DE992E091838083C4E8D5E085E090E0F6
:104590009D838C838EE190E00E948B349B878A8779
:1045A0009D878C871F861E86188A198A1A8A1B8AFD
:1045B00082E995E09D8B8C8B1E8A1F8A188E198E3E
:1045C0008DE195E0998388831B821A82CEE9D5E03C
:1045D0008CE090E09D838C8388E490E00E948B3493
:1045E0009B878A879D878C871F861E86188A198AD3
:1045F0001A8A1B8A8CEA95E09D8B8C8B1E8A1F8AF7
:10460000188E198E85E594E0998388831B821A821F
:1046100086E496E00E9430228CE496E00E943022EC
:1046200082E596E00E943022E5E2F6E08CE08583A8
:104630008AE086838BE08783108688EB95E09287FB
:10464000818784E0838781E0848B118210821282CB
:104650008383148269E083EE95E00E94FC2168E088
:1046600089EB95E00E94FC2140E853E46DE678E395
:1046700087E196E00E946D0840E853E46DE678E338
:104680008DE196E00E946D0840E853E46DE678E322
:1046900081E196E00E946D0810920D0610920E06C0
:1046A00010920F0610921006DF91CF910895CF93CC
:1046B000DF93CDB7DEB765970FB6F894DEBF0FBEB8
:1046C000CDBF789484B5826084BD84B5816084BD9B
:1046D00085B5826085BD85B5816085BD80916E00A0
:1046E000816080936E0010928100809181008260D1
:1046F000809381008091810081608093810080910E
:1047000080008160809380008091B10084608093FC
:10471000B1008091B00081608093B00080919100E1
:1047200082608093910080919100816080939100DC
:10473000809190008160809390008091A1008260C0
:104740008093A1008091A10081608093A10080915D
:10475000A00081608093A0008091210182608093FD
:1047600021018091210181608093210180912001AC
:1047700081608093200180917A00846080937A0028
:1047800080917A00826080937A0080917A008160C3
:1047900080937A0080917A00806880937A001092EA
:1047A000C10010925A0310925B0310925C031092A6
:1047B0005D03109250031092510310925203109215
:1047C000530310924A0310924B0310924C03109221
:1047D0004D0310925E0310925F03109260031092DB
:1047E000610361E089E20E94DF0561E088E20E94E6
:1047F000DF0561E089E20E94B10561E088E20E9484
:10480000B10564E670E080E090E00E945D060E94E1
:1048100032098091CC039091CD03009711F00E9452
:10482000273586E090E00E948B348C0188E6D80121
:104830008C93F8E7CF2EF5E0DF2E1296DC92CE9225
:10484000119713961C92139780E290E015969C9313
:104850008E9314971093CD030093CC030E943209DA
:10486000FF24F394F801F382C8010E94470B809360
:10487000B7031092FE020E94B70C0E943209D09238
:104880004502C092440280E5809346028FEF0E9469
:10489000320B81117FC1F092FE0280E293E090938F
:1048A0003F0280933E0274E2E72EFF24F39410E06F
:1048B00000E0E6EBCE2EE3E0DE2E62E673E0C70119
:1048C0000E942A16E2E6F3E080E091918927CE1655
:1048D000DF06D9F79091B6038913E0C188EC90E028
:1048E0000130110539F084E690E00230110511F431
:1048F0008CE291E090933F0280933E0280913E02D1
:1049000090913F028032934041F40E94B70C0E9484
:1049100050160E9450160E945016E0918F0324E01A
:10492000E29FF0011124EE59FC4F86A997A9A0AD92
:10493000B1AD8093540390935503A0935603B09365
:1049400057038091B703882309F45BC0CE01019619
:104950000E94000F86E0FE013196A7E1B6E00190CB
:104960000D928A95E1F78091A0039091A1031CE339
:10497000189F7001199FF00C112487E196E00E94A6
:104980000408AB01BC014E195F0961097109CE0130
:1049900001960E946D0886E0FE013196A7E1B6E01F
:1049A00001900D928A95E1F7CE0101960E94000FC9
:1049B00086E0FE013196ADE1B6E001900D928A9558
:1049C000E1F78091A2039091A303189F7001199FB2
:1049D000F00C11248DE196E00E940408AB01BC01AB
:1049E0004E195F0961097109CE0101960E946D0897
:1049F00086E0FE013196ADE1B6E001900D928A9518
:104A0000E1F780912D06882309F450C11FB7F8946F
:104A100080912406811127C0E2EAF7E08491E8EE54
:104A2000F7E09491E82FF0E0EE0FFF1FE15EF84F02
:104A3000A591B491EC91E92321F461E085E30E9412
:104A4000B10561E085E30E94DF058CB580618CBD16
:104A50008CB580648CBD61E084E30E94DF0561E079
:104A600083E30E94DF05809124068F5F80932406F4
:104A70001FBF61E080912C060E94DF0561E08091FC
:104A80002C060E94B105109236061092350610923F
:104A900038061092370680913B0690913C06855F60
:104AA000914009F428C1E5EFF1E0F0933C06E09372
:104AB0003B0610923D0688E080933E061092410628
:104AC000109240068FEF90E0909343068093420649
:104AD0001092450610924406E491E63409F033C082
:104AE000E6EFF1E0E491E13009F4EBC082E090E020
:104AF000E23029F5E7EFF1E08491E8EFF1E0E491AD
:104B000090E0982F88278E0F911D909341068093F7
:104B10004006E9EFF1E08491EAEFF1E0E49190E002
:104B2000982F88278E0F911D9093430680934206FD
:104B3000EBEFF1E0E491E0933E0687E090E09093A4
:104B4000450680934406C0904406D0904506F12C5B
:104B5000E12C20914006309141064091420650914F
:104B6000430660E04217530708F4C3C0F601EB5058
:104B7000FE4F8491681708F4682F90E0B0E0A0E041
:104B80000196A11DB11DC80ED91EEA1EFB1E2F5F86
:104B90003F4FE8CF84EF91E090933F0280933E0235
:104BA00060E2C62EDD24D394E12CF12C26013701DE
:104BB0003FEF431A530A630A730A4601570142E062
:104BC000840E911CA11CB11CD701C6010396A11D26
:104BD000B11D8E879F87A88BB98B1AE021E030E04A
:104BE000AE01435F5F4FC701B6010E94500E21E046
:104BF00030E0AE01445F5F4FC301B2010E94500E2E
:104C000021E030E0AE01455F5F4FC501B4010E9475
:104C1000500E21E030E0AE014F5F5F4F6E857F8523
:104C2000888999890E94500E8D85843459F48C8529
:104C3000893441F48B85873429F48981893411F4CE
:104C40000C94AD2F115051F69FEFD91AE90AF90AC9
:104C5000A0E2CA16A4E0DA06E104F10409F0A6CF46
:104C600004E211E086EBE82E83E0F82E62E673E0C2
:104C7000C8010E942A16E2E6F3E080E091918927BC
:104C8000EE16FF06D9F79091B603891709F43FCEC7
:104C900013950432B4E01B0749F739CE0F5F1F4F5D
:104CA000F3940330110509F008CE28CE61E080911D
:104CB0002A060E94DF0561E080912B060E94DF0535
:104CC000D8CEE7EFF1E0E491F0E0F0934106E09315
:104CD0004006E8EFF1E0E491F0E0F0934306E09362
:104CE0004206E9EFF1E0E491E0933E0685E090E0D2
:104CF00026CF60933F061091300649E0149FC00113
:104D000011240E948B347C019093320680933106EB
:104D1000812F90E0880F991F0E948B349093340666
:104D200080933306892B71F1EF2861F170E060E028
:104D300083E090E00E94A81467E070E081E090E0DA
:104D40000E94A81467E070E082E090E00E94A8143E
:104D500070E060E084E090E00E94A8140E943415A6
:104D600070E060E090E080E00E94A81470E060E0F5
:104D70008BE090E00E94A81461E070E08AE090E08F
:104D80000E94A81470E060E08AE090E00E94A814FD
:104D90000E94341510E410930506BFE3DB2ED09279
:104DA000EC0506E0E02EE092ED058BE98093EE0540
:104DB0008FE88093EF0586EA8093F0058DEA809373
:104DC000F1058DEB8093F20587E0F82EF092F30564
:104DD0008FEB8093F4058FEA8093F50587EB809342
:104DE000F6058CEB8093F70509E30093F8058EE94F
:104DF0008093F90589EB8093FA0581EB8093FB059D
:104E0000E0910906F0E0ED51FA4F90E8C92EC18615
:104E100083EE95E00E947A1162E083EE95E00E94B5
:104E20001B1161E083EE95E00E94F61083EE95E0A1
:104E30000E946B1140E070E060E083EE95E00E941C
:104E40004211C092DB05D092C205E092C3058BE50A
:104E50008093C4058FE48093C50586E68093C605DC
:104E60008DE68093C7058DE78093C805F092C9054C
:104E70008FE78093CA058FE68093CB0587E7809301
:104E8000CC058CE78093CD050093CE058EE580930D
:104E9000CF0589E78093D00581E78093D105E09124
:104EA000DF05F0E0E754FA4F118789EB95E00E94A7
:104EB0007A1162E089EB95E00E941B1162E089EBB8
:104EC00095E00E94F61089EB95E00E946B1140E09E
:104ED00070E060E089EB95E00E94421161E088E1BA
:104EE0000E94DF0561E089E10E94DF0561E08AE15F
:104EF0000E94DF058091040180628093040180910B
:104F000005018F7D8093050180910401806180936C
:104F10000401809105018F7E809305011092470363
:104F200060E087E30E94DF0560E088E30E94DF0520
:104F300060E08FE30E94DF0560E080E40E94DF050F
:104F400060E081E40E94DF0560E084E40E94DF0508
:104F500060E085E40E94DF050E94900660932B03C9
:104F600070932C0380932D0390932E03109249038A
:104F70001092480360916A0370916B0390E080E0A7
:104F80000E9414304B015C018092350290923602EF
:104F9000A0923702B092380260916C0370916D0359
:104FA00090E080E00E9414306E877F87888B998B19
:104FB00060933102709332028093330290933402F3
:104FC00060916E0370916F0390E080E00E94143056
:104FD0002B013C0140922D0250922E0260922F0232
:104FE00070923002609174037091750390E080E0DC
:104FF0000E9414302AE037ED43E25CE30E947530F2
:1050000060931B0370931C0380931D0390931E03F6
:10501000609176037091770390E080E00E941430F5
:105020002AE037ED43E25CE30E9475302DEC3CEC66
:105030004CEC5DE30E947530609317037093180386
:105040008093190390931A03609178037091790308
:1050500090E080E00E9414302AE037ED43E25CE308
:105060000E9475302DEC3CEC4CEC5DE30E947530F9
:1050700060931303709314038093150390931603A6
:1050800060917A0370917B0390E080E00E9414307D
:105090002AE037ED43E25CE30E9475306B017C014E
:1050A0002FE832EC45EF5CE30E94753060930F030C
:1050B0007093100380931103909312032AE037ED4D
:1050C00043E25CE3C701B6010E94753060930B03B5
:1050D00070930C0380930D0390930E0380918A03C9
:1050E00080932C0204E610E080E40E941B06BC01C1
:1050F000990F880B990B0E9416302091070330916D
:1051000008034091090350910A030E94A53160935E
:105110000703709308038093090390930A030150D7
:10512000110911F720E030E048EC52E40E941132FE
:105130006B017C01C0920703D0920803E09209033F
:10514000F0920A0320E030E04CE553E40E94753011
:105150006A8B7B8B8C8B9D8BA701960160E070EC3A
:105160008FE794E40E94A4319B01AC016A897B899A
:105170008C899D890E94113220E030E04AE754E496
:105180000E9411320E94C632A50194010E94113280
:105190002FE03FEC4BE55BE30E94A5319B01AC01A6
:1051A00060E070E080E89FE30E94113223E333E97E
:1051B00048E853E40E94A43160931F0370932003D6
:1051C000809321039093220304E610E084E40E947C
:1051D0001B06BC01990F880B990B0E941630209179
:1051E0000703309108034091090350910A030E947C
:1051F000A53160930703709308038093090390938C
:105200000A030150110911F720E030E048EC52E4A4
:105210000E9411326B017C01C0920703D0920803F7
:10522000E0920903F0920A0320E030E04CE553E4F9
:105230000E9475304B015C01A701960160E070ECA3
:105240008FE794E40E94A4319B01AC01C501B40135
:105250000E94113220E030E04AE754E40E9411320B
:105260000E94C6322E853F85488959890E94113295
:105270002FE03FEC4BE55BE30E94A5319B01AC01C5
:1052800060E070E080E89FE30E94113223E333E99D
:1052900048E853E40E94A4316093230370932403ED
:1052A00080932503909326030CE211E081E40E9491
:1052B0001B06BC01990F880B990B0E941630209198
:1052C0000703309108034091090350910A030E949B
:1052D000A5316093070370930803809309039093AB
:1052E0000A030150110911F720E030E046E953E4C8
:1052F0000E9411326B017C01C0920703D092080317
:10530000E0920903F0920A0320E030E04CE553E418
:105310000E9475304B015C01A701960160E070ECC2
:105320008FE794E40E94A4319B01AC01C501B40154
:105330000E9411325B016C016091700370917103E6
:1053400090E080E00E9414307B018C019B01AC0155
:10535000B501C6010E940F3087FD14C06091720331
:105360007091730390E080E00E9414307B018C0107
:105370009B01AC01B501C6010E94B932181614F0A8
:10538000750186012DEC3CEC44E251E4B701C80103
:105390000E9475309B01AC0160E070E882EA94E401
:1053A0000E94A4314B015C0125E531EC48EA5CE345
:1053B000B701C8010E9475309701A8010E9475309D
:1053C0009B01AC01C501B4010E94A53120E030E091
:1053D0004AE754E40E9411329B01AC0160E070E0A6
:1053E00080E89FE30E94A4316B017C01AC019B012A
:1053F00060E070E080E89FE30E94A43160930303C3
:10540000709304038093050390930603C092FF02F8
:10541000D0920003E0920103F092020304E610E050
:1054200085E40E941B06BC01990F880B990B0E9412
:1054300016302091070330910803409109035091E1
:105440000A030E94A53160930703709308038093B9
:10545000090390930A030150110911F720E030E08D
:1054600048EC52E40E9411326B017C01C0920703A8
:10547000D0920803E0920903F0920A0320E030E0A2
:105480004AE754E40E9475304B015C01A701960184
:1054900060E070EC8FE794E40E94A4319B01AC01C2
:1054A000C501B4010E9411322DE336EF4AE355E401
:1054B0000E9411320E94C632A30192010E94113251
:1054C0002FE03FEC4BE55BE30E94A531609327039F
:1054D000709328038093290390932A0380910401F9
:1054E000877F8093040187E79CE090933A02809342
:1054F0003902809143038061809343039CB1809182
:1055000003019170880F892B8093380380916C0080
:10551000806180936C008091680082608093680055
:1055200078940E9438066093330370933403809319
:1055300035039093360310922F031092300310928C
:1055400031031092320340E050E0BA018EE995E059
:105550000E94F50B40E050E0BA018EE995E00E9410
:10556000F50B40E050E0BA018EE995E00E94F50BA2
:1055700040E050E0BA018EE995E00E94F50B40E072
:1055800050E0BA018EE995E00E94F50B62E082E4FA
:105590000E94DF058CE996E090933C0280933B02E9
:1055A000809144038061809344038091060180933D
:1055B000390380916D00806180936D008091680057
:1055C00084608093680078940E94380660933E035C
:1055D00070933F03809340039093410310923A03EA
:1055E00010923B0310923C0310923D0340E050E0C8
:1055F000BA0184E895E00E94F50B40E050E0BA0162
:1056000084E895E00E94F50B40E050E0BA0184E8A0
:1056100095E00E94F50B40E050E0BA0184E895E087
:105620000E94F50B40E050E0BA0184E895E00E944A
:10563000F50BE0914E04F0914F0482E08083E091FD
:105640004A04F0914B041082E0914C04F0914D0417
:105650008FEC808310925604E0915204F091530431
:1056600086E08083E0915004F09151048081806154
:105670008083E0915004F0915104808188608083A0
:10568000E0915004F0915104808180688083E09122
:105690005004F091510480818F7D80830E94900698
:1056A0001092450361E08EE20E94DF0560E083E432
:1056B0000E94DF0560E08FE00E94DF0560E08EE081
:1056C0000E94DF0560E087E10E94DF050E949006EE
:1056D00060E087E30E94DF0560E088E30E94DF0569
:1056E000809104018B7F8093040161E086E10E9438
:1056F000DF0560E086E10E94B1050E9490060E94ED
:1057000090066093B8037093B9038093BA039093A3
:10571000BB03F8941092A0001092A1001092A50073
:105720001092A40081EA97E09093A9008093A800CA
:105730008091A10088608093A1008091A100856084
:105740008093A100809172008260809372007894AF
:10575000F0E14F2EFEE05F2E612C712C2224239469
:10576000A3E63A2E409107064F5F65EE75E083EEA3
:1057700095E00E94C6104091DD054F5F6BEB75E030
:1057800089EB95E00E94C6100E942E140E9490069C
:10579000C090B803D090B903E090BA03F090BB0377
:1057A0000E9490066C197D098E099F09693E73401D
:1057B0008105910508F44FC20E9490066093B803DA
:1057C0007093B9038093BA039093BB038091B7039E
:1057D000882309F443C2CE0101960E94000F86E09F
:1057E000FE013196A1E1B6E001900D928A95E1F7B4
:1057F000A09014068A2D90E0909343028093420279
:10580000B09015068B2D90E090934102809340025A
:1058100000918F0386E0089F80011124095E194FD3
:1058200081E196E00E9404086B017C01C8010E949E
:105830000408A7019601261B370B480B590BCA0118
:10584000B90160930D0670930E0680930F06909336
:10585000100600918F0310E0000F111F00561C4F1F
:105860002CE330E040E050E00E944931D8012D9314
:105870003C93A0924F03B0924E0320915E0330916F
:105880005F0340916003509161032E873F87488BEF
:10589000598B20E030E048E453E46E857F858889A9
:1058A00099890E94B93218169CF48091AE039091A8
:1058B000AF03A091B003B091B1030196A11DB11D3A
:1058C0008093AE039093AF03A093B003B093B10362
:1058D00080915A0390915B03A0915C03B0915D03AA
:1058E00040917C0350917D0360917E0370917F0312
:1058F000480F591F6A1F7B1F40937C0350937D0301
:1059000060937E0370937F03E0918F0334E0E39F05
:10591000F0011124EE59FC4F468D578D60A171A105
:10592000840F951FA61FB71F868F978FA0A3B1A3C3
:105930000E940B0E20E030E04AE754E40E9411324E
:1059400020E030E0A9010E940F3087FF8CC1C12CFC
:10595000D12C760100918F0344E0049F8001112433
:105960000E591C4FD8019E968D909D90AD90BC9085
:10597000D197A5019401C701B6010E94A4312AE084
:1059800037ED43E25CE30E947530A50194010E946B
:10599000A531F80166A777A780AB91AB0E9490066E
:1059A000683873418105910508F035C260913E0267
:1059B00070913F0290E080E00E947313E0918F03AA
:1059C00024E0E29FF0011124EE59FC4F668D778DA3
:1059D00080A191A1A30192010E94733169017A0112
:1059E000EE24FF248AE0E7E6F2E0DE011196019062
:1059F0000D928A95E1F7C701B60128EE33E040E049
:105A000050E00E947331CA01B9012AE030E040E061
:105A100050E00E94733141E050E04C0F5D1F640F75
:105A2000751FDB016C9188E190E00E946712C7014D
:105A3000B60124E630E040E050E00E947331CA0134
:105A4000B9012AE030E040E050E00E947331E1E02B
:105A5000F0E0EC0FFD1F6E0F7F1FDB016C9189E101
:105A600090E00E946712C701B6012AE030E040E0F2
:105A700050E00E9473316B01CA01B9012AE030E0A5
:105A800040E050E00E947331E1E0F0E0EC0FFD1FD8
:105A90006E0F7F1FDB016C918AE190E00E9467121C
:105AA000E1E0F0E0EC0FFD1FCE0EDF1ED6016C91A1
:105AB0008BE190E00E9467120E949006613D774062
:105AC00081059105A8F180918803109189038823AD
:105AD00091F080914803909149038830910508F432
