:100000000C9422040C9453040C9453040C94530445
:100010000C9453040C9453040C9453040C94530404
:100020000C9453040C944C1A0C94DD190C94721912
:100030000C9453040C9453040C9453040C945304E4
:100040000C9453040C9453040C9453040C945304D4
:100050000C9453040C9453040C9453040C94A41760
:100060000C9453040C9418180C94EE170C9453042D
:100070000C9453040C9453040C9453040C945304A4
:100080000C9453040C9453040C9453040C94530494
:100090000C9453040C9453040C9453040C944E1875
:1000A0000C9453040C9453040C94B61A0C945304FB
:1000B0000C9453040C9453040C9453040C94530464
:1000C0000C9453040C9453040C9453040C94530454
:1000D0000C9453040C9453040C9453040C94530444
:1000E0000C94530408000000BE922449123EABAAAF
:1000F000AA2ABECDCCCC4C3E00000080BEABAAAA42
:10010000AA3E00000000BF000000803F0000000089
:1001100000084178D3BB4387D1133D190E3CC3BDC2
:100120004282AD2B3E68EC8276BED98FE1A93E4C6F
:1001300080EFFFBE01C4FF7F3F00000000000C9471
:1001400045050C94DA0C0C941A070C9468050C9471
:1001500009120C941F050C94CA060C9480050C948B
:100160003D0D0C9463300C9454050C94B70C0C9416
:1001700049050C9420340C9472050C9460070C947F
:10018000C9060C947F050C94C70C0C9420050C94A4
:10019000B80C0C9428070C940E0D0C94AD070C941D
:1001A000E5120C9476050C9478210C945E050C9461
:1001B00055040C94E10C0C9406070C943F050C9428
:1001C0004D050C946C050C94F7060C945A050C9490
:1001D0007A050C94C20D0C941D050C949C060C948D
:1001E00064050C9484050C9451051F1C1F1E1F1ED2
:1001F0001F1F1E1F1E4602000000FF0800053E5B79
:100200004F5B3E053E6B4F6B3E051C3E7C3E1C0526
:10021000183C7E3C18051C577D571C051C5E7F5EF4
:100220001C0400183C1805FFE7C3E7FF040018246E
:100230001805FFE7DBE7FF0530483A060E052629DB
:1002400079292605407F05050705407F05253F05DF
:100250005A3CE73C5A057F3E1C1C0805081C1C3E06
:100260007F0514227F221405FFFFFFFFFF05F0F03A
:10027000F0F0F003FFFFFF05000000FFFF050F0F88
:100280000F0F0F0508047E04080510207E201005BE
:1002900008082A1C0805081C2A080805AA00550099
:1002A000AA05AA55AA55AA0530383E383005060ECB
:1002B0003E0E06020000015F0307000705147F14CD
:1002C0007F1405444AFF4A32056313086463053608
:1002D000494936480107033E41410341413E050873
:1002E0002A1C2A080508083E08080260E0040808DD
:1002F0000808026060056010080403053E51494586
:100300003E0304027F05714949494605414949496F
:1003100036050F0808087F054F49494931053E4910
:1003200049493005030101017F0536494949360530
:10033000064949493E026C6C026CEC030814220425
:100340001414141403221408050159090906053E62
:10035000415D594E057E0909097E057F49494936A7
:10036000053E41414141057F4141413E057F4949AB
:100370004941057F09090901053E41414979057F48
:100380000808087F03417F4105304141413F057F17
:1003900008142241057F40404040057F020C027F47
:1003A000057F0408107F053E4141413E057F090954
:1003B0000906053E4141617E057F0919294605462A
:1003C000494949310501017F0101053F4040403F56
:1003D000051F2040201F053F4038403F056314089B
:1003E0001463050304780403056151494543037F01
:1003F00041410503040810600341417F05040201E7
:100400000204048080808003010204043844447C98
:10041000047F4444380438444444043844447F044A
:100420003854545804047E05010418A4A47C047FA5
:10043000040478017D0384857C047F102844017FB7
:10044000057C04780478047C040478043844443837
:1004500004FC24241804182424FC047C0404080448
:100460005854543403047F04043C40407C041C2052
:10047000407C053C4030403C046C10106C041CA0D7
:10048000A07C046454544C0408364141017F04416B
:100490004136080402010201057F4141417F053ECA
:1004A00055555541053844443844057C2A2A3E14A4
:1004B000057E0202060605027E027E02056355499C
:1004C0004163053844443C0405407E201E20050657
:1004D000027E0202086313086463006060052A2A32
:1004E0002A2A2A03514A4403444A51050000FF01C5
:1004F0000303E080FF0536123624360302050202AC
:100500001818021010053040FF0101041F01011EE0
:10051000000000000901017F017F020C027F000042
:10052000000000000100017D0418247E2404447EA4
:10053000454105221C141C2205012A7C2A01017751
:10054000044E55553903020002077E81BDA5A581E1
:100550007E0326292F0508142A14220408080818E7
:1005600003080808077E81BD95A9817E0501010168
:1005700001010302050203242E2403191512031599
:10058000150A02020104F82040780506097F017F60
:10059000021818040080A0C003121F100326292689
:1005A0000522142A140808402F1008041E117C0884
:1005B000402F10080462554C0915553F1008041EC1
:1005C000117C053048484D4005781516147805789B
:1005D00014161578057A1514157A057816151679F6
:1005E000057815141578057814151478077E09090F
:1005F0007F494941059EA1612121057C545546440E
:10060000057C54564544057E55544546057C555455
:10061000454403457E4403447E4503467D460345E9
:100620007C4505087F49413E057C0A11227D05383D
:1006300044454638053844464538053A4544453A28
:1006400005384645463905384544453805221408DD
:100650001422057C625A463E053C4041423C053C22
:100660004042413C053C4241423C053C4140413C0A
:100670000502047A0502043F12120C057E49494E18
:1006800030043845467C043844467D043846457E6F
:10069000043A45467D043845447D04304A4D7A0786
:1006A00020545438545458049CA26222043855569D
:1006B000580438545659043856555A043855545924
:1006C00002017A027A0103027902030278020430FD
:1006D0004B4B3C047A090A710430494A30043048D3
:1006E0004A3104304A49320432494A3104394444D7
:1006F000390508082A08080438544C38043841429F
:10070000780438404279043842417A043A40407AC9
:100710000418A0A27904FC282810041AA0A07A00CA
:10072000002100240027002A002D003000330001A2
:10073000010000040107010A010000220025002831
:10074000002B002E003100340002010000050108DA
:10075000010B01000020002300260029002C002F9F
:100760000032000001000003010601090105050532
:1007700005070508080808020202020A0A08080418
:100780000404040101010101010101030303030346
:10079000030303040707070C0C0C0C0C0C0C0C02D5
:1007A00002020206060606060606060B0B0B0B0BDC
:1007B0000B0B0B01021020200808102040102040D5
:1007C0008002010201080402010102040810204015
:1007D0008080402010080402018004020180402033
:1007E000100804020108040201010204081020405C
:1007F00080010204081020408000000A0B02090C4E
:100800000D0E0807030401000000000000000000B6
:1008100000000000000000000000000000000000D8
:100820000000000000121110000000000000000095
:1008300000000000000000000000000000000000B8
:100840007821633011241FBECFEFD1E2DEBFCDBFD0
:1008500000E00CBF12E0A0E0B2E0EAE7FEE600E054
:100860000BBF02C007900D92AA3AB107D9F725E055
:10087000AAEAB2E001C01D92A53BB207E1F714E07D
:10088000C1E2D4E000E006C021970109802FFE01FB
:100890000E940A34C032D10780E00807A9F70E94FD
:1008A00045220C942B370C9400002F923F924F92CC
:1008B0005F926F927F928F929F92AF92BF92CF92F0
:1008C000DF92EF92FF920F931F93CF93DF93FC0180
:1008D000411551056105710521F441E050E060E0EA
:1008E00070E0848595850696958784872285338573
:1008F000E480F580821B930B95958795CBEADAEA25
:100900008C9FD0018D9FB00D9C9FB00D1124AE1512
:10091000BF0514F035872487C485D5854A835B835A
:100920006C837D83088119812F0124E1420E511CC3
:1009300084899589C817D90711F4158B048B84898C
:1009400095891201712C612C6F01AEE0CA0ED11C89
:100950006E147F040CF053C0DC01AD90BC90119775
:10096000CA15DB0511F40D931C93DC0112968D90D2
:100970009D90AD90BC90159784169506A606B70677
:1009800058F4D2014D915C91119759834883CD93CE
:10099000DC9340E050E0BA01D1012D903C90C816A4
:1009A000D90669F1DC014D905C90D201AD90BC900C
:1009B0001197CA15DB0511F40D931C93D201129601
:1009C0008D909D90AD90BC90159784169506A606C7
:1009D000B70658F4DC014D915C9111975983488317
:1009E000CD93DC9340E050E0BA01C414D50439F053
:1009F000D2018D919C91BFEF6B1A7B0AA9CFD101D7
:100A000012966D917D918D919C9115976683778358
:100A100080879187DF91CF911F910F91FF90EF9089
:100A2000DF90CF90BF90AF909F908F907F906F900E
:100A30005F904F903F902F9008950C945504089527
:100A400008958150823108F05AC0E82FF0E08827DD
:100A5000E35DFA4F8F4F0C940A344D0551053F0565
:100A6000450549057F0554055A055E056405680579
:100A70006C05720576057F057A05800584058091F1
:100A800080008F77809380000895809180008F7D13
:100A9000F9CF80918000877FF5CF84B58F7784BDB3
:100AA000089584B58F7DFBCF8091B0008F778093C0
:100AB000B00008958091B0008F7DF9CF80919000B3
:100AC0008F77809390000895809190008F7DF9CF6B
:100AD00080919000877FF5CF8091A0008F778093E1
:100AE000A00008958091A0008F7DF9CF8091A00093
:100AF000877FF5CF809120018F7780932001089523
:100B0000809120018F7DF9CF80912001877FF5CFE3
:100B1000CF93DF93282F30E0F901E750F84F84910D
:100B2000F901ED54F84FD491F901E359F84FC4910C
:100B3000CC23A1F081110E942105EC2FF0E0EE0FF3
:100B4000FF1FED5AF84FA591B491EC91ED2381E090
:100B500090E009F480E0DF91CF91089580E090E08B
:100B6000FACF1F93CF93DF93282F30E0F901E7509E
:100B7000F84F8491F901ED54F84FD491F901E359FC
:100B8000F84FC491CC23A9F0162F81110E942105A2
:100B9000EC2FF0E0EE0FFF1FE75CF84FA591B4914A
:100BA0008FB7F894EC91111108C0D095DE23DC9337
:100BB0008FBFDF91CF911F910895DE2BF8CFCF9398
:100BC000DF9390E0FC01ED54F84F24918359984F46
:100BD000FC0184918823C9F090E0880F991FFC01E3
:100BE000E15EF84FA591B491FC01E75CF84FC59127
:100BF000D49161110DC09FB7F8948C9120958223F8
:100C00008C938881282328839FBFDF91CF910895FB
:100C1000623051F49FB7F8943C91822F80958323E2
:100C20008C93E8812E2BEFCF8FB7F894EC912E2B7D
:100C30002C938FBFEACF863308F0865320917B0038
:100C4000982F9870277F922B90937B0087708064F9
:100C500080937C0080917A00806480937A008091F8
:100C60007A0086FDFCCF80917800909179000895FC
:100C70003FB7F8948091660390916703A091680351
:100C8000B091690326B5A89B05C02F3F19F00196C6
:100C9000A11DB11D3FBFBA2FA92F982F8827BC01D6
:100CA000CD01620F711D811D911D42E0660F771FFE
:100CB000881F991F4A95D1F708958F929F92AF92FE
:100CC000BF92CF92DF92EF92FF926B017C010E9464
:100CD00038064B015C01C114D104E104F104B9F000
:100CE0000E943806681979098A099B09683E734091
:100CF0008105910580F321E0C21AD108E108F108CD
:100D000088EE880E83E0981EA11CB11CE4CFFF90F2
:100D1000EF90DF90CF90BF90AF909F908F9008950D
:100D20002FB7F8946091620370916303809164031C
:100D3000909165032FBF08950F931F930E9438066B
:100D4000009138031091390320913A0330913B030D
:100D5000DC01CB01801B910BA20BB30B8D3D25E079
:100D60009207A105B10590F0809334039093350369
:100D7000A0933603B09337030E943806609338037C
:100D80007093390380933A0390933B031F910F9123
:100D900008950895AF92BF92CF92DF92EF92FF92A3
:100DA0000F931F93CF93DF936C017B018B01040F93
:100DB000151FEB015E01AE18BF08C017D10759F02F
:100DC0006991D601ED91FC910190F081E02DC60171
:100DD0001995892B79F7C501DF91CF911F910F915B
:100DE000FF90EF90DF90CF90BF90AF900895FC01FF
:100DF000538D448D252F30E0842F90E0821B930B80
:100E0000541710F0CF96089501970895FC01918D25
:100E1000828D981761F0A28DAE0FBF2FB11D5D9628
:100E20008C91928D9F5F9F73928F90E008958FEFCA
:100E30009FEF0895FC01918D828D981731F0828D7E
:100E4000E80FF11D858D90E008958FEF9FEF0895D5
:100E5000FC01918D228D892F90E0805C9F4F821B39
:100E600091098F739927089584E394E00E942807DD
:100E700021E0892B09F420E0822F0895FC01A48D44
:100E8000A80FB92FB11DA35ABF4F2C91848D90E0AC
:100E900001968F739927848FA689B7892C93A0898F
:100EA000B1898C91837080648C93938D848D981319
:100EB00006C00288F389E02D80818F7D80830895AC
:100EC000EF92FF920F931F93CF93DF93EC0181E09A
:100ED000888F9B8D8C8D98131AC0E889F989808141
:100EE00085FF15C09FB7F894EE89FF896083E88974
:100EF000F98980818370806480839FBF81E090E066
:100F0000DF91CF911F910F91FF90EF900895F62EF2
:100F10000B8D10E00F5F1F4F0F731127E02E8C8D8C
:100F20008E110CC00FB607FCFACFE889F9898081D1
:100F300085FFF5CFCE010E943E07F1CFEB8DEC0F80
:100F4000FD2FF11DE35AFF4FF0829FB7F8940B8FEE
:100F5000EA89FB8980818062CFCFCF93DF93EC0158
:100F6000888D8823B9F0AA89BB89E889F9898C9191
:100F700085FD03C0808186FD0DC00FB607FCF7CF4D
:100F80008C9185FFF2CF808185FFEDCFCE010E944D
:100F90003E07E9CFDF91CF91089580E090E0892B63
:100FA00029F00E94340781110E94000080E090E047
:100FB000892B49F080E090E0892B29F00E94000005
:100FC00081110E94000080E090E0892B49F080E0D0
:100FD00090E0892B29F00E94000081110E940000FE
:100FE00080E090E0892B49F080E090E0892B29F0A7
:100FF0000E94000081110C9400000895EF92FF926E
:101000000F931F93CF93DF93EC0169813881432FB6
:1010100050E02A81822F90E0EAEEF1E021E02617ED
:1010200030F47491870F911D2F5F3196F8CF6330A4
:1010300018F0337009F401966DE671E0469F900157
:10104000479F300D569F300D1124215031094D5FBF
:101050005F4F5695479556954795240F351F280F96
:10106000391FA8E1B0E00E9418322B817B018C016E
:10107000E20EF11C011D111DA8019701ACE3B0E0C7
:101080000E94EB312C817B018C01E20EF11C011DD1
:10109000111DA80197010E94EB31AB01BC019D819C
:1010A000892F90E0B0E0A0E080589C4BA249B74C5B
:1010B0008A019B01080F191F2A1F3B1FC901B80194
:1010C000DF91CF911F910F91FF90EF9008958F9234
:1010D0009F92AF92BF92CF92DF92EF92FF92CF9307
:1010E000DF93EC016A017B0180E8C81A83E4D80A27
:1010F0008DE6E80A88E3F80A8CE3882E912CA12C6F
:10110000B12CC701B601A50194010E94F6316D838F
:10111000CA01B901A50194010E94F6316C83C7018F
:10112000B60120E13EE040E050E00E94F631CA0105
:10113000B90128E130E040E050E00E94F6316B83D5
:10114000C701B60120E831E541E050E00E94F631E8
:10115000188263E97EEF8881982F937041E050E018
:1011600011F050E040E0FA01E359FE4F2E173F071F
:1011700040F0FB01E41BF50B2E0F3F1F8F5F8883B0
:10118000EACF81E0898389818C30A0F4482F4150D7
:10119000550BFA01E651FE4FE491911103C08230E4
:1011A00009F4EF5FF0E02E173F0720F02E1B3F0BF6
:1011B0008F5FE8CF2F5F2A83DF91CF91FF90EF9071
:1011C000DF90CF90BF90AF909F908F900895209127
:1011D000D502260F3327331F21323105ECF420913D
:1011E0002E04FC0190E080E0243069F082E0089554
:1011F000A091D5022191AC014B545D4FA40FB52FA6
:10120000B11D2C930196861798F38091D502680F33
:101210006093D50280E0089581E0089510922E0435
:1012200081E080930D041092080461E084E10E9443
:10123000B10561E085E10E94B105E9EBF0E0808154
:101240008E7F808380818D7F808388E48093B80047
:1012500085E48093BC0008951092C1031092C003EE
:101260001092C5031092E7030E940E098FE195E0EA
:1012700090936D0380936C0380E295E090936B03F1
:1012800080936A030895CF93DF9391E09093B40223
:101290008823B9F0C091B800D091BA008091BC0009
:1012A0008A7B8093BC0060E084E10E94B10560E02D
:1012B00085E10E94B1050E940E09D093BA00C09347
:1012C000B800DF91CF9108958F929F92AF92BF9215
:1012D000CF92DF92EF92FF920F931F93CF93DF9302
:1012E000D82FC62F142F613208F09CC00E943806F8
:1012F0006B017C0180912E0481116FC081E080938D
:101300002E0410930D049FEF90930C0410920B0485
:101310009C0F90930A048093090480910904DD0FC7
:10132000D82BD093090480910804813009F07CC047
:10133000109208040E9438066B017C018091090418
:101340008093BB008091300490913104A0913204CD
:10135000B0913304892B8A2B8B2BA1F00E94380685
:101360000091300410913104209132043091330403
:101370006C197D098E099F09061717072807390779
:1013800008F44CC08091BC0083FDD8CF85EC8093DD
:10139000BC000E9438066B017C0180912E048130D4
:1013A00009F444C080910B048C1710F4C0910B0415
:1013B000E8EEF3E0AEE0B4E080E08C1359C08C2F8F
:1013C000DF91CF911F910F91FF90EF90DF90CF9021
:1013D000BF90AF909F908F9008958091300490912E
:1013E0003104A0913204B0913304892B8A2B8B2BCA
:1013F00009F480CF0E943806809030049090310428
:10140000A0903204B09033046C197D098E099F09B5
:1014100086169706A806B90608F06CCF80912F04AF
:101420000E944309C0E0CBCF85EEB1CF809130045C
:1014300090913104A0913204B0913304892B8A2B0E
:101440008B2B09F4AACF0E9438060091300410912A
:10145000310420913204309133046C197D098E09D6
:101460009F09061717072807390708F096CFD6CF28
:1014700091919D938F5FA1CF8F929F92AF92BF92D8
:10148000CF92DF92EF92FF920F931F93CF93DF9350
:10149000D091E703D13208F0D7C0182FC091E603EE
:1014A0000E9438066B017C0180912E0481116BC073
:1014B00082E080932E0410930D048FEF80930C0430
:1014C00010920B04D0930A04A6ECB3E0E8EEF3E02C
:1014D00080E0D81391C01092090480910904CC0FC8
:1014E000C82BC093090480910804813009F088C09A
:1014F000109208040E9438066B017C018091090457
:101500008093BB008091300490913104A09132040B
:10151000B0913304892B8A2B8B2BA1F00E943806C3
:101520000091300410913104209132043091330441
:101530006C197D098E099F090617170728073907B7
:1015400008F442C08091BC0083FDD8CF85EC809325
:10155000BC000E9438066B017C0180912E04823011
:1015600009F450C080910C048F3F09F46FC0809142
:101570000C04803209F46CC080910C04803309F4AF
:1015800069C084E026C08091300490913104A0911C
:101590003204B0913304892B8A2B8B2B09F484CF2E
:1015A0000E9438068090300490903104A09032045C
:1015B000B09033046C197D098E099F098616970631
:1015C000A806B90608F070CF80912F040E94430945
:1015D00085E01092C5031092E7031092C403DF91D7
:1015E000CF911F910F91FF90EF90DF90CF90BF9020
:1015F000AF909F908F9008959D9191938F5F69CF49
:1016000085EEA5CF8091300490913104A0913204F1
:10161000B0913304892B8A2B8B2B09F49ECF0E9427
:101620003806009130041091310420913204309139
:1016300033046C197D098E099F09061717072807BF
:10164000390708F08ACFC0CF81E0C3CF80E0C1CF97
:1016500082E0BFCF83E0BDCF8F3F11F48091440281
:1016600091E09093C4038093E6031092C503109217
:10167000E70381E00E943C0A91E0811190E0892F0C
:1016800008952F923F924F925F926F927F928F9226
:101690009F92AF92BF92CF92DF92EF92FF920F9301
:1016A0001F93CF93DF93CDB7DEB72C970FB6F89487
:1016B000DEBF0FBECDBF4B015C015A8749871901C0
:1016C0008091450290914602A0914702B091480254
:1016D000B501A401420F531F611D711D4817590721
:1016E0006A077B0718F01C01281839082091490265
:1016F00030914A023A8329832F31310524F08EE15B
:1017000090E09A8389831C861B86AB85BC85A215D5
:10171000B30508F0EEC081010A1B1B0BE981FA81B9
:10172000E017F1070CF48F01023011050CF444C0EE
:101730002091490230914A023C832B832901712C6C
:10174000612C750164018B859C85C80ED91EE11C36
:10175000F11CC701B601A3010E94F6312D833E831F
:101760004F83588791E0C91AD108E108F108B80100
:10177000012E000C880B990B6C0D7D1D8E1D9F1D7D
:10178000A30192010E94F631AD81BE81A217B30779
:1017900098F42D01BFEF4B1A5B0AEB81FC814E9E42
:1017A00080014F9E100D5E9E100D11248B859C852F
:1017B000880D991D081B190BF09044028091450279
:1017C00090914602A0914702B09148020097A14033
:1017D000B10570F0D501C4012B853C85820F931FA4
:1017E000A11DB11D0097A140B10510F06894F2F859
:1017F00080914C02882381F08FEFF8120BC080910A
:1018000044020E942C0B811107C08BE891E00197E4
:10181000F1F7EECF8F2DF5CFA0914202B0914302A8
:1018200091E09093C403F092E6031092C5031092E6
:10183000E703409145025091460260914702709142
:1018400048024130584061057105A0F0B501A4017E
:101850002B853C85420F531F611D711D9927872FD2
:10186000762F652FED91FC9111970190F081E02D7D
:10187000CD0119958091420290914302DC01ED91D6
:10188000FC910190F081E02D6B85680D1995D12CAC
:10189000E984FA84EB85FC85EE0EFF1EAD2DB0E0E9
:1018A000A017B1078CF48091420290914302AE0DD3
:1018B000BF1DFC0120813181F901208131816C91B2
:1018C000F9011995D394EACF81E00E943C0A2B8557
:1018D0003C85200F311F3C872B8780914C02811162
:1018E00014CF60914B0270E090E080E00E945D06B2
:1018F0000CCF2C960FB6F894DEBF0FBECDBFDF9194
:10190000CF911F910F91FF90EF90DF90CF90BF90FC
:10191000AF909F908F907F906F905F904F903F908F
:101920002F900895CF93DF93EC018B818823A1F052
:10193000888191E09093C4038093E6031092C503DD
:101940001092E70381E00E943C0A91E0811190E04F
:10195000892FDF91CF9108950E942C0981E08B831C
:10196000CE010E94920C982F8111E2CFF1CF089501
:10197000E091C1038091C003E81730F4F0E0E25F2A
:10198000FB4F808190E008958FEF9FEF0895909135
:10199000C1038091C0032FEF3FEF981748F4E92F60
:1019A000F0E0E25FFB4F208130E09F5F9093C10346
:1019B000C90108958091C0039091C103891B990BBF
:1019C0000895CF92DF92EF92FF920F931F93CF93E0
:1019D000DF937C01CB018A012091C403222389F08B
:1019E000EB016B01C40ED51ECC15DD0569F06991C4
:1019F000D701ED91FC910190F081E02DC70119957F
:101A0000F3CF642F0E94E708C801DF91CF911F91A7
:101A10000F91FF90EF90DF90CF900895CF93DF93D9
:101A20001F92CDB7DEB769832091C4032223F9F05A
:101A30002091E703203258F021E030E0FC013383AD
:101A4000228390E080E00F90DF91CF910895809104
:101A5000C503E82FF0E0EA53FC4F998190838F5F34
:101A60008093C5038093E70381E090E0ECCF61E0D1
:101A7000CE0101960E94E708F7CF90E080E008953C
:101A8000CF93DF93EC012A813B81D901B595A795CE
:101A9000A80FB91FE881F98120FF08C08D919C91A2
:101AA0001197E80FF91F0190F081E02DCD01DF9132
:101AB000CF911994CF92DF92EF92FF920F931F93E1
:101AC000DC011C962D913C911D972A5F3F4F1D967E
:101AD0003C932E931C971A96ED91FC911B972E1B0D
:101AE0003F0B2D30310524F01D96FC93EE931C978F
:101AF0001C960D90BC91A02D12964D935D936D9305
:101B00007C931597C684D784E088F1880085118579
:101B10002285338562817381848195810617170739
:101B200028073907D0F0C616D706E806F90650F0A0
:101B3000C701B6010617170728073907D0F4C901EE
:101B4000B80117C0601771078207930790F0C0169D
:101B5000D106E206F30630F40CC0C016D106E20648
:101B6000F30668F3C616D706E806F90610F4C701AF
:101B7000B6011F910F91FF90EF90DF90CF900895E5
:101B80000C945A0DCF92DF92EF92FF920E9438068A
:101B9000C0902D03D0902E03E0902F03F0903003DF
:101BA0006C197D098E099F0963387640810591057E
:101BB000C0F00E9438066C197D098E099F09609358
:101BC000290370932A0380932B0390932C030E9484
:101BD000380660932D0370932E0380932F03909308
:101BE0003003FF90EF90DF90CF900895EEE6F3E0A2
:101BF00080E09191892793E0E23CF907D1F7809347
:101C0000B40308954F925F926F927F929F92AF922A
:101C1000BF92CF92DF92EF92FF920F931F93CF93D9
:101C2000DF93F82FD62F843610F0D3E6F3E68091B9
:101C3000B202EAE06E2F0E94D633C82FA92FB0E07F
:101C400020EA36E841E050E00E94EB316B017C0174
:101C50002C2F30E0A0E1B7E20E941832C60ED71E4A
:101C6000E81EF91E8F2F6E2F0E94D633492FC80E03
:101C7000D11CE11CF11C8D2F0E94D633582F292F27
:101C800030E0A8EEB3E00E941832C60ED71EE81E60
:101C9000F91E252F30E0A4E6B0E00E941832C60EEF
:101CA000D71EE81EF91E242F30E0AAE0B0E00E9403
:101CB0001832C60ED71EE81EF91E10916005A090BE
:101CC0006105B12C0091560590904505C12FD0E0DB
:101CD000C45CDA4F8AE0482E512C612C712C112300
:101CE000A9F11150E0E021E030E040E050E0E117E0
:101CF00040F4AAE0B0E00E94EB319B01AC01EF5F41
:101D0000F6CFCE018C539540C216D306E406F506F5
:101D100018F49A822197E3CFB50102C075956795B3
:101D20008A95E2F760FF10C0C701B6010E94F63144
:101D3000CA01B901A30192010E94F631645C7A4F95
:101D4000FB0181858A83E6CF802FFCCFDF91CF9185
:101D50001F910F91FF90EF90DF90CF90BF90AF90C9
:101D60009F907F906F905F904F90089524E630E0B1
:101D7000B9010E94F633482FCB01B9010E94F63316
:101D8000642F0C94020ECF92DF92EF92FF92CF93CA
:101D9000DF93C4E6D0E08BE30E941B06BC01990FE1
:101DA000880B990B0E9499309B01AC01C701B601C9
:101DB0000E9428326B017C01219769F720E030E016
:101DC00048EC52E40E94943220E030E74DE956E4BA
:101DD0000E94F83020E030EC4FE754E40E94943247
:101DE00020E030E040EA50E40E94F8309B01AC0172
:101DF00060E876E885EA97E40E942732DF91CF9188
:101E0000FF90EF90DF90CF90089580E008950895BF
:101E10002F923F924F925F926F927F928F929F92FA
:101E2000AF92BF92CF92DF92EF92FF920F931F93E8
:101E3000CF93DF932B013C015A014901D0E0C0E070
:101E40009BE8292E3324339484010C1B1D0B013293
:101E5000110510F000E210E0F090440280914C0275
:101E6000882379F08FEFF8120AC0809144020E9413
:101E70002C0B811106C0C1010197F1F7EFCF8F2D17
:101E8000F6CFA0914202B0914302E1E0E093C40397
:101E9000F092E6031092C5031092E70340914502C9
:101EA000509146026091470270914802413058407B
:101EB0006105710590F0B301A2014C0F5D1F611D1A
:101EC000711D9927872F762F652FED91FC91119722
:101ED0000190F081E02DCD01199580914202909101
:101EE0004302DC01ED91FC910190F081E02D6C2F1B
:101EF000640D199581E00E943C0A41E0602F8F2D0E
:101F00000E9464091092C1038093C0036501CC0E46
:101F1000DD1E7601C7018C199D098017910778F4A1
:101F20008091420290914302DC01ED91FC91028488
:101F3000F385E02D1995F70181937F01EBCFC00F59
:101F4000D11FC815D90508F47FCFDF91CF911F911C
:101F50000F91FF90EF90DF90CF90BF90AF909F9048
:101F60008F907F906F905F904F903F902F9008954B
:101F70004F925F926F927F928F929F92AF92BF9299
:101F8000CF92DF92EF92FF921F93CF93DF9300D017
:101F900000D01F921F92CDB7DEB780E2C82ED12CA1
:101FA000E12CF12C260137018FEF481A580A680AF4
:101FB000780A4601570192E0890E911CA11CB11CC0
:101FC000D701C6010396A11DB11D8D839E83AF83EA
:101FD000B8871AE021E030E0AE014F5F5F4FC701E4
:101FE000B6010E94080F21E030E0AE014E5F5F4F66
:101FF000C301B2010E94080F21E030E0AE014D5F45
:102000005F4FC501B4010E94080F21E030E0AE012E
:102010004C5F5F4F6D817E818F8198850E94080F94
:102020008981843449F48A81893431F48B818734FD
:1020300019F48C81893429F1115061F69FEFD91A76
:10204000E90AF90AA0E2CA16A3E0DA06E104F104FB
:1020500009F0A8CF80E028960FB6F894DEBF0FBE37
:10206000CDBFDF91CF911F91FF90EF90DF90CF9088
:10207000BF90AF909F908F907F906F905F904F90A8
:10208000089581E0E8CF4F925F926F927F928F9296
:102090009F92AF92BF92CF92DF92EF92FF920F93F7
:1020A0001F93CF93DF9300D000D01F92CDB7DEB740
:1020B0008C011982A090C203B090C303D50114967D
:1020C0008D919C911597892B09F468C011968D917B
:1020D0009C9112972C9131E03093C4032093E60336
:1020E0001092C5031092E703DC01ED91FC91028090
:1020F000F381E02D41E050E0BE016F5F7F4F199505
:10210000019709F04BC080E00E943C0A811146C053
:10211000D12CC12CB7E06B2E712CF50184819581F7
:102120007301EC18FD088E159F0508F47C0141E051
:10213000C3018E199F09C816D90608F440E06E2D18
:10214000D5018C910E9464091092C1038093C00351
:102150008E151F0419F588248394912C8C0E9D1ED6
:102160008C0C9D1C2401C401841995098E159F05B2
:1021700070F4F50181819281DC01ED91FC91028482
:10218000F385E02D1995F40181934F01ECCFCE0C2E
:10219000DF1CF7E0CF16D10408F4BFCFE981EF7759
:1021A000FA81FB805D814E814F778F81282F30E04F
:1021B00094E0359527959A95E1F7922F990F990F0D
:1021C000291B220F280FD8012C93842F90E024E0A4
:1021D000959587952A95E1F7982F990F990F891B67
:1021E000880F840F11968C931197652F70E034E05F
:1021F000759567953A95E1F7862F880F880F681BCC
:10220000660F650F12966C9312974F2D50E064E0A5
:10221000559547956A95E1F7842F880F880F481BDD
:10222000440F4F0D13964C9313972F2F30E074E00B
:10223000359527957A95E1F7822F880F880F281B0F
:10224000220F2F0F14962C9314978E2F90E0F4E00A
:1022500095958795FA95E1F7982F990F990F891B16
:10226000880F8E0F15968C93C80127960FB6F89499
:10227000DEBF0FBECDBFDF91CF911F910F91FF90B9
:10228000EF90DF90CF90BF90AF909F908F907F9016
:102290006F905F904F900895EF92FF920F931F936E
:1022A000CF93DF93809186058823A1F080917C05F0
:1022B000882361F08FB7F89490917C05913071F587
:1022C0009DB39093BF039DB39DBB8FBF80E58CBD35
:1022D00081E08DBD60E0809185050E94B10580910F
:1022E00086058823F1F030E020E08091890590E0B8
:1022F000880F991F2817390708F03DC0E0918C0519
:10230000F0918D05E20FF31F80818EBD00000DB4AA
:1023100007FEFDCF8EB52F5F3F4FE7CF8093BF0302
:10232000D5CFD0E0C0E08091890590E0880F991F5B
:10233000C817D90700F5E0918C05F0918D05EC0FD9
:10234000FD1F0081F0908405E090830518E0602F68
:10235000661F6627661F8E2D0E94B105000F61E083
:102360008F2D0E94B10560E08F2D0E94B1051150A4
:1023700071F72196D8CF61E0809185050E94B10563
:1023800080918605882371F080917C05882351F027
:102390009FB7F89420917C058091BF03213049F4C8
:1023A0008DBB9FBFDF91CF911F910F91FF90EF9059
:1023B00008958FBFF7CFEF92FF920F931F93CF93A4
:1023C000DF938C01D0E0C0E0E62EF12CF80181A56E
:1023D00097010C2E02C0359527950A94E2F761E02B
:1023E00020FF60E00E94B10560E0F80180A50E9436
:1023F000B10561E0F80180A50E94B1052196C830C1
:10240000D10521F7DF91CF911F910F91FF90EF90B0
:102410000895EF92FF920F931F93CF93DF93EC01F8
:102420008B01E42E61E088A50E94B10560E08FA1D8
:102430000E94B1058BE490E00197F1F7E00EF12ED8
:10244000F11C0E151F0539F0F80161918F01CE01C5
:102450000E94DB11F6CF8BE490E00197F1F761E089
:102460008FA1DF91CF911F910F91FF90EF900C946E
:10247000B105CF93DF9300D01F921F92CDB7DEB787
:1024800040E1649F90011124622BFC01668F678FED
:1024900060A361A328E129836A836B836C836D83C6
:1024A00045E0BE016F5F7F4F0E9409120F900F90B1
:1024B0000F900F900F90DF91CF910895CF93DF93FE
:1024C00000D01F921F92CDB7DEB720E12983FC0117
:1024D00024A121502A83F0E16F9F90011124622BE7
:1024E000FC01638F648F658F6B836C836D8345E024
:1024F000BE016F5F7F4F0E9409120F900F900F90E7
:102500000F900F90DF91CF910895CF93DF931F929B
:102510001F92CDB7DEB7FC0161157105B1F44423FC
:1025200091F08FEF83A388E0898383A18A8342E0BF
:10253000BE016F5F7F4FCF010E9409120F900F9075
:10254000DF91CF91089513A2EECF83A1442319F018
:10255000682B63A3E8CF60956823FBCFFC0144A1FF
:10256000339620E0421719F011922F5FFBCF4F5F97
:10257000BC016E5F7F4F0C9409120F931F93CF9392
:10258000DF931F92CDB7DEB78C018BE490E001970B
:10259000F1F7F801128262E0C8010E945E1262E067
:1025A000C8010E943912C8010E94AE128DE08983D1
:1025B00041E0BE016F5F7F4FC8010E9409120F907A
:1025C000DF91CF911F910F910895CF92DF92FF92EB
:1025D0000F931F93CF93DF93EC01162F61E088A533
:1025E0000E94B10560E08FA10E94B10583E090E0F8
:1025F0000197F1F7612F6864CE010E94DB1162E060
:1026000089A50E94DF0510E000E0F12CCC24C394E2
:10261000D12C60E088A50E94B10561E088A50E94E8
:10262000B10589A50E948805892B39F0C601002EC5
:1026300001C0880F0A94EAF7F82A0F5F1F4F08308D
:10264000110539F783E090E00197F1F761E08FA180
:102650000E94B10561E089A50E94DF058F2DDF9101
:10266000CF911F910F91FF90DF90CF900895EEE7EB
:10267000F5E0438550E0440F551F70E060E086852B
:1026800097850C941D37DF92EF92FF920F931F9363
:10269000CF93DF9399E0899F80011124F12CE12CE5
:1026A000C82FD0E0DD24D394DE0CE0918A05F091B0
:1026B0008B05E00FF11F808590E00E2C02C09595F0
:1026C00087950A94E2F780FF2DC00E94371380910E
:1026D00089058150990B8C1B9D0B880F991F2091A8
:1026E0008C0530918D05820F931FFC01D082E09103
:1026F0008A05F0918B05E00FF11FEE0DFF1D408163
:10270000209189052150330B2C1B3D0B220F331FC9
:1027100080918C0590918D05280F391FF901418317
:102720000E944C11FFEFEF1AFF0A88E0E816F1044F
:1027300009F0B8CF80918A0590918B05080F191F79
:10274000F8011086DF91CF911F910F91FF90EF90CC
:10275000DF9008952F923F924F925F926F927F92F7
:102760009F92AF92BF92CF92DF92EF92FF920F9320
:102770001F93CF93DF93262F582F5770D3E0969552
:102780008795DA95E1F7E82FC091800530918905AA
:10279000CC2309F485C0C0E0831708F060C039E09D
:1027A000389F1001399F300C1124C12CD12C760197
:1027B000C39426013701052E04C0440C551C661C29
:1027C000771C0A94D2F7B42CF42DF09567E070E0F2
:1027D000651B710904C0CC0CDD1CEE1CFF1C6A9546
:1027E000D2F7AC2C3C2D3095B0E0A0E0622F70E029
:1027F00007E010E0AD01E0908A05F0908B05E20C57
:10280000F31C20918205909081056B010A2E02C075
:10281000D594C7940A94E2F7C0FE34C0222319F07D
:10282000A8014A1B5B0B4E0D5F1DEA012881FB2CA2
:102830009110FA2C2F29EA0128831196A830B105AE
:10284000C9F620918A0530918B05E101C20FD31F93
:102850002FEF2887C0919205C11180C0C1E08C2F55
:10286000DF91CF911F910F91FF90EF90DF90CF906C
:10287000BF90AF909F907F906F905F904F903F90F0
:102880002F900895222319F0A8014A1B5B0B4E0DCF
:102890005F1DEA012881FF2E9110F32E2F21CBCF4F
:1028A0008317E8F6309181053323C1F02295622F1A
:1028B00070E09B0135952795359527952373660F15
:1028C000771F660F771F6C7C262B30E0B90175955A
:1028D00067956575220F331F2A7A262B39E0389FBA
:1028E000E001399FD00D1124A0918A05B0918B058C
:1028F000AC0FBD1FE52EF12C3091820567E070E032
:102900006E197F09311101C0B701A60FB71F2C93B3
:10291000A0918A05B0918B05AC0FBD1F18962C9124
:10292000189730918205332399F0C7E0D0E0CE1993
:10293000DF0941E050E060E070E004C0440F551F43
:10294000661F771FCA95D2F7422B18964C9382CFF9
:1029500041E001C0440F5A95EAF7F6CF209189056E
:10296000E21708F07BCF0E94431379CFEF92FF92DA
:102970000F931F93CF93DF93FF24F394D0E0C0E035
:1029800001E010E0B9E0EB2E0E94371398010C2E05
:1029900002C0220F331F0A94E2F7E0E090E080913A
:1029A0008905E817E0F5EE9DB0011124A0918A0594
:1029B000B0918B05A60FB71F18964C9150E042239B
:1029C0005323452B51F14E2F50E08150990B841B1E
:1029D000950B880F991FA0918C05B0918D05A80FBC
:1029E000B91FFC92A0918A05B0918B05A60FB71F65
:1029F000AC0FBD1F6C91809189058150990B841B90
:102A0000950B880F991F40918C0550918D05840F6F
:102A1000951FDC0111966C9391E0EF5FC0CF91118F
:102A20000E944C112196F394C830D10509F0ACCF27
:102A300080E099E020918905821758F4E0918A0599
:102A4000F0918B05899FE00DF11D112410868F5F99
:102A5000F1CFDF91CF911F910F91FF90EF900895EB
:102A6000FF920F931F93CF93DF938A30910508F065
:102A700068C0EB018C01F09089050E94371340E09B
:102A80005FEF5F0D0230110509F44EC088F40115A7
:102A90001105E1F00130110509F43FC04F5F5417F3
:102AA00088F7DF91CF911F910F91FF900C944C11FB
:102AB0000330110509F43FC00430110579F791E0A6
:102AC000209709F490E0919589E005C091E0209766
:102AD00009F090E08CE0642F70E02091890521508E
:102AE000330B261B370B220F331FE0918C05F0911F
:102AF0008D05E20FF31F8083209189052150330B50
:102B0000261B370B220F331F60918C0570918D05AA
:102B1000260F371FF9019183C1CF9C2FC830D105F3
:102B20000CF097E08BE0D7CF9C2FC031D1050CF093
:102B30009FE08AE0D0CF91E0209709F490E08FE009
:102B4000CACF21E06130710509F020E00B9761F0F8
:102B5000209392056130710549F4DF91CF911F9167
:102B60000F91FF900C94B61420939305DF91CF91B1
:102B70001F910F91FF90089590918905915080E0E9
:102B800069E058E04FEF869F90011124A0918A05DB
:102B9000B0918B05A20FB31FFD01752F11927A958D
:102BA000E9F7E0918A05F0918B05E20FF31F40876A
:102BB0008F5F981740F78091920581110C94B6149D
:102BC0000895FF920F931F93CF93DF938C01EB0136
:102BD000F8800E94B631F81621F06F2DC8010E94CE
:102BE000BE31CE01DF91CF911F910F91FF900895DB
:102BF000AF92BF92DF92EF92FF920F931F93CF930A
:102C0000DF935C010EE613E0D0E0C0E0F801D19064
:102C10008F017501EC0EFD1EC7010E94B631D8165A
:102C200021F06D2DC7010E94BE312196C135D1051D
:102C300069F78EE693E0DF91CF911F910F91FF909E
:102C4000EF90DF90BF90AF9008950E94F60DF8943A
:102C50008091F802811111C06091B30270E0762F6B
:102C600066276C5D7F4F072E000C880B990B21E5C2
:102C700030E04EE653E00E94410B8091B30290E0B9
:102C8000982F882784960E94F81578948091B30233
:102C90008F5F833019F08093B30208951092B302CE
:102CA00008950F931F93CF93DF93CEE6D3E08C016B
:102CB0000E561340C8018C0F9D1F0E94B631899398
:102CC00083E0CF3BD807B1F78EE693E0DF91CF9159
:102CD0001F910F910895CF93DF93EB010E94B631BE
:102CE0008883CE01DF91CF9108958F929F92AF920A
:102CF000BF92CF92DF92FF920F931F93CF93DF93F8
:102D000000D01F92CDB7DEB700E210E068018FEF70
:102D1000C81AD80A580182E0A80EB11C480183E005
:102D2000880E911C8AE0F82EBE016F5F7F4FC801AC
:102D30000E946B16BE016E5F7F4FC6010E946B162C
:102D4000BE016D5F7F4FC5010E946B16BE016C5FB7
:102D50007F4FC4010E946B168981843449F48A81B3
:102D6000893431F48B81873419F48C818934C9F02A
:102D7000FA94F110D9CF1395003283E0180731F699
:102D800080E00F900F900F900F90DF91CF911F91E7
:102D90000F91FF90DF90CF90BF90AF909F908F905A
:102DA000089581E0EECF8F929F92AF92BF92CF9223
:102DB000DF92EF92FF9285E40E941B06BC01990FFF
:102DC000880B990B0E9499306B017C01C092010322
:102DD000D0920203E0920303F092040320E030E07B
:102DE0004AE754E40E94F8304B015C01A7019601C8
:102DF00060E070EC8FE794E40E9427329B01AC0105
:102E0000C501B4010E9494322DE336EF4AE355E444
:102E10000E9494320E94493320913502309136024B
:102E200040913702509138020E9494322FE03FECDB
:102E30004BE55BE30E9428329B01AC0160E070E04F
:102E400080E89FE30E94943223E333E948E853E4A7
:102E50000E9427326B017C0120E030E048E452EC14
:102E60000E94923087FD33C020E030E048E453E414
:102E7000C701B6010E943C3318164CF18090210323
:102E800090902203A0902303B0902403A501940105
:102E9000C701B6010E9427322DEC3CEC4CEC5DE3FF
:102EA0000E94F830A50194010E942832609321030A
:102EB000709322038093230390932403FF90EF9059
:102EC000DF90CF90BF90AF909F908F9008956AE968
:102ED00079EF89E794ECF2CF85ED8093BC00809187
:102EE000300490913104A0913204B09133040796DC
:102EF000A11DB11D23E0B695A795979587952A95B5
:102F0000D1F72091BC0024FD03C010922E04089537
:102F10004091300450913104609132047091330437
:102F2000452B462B472B69F30097A105B10541F0CE
:102F30002AE22A95F1F700C00197A109B109E1CF72
:102F400080912F040C9443091F920F920FB60F9299
:102F500011242F933F938F939F93AF93BF938091AF
:102F6000620390916303A0916403B0916503309173
:102F7000610323E0230F2D3758F50196A11DB11DE4
:102F8000209361038093620390936303A09364038F
:102F9000B09365038091660390916703A0916803E5
:102FA000B09169030196A11DB11D809366039093B2
:102FB0006703A0936803B0936903BF91AF919F919A
:102FC0008F913F912F910F900FBE0F901F901895EA
:102FD00026E8230F0296A11DB11DD2CF1F920F929A
:102FE0000FB60F9211240BB60F922F933F934F936E
:102FF0005F936F937F938F939F93AF93BF93EF9361
:10300000FF9384E394E00E943E07FF91EF91BF910C
:10301000AF919F918F917F916F915F914F913F9170
:103020002F910F900BBE0F900FBE0F901F90189511
:103030001F920F920FB60F9211240BB60F922F937F
:103040008F939F93EF93FF93E0914404F091450495
:103050008081E0914A04F0914B0482FD1DC0908173
:1030600080914D048F5F8F7320914E04821741F041
:10307000E0914D04F0E0EC5CFB4F958F80934D04A4
:10308000FF91EF919F918F912F910F900BBE0F9019
:103090000FBE0F901F9018958081F2CF1F920F9254
:1030A0000FB60F9211240BB60F922F933F934F93AD
:1030B0005F936F937F938F939F93AF93BF93EF93A0
:1030C000FF938091B900887F803609F44DC008F0E5
:1030D00040C0883209F4A9C028F5803109F49DC0A8
:1030E000C8F4882309F4FBC0883009F496C0FF9126
:1030F000EF91BF91AF919F918F917F916F915F9170
:103100004F913F912F910F900BBE0F900FBE0F90DC
:103110001F901895883109F488C0803241F7809358
:103120000C0414C0803409F49DC040F48033B9F31A
:103130008833E9F680930C0485ECB0C0803509F43F
:1031400085C0883509F496C0883489F60E946C17CA
:10315000CECF883909F48CC038F5883729F050F47F
:10316000883611F0803719F683E080932E04109290
:10317000F70257C0883809F47BC0803919F08038CD
:1031800009F0B5CF8091F702803208F071C0E0916C
:10319000F70281E08E0F8093F7028091BB00F0E090
:1031A000E952FD4F80833DC0803B39F0E0F4803A26
:1031B00009F479C0883A09F09ACF84E080932E040C
:1031C0001092D6021092D502E0916C03F0916D033B
:1031D00019958091D50281110FC081E08093D502AD
:1031E0001092B50209C0803C09F4A6CF883C09F4CE
:1031F000A3CF883B09F07BCFE091D60281E08E0F10
:103200008093D602F0E0EB54FD4F80818093BB00A9
:103210009091D6028091D50229C0809109048093B3
:10322000BB0085EC8093BC0062CF90910B04809131
:103230000A04981758F5E0910B0481E08E0F8093F3
:103240000B04F0E0E851FC4F8081E9CFE0910B04E2
:1032500081E08E0F80930B048091BB00F0E0E85179
:10326000FC4F808390910B0480910A049817C8F258
:1032700085E8D8CFE0910B0481E08E0F80930B049A
:103280008091BB00F0E0E851FC4F808380910D04F9
:1032900081115CCF81E08093080484EA8093BC00B4
:1032A00010922E0424CF85EC8093BC0010922E0443
:1032B0008091F702803230F4E091F702F0E0E952B9
:1032C000FD4F10826091F70270E0E0916A03F09187
:1032D0006B0387ED92E019951092F70208CF1092D8
:1032E0000C0434CF1F920F920FB60F9211240BB61D
:1032F0000F922F933F934F935F936F937F938F938F
:103300009F93AF93BF93CF93EF93FF939091060159
:10331000C0913303C09580913E038923C8239093C5
:103320003303C0FF05C0E0911E02F0911F02199502
:10333000C1FF05C0E0912002F09121021995C2FF62
:1033400005C0E0912202F09123021995C3FF05C048
:10335000E0912402F09125021995C4FF05C0E09187
:103360003B02F0913C021995C5FF05C0E091260291
:10337000F09127021995C6FF05C0E0912802F0914F
:1033800029021995C7FF05C0E0912A02F0912B028E
:103390001995FF91EF91CF91BF91AF919F918F912F
:1033A0007F916F915F914F913F912F910F900BBE45
:1033B0000F900FBE0F901F9018951F920F920FB68F
:1033C0000F9211240BB60F922F933F934F935F935D
:1033D0006F937F938F939F93AF93BF93CF93EF930D
:1033E000FF939CB1809103019170880F892BC0914C
:1033F0003203C09590913D03C923C82380933203C3
:10340000C0FF05C0E0911002F09111021995C1FFB3
:1034100005C0E0911202F09113021995C2FF05C098
:10342000E0911402F09115021995C3FF05C0E091D7
:103430001602F09117021995C4FF05C0E0913902F8
:10344000F0913A021995C5FF05C0E0911802F0917C
:1034500019021995C6FF05C0E0911A02F0911B02EE
:103460001995C7FF05C0E0911C02F0911D02199546
:10347000FF91EF91CF91BF91AF919F918F917F91EC
:103480006F915F914F913F912F910F900BBE0F90D5
:103490000FBE0F901F9018951F920F920FB60F92AC
:1034A00011240BB60F922F933F934F935F936F931B
:1034B0007F938F939F93AF93BF93CF93EF93FF939C
:1034C00093B1C0913103C09580913C038923C823F7
:1034D00090933103C4FF05C0E0910002F091010216
:1034E0001995C5FF05C0E0910202F09103021995FC
:1034F000C6FF05C0E0910402F09105021995C7FFCF
:1035000005C0E0910602F09107021995C0FF05C0C1
:10351000E0910802F09109021995C1FF05C0E09100
:103520000A02F0910B021995C2FF05C0E0910C024E
:10353000F0910D021995C3FF05C0E0910E02F091C4
:103540000F021995FF91EF91CF91BF91AF919F918C
:103550008F917F916F915F914F913F912F910F903C
:103560000BBE0F900FBE0F901F9018951F920F92D9
:103570000FB60F9211240BB60F922F923F924F92DB
:103580005F926F927F928F929F92AF92BF92CF92F3
:10359000DF92EF92FF920F931F932F933F934F93DE
:1035A0005F936F937F938F939F93AF93BF93EF93AB
:1035B000FF93CF93DF93CDB7DEB76197DEBFCDBF6B
:1035C0008091B0029091B10201969093B1028093E4
:1035D000B0020E94380600912D0310912E03209115
:1035E0002F0330913003601B710B820B930B6034FF
:1035F00072448F409105A0F44091290350912A0311
:1036000060912B0370912C0387EF94E00E94400D92
:103610009B01AC01283E83E038074105510518F4B1
:1036200020E030E0A90120935403309355034093E8
:10363000560350935703211531054105510509F4EF
:1036400040C060E472E48FE090E00E94F631A09107
:103650007003B09171030E94EB3160935403709337
:10366000550380935603909357032091BB0321FF8A
:1036700012C00E94973022E134E14FE15FE30E94E3
:10368000F8300E940D336093540370935503809378
:1036900056039093570360915403709155038091A2
:1036A00056039091570324E630E040E050E00E943A
:1036B000F6312093540330935503409356035093AF
:1036C0005703C0904403D0904503E0904603F09028
:1036D0004703609154037091550380915603909174
:1036E00057030E949730A70196010E94273220E0DD
:1036F00030E040E05FE30E94F830A70196010E94AD
:10370000283260934403709345038093460390935B
:1037100047030E9438060091380310913903209125
:103720003A0330913B03601B710B820B930BC12C4E
:10373000D12C7601603472448F40910570F4409131
:1037400034035091350360913603709137038DED4A
:1037500094E00E94400D6B017C01C0924A03D0921C
:103760004B03E0924C03F0924D034090580350906D
:10377000590360905A0370905B03C114D104E104B3
:10378000F10409F466C32090E1043090E204009152
:10379000E7041091E804F80130E020E060E070E018
:1037A000CB012215330564F482809380A480B58018
:1037B000680D791D8A1D9B1D2F5F3F4F3696F1CFF7
:1037C0009101032C000C440B550B2E873F87488B2F
:1037D000598B0E94F63149015A01F0E0E0E01A8667
:1037E0001B861C861D86E215F305FCF4D801129693
:1037F0006D917D918D919C911597681979098A0930
:103800009B099B01AC010E94C6332A853B854C85F0
:103810005D85260F371F481F591F2A873B874C8716
:103820005D8731960A5F1F4FDECF8090B203909084
:10383000B303B12CA12C6A857B858C859D852E8553
:103840003F85488959890E94F631ECE056954795A5
:1038500037952795EA95D1F7281539054A055B056F
:10386000A0F580916E0390916F0364E670E00E9472
:10387000E2334B0160E472E48FE090E0A70196012F
:103880000E94F631D4010E94EB3160934A03709399
:103890004B0380934C0390934D030E949730A301F8
:1038A00092010E9427322DEC3CEC4CE45EE30E9436
:1038B000F830A30192010E9428326093580370935C
:1038C000590380935A0390935B0380913F038823AD
:1038D00071F08091940381110AC08EE20E948805E4
:1038E00061E0892B09F060E08EE20E94B10581E47D
:1038F0000E941B06BC01990F880B990B0E949930FE
:103900006B017C01C0920103D0920203E092030399
:10391000F092040320E030E04CE553E40E94F830DC
:103920004B015C01A701960160E070EC8FE794E425
:103930000E9427329B01AC01C501B4010E94943260
:103940005B016C01609178037091790390E080E0F5
:103950000E9497307B018C019B01AC01B501C6012F
:103960000E94923087FD14C060917A0370917B03AE
:1039700090E080E00E9497307B018C019B01AC01BC
:10398000B501C6010E943C33181614F0750186017A
:103990002DEC3CEC44E251E4B701C8010E94F83040
:1039A0009B01AC0160E070E882EA94E40E94273257
:1039B0004B015C0125E531EC48EA5CE3B701C80145
:1039C0000E94F8309701A8010E94F8309B01AC01D9
:1039D000C501B4010E94283220E030E04AE754E4F7
:1039E0000E9494329B01AC0160E070E080E89FE3AC
:1039F0000E9427324B015C01C090FD02D090FE0274
:103A0000E090FF02F0900003AC019B0160E070E0E9
:103A100080E89FE30E942732A70196010E94273287
:103A20002091090330910A0340910B0350910C033C
:103A30000E94F830A70196010E9428326A877B878E
:103A40008C879D876093FD027093FE028093FF0236
:103A500090930003C090F902D090FA02E090FB022C
:103A6000F090FC02A7019601C501B4010E94273223
:103A700020910503309106034091070350910803FC
:103A80000E94F830A70196010E9428326B017C0148
:103A9000C092F902D092FA02E092FB02F092FC028C
:103AA0000E94900600912503109126032091270380
:103AB00030912803601B710B820B930B61347747A5
:103AC0008B41910590F00E949006609325037093BE
:103AD00026038093270390932803C092AA02D092D2
:103AE000AB02E092AC02F092AD0280E40E941B06B1
:103AF000BC01990F880B990B0E9499306B017C01D6
:103B000020E030E04CE553E40E94F8304B015C01CA
:103B1000A701960160E070EC8FE794E40E942732E1
:103B20009B01AC01C501B4010E94943220E030E059
:103B30004AE754E40E9494320E94493320913502AE
:103B40003091360240913702509138020E949432EF
:103B5000C0901903D0901A03E0901B03F0901C034F
:103B60002FE03FEC4BE55BE30E9428329B01AC0168
:103B700060E070E080E89FE30E94943223E333E941
:103B800048E853E40E942732A70196010E94273299
:103B9000209115033091160340911703509118039B
:103BA0000E94F830A70196010E9428326093190301
:103BB00070931A0380931B0390931C0384E40E9468
:103BC0001B06BC01990F880B990B0E9499306B0161
:103BD0007C0120E030E04CE553E40E94F8304B01DA
:103BE0005C01A701960160E070EC8FE794E40E940D
:103BF00027329B01AC01C501B4010E94943220E040
:103C000030E04AE754E40E9494320E944933209104
:103C100031023091320240913302509134020E94BD
:103C20009432C0901D03D0901E03E0901F03F090CB
:103C300020032FE03FEC4BE55BE30E9428329B0121
:103C4000AC0160E070E080E89FE30E94943223E3DF
:103C500033E948E853E40E942732A70196010E9405
:103C60002732209111033091120340911303509198
:103C700014030E94F830A70196010E942832609335
:103C80001D0370931E0380931F039093200385E40C
:103C90000E941B06BC01990F880B990B0E9499305A
:103CA0006B017C01C0920103D0920203E0920303F6
:103CB000F092040320E030E04AE754E40E94F83038
:103CC0004B015C01A701960160E070EC8FE794E482
:103CD0000E9427329B01AC01C501B4010E949432BD
:103CE0002DE336EF4AE355E40E9494320E944933B3
:103CF00020912D0230912E0240912F0250913002DE
:103D00000E949432C0902103D0902203E0902303BC
:103D1000F09024032FE03FEC4BE55BE30E94283258
:103D20009B01AC0160E070E080E89FE30E94943268
:103D300023E333E948E853E40E942732A7019601C0
:103D40000E94273220910D0330910E0340910F0302
:103D5000509110030E94F830A70196010E9428326A
:103D60006093210370932203809323039093240391
:103D70008FE30E941B068C018FE30E941B06080F35
:103D8000191F8FE30E941B06080F191F8FE30E9463
:103D90001B06080F191F8FE30E941B06080F191F2F
:103DA0008FE30E941B06080F191F8FE30E941B065A
:103DB000800F911F813243E0940748F473E0969599
:103DC00087957A95E1F7909343038093420380911E
:103DD000AE029091AF0201969093AF028093AE0233
:103DE000049709F088C08090440390904503A09008
:103DF0004603B0904703C501B4010E940D336B0127
:103E0000F12CE12CE091360550912C055E87209035
:103E10001B0506E010E00E1B11090E5E1A4F6AE04A
:103E2000462E512C612C712CEE2309F440C0332412
:103E30003A943E0EF0E021E030E040E050E0F3152F
:103E4000D8F4AAE0B0E00E94EB319B01AC01FF5F27
:103E5000F6CFA301920160E070E0CB010E9427320F
:103E600020E030E040E05FE322CDEE85D801EC9326
:103E70000F5F1F4FE32DD8CFC216D306E406F50619
:103E800028F4E13091F7D8012C92F2CFC701B601A6
:103E90000E94F631CA01B901A30192010E94F631D4
:103EA0006E5E7A4FFB018185D8018C93E1CFC09083
:103EB0004E03D0904F03E0905003F0905103A701C0
:103EC0009601C501B4010E9427322AE037ED43E292
:103ED0005CE30E94F830A70196010E9428326093AB
:103EE0004E0370934F0380935003909351031092AD
:103EF000AF021092AE026091580370915903809105
:103F00005A0390915B030E940D3329E0EFE6F2E043
:103F1000DE01119601900D922A95E1F7B12CA12CAA
:103F20009B01A50160E070E080E090E005E00E9468
:103F3000E93419012A013B014C0128E5A22E3BE19D
:103F4000B32EC12CD12CE12CF12C00E010E091011A
:103F50000E9414342E8740ECA42E5AEDB52E910108
:103F6000A201B301C4010E941434022F132F0730A1
:103F7000110514F006E010E092E0F92E6801BFEFA1
:103F8000CB1ADB0A8F2D90E0C816D9062CF06FEF04
:103F90000E94AA13F394F6CF83E0800FE82EF12C51
:103FA000E5E0EE1540F060E0C7010E94AA13FFEFC4
:103FB000EF1AFF0AF5CF2E85277030E040E050E081
:103FC00060E070E080E090E0A1E00E940235E1E076
:103FD000F0E0EC0FFD1FE20FF31F6081C8010296B5
:103FE0000E94AA1380914103882351F06FEF86E06D
:103FF00090E00E94AA136FEF87E090E00E94AA135E
:1040000060912C0270E090E080E00E9497302A8559
:104010003B854C855D850E94F8306B017C01809169
:10402000BB0382FF80C02DE831E447E85EE3C701AF
:10403000B6010E94F8306B017C0120E030E0A9015C
:104040000E94923087FD8DC020E030E046EC52E4C3
:10405000C701B6010E943C3318160CF484C0C70196
:10406000B6010E940D33623008F077C080910501DF
:104070008062809305016093B2020091AE031091BB
:10408000AF03B80190E080E00E9497309B01AC0143
:104090006091190370911A0380911B0390911C0386
:1040A0000E9427326B017C016091B0037091B103D3
:1040B000601B710B90E080E00E9497309B01AC0187
:1040C000C701B6010E94943220E030E040E851E49C
:1040D0000E94F8300E94063310E077FD06C061317F
:1040E000710514F060E170E0162F85E0E8E7F2E07A
:1040F000DE01119601900D928A95E1F7E12EF12CE7
:10410000F694E794F694E79408E0670127E0C20E7E
:10411000D11C802F90E0C816D9063CF16FEF0E94A9
:10412000AA130F5FF6CF20E030E0A901C701B60166
:104130000E94923087FD15C020E030E046EC52E44A
:10414000C701B6010E943C3318166CF0C701B601D6
:104150000E940D336A3008F489CF809105018F7D6C
:1041600088CF60E083CF63E6F8CFE12FE370EC0FF8
:10417000FD2FF11DD2806D2DC70108960E94AA1354
:1041800009E00E0D10E00C3038F460E0C8010E9428
:10419000AA130F5F1F4FF7CF60E034E0E316F1047E
:1041A00009F46D2D8CE090E00E94AA1360E08DE090
:1041B00090E00E94AA1360E08EE090E00E94AA13B3
:1041C00060E08FE090E00E94AA1361960FB6F89429
:1041D000DEBF0FBECDBFDF91CF91FF91EF91BF91B9
:1041E000AF919F918F917F916F915F914F913F918F
:1041F0002F911F910F91FF90EF90DF90CF90BF9084
:10420000AF909F908F907F906F905F904F903F9076
:104210002F900F900BBE0F900FBE0F901F90189510
:10422000CF93DF93EC01862F92E1E3E5F2E0DE012C
:10423000199601900D929A95E1F79FEF9DA390E159
:104240009EA396E09CA321E832E0398328836FA3E4
:1042500027E028A799A761E00E94DF0561E088A513
:104260000E94DF0561E089A50E94DF0561E08FA162
:104270000E94B10561E088A50E94B10560E089A5B2
:10428000DF91CF910C94B105CF93DF93EC011982AC
:1042900018821B821A821D821C8261E070E090E00D
:1042A00080E00E9433360097A1F0998388831B82B7
:1042B0001A822C813D81232B11F4FC0110821D8276
:1042C0001C8269EA72E088819981DF91CF910C9418
:1042D000243788819981009711F00E94AA351982AC
:1042E00018821D821C821B821A82DF91CF91089551
:1042F000CF93DF93E4E3F4E01382128288EE93E03D
:10430000A0E0B0E084839583A683B78329E832E0F8
:104310003183208325EC30E03587248724EC30E09E
:104320003787268720EC30E0318B208B21EC30E082
:10433000338B228B22EC30E0358B248B26EC30E063
:10434000378B268B118E128E138E148EE1EDF4E0D6
:104350001382128284839583A683B7838BE992E0CC
:1043600091838083CDEDD4E085E090E09D838C83C4
:104370008EE190E00E940E359B878A879D878C870F
:104380001F861E86188A198A1A8A1B8A8BEE94E069
:104390009D8B8C8B1E8A1F8A188E198E8DE195E05D
:1043A000998388831B821A82C7EFD4E08CE090E067
:1043B0009D838C8388E490E00E940E359B878A87DA
:1043C0009D878C871F861E86188A198A1A8A1B8ADF
:1043D00085E095E09D8B8C8B1E8A1F8A188E198E26
:1043E00085E594E0998388831B821A828FE995E0A2
:1043F0000E94442185EA95E00E9444218BEA95E0E1
:104400000E944421EEE7F5E08CE085838AE0868314
:104410008BE08783108681E195E09287818784E035
:10442000838781E0848B11821082128283831482BD
:1044300069E08CE395E00E94102168E082E195E05C
:104440000E94102140E853E46DE678E380E795E0B0
:104450000E94670840E853E46DE678E386E795E05C
:104460000E94670840E853E46DE678E38AE695E049
:104470000E94670810926605109267051092680501
:1044800010926905DF91CF910895CF93DF93CDB757
:10449000DEB762970FB6F894DEBF0FBECDBF78943B
:1044A00084B5826084BD84B5816084BD85B5826039
:1044B00085BD85B5816085BD80916E0081608093EA
:1044C0006E00109281008091810082608093810053
:1044D0008091810081608093810080918000816063
:1044E000809380008091B10084608093B1008091BE
:1044F000B00081608093B0008091910082608093D1
:104500009100809191008160809391008091900052
:104510008160809390008091A10082608093A100CF
:104520008091A10081608093A1008091A0008160B2
:104530008093A0008091210182608093210180916D
:10454000210181608093210180912001816080930D
:10455000200180917A00846080937A0080917A00B3
:10456000826080937A0080917A00816080937A00E3
:1045700080917A00806880937A001092C100109236
:104580005403109255031092560310925703109241
:104590004A0310924B0310924C0310924D03109259
:1045A0004403109245031092460310924703109261
:1045B00058031092590310925A0310925B0361E062
:1045C00089E20E94DF0561E088E20E94DF0561E088
:1045D00089E20E94B10561E088E20E94B10564E6CB
:1045E00070E080E090E00E945D060E942C098091BE
:1045F000C2039091C303009711F00E94AA3586E090
:1046000090E00E940E358C0188E6D8018C9351ED24
:10461000C52E54E0D52E1296DC92CE9211971396A9
:104620001C92139780E290E015969C938E931497BA
:104630001093C3030093C2030E942C09FF24F39438
:10464000F801F382C8010E94920C80935C031092DF
:10465000F8028CED95E090936F0380936E0384E6EF
:1046600090E0909371038093700380EA9FE09093B1
:10467000730380937203909375038093740384EEA5
:104680009EE0909377038093760383E290E090938B
:1046900079038093780389E091E090937B03809382
:1046A0007A0382E090E090937D0380937C03909363
:1046B0007F0380937E039093810380938003909384
:1046C00083038093820310928403109285031092D7
:1046D0008603109287031092880310928903109228
:1046E0008A0310928B0310928C0310928D03109208
:1046F0008E0310928F03F09290038AE080939103CF
:1047000086E48093920310929303F092940388E5D9
:104710009BE19093960380939503109297031092D8
:1047200098031092990310929A0310929B0310928F
:104730009C0310929D0310929E0310929F0310926F
:10474000A0031092A1031092A2031092A30310924F
:10475000A4031092A5031092A6031092A70310922F
:10476000A9031092A8031092AB031092AA0310920F
:10477000AC03F092AD038CE390E09093AF03809391
:10478000AE0388E790E09093B1038093B0038FEF7E
:104790009FEF9093B3038093B20380E197E29093ED
:1047A000B6038093B5031092B7031092B80310922A
:1047B000B9031092BA0381E090E0A0E0B0E08093EA
:1047C000BB039093BC03A093BD03B093BE030E94B0
:1047D000F60D0E942C09D0924302C092420280E55D
:1047E000809344028FEF0E942C0B811134C0F09211
:1047F000F8020E94751604E210E042ECE42E43E059
:10480000F42E81117BC084E48983BE016F5F7F4FEA
:1048100080E290E00E94E11519E41983BE016F5F08
:104820007F4F81E290E00E94E11587E48983BE0119
:104830006F5F7F4F82E290E00E94E1151983BE0115
:104840006F5F7F4F83E290E00E94E11584E290E089
:104850000E94F81520C20E9475168111C1C10E94E4
:10486000B80F34E2C32ED12CE12CF12C02EC13E072
:10487000811195C184E4898321E030E0AE014F5F6E
:104880005F4F60E270E080E090E00E94410B19E42D
:10489000198321E030E0AE014F5F5F4F61E270E0CD
:1048A00080E090E00E94410B87E4898321E030E0C2
:1048B000AE014F5F5F4F62E270E080E090E00E94E7
:1048C000410B198321E030E0AE014F5F5F4F63E29F
:1048D00070E080E090E00E94410B21E530E04EE680
:1048E00053E064E270E080E090E00E94410B0E949F
:1048F00025160E9425160E94251685CFC8010E9404
:104900005116EEE6F3E080E091918927EE16FF065E
:10491000D9F79091B403891729F013950432F3E085
:104920001F0761F7E091970394E0E99FF0011124DC
:10493000E259FC4F82A993A9A4A9B5A980934E037B
:1049400090934F03A0935003B093510380915C0365
:10495000882309F45BC0CE0101960E94431086E0D3
:10496000FE013196A0E7B5E001900D928A95E1F73E
:104970008091A8039091A9031CE3189F7001199FCF
:10498000F00C112480E795E00E94FE07AB01BC010A
:104990004E195F0961097109CE0101960E946708ED
:1049A00086E0FE013196A0E7B5E001900D928A9570
:1049B000E1F7CE0101960E94431086E0FE01319698
:1049C000A6E7B5E001900D928A95E1F78091AA03E0
:1049D0009091AB03189F7001199FF00C112486E78A
:1049E00095E00E94FE07AB01BC014E195F09610909
:1049F0007109CE0101960E94670886E0FE0131969A
:104A0000A6E7B5E001900D928A95E1F780918605C1
:104A1000882309F46FC11FB7F89480917D05811137
:104A200027C0E2EAF7E08491E8EEF7E09491E82FFE
:104A3000F0E0EE0FFF1FE15EF84FA591B491EC910D
:104A4000E92321F461E085E30E94B10561E085E39B
:104A50000E94DF058CB580618CBD8CB580648CBDF7
:104A600061E084E30E94DF0561E083E30E94DF05EB
:104A700080917D058F5F80937D051FBF61E08091F0
:104A800085050E94DF0561E0809185050E94B105E2
:104A900010928F0510928E0510929105109290053C
:104AA0008091940590919505855F914009F447C1E7
:104AB000E5EFF1E0F0939505E093940510929605EB
:104AC00088E08093970510929A05109299058FEFD0
:104AD00090E090939C0580939B0510929E05109208
:104AE0009D05E491E63409F033C0E6EFF1E0E4918E
:104AF000E13009F40AC182E090E0E23029F5E7EF05
:104B0000F1E08491E8EFF1E0E49190E0982F8827BC
:104B10008E0F911D90939A0580939905E9EFF1E02E
:104B20008491EAEFF1E0E49190E0982F88278E0FCE
:104B3000911D90939C0580939B05EBEFF1E0E49130
:104B4000E093970587E090E090939E0580939D0504
:104B5000C0909D05D0909E05F12CE12C20919905E7
:104B600030919A0540919B0550919C0560E0421759
:104B7000530708F4E2C0F601EB50FE4F849168172A
:104B800008F4682F90E0B0E0A0E00196A11DB11DEF
:104B9000C80ED91EEA1EFB1E2F5F3F4FE8CF21E54E
:104BA00030E04EE653E0C701B6010E94080FEEE682
:104BB000F3E080E0919189270E171F07D9F79091B4
:104BC000B403891709F41FCE2FEFD21AE20AF20AB2
:104BD00034E2C31633E0D306E104F10401F713CE47
:104BE0000E94B80F81115EC004E210E022ECE22EB8
:104BF00023E0F22EC8010E945116EEE6F3E080E0B9
:104C000091918927EE16FF06D9F79091B403891781
:104C100029F01395043243E0140761F784E4898393
:104C200021E030E0AE014F5F5F4F60E270E080E076
:104C300090E00E94410B19E4198321E030E0AE01BD
:104C40004F5F5F4F61E270E080E090E00E94410BB7
:104C500087E4898321E030E0AE014F5F5F4F62E27D
:104C600070E080E090E00E94410B198321E030E089
:104C7000AE014F5F5F4F63E270E080E090E00E9422
:104C8000410B21E530E04EE653E064E270E080E065
:104C900090E00E94410B0E9425160E9425160E945A
:104CA000251640CE94E2C92ED12CE12CF12C02EC39
:104CB00013E021E530E04EE653E0C701B6010E9463
:104CC000080FEEE6F3E080E0919189270E171F07A9
:104CD000D9F79091B403891709F495CD5FEFD51AF0
:104CE000E50AF50A84E2C81683E0D806E104F10477
:104CF00001F789CD61E0809183050E94DF0561E0C5
:104D0000809184050E94DF05B9CEE7EFF1E0E491E0
:104D1000F0E0F0939A05E0939905E8EFF1E0E49173
:104D2000F0E0F0939C05E0939B05E9EFF1E0E4915E
:104D3000E093970585E090E007CF60939805109188
:104D40008905B9E01B9FC00111240E940E357C012A
:104D500090938B0580938A05812F90E0880F991F8F
:104D60000E940E3590938D0580938C05892B71F1EF
:104D7000EF2861F170E060E083E090E00E94301580
:104D800067E070E081E090E00E94301567E070E03D
:104D900082E090E00E94301570E060E084E090E0F6
:104DA0000E9430150E94BC1570E060E090E080E049
:104DB0000E94301570E060E08BE090E00E943015BA
:104DC00061E070E08AE090E00E94301570E060E001
:104DD0008AE090E00E9430150E94BC1510E4109308
:104DE0005E057FE3D72ED0924505E6E0EE2EE092F9
:104DF00046058BE9809347058FE88093480586EA4E
:104E0000809349058DEA80934A058DEB80934B058D
:104E1000F7E0FF2EF0924C058FEB80934D058FEA63
:104E200080934E0587EB80934F058CEB8093500564
:104E300009E3009351058EE98093520589EB809335
:104E4000530581EB80935405E0916205F0E0E45C4A
:104E5000FA4FA0E8CA2EC1868CE395E00E94BD12ED
:104E600062E08CE395E00E945E1261E08CE395E0E5
:104E70000E9439128CE395E00E94AE1240E070E08F
:104E800060E08CE395E00E948512C0923405D092D8
:104E90001B05E0921C058BE580931D058FE4809334
:104EA0001E0586E680931F058DE6809320058DE71D
:104EB00080932105F09222058FE7809323058FE6EA
:104EC0008093240587E7809325058CE7809326054A
:104ED000009327058EE58093280589E780932905AF
:104EE00081E780932A05E0913805F0E0EE5EFA4F05
:104EF000118782E195E00E94BD1262E082E195E0B7
:104F00000E945E1262E082E195E00E94391282E125
:104F100095E00E94AE1240E070E060E082E195E032
:104F20000E94851261E088E10E94DF0561E089E16D
:104F30000E94DF0561E08AE10E94DF0580910401A3
:104F4000806280930401809105018F7D809305012B
:104F500080910401806180930401809105018F7E1E
:104F6000809305011092410360E087E30E94DF0512
:104F700060E088E30E94DF0560E08FE30E94DF05C8
:104F800060E080E40E94DF0560E081E40E94DF05CC
:104F900060E084E40E94DF0560E085E40E94DF05B4
:104FA0000E94900660932503709326038093270345
:104FB000909328031092430310924203609172036E
:104FC0007091730390E080E00E9497304B015C0188
:104FD0008092350290923602A0923702B092380247
:104FE000609174037091750390E080E00E949730A7
:104FF0006B877C878D879E87609331027093320226
:10500000809333029093340260917603709177031A
:1050100090E080E00E9497302B013C0140922D02ED
:1050200050922E0260922F027092300260917C03A7
:1050300070917D0390E080E00E9497302AE037ED88
:1050400043E25CE30E94F83060931503709316030B
:10505000809317039093180360917E0370917F03F0
:1050600090E080E00E9497302AE037ED43E25CE375
:105070000E94F8302DEC3CEC4CEC5DE30E94F830E3
:10508000609311037093120380931303909314039E
:10509000609180037091810390E080E00E949730DE
:1050A0002AE037ED43E25CE30E94F8302DEC3CEC63
:1050B0004CEC5DE30E94F83060930D0370930E0397
:1050C00080930F0390931003609182037091830388
:1050D00090E080E00E9497302AE037ED43E25CE305
:1050E0000E94F8306B017C012FE832EC45EF5CE365
:1050F0000E94F8306093090370930A0380930B03B6
:1051000090930C032AE037ED43E25CE3C701B6015C
:105110000E94F830609305037093060380930703A1
:10512000909308038091920380932C0204E610E090
:1051300080E40E941B06BC01990F880B990B0E940A
:105140009930209101033091020340910303509163
:1051500004030E942832609301037093020380933A
:105160000303909304030150110911F720E030E08C
:1051700048EC52E40E9494326B017C01C09201031E
:10518000D0920203E0920303F092040320E030E0A7
:105190004CE553E40E94F8306F87788B898B9A8BAB
:1051A000A701960160E070EC8FE794E40E9427323B
:1051B0009B01AC016F85788989899A890E94943214
:1051C00020E030E04AE754E40E9494320E944933E0
:1051D000A50194010E9494322FE03FEC4BE55BE384
:1051E0000E9428329B01AC0160E070E080E89FE300
:1051F0000E94943223E333E948E853E40E942732C3
:105200006093190370931A0380931B0390931C03FC
:1052100004E610E084E40E941B06BC01990F880B91
:10522000990B0E9499302091010330910203409123
:105230000303509104030E9428326093010370938A
:10524000020380930303909304030150110911F7A3
:1052500020E030E048EC52E40E9494326B017C0183
:10526000C0920103D0920203E0920303F092040380
:1052700020E030E04CE553E40E94F8304B015C0143
:10528000A701960160E070EC8FE794E40E9427325A
:105290009B01AC01C501B4010E94943220E030E0D2
:1052A0004AE754E40E9494320E9449332B853C859E
:1052B0004D855E850E9494322FE03FEC4BE55BE329
:1052C0000E9428329B01AC0160E070E080E89FE31F
:1052D0000E94943223E333E948E853E40E942732E2
:1052E00060931D0370931E0380931F03909320030C
:1052F0000CE211E081E40E941B06BC01990F880BAF
:10530000990B0E9499302091010330910203409142
:105310000303509104030E942832609301037093A9
:10532000020380930303909304030150110911F7C2
:1053300020E030E046E953E40E9494326B017C01A6
:10534000C0920103D0920203E0920303F09204039F
:1053500020E030E04CE553E40E94F8304B015C0162
:10536000A701960160E070EC8FE794E40E94273279
:105370009B01AC01C501B4010E9494325B016C0138
:10538000609178037091790390E080E00E949730FB
:105390007B018C019B01AC01B501C6010E949230DA
:1053A00087FD14C060917A0370917B0390E080E0E8
:1053B0000E9497307B018C019B01AC01B501C601B5
:1053C0000E943C33181614F0750186012DEC3CEC5C
:1053D00044E251E4B701C8010E94F8309B01AC01DE
:1053E00060E070E882EA94E40E9427324B015C019D
:1053F00025E531EC48EA5CE3B701C8010E94F830CA
:105400009701A8010E94F8309B01AC01C501B401CD
:105410000E94283220E030E04AE754E40E949432AF
:105420009B01AC0160E070E080E89FE30E942732BE
:105430006B017C01AC019B0160E070E080E89FE3C0
:105440000E9427326093FD027093FE028093FF0258
:1054500090930003C092F902D092FA02E092FB020C
:10546000F092FC0204E610E085E40E941B06BC01F9
:10547000990F880B990B0E9499302091010330916C
:10548000020340910303509104030E942832609369
:10549000010370930203809303039093040301506C
:1054A000110911F720E030E048EC52E40E949432F8
:1054B0006B017C01C0920103D0920203E0920303CE
:1054C000F092040320E030E04AE754E40E94F83010
:1054D0004B015C01A701960160E070EC8FE794E45A
:1054E0000E9427329B01AC01C501B4010E94943295
:1054F0002DE336EF4AE355E40E9494320E9449338B
:10550000A30192010E9494322FE03FEC4BE55BE354
:105510000E94283260932103709322038093230317
:105520009093240380910401877F8093040182EC8F
:105530009DE090933A028093390280913D0380610F
:1055400080933D039CB1809103019170880F892B5A
:105550008093320380916C00806180936C00809115
:10556000680082608093680078940E943806609397
:105570002D0370932E0380932F039093300310928A
:10558000290310922A0310922B0310922C0340E05F
:1055900050E0BA0187EF94E00E94400D40E050E0F7
:1055A000BA0187EF94E00E94400D40E050E0BA015C
:1055B00087EF94E00E94400D40E050E0BA0187EF91
:1055C00094E00E94400D40E050E0BA0187EF94E083
:1055D0000E94400D62E082E40E94DF058CE996E0C3
:1055E00090933C0280933B0280913E0380618093C4
:1055F0003E03809106018093330380916D008061AA
:1056000080936D0080916800846080936800789436
:105610000E943806609338037093390380933A03ED
:1056200090933B031092340310923503109236038B
:105630001092370340E050E0BA018DED94E00E94F3
:10564000400D40E050E0BA018DED94E00E94400D25
:1056500040E050E0BA018DED94E00E94400D40E042
:1056600050E0BA018DED94E00E94400D40E050E022
:10567000BA018DED94E00E94400DE0914404F09158
:10568000450482E08083E0914004F091410410825F
:10569000E0914204F09143048FEC808310924C041B
:1056A000E0914804F091490486E08083E09146044B
:1056B000F0914704808180618083E0914604F091FD
:1056C0004704808188608083E0914604F09147041C
:1056D000808180688083E0914604F0914704808156
:1056E0008F7D80830E94900610923F0361E08EE2DE
:1056F0000E94DF0560E083E40E94DF0560E08FE048
:105700000E94DF0560E08EE00E94DF0560E087E137
:105710000E94DF050E94900660E087E30E94DF059B
:1057200060E088E30E94DF05809104018B7F809315
:10573000040161E086E10E94DF0560E086E10E94ED
:10574000B1050E9490060E94900660935D037093DD
:105750005E0380935F0390936003F8941092A0001F
:105760001092A1001092A5001092A40081EA97E087
:105770009093A9008093A8008091A10088608093F5
:10578000A1008091A10085608093A10080917200AA
:1057900082608093720078946AE0462E512C612CCE
:1057A000712C409160054F5F6EE375E08CE395E0EE
:1057B0000E940912409136054F5F64E175E082E175
:1057C00095E00E9409120E94B6140E949006C090B3
:1057D0005D03D0905E03E0905F03F09060030E9451
:1057E00090066C197D098E099F09693E73408105F9
:1057F000910508F4E7C20E94900660935D037093E0
:105800005E0380935F039093600380915C03882321
:1058100009F4DBC2CE0101960E94431086E0FE012E
:105820003196AAE6B5E001900D928A95E1F7A09035
:105830006D058A2D90E09093410280934002B090D4
:105840006E058B2D90E090933F0280933E02009175
:105850009703F6E00F9F8001112400591A4F8AE642
:1058600095E00E94FE076B017C01C8010E94FE07C3
:10587000A7019601261B370B480B590BCA01B9012A
:10588000609366057093670580936805909369053A
:105890000091970310E0000F111F08551C4F2CE3D7
:1058A00030E040E050E00E94CC31D8012D933C9391
:1058B000A0924903B09248032091580330915903B4
:1058C00040915A0350915B032B873C874D875E873D
:1058D00020E030E048E453E46B857C858D859E852F
:1058E0000E943C3318169CF48091B7039091B80342
:1058F000A091B903B091BA030196A11DB11D809387
:10590000B7039093B803A093B903B093BA038091FF
:10591000540390915503A0915603B09157034091C1
:105920008403509185036091860370918703480F2B
:10593000591F6A1F7B1F4093840350938503609314
:10594000860370938703E091970334E0E39FF001AF
:105950001124E259FC4F428D538D648D758D840F57
:10596000951FA61FB71F828F938FA48FB58F0E949C
:10597000C30E20E030E04AE754E40E94943220E075
:1059800030E0A9010E94923087FF25C2C12CD12CA2
:1059900076010091970344E0049F8001112402598D
:1059A0001C4FD8019A968D909D90AD90BC909D977C
:1059B000A5019401C701B6010E9427322AE037ED04
:1059C00043E25CE30E94F830A50194010E94283272
:1059D000F80162A773A784A795A7C0908403D0900D
:1059E0008503E0908603F09087038AE0E5E6F2E025
:1059F000DE01119601900D928A95E1F7C701B6017B
:105A000020E03AE245E755E10E94F631CA01B901CA
:105A1000A30192010E94F63121E030E02C0F3D1FDE
:105A2000620F731FDB016C9181E190E00E94AA1369
:105A3000C701B60120E031E545E252E00E94F631AF
:105A4000CA01B901A30192010E94F631E1E0F0E040
:105A5000EC0FFD1F6E0F7F1FDB016C9182E190E068
:105A60000E94AA13C701B60120E83EEE46E350E0CB
:105A70000E94F631CA01B901A30192010E94F631D8
:105A8000E1E0F0E0EC0FFD1F6E0F7F1FDB016C917A
:105A900083E190E00E94AA13C701B60120E43EE72B
:105AA00045E050E00E94F631CA01B901A30192011C
:105AB0000E94F631E1E0F0E0EC0FFD1F6E0F7F1F5A
:105AC000DB016C9184E190E00E94AA13C701B6014A
:105AD00020EA3CE840E050E00E94F631CA01B901FA
