:100000000C948C040C94BD040C94BD040C94BD049D
:100010000C94BD040C94BD040C94BD040C94BD045C
:100020000C94BD040C9435210C94C6200C945B20D8
:100030000C94BD040C94BD040C94BD040C94BD043C
:100040000C94BD040C94BD040C94BD040C94BD042C
:100050000C94BD040C94BD040C94BD040C948D1E32
:100060000C94BD040C94011F0C94D71E0C94BD0479
:100070000C94BD040C94BD040C94BD040C94BD04FC
:100080000C94BD040C94BD040C94BD040C94BD04EC
:100090000C94BD040C94BD040C94BD040C94371F47
:1000A0000C94BD040C94BD040C949F210C94BD04CD
:1000B0000C94BD040C94BD040C94BD040C94BD04BC
:1000C0000C94BD040C94BD040C94BD040C94BD04AC
:1000D0000C94BD040C94BD040C94BD040C94BD049C
:1000E0000C94BD0408000000BE922449123EABAA45
:1000F000AA2ABECDCCCC4C3E00000080BEABAAAA42
:10010000AA3E00000000BF000000803F0000000089
:1001100000084178D3BB4387D1133D190E3CC3BDC2
:100120004282AD2B3E68EC8276BED98FE1A93E4C6F
:1001300080EFFFBE01C4FF7F3F00000000000C9471
:1001400074380C94473A0C94490B0C94E4050C94C5
:10015000F0390C94A8390C94C7380C94EA050C9427
:10016000BA390C9494390C94193A0C94BD3E0C9401
:10017000C3390C9406070C9471070C944A350C94FF
:10018000CB070C9435070C94D4380C94D2050C94FE
:10019000E60A0C94F5380C94083A0C94E1380C9467
:1001A00018390C94AF050C9430390C94B7380C9472
:1001B00087050C9433070C9418080C949F390C9401
:1001C0007F390C9489050C94A9050C94C30A0C94EE
:1001D000C4050C94293A0C94B7050C94C40A0C94E9
:1001E00004390C94373A0C9437390C9446390C94F2
:1001F0001A0B0C9471390C9493070C94CC390C9411
:1002000083380C94EE050C94B1390C94BF350C94E2
:1002100029350C948A050C9464390C9486390C9415
:100220007C350C94B0380C94B0350C944C330C9451
:100230008D350C94C8050C94303A0C94CE050C9472
:10024000E0050C94ED0A0C94DC050C9458390C94E0
:100250006C280C94E30C0C94D5390C94BE050C94CA
:100260005E390C94BE380C940E390C94E9050C944C
:10027000EB380C949C360C9478390C94BB050C9498
:100280006A390C9458280C94E7390C94D30A0C94CE
:10029000DE390C9452390C94BF040C943E3A0C9401
:1002A000B3050C94F9390C94223A0C9463350C94F0
:1002B0004C390C94D6050C9485070C9462074602C1
:1002C000000000FF0800053E5B4F5B3E053E6B4FA4
:1002D0006B3E051C3E7C3E1C05183C7E3C18051CF4
:1002E000577D571C051C5E7F5E1C0400183C1805DA
:1002F000FFE7C3E7FF040018241805FFE7DBE7FF6B
:100300000530483A060E05262979292605407F053D
:10031000050705407F05253F055A3CE73C5A057F08
:100320003E1C1C0805081C1C3E7F0514227F22145D
:1003300005FFFFFFFFFF05F0F0F0F0F003FFFFFF08
:1003400005000000FFFF050F0F0F0F0F0508047ECB
:1003500004080510207E20100508082A1C0805083E
:100360001C2A080805AA005500AA05AA55AA55AADC
:100370000530383E383005060E3E0E0602000001FC
:100380005F0307000705147F147F1405444AFF4AE2
:10039000320563130864630536494936480107038B
:1003A0003E41410341413E05082A1C2A0805080830
:1003B0003E08080260E00408080808026060056062
:1003C00010080403053E5149453E0304027F0571B0
:1003D00049494946054149494936050F0808087FFA
:1003E000054F49494931053E494949300503010155
:1003F000017F05364949493605064949493E026C9F
:100400006C026CEC03081422041414141403221458
:1004100008050159090906053E415D594E057E0949
:1004200009097E057F49494936053E41414141055B
:100430007F4141413E057F49494941057F090909FD
:1004400001053E41414979057F0808087F03417F46
:100450004105304141413F057F08142241057F405D
:10046000404040057F020C027F057F0408107F0595
:100470003E4141413E057F09090906053E41416172
:100480007E057F091929460546494949310501017B
:100490007F0101053F4040403F051F2040201F05D0
:1004A0003F4038403F056314081463050304780493
:1004B00003056151494543037F4141050304081089
:1004C000600341417F0504020102040480808080B2
:1004D00003010204043844447C047F444438043853
:1004E000444444043844447F043854545804047E3B
:1004F00005010418A4A47C047F040478017D03840E
:10050000857C047F102844017F057C0478047804EE
:100510007C040478043844443804FC242418041867
:100520002424FC047C040408045854543403047F39
:1005300004043C40407C041C20407C053C4030408E
:100540003C046C10106C041CA0A07C046454544C3B
:100550000408364141017F0441413608040201028A
:1005600001057F4141417F053E55555541053844C0
:10057000443844057C2A2A3E14057E0202060605FC
:10058000027E027E02056355494163053844443CBE
:100590000405407E201E200506027E020208631329
:1005A000086463006060052A2A2A2A2A03514A4403
:1005B00003444A51050000FF010303E080FF0536B4
:1005C00012362436030205020218180210100530F4
:1005D00040FF0101041F01011E000000000901018C
:1005E0007F017F020C027F0000000000000100017B
:1005F0007D0418247E2404447E454105221C141CDD
:100600002205012A7C2A010177044E55553903023F
:100610000002077E81BDA5A5817E0326292F05083E
:10062000142A1422040808081803080808077E8101
:10063000BD95A9817E0501010101010302050203A7
:10064000242E24031915120315150A02020104F8B9
:100650002040780506097F017F021818040080A059
:10066000C003121F10032629260522142A14080885
:10067000402F1008041E117C08402F1008046255FA
:100680004C0915553F1008041E117C053048484D93
:1006900040057815161478057814161578057A151E
:1006A00014157A0578161516790578151415780538
:1006B0007814151478077E09097F494941059EA1E0
:1006C000612121057C54554644057C54564544051A
:1006D0007E55544546057C5554454403457E4403A8
:1006E000447E4503467D4603457C4505087F4941D8
:1006F0003E057C0A11227D053844454638053844BC
:10070000464538053A4544453A0538464546390593
:100710003845444538052214081422057C625A469F
:100720003E053C4041423C053C4042413C053C4288
:1007300041423C053C4140413C0502047A0502042B
:100740003F12120C057E49494E30043845467C0460
:100750003844467D043846457E043A45467D043893
:1007600045447D04304A4D7A072054543854545837
:10077000049CA26222043855565804385456590431
:100780003856555A043855545902017A027A0103F1
:100790000279020302780204304B4B3C047A090AC6
:1007A000710430494A300430484A3104304A4932F1
:1007B0000432494A3104394444390508082A0808F2
:1007C0000438544C380438414278043840427904A3
:1007D0003842417A043A40407A0418A0A27904FCD5
:1007E000282810041AA0A07A1F1C1F1E1F1E1F1FDE
:1007F0001E1F1E00002100240027002A002D0030AB
:1008000000330001010000040107010A0100002279
:1008100000250028002B002E0031003400020100CA
:1008200000050108010B010000200023002600291B
:10083000002C002F00320000010000030106010916
:100840000105050505070508080808020202020A55
:100850000A08080404040401010101010101010363
:1008600003030303030303040707070C0C0C0C0C1E
:100870000C0C0C0202020206060606060606060B11
:100880000B0B0B0B0B0B0B01021020200808102088
:10089000401020408002010201080402010102040C
:1008A00008102040808040201008040201800402CB
:1008B0000180402010080402010804020101020422
:1008C0000810204080010204081020408000000A27
:1008D0000B02090C0D0E08070304010000000000C4
:1008E0000000000000000000000000000000000008
:1008F00000000000000000000012111000000000C5
:1009000000000000000000000000000000000000E7
:10091000000000006C28582811241FBECFEFD1E240
:10092000DEBFCDBF00E00CBF18E0A0E0B2E0E0E128
:10093000F4E800E00BBF02C007900D92AC39B1079C
:10094000D9F72BE0ACE9B8E001C01D92A738B20797
:10095000E1F714E0CBE8D4E000E006C021970109FC
:10096000802FFE010E947C3ECA38D10780E0080734
:10097000A9F70E9442290C94F6410C9400002F9292
:100980003F924F925F926F927F928F929F92AF921F
:10099000BF92CF92DF92EF92FF920F931F93CF936C
:1009A000DF93FC01411551056105710521F441E01A
:1009B00050E060E070E08485958506969587848791
:1009C00022853385E480F580821B930B959587956E
:1009D000CBEADAEA8C9FD0018D9FB00D9C9FB00DC1
:1009E0001124AE15BF0514F035872487C485D5853D
:1009F0004A835B836C837D83088119812F0124E105
:100A0000420E511C84899589C817D90711F4158B9A
:100A1000048B848995891201712C612C6F01AEE0E1
:100A2000CA0ED11C6E147F040CF053C0DC01AD90D3
:100A3000BC901197CA15DB0511F40D931C93DC01D2
:100A400012968D909D90AD90BC901597841695064A
:100A5000A606B70658F4D2014D915C9111975983BF
:100A60004883CD93DC9340E050E0BA01D1012D9052
:100A70003C90C816D90669F1DC014D905C90D2011A
:100A8000AD90BC901197CA15DB0511F40D931C9322
:100A9000D20112968D909D90AD90BC9015978416C2
:100AA0009506A606B70658F4DC014D915C911197A6
:100AB00059834883CD93DC9340E050E0BA01C414DD
:100AC000D50439F0D2018D919C91BFEF6B1A7B0A4E
:100AD000A9CFD10112966D917D918D919C91159721
:100AE0006683778380879187DF91CF911F910F91E4
:100AF000FF90EF90DF90CF90BF90AF909F908F903E
:100B00007F906F905F904F903F902F9008950C943E
:100B1000BF04089508958150823108F05AC0E82F2B
:100B2000F0E08827E956FA4F8F4F0C947C3EB705CA
:100B3000BB05A905AF05B305E905BE05C405C80594
:100B4000CE05D205D605DC05E005E905E405EA0594
:100B5000EE05809180008F778093800008958091CA
:100B600080008F7DF9CF80918000877FF5CF84B59D
:100B70008F7784BD089584B58F7DFBCF8091B000C1
:100B80008F778093B00008958091B0008F7DF9CF6A
:100B9000809190008F7780939000089580919000CD
:100BA0008F7DF9CF80919000877FF5CF8091A00055
:100BB0008F778093A00008958091A0008F7DF9CF5A
:100BC0008091A000877FF5CF809120018F7780935F
:100BD00020010895809120018F7DF9CF809120011F
:100BE000877FF5CFCF93DF93282F30E0F901E353D0
:100BF000F74F8491F901E957F74FD491F901EF5B71
:100C0000F74FC491CC23A1F081110E948B05EC2FEA
:100C1000F0E0EE0FFF1FE95DF74FA591B491EC9165
:100C2000ED2381E090E009F480E0DF91CF91089519
:100C300080E090E0FACF1F93CF93DF93282F30E02E
:100C4000F901E353F74F8491F901E957F74FD49134
:100C5000F901EF5BF74FC491CC23A9F0162F811156
:100C60000E948B05EC2FF0E0EE0FFF1FE35FF74FC4
:100C7000A591B4918FB7F894EC91111108C0D0955B
:100C8000DE23DC938FBFDF91CF911F910895DE2B80
:100C9000F8CFCF93DF9390E0FC01E957F74F249111
:100CA0008F5B974FFC0184918823C9F090E0880FF7
:100CB000991FFC01ED50F84FA591B491FC01E35F41
:100CC000F74FC591D49161110DC09FB7F8948C91E5
:100CD000209582238C938881282328839FBFDF91CE
:100CE000CF910895623051F49FB7F8943C91822FD0
:100CF000809583238C93E8812E2BEFCF8FB7F894C8
:100D0000EC912E2B2C938FBFEACF863308F08653BD
:100D100020917B00982F9870277F922B90937B00D7
:100D20008770806480937C0080917A0080648093D7
:100D30007A0080917A0086FDFCCF809178009091B6
:100D4000790008953FB7F8948091BF099091C00948
:100D5000A091C109B091C20926B5A89B05C02F3F3B
:100D600019F00196A11DB11D3FBFBA2FA92F982FD1
:100D70008827BC01CD01620F711D811D911D42E0CC
:100D8000660F771F881F991F4A95D1F708958F9294
:100D90009F92AF92BF92CF92DF92EF92FF926B0140
:100DA0007C010E94A2064B015C01C114D104E10444
:100DB000F104B9F00E94A206681979098A099B0911
:100DC000683E73408105910580F321E0C21AD10885
:100DD000E108F10888EE880E83E0981EA11CB11C82
:100DE000E4CFFF90EF90DF90CF90BF90AF909F90B7
:100DF0008F9008952FB7F8946091BB097091BC094A
:100E00008091BD099091BE092FBF08950F931F9344
:100E10000E94A2060091290910912A0920912B090C
:100E200030912C09DC01CB01801B910BA20BB30B81
:100E3000893B2BE09207A105B10590F0809325092D
:100E400090932609A0932709B09328090E94A2062F
:100E50006093290970932A0980932B0990932C0998
:100E60001F910F91089508950895AF92BF92CF9268
:100E7000DF92EF92FF920F931F93CF93DF936C015A
:100E80007B018B01040F151FEB015E01AE18BF083B
:100E9000C017D10759F06991D601ED91FC910190ED
:100EA000F081E02DC6011995892B79F7C501DF91F5
:100EB000CF911F910F91FF90EF90DF90CF90BF9057
:100EC000AF900895FC01538D448D252F30E0842F81
:100ED00090E0821B930B541710F0CF960895019762
:100EE0000895FC01918D828D981761F0A28DAE0F4F
:100EF000BF2FB11D5D968C91928D9F5F9F73928FD6
:100F000090E008958FEF9FEF0895FC01918D828D01
:100F1000981731F0828DE80FF11D858D90E00895CE
:100F20008FEF9FEF0895FC01918D228D892F90E026
:100F3000805C9F4F821B91098F73992708958BE3E3
:100F40009AE00E94930721E0892B09F420E0822F88
:100F50000895FC01A48DA80FB92FB11DA35ABF4F4E
:100F60002C91848D90E001968F739927848FA689A8
:100F7000B7892C93A089B1898C91837080648C93FC
:100F8000938D848D981306C00288F389E02D8081AB
:100F90008F7D80830895EF92FF920F931F93CF93DD
:100FA000DF93EC0181E0888F9B8D8C8D98131AC0A4
:100FB000E889F989808185FF15C09FB7F894EE898B
:100FC000FF896083E889F9898081837080648083E8
:100FD0009FBF81E090E0DF91CF911F910F91FF9033
:100FE000EF900895F62E0B8D10E00F5F1F4F0F73DB
:100FF0001127E02E8C8D8E110CC00FB607FCFACF96
:10100000E889F989808185FFF5CFCE010E94A90783
:10101000F1CFEB8DEC0FFD2FF11DE35AFF4FF08266
:101020009FB7F8940B8FEA89FB8980818062CFCFCC
:10103000CF93DF93EC01888D8823B9F0AA89BB890F
:10104000E889F9898C9185FD03C0808186FD0DC0FA
:101050000FB607FCF7CF8C9185FFF2CF808185FF1B
:10106000EDCFCE010E94A907E9CFDF91CF9108957E
:1010700080E090E0892B29F00E949F0781110E9457
:10108000000080E090E0892B49F080E090E0892B1F
:1010900029F00E94000081110E94000080E090E091
:1010A000892B49F080E090E0892B29F00E94000014
:1010B00081110E94000080E090E0892B49F080E0DF
:1010C00090E0892B29F00E94000081110C9400000F
:1010D00008952091CA08260F3327331F2132310586
:1010E000ECF42091350AFC0190E080E0243069F0B6
:1010F00082E00895A091CA082191AC014655574F4E
:10110000A40FB52FB11D2C930196861798F38091EB
:10111000CA08680F6093CA0880E0089581E00895C6
:101120001092350A81E08093140A10920F0A61E050
:1011300084E10E941B0661E085E10E941B06E9EB49
:10114000F0E080818E7F808380818D7F808388E442
:101150008093B80085E48093BC0008951092CA097A
:101160001092C9091092CC091092EE090E949008C1
:1011700089E895E09093C6098093C5098AE895E0CF
:101180009093C4098093C3090895CF93DF9391E0AE
:101190009093A9088823B9F0C091B800D091BA0003
:1011A0008091BC008A7B8093BC0060E084E10E9457
:1011B0001B0660E085E10E941B060E949008D09308
:1011C000BA00C093B800DF91CF9108958F929F929B
:1011D000AF92BF92CF92DF92EF92FF920F931F9345
:1011E000CF93DF93D82FC62F142F613208F09CC005
:1011F0000E94A2066B017C018091350A81116FC0AB
:1012000081E08093350A1093140A9FEF9093130A9C
:101210001092120A9C0F9093110A8093100A8091E9
:10122000100ADD0FD82BD093100A80910F0A81305D
:1012300009F07CC010920F0A0E94A2066B017C018B
:101240008091100A8093BB008091370A9091380AF0
:10125000A091390AB0913A0A892B8A2B8B2BA1F0E5
:101260000E94A2060091370A1091380A2091390A8B
:1012700030913A0A6C197D098E099F0906171707E4
:101280002807390708F44CC08091BC0083FDD8CFF3
:1012900085EC8093BC000E94A2066B017C018091CA
:1012A000350A813009F444C08091120A8C1710F479
:1012B000C091120AEFEEF9E0A5E1BAE080E08C13EC
:1012C00059C08C2FDF91CF911F910F91FF90EF901C
:1012D000DF90CF90BF90AF909F908F9008958091B6
:1012E000370A9091380AA091390AB0913A0A892BAD
:1012F0008A2B8B2B09F480CF0E94A2068090370A9C
:101300009090380AA090390AB0903A0A6C197D0979
:101310008E099F0986169706A806B90608F06CCFB5
:101320008091360A0E94C508C0E0CBCF85EEB1CFD0
:101330008091370A9091380AA091390AB0913A0AFF
:10134000892B8A2B8B2B09F4AACF0E94A20600912D
:10135000370A1091380A2091390A30913A0A6C19EB
:101360007D098E099F09061717072807390708F016
:1013700096CFD6CF91919D938F5FA1CF8F929F9261
:10138000AF92BF92CF92DF92EF92FF920F931F9393
:10139000CF93DF93D091EE09D13208F0D7C0182F48
:1013A000C091ED090E94A2066B017C018091350A73
:1013B00081116BC082E08093350A1093140A8FEF7D
:1013C0008093130A1092120AD093110AADECB9E07F
:1013D000EFEEF9E080E0D81391C01092100A8091EE
:1013E000100ACC0FC82BC093100A80910F0A8130CD
:1013F00009F088C010920F0A0E94A2066B017C01BE
:101400008091100A8093BB008091370A9091380A2E
:10141000A091390AB0913A0A892B8A2B8B2BA1F023
:101420000E94A2060091370A1091380A2091390AC9
:1014300030913A0A6C197D098E099F090617170722
:101440002807390708F442C08091BC0083FDD8CF3B
:1014500085EC8093BC000E94A2066B017C01809108
:10146000350A823009F450C08091130A8F3F09F485
:101470006FC08091130A803209F46CC08091130A06
:10148000803309F469C084E026C08091370A9091C6
:10149000380AA091390AB0913A0A892B8A2B8B2BF2
:1014A00009F484CF0E94A2068090370A9090380AEF
:1014B000A090390AB0903A0A6C197D098E099F09EB
:1014C00086169706A806B90608F070CF8091360AEE
:1014D0000E94C50885E01092CC091092EE09109286
:1014E000CB09DF91CF911F910F91FF90EF90DF908B
:1014F000CF90BF90AF909F908F9008959D919193C2
:101500008F5F69CF85EEA5CF8091370A9091380A19
:10151000A091390AB0913A0A892B8A2B8B2B09F4B6
:101520009ECF0E94A2060091370A1091380A20919E
:10153000390A30913A0A6C197D098E099F090617FC
:1015400017072807390708F08ACFC0CF81E0C3CF3B
:1015500080E0C1CF82E0BFCF83E0BDCF8F3F11F4E9
:101560008091470291E09093CB098093ED0910920E
:10157000CC091092EE0981E00E94BE0991E0811130
:1015800090E0892F08950895E091CA098091C909D2
:10159000E81730F4F0E0EB5EF54F808190E00895BD
:1015A0008FEF9FEF08959091CA098091C9092FEF9D
:1015B0003FEF981748F4E92FF0E0EB5EF54F2081FC
:1015C00030E09F5F9093CA09C90108958091C909CD
:1015D0009091CA09891B990B0895CF92DF92EF92DF
:1015E000FF920F931F93CF93DF937C01CB018A016E
:1015F0002091CB09222389F0EB016B01C40ED51E8B
:10160000CC15DD0569F06991D701ED91FC91019050
:10161000F081E02DC7011995F3CF642F0E9469086E
:10162000C801DF91CF911F910F91FF90EF90DF9054
:10163000CF900895CF93DF931F92CDB7DEB7698324
:101640002091CB092223F9F02091EE09203258F0A5
:1016500021E030E0FC013383228390E080E00F90B2
:10166000DF91CF9108958091CC09E82FF0E0E3530A
:10167000F64F998190838F5F8093CC098093EE0918
:1016800081E090E0ECCF61E0CE0101960E94690814
:10169000F7CF90E080E00895CF93DF93EC018B814A
:1016A0008823A1F0888191E09093CB098093ED0984
:1016B0001092CC091092EE0981E00E94BE0991E0DF
:1016C000811190E0892FDF91CF9108950E94AE089B
:1016D00081E08B83CE010E944C0B982F8111E2CFC9
:1016E000F1CF8F929F92AF92BF92CF92DF92EF9203
:1016F000FF92CF93DF93EC016A017B0180E8C81A67
:1017000083E4D80A8DE6E80A88E3F80A8CE3882E99
:10171000912CA12CB12CC701B601A50194010E9406
:10172000633C6D83CA01B901A50194010E94633C29
:101730006C83C701B60120E13EE040E050E00E942A
:10174000633CCA01B90128E130E040E050E00E946A
:10175000633C6B83C701B60120E831E541E050E00E
:101760000E94633C188263E97EEF8881982F937012
:1017700041E050E011F050E040E0FA01E359FE4F43
:101780002E173F0740F0FB01E41BF50B2E0F3F1F08
:101790008F5F8883EACF81E0898389818C30A0F4D0
:1017A000482F4150550BFA01E851F84FE49191113F
:1017B00003C0823009F4EF5FF0E02E173F0720F0FE
:1017C0002E1B3F0B8F5FE8CF2F5F2A83DF91CF91D6
:1017D000FF90EF90DF90CF90BF90AF909F908F9051
:1017E0000895DC0150E0E8EEF7E081E0861730F480
:1017F0009491490F511D8F5F3196F8CF633038F0C7
:10180000CD0183709927892B11F44F5F5F4F9D01A4
:101810002D5F3F4F36952795369527956DE671E0FC
:10182000A69FC001A79F900DB69F900D1124019710
:10183000820F931F840F951F0895EF92FF920F93CD
:101840001F93CF93DF93EC0188814A81698190E0F7
:101850000E94F10B9C01A8E1B0E00E94853C2B8125
:101860007B018C01E20EF11C011D111DA8019701E5
:10187000ACE3B0E00E94583C2C817B018C01E20E6D
:10188000F11C011D111DA80197010E94583CAB01DC
:10189000BC019D81892F90E0B0E0A0E080589C4B76
:1018A000A249B74C8A019B01080F191F2A1F3B1F31
:1018B000C901B801DF91CF911F910F91FF90EF9077
:1018C0000895CF93DF93EC012A813B81D901B5952F
:1018D000A795A80FB91FE881F98120FF08C08D9155
:1018E0009C911197E80FF91F0190F081E02DCD0137
:1018F000DF91CF911994CF92DF92EF92FF920F93E5
:101900001F93DC011C962D913C911D972A5F3F4F40
:101910001D963C932E931C971A96ED91FC911B9764
:101920002E1B3F0B2D30310524F01D96FC93EE93BA
:101930001C971C960D90BC91A02D12964D935D9313
:101940006D937C931597C684D784E088F1880085D1
:101950001185228533856281738184819581061783
:10196000170728073907D0F0C616D706E806F90684
:1019700050F0C701B6010617170728073907D0F43A
:10198000C901B80117C0601771078207930790F06B
:10199000C016D106E206F30630F40CC0C016D1061C
:1019A000E206F30668F3C616D706E806F90610F451
:1019B000C701B6011F910F91FF90EF90DF90CF907C
:1019C00008950C947B0CCF92DF92EF92FF920E94CD
:1019D000A206C0901E09D0901F09E0902009F09047
:1019E00021096C197D098E099F09633876408105AC
:1019F0009105C0F00E94A2066C197D098E099F090D
:101A000060931A0970931B0980931C0990931D0918
:101A10000E94A20660931E0970931F0980932009FB
:101A200090932109FF90EF90DF90CF9008958091DF
:101A300089098F5F863018F4809389090895109280
:101A400089090895E0E6F9E080E09191892799E01D
:101A5000E43BF907D1F78093B4090895E0E6F9E093
:101A60008091BE029091BF02A091C002B091C102CC
:101A700080839183A283B38388EB9BE095838483E7
:101A800084E690E09783868380EA9FE09187808751
:101A90009387828784EE9EE09587848783E290E037
:101AA0009787868789E091E0918B808B82E090E038
:101AB000938B828B958B848B978B868B918F808F6A
:101AC000128E138E148E158E168E178E10A211A2E2
:101AD00012A213A214A215A281E086A39AE097A3F2
:101AE0009FE390A711A682A720E43FE134A723A794
:101AF00015A616A617A610AA11AA12AA13AA14AA06
:101B000015AA16AA17AA10AE11AE12AE13AE14AED5
:101B100015AE17AE16AE1092A1091092A009109240
:101B2000A2098093A3098CE390E09093A509809388
:101B3000A40988E790E09093A7098093A6098FEF06
:101B40009FEF9093A9098093A80980E197E2909371
:101B5000AB098093AA091092AC091092AD091092BA
:101B6000AE091092AF0981E090E0A0E0B0E0809370
:101B7000B0099093B109A093B209B093B3090C9442
:101B8000220DCF92DF92EF92FF9260912C0270E0D3
:101B900090E080E00E94043B2091F2083091F3082D
:101BA0004091F4085091F5080E94653B6B017C015F
:101BB00020E030E0A9010E94FF3A87FD14C020E038
:101BC00030E046EC52E4C701B6010E94A93D181668
:101BD00064F0C701B6010E947A3D862FFF90EF9016
:101BE000DF90CF90089580E0F9CF83E6F7CFCF92D2
:101BF000DF92EF92FF92CF93DF93C4E6D0E08BE3C6
:101C00000E948506BC01990F880B990B0E94063B28
:101C10009B01AC01C701B6010E94953C6B017C01A0
:101C2000219769F720E030E048EC52E40E94013D42
:101C300020E030E74DE956E40E94653B20E030ECBF
:101C40004FE754E40E94013D20E030E040EA50E4D8
:101C50000E94653B9B01AC0160E876E885EA97E469
:101C60000E94943CDF91CF91FF90EF90DF90CF9056
:101C700008952F923F924F925F926F927F928F9230
:101C80009F92AF92BF92CF92DF92EF92FF920F930B
:101C90001F93CF93DF932B013C015A014901D0E000
:101CA000C0E09BE8292E3324339484010C1B1D0BC8
:101CB0000132110510F000E210E0F090470280912F
:101CC0004F02882379F08FEFF8120AC08091470203
:101CD0000E94AE0A811106C0C1010197F1F7EFCF52
:101CE0008F2DF6CFA0914502B0914602E1E0E0933E
:101CF000CB09F092ED091092CC091092EE094091B7
:101D000048025091490260914A0270914B02413061
:101D100058406105710590F0B301A2014C0F5D1FA1
:101D2000611D711D9927872F762F652FED91FC91ED
:101D300011970190F081E02DCD0119958091450218
:101D400090914602DC01ED91FC910190F081E02D33
:101D50006C2F640D199581E00E94BE0941E0602F4F
:101D60008F2D0E94E6081092CA098093C909650167
:101D7000CC0EDD1E7601C7018C199D0980179107D5
:101D800078F48091450290914602DC01ED91FC913E
:101D90000284F385E02D1995F70181937F01EBCF44
:101DA000C00FD11FC815D90508F47FCFDF91CF919F
:101DB0001F910F91FF90EF90DF90CF90BF90AF9069
:101DC0009F908F907F906F905F904F903F902F905B
:101DD00008956F927F928F929F92AF92BF92CF920F
:101DE000DF92EF92FF920F931F93CF93DF936C01DB
:101DF0003B017A0110E000E0D60114968D919C9190
:101E0000E701C01BD10B8C179D0708F4EC0141E0E2
:101E1000C7018C1B9D0B0817190708F440E06C2FB5
:101E2000C13208F060E2F60180810E94E60810925B
:101E3000CA098093C9098C171D0679F54301800EE4
:101E4000911E5401C501881999098C179D0778F4D2
:101E5000D60111968D919C91DC01ED91FC9102844B
:101E6000F385E02D1995F50181935F01EBCF0C0F00
:101E70001D1F0E151F0508F4BFCF81E0DF91CF9124
:101E80001F910F91FF90EF90DF90CF90BF90AF9098
:101E90009F908F907F906F90089580E0EFCF1F9379
:101EA000CF93DF93DC011496ED91FC91E417F507D5
:101EB00010F490E01FC0122FEA01FC018181928191
:101EC000208131E03093CB092093ED091092CC09A9
:101ED0001092EE09DC01ED91FC910280F381E02D7E
:101EE0001995C817D90729F7812F0E94BE0991E0DB
:101EF0008111DFCF892FDF91CF911F910895EF924C
:101F0000FF920F931F93CF93DF9300D000D01F92C7
:101F1000CDB7DEB78C011982E090C709F090C809EF
:101F200020E041E050E0BE016F5F7F4FC7010E949B
:101F30004F0F882341F047E050E0BE016F5F7F4FB5
:101F4000C7010E94E90EE981EF77FA81FB805D818C
:101F50004E814F778F81282F30E094E0359527957B
:101F60009A95E1F7922F990F990F291B220F280FAD
:101F7000D8012C93842F90E024E0959587952A959D
:101F8000E1F7982F990F990F891B880F840F1196ED
:101F90008C931197652F70E034E0759567953A95AD
:101FA000E1F7862F880F880F681B660F650F129662
:101FB0006C9312974F2D50E064E0559547956A95C4
:101FC000E1F7842F880F880F481B440F4F0D13969D
:101FD0004C9313972F2F30E074E0359527957A9521
:101FE000E1F7822F880F880F281B220F2F0F1496DE
:101FF0002C9314978E2F90E0F4E095958795FA95A1
:10200000E1F7982F990F990F891B880F8E0F15965E
:102010008C93C80127960FB6F894DEBF0FBECDBFD4
:10202000DF91CF911F910F91FF90EF900895CF9383
:10203000DF9300D000D0CDB7DEB780918909813021
:1020400059F170F08230A9F1833009F43FC026962F
:102050000FB6F894DEBF0FBECDBFDF91CF910895CC
:10206000E0918D09F0E0EE0FFF1FE256F64F11826E
:102070001082CE0101960E947F0FA0918D0986E00B
:102080008A9FD0011124AD5DB44FFE0131960190BD
:102090000D928A95E1F7DBCFE0918D0984E0E89F0E
:1020A000F0011124E05AF64F168E178E10A211A2DD
:1020B000CECFE0918D0984E0E89FF0011124E05A31
:1020C000F64F16A617A610AA11AAC1CFE0918D0946
:1020D00084E0E89FF0011124E05AF64F16AA17AAEF
:1020E00010AE11AEB4CFEF92FF920F931F93CF9328
:1020F000DF9300D000D000D01F921F92CDB7DEB783
:102100008C01CE0101967C0188E0F70111928A953D
:10211000E9F7F80135812AE0832F622F0E94483EBB
:10212000982F880F890F880F830F8A833481832F1C
:102130000E94483E982F880F890F880F830F8B834A
:102140003381832F0E94483E982F880F890F880F74
:10215000830F8C8380814281618190E00E94F10B2A
:10216000069667E070E00E94543E811101C087E04E
:102170008D83F80132812AE0832F622F0E94483E2E
:10218000982F880F890F880F830F8E833181832FBB
:102190000E94483E982F880F890F880F830F8F83E6
:1021A0003081832F0E94483E982F880F890F880F17
:1021B000830F888721E048E050E0B7018091C7098C
:1021C0009091C8090E944F0F1FE01B8721E041E05A
:1021D00050E0BE01655F7F4F8091C7099091C809AB
:1021E0000E944F0F41E050E0BE01675F7F4F80913A
:1021F000C7099091C8090E94E90E898519878F77D0
:102200008A8721E042E050E0BE01675F7F4F809106
:10221000C7099091C8090E944F0F2B960FB6F894EA
:10222000DEBF0FBECDBFDF91CF911F910F91FF9009
:10223000EF900895CF92DF92EF92FF920F931F934A
:10224000CF93DF93EC0188858823A1F08091A808C3
:10225000882361F08FB7F8949091A808913041F5E8
:102260009DB39093A7089DB39DBB8FBF80E58CBDA8
:1022700081E08DBD60E08F810E941B0688858823E8
:10228000D1F030E020E08B8590E0880F991F28176F
:102290003907C8F5EE85FF85E20FF31F80818EBDFB
:1022A00000000DB407FEFDCF8EB52F5F3F4FEBCF83
:1022B0008093A708DBCF10E000E08B8590E0880FCB
:1022C000991F08171907F8F4EE85FF85E00FF11F35
:1022D000E080DE80CD8088E0F82E6E2D661F6627B8
:1022E000661F8C2D0E941B06EE0C61E08D2D0E9456
:1022F0001B0660E08D2D0E941B06FA94F110EDCFB5
:102300000F5F1F4FDACF61E08F810E941B06888527
:10231000882371F08091A808882351F09FB7F89422
:102320002091A8088091A708213059F48DBB9FBF48
:10233000DF91CF911F910F91FF90EF90DF90CF90A1
:1023400008958FBFF5CFFC0101900020E9F7319788
:10235000AF01481B590BBC018BE39AE00C94350785
:102360008F929F92AF92BF920F931F93CF93DF9361
:10237000CDB7DEB7A1970FB6F894DEBF0FBECDBFC5
:1023800019A2423008F44AE08E010F5D1F4F842EDF
:10239000912CB12CA12CA50194010E94633CE62F45
:1023A000B901CA01EA30F4F4E05DD801EE938D0181
:1023B000232B242B252B79F790E080E0109719F040
:1023C000CD010E94A311A1960FB6F894DEBF0FBEF7
:1023D000CDBFDF91CF911F910F91BF90AF909F9094
:1023E0008F900895E95CE1CFCF93DF930E94A31112
:1023F000EC0183EC92E00E94A3118C0F9D1FDF91F2
:10240000CF910895CF93DF934AE00E94B011EC0181
:1024100083EC92E00E94A3118C0F9D1FDF91CF915E
:1024200008954F925F926F927F928F929F92AF9298
:10243000BF92CF92DF92EF92FF926B017C01AC01D1
:102440009B010E94FE3D8823C1F086EC92E00E9431
:10245000A3117C0183EC92E00E94A3118E0D9F1DBD
:10246000FF90EF90DF90CF90BF90AF909F908F90B4
:102470007F906F905F904F90089546015701E894C8
:10248000B7F82FEF3FEF4FE75FE7C501B4010E94B8
:10249000FE3D81110DC02FEF3FEF4FE75FE7C50114
:1024A000B4010E94FF3A18161CF48AEC92E0CFCFD8
:1024B0002FEF3FEF4FE75FE4C701B6010E94A93D50
:1024C00018161CF48EEC92E0C2CF2FEF3FEF4FE7CF
:1024D0005FECC701B6010E94FF3A87FDF3CF20E011
:1024E00030E0A901C701B6010E94FF3AB12CA12C2E
:1024F00087FF0AC06DE28BE39AE00E94CB075C0184
:10250000F7FAF094F7F8F0942AE037ED43EA5BE34A
:10251000C701B6010E94953C2B013C010E947A3D07
:102520006B017C010E94043B9B01AC01C301B20121
:102530000E94943C2B013C014AE0C701B6010E9475
:10254000B0117C01EA0CFB1C6EE28BE39AE00E9466
:10255000CB07E80EF91E20E030E040E251E4C30171
:10256000B2010E94653B2B013C010E947A3D4B0168
:10257000B12CA12C4AE0C501B4010E94B011E80EB3
:10258000F91EC501B4010E94043B9B01AC01C301CB
:10259000B2010E94943C20E030E040E251E40E940D
:1025A000653B0E947A3D90E080E04AE00E94B011D5
:1025B000E80EF91E4FCFCF93DF93682F70E090E0C5
:1025C00080E04AE00E94B011EC0183EC92E00E94AE
:1025D000A3118C0F9D1FDF91CF910895CF93DF93AF
:1025E000BC0190E080E04AE00E94B011EC0183EC75
:1025F00092E00E94A3118C0F9D1FDF91CF9108954F
:10260000CF93DF938091810B9091820B892B81F086
:10261000C0917D0BD0917E0B60E270E0CE010E94F4
:10262000DB41009729F08C1B9D0BDF91CF91089522
:102630008FEF9FEFFACF8F929F92AF92BF92CF9280
:10264000DF92EF92FF9285E40E948506BC01990F0C
:10265000880B990B0E94063B6B017C01C092F60827
:10266000D092F708E092F808F092F90820E030E004
:102670004AE754E40E94653B4B015C01A7019601C7
:1026800060E070EC8FE794E40E94943C9B01AC0105
:10269000C501B4010E94013D2DE336EF4AE355E444
:1026A0000E94013D0E94B63D2091350230913602D4
:1026B00040913702509138020E94013D2FE03FECDB
:1026C0004BE55BE30E94953C9B01AC0160E070E050
:1026D00080E89FE30E94013D23E333E948E853E4A7
:1026E0000E94943C6B017C0120E030E048E452EC15
:1026F0000E94FF3A87FD33C020E030E048E453E415
:10270000C701B6010E94A93D18164CF1809012092C
:1027100090901309A0901409B0901509A501940197
:10272000C701B6010E94943C2DEC3CEC4CEC5DE3FF
:102730000E94653BA50194010E94953C609312099B
:10274000709313098093140990931509FF90EF90EB
:10275000DF90CF90BF90AF909F908F9008956AE9DF
:1027600079EF89E794ECF2CF8F929F92AF92BF926C
:10277000CF92DF92EF92FF9284E40E948506BC0123
:10278000990F880B990B0E94063B6B017C01C0924C
:10279000F608D092F708E092F808F092F90820E0E5
:1027A00030E04CE553E40E94653B4B015C01A7011E
:1027B000960160E070EC8FE794E40E94943C9B01EA
:1027C000AC01C501B4010E94013D20E030E04AE7C0
:1027D00054E40E94013D0E94B63D209135023091A3
:1027E000360240913702509138020E94013D2FE09D
:1027F0003FEC4BE55BE30E94953C9B01AC0160E044
:1028000070E080E89FE30E94013D23E333E948E85C
:1028100053E40E94943C6B017C0120E030E048E4EA
:1028200052EC0E94FF3A87FD33C020E030E048E4DC
:1028300053E4C701B6010E94A93D18164CF18090DF
:102840000E0990900F09A0901009B0901109A501F0
:102850009401C701B6010E94943C2DEC3CEC4CEC79
:102860005DE30E94653BA50194010E94953C609345
:102870000E0970930F098093100990931109FF902E
:10288000EF90DF90CF90BF90AF909F908F90089582
:102890006AE979EF89E794ECF2CF0F931F93CF9316
:1028A000DF938C01EB01FC01808191810097E1F0C5
:1028B0006881798161157105A9F0428153812C816C
:1028C0003D814217530770F00E94EF418C819D813A
:1028D000F801958384831D821C82DF91CF911F9123
:1028E0000F9108950E94544088819981F801918345
:1028F00080838A819B81938382838C819D81958350
:102900008483198218821B821A82E5CFFC018081A0
:102910009181009711F00C9454400895CF93DF9368
:10292000EC018885882399F09FB7F8948091A608D8
:10293000882319F081508093A6088091A608811100
:1029400005C08CB58F7B8CBD1092A8089FBF8C856D
:102950009D850E9454408E859F85DF91CF910C9478
:1029600054400F931F93CF93DF93EC01888199819B
:10297000009759F02A813B812617370730F081E014
:10298000DF91CF911F910F9108958B016F5F7F4F62
:102990000E94DD40009759F0998388831B830A8346
:1029A0002C813D81232B59F7FC011082E8CF80E078
:1029B000E7CFEF92FF920F931F93CF93DF93EC013A
:1029C0007B018A01BA010E94B114288139818111E9
:1029D00014C02115310519F0C9010E945440198213
:1029E00018821D821C821B821A82CE01DF91CF9138
:1029F0001F910F91FF90EF9008951D830C83B701F5
:102A0000C9010E94EF41F1CFFC01118210821382B3
:102A100012821582148250E040E065EC72E00C9462
:102A2000D914CF93DF93EC016115710571F0FB01AF
:102A300001900020E9F73197AF01461B570B0E9428
:102A4000D914CE01DF91CF910895888199810097A3
:102A500011F00E945440198218821D821C821B8230
:102A60001A82EFCF85ED8093BC008091370A909158
:102A7000380AA091390AB0913A0A0796A11DB11DF2
:102A800023E0B695A795979587952A95D1F720913C
:102A9000BC0024FD03C01092350A08954091370A06
:102AA0005091380A6091390A70913A0A452B462BA9
:102AB000472B69F30097A105B10541F02AE22A9559
:102AC000F1F700C00197A109B109E1CF8091360A61
:102AD0000C94C508FC01438550E0440F551F70E07D
:102AE00060E0868597850C94D441BF92CF92DF92A7
:102AF000EF92FF920F931F93CF93DF93EC0189E046
:102B0000689F70011124D12CC12C062F10E0BB242A
:102B1000B394BC0CEC85FD85EE0DFF1D808590E027
:102B20000C2C02C0959587950A94E2F780FF27C088
:102B3000CE010E946A158B858150990B801B910BE9
:102B4000880F991F2E853F85820F931FFC01B0824D
:102B5000EC85FD85EE0DFF1DEC0DFD1D40818B8587
:102B60008150990B801B910B880F991F2E853F85F3
:102B7000820F931FFC014183CE010E941A11FFEFC7
:102B8000CF1ADF0A88E0C816D10409F68C859D8526
:102B9000E80EF91EF7011086DF91CF911F910F917A
:102BA000FF90EF90DF90CF90BF900895CF93DF9389
:102BB00020915B0BC0E0223008F44BC09C012770D1
:102BC00033275091520BE0915C0BF0915D0B4091DB
:102BD000540B7091530B662309F45CC0552309F420
:102BE00049C090E080E0442311F087E090E0E80FD6
:102BF000F91F6185772389F1C7E0D0E0C21BD30BB1
:102C000081E090E0A0E0B0E004C0880F991FAA1F07
:102C1000BB1FCA95D2F7862B8187E0915C0BF091A0
:102C20005D0B6189552309F471C080E8411101C031
:102C300081E0682B618BC091640BCC2309F47CC0CC
:102C400080915B0B823028F061E080E59BE00E9480
:102C500075158C2FDF91CF91089581E090E0A0E071
:102C6000B0E0022E04C0880F991FAA1FBB1F0A9450
:102C7000D2F7D1CF87E090E0821B930B411101C0C6
:102C8000C901E80FF91F818590E8711101C091E039
:102C9000892BC2CF552351F190E080E0442311F0FD
:102CA00087E090E0E80FF91F6185772391F0C7E096
:102CB000D0E0C21BD30B81E090E0A0E0B0E004C004
:102CC000880F991FAA1FBB1FCA95D2F7809586232C
:102CD000A3CF81E090E0A0E0B0E0022E04C0880F16
:102CE000991FAA1FBB1F0A94D2F7F0CF87E090E08C
:102CF000821B930B411101C0C901E80FF91F8185A7
:102D00009FE7711101C09EEF892386CF442331F0E4
:102D100087E090E0AC01421B530B9A0181E090E008
:102D2000A0E0B0E004C0880F991FAA1FBB1F2A951E
:102D3000D2F7862B818B7FCFC1E08BCFCF93C82F6B
:102D40008093A40860E08CE090E00E94D61560E0DB
:102D50008DE090E00E94D6156C2F8EE090E0CF9130
:102D60000C94D615CF93C82F8091A20981110BC066
:102D700061E088E090E00E94D61561E089E090E093
:102D8000CF910C94D6156C2F88E090E00E94D61558
:102D90006C2F89E090E00E94D615809189098111FD
:102DA0000EC06C2F8CE090E00E94D6156C2F8DE049
:102DB00090E00E94D6156C2F8EE090E0E1CFCF918D
:102DC00008954F925F927F928F929F92AF92BF929F
:102DD000CF92DF92EF92FF920F931F93CF93DF93E7
:102DE000FC01842F362F377053E0769567955A95FE
:102DF000E1F7262FC2819385CC2309F479C0C0E086
:102E0000691708F056C099E0699F20011124C12C70
:102E1000D12C7601C39446015701032E04C0880CBF
:102E2000991CAA1CBB1C0A94D2F7082D182D1095CA
:102E300047E050E0431B510904C0CC0CDD1CEE1CE4
:102E4000FF1C4A95D2F73C2DC094B0E0A0E090E082
:102E500047E0842E912CAD01E484F584E40CF51C4C
:102E60007480D3805C010A2E02C0B594A7940A94A2
:102E7000E2F7A0FE2FC0772019F0A4014A1B5B0BDC
:102E80004E0D5F1DEA01F880E02ED110E32EFE28E2
:102E9000EA01F8821196A830B105E9F68485958596
:102EA000E201C80FD91F8FEF8887C489C11173C091
:102EB000C1E08C2FDF91CF911F910F91FF90EF9088
:102EC000DF90CF90BF90AF909F908F907F905F905A
:102ED0004F900895772019F0A4014A1B5B0B4E0D0B
:102EE0005F1DEA01F880E12ED110EC2CFE20D0CF3E
:102EF0006917F8F693819923C1F08295482F50E025
:102F0000CA0195958795959587958373440F551FAD
:102F1000440F551F4C7C842B90E0AC015595479590
:102F20004575880F991F8A7A842B99E0699FE00183
:102F30001124A485B585AC0FBD1F032F10E094812B
:102F400047E050E0401B510B911101C0A801A40FB4
:102F5000B51F8C9384859585C80FD91F48858481BA
:102F6000882399F087E090E0DC01A01BB10B8D0174
:102F700081E090E0A0E0B0E004C0880F991FAA1F94
:102F8000BB1F0A95D2F7842B8FCF81E001C0880F39
:102F90003A95EAF7F8CF8385281708F089CFCF0153
:102FA0000E94751586CFEF92FF920F931F93CF93D8
:102FB000DF9300D000D000D01F92CDB7DEB78C01D8
:102FC0008091A4089AE0E6E5F2E0DE011196019016
:102FD0000D929A95E1F717FD6EC04EEF811101C079
:102FE0004FEFC80168EE73E00E94683ECB01EAE053
:102FF000F0E0BF010E94683E9C01C80164E670E0F9
:103000000E94683ECB01BF010E94683EE1E0F0E013
:10301000EC0FFD1FE80FF91FF080F4222115310598
:1030200009F447C081E090E08C0F9D1F280F391FE5
:10303000F901808148236CE070E080E59BE00E940C
:10304000E1164F2D6DE070E080E59BE00E94E116F7
:103050002AE030E0C801B9010E94683E8C01CB0132
:10306000B9010E94683EE1E0F0E0EC0FFD1FE80FBF
:10307000F91F40816EE070E080E59BE00E94E11660
:10308000E1E0F0E0EC0FFD1FE00FF11F40816FE089
:1030900070E080E59BE02A960FB6F894DEBF0FBE85
:1030A000CDBFDF91CF911F910F91FF90EF900C94C6
:1030B000E1164F77C0CF3EEFF32E811102C0FF24FF
:1030C000FA94C80168EE73E00E94683ECB012AE0E2
:1030D00030E0B9010E94683E4F2D4F77892B81F473
:1030E000FF2DF178EF2EC80164E670E00E94683E83
:1030F000CB01B9010E94683E892B09F441C04F2FD2
:103100006CE070E080E59BE00E94E116802F8195E5
:1031100064E60E94483EE1E0F0E0EC0FFD1FE80F9E
:10312000F11D40814F216DE070E080E59BE00E9441
:10313000E116C80166EF7FEF0E94683ECB012AE0EE
:10314000E22EF12CB7010E94683EE1E0F0E0EC0FC6
:10315000FD1FE80FF91F40816EE070E080E59BE005
:103160000E94E11688279927801B910BB7010E94C6
:10317000683EE1E0F0E0EC0FFD1FE80FF91F86CF9D
:103180004F2D41706CE070E080E59BE00E94E116FD
:103190004E2DC9CFFF920F931F93CF93DF9300D093
:1031A00000D000D01F92CDB7DEB7F62E9AE0E6E54C
:1031B000F2E0DE01119601900D929A95E1F72AE076
:1031C000622F0E94483E092F0E94483E21E030E0D5
:1031D0002C0F3D1F200F311D89014FE7992339F036
:1031E000E1E0F0E0EC0FFD1FE90FF11D408168E028
:1031F00070E080E59BE00E94E116F801408169E003
:1032000070E080E59BE00E94E1162AE08F2D622F9E
:103210000E94483E192F0E94483EE1E0F0E0EC0F8A
:10322000FD1FE90FF11D40816AE070E080E59BE041
:103230000E94E116E1E0F0E0EC0FFD1FE10FF11D4F
:1032400040816BE070E080E59BE02A960FB6F89431
:10325000DEBF0FBECDBFDF91CF911F910F91FF90C9
:103260000C94E1168F929F92AF92BF92CF92DF9211
:10327000EF92FF92CF93DF93CDB7DEB764970FB68F
:10328000F894DEBF0FBECDBF4B015C018AE0E0E6E3
:10329000F2E0DE01119601900D928A95E1F78AE045
:1032A000EAE6F2E0DE011B9601900D928A95E1F7C5
:1032B000C50120EA36E841E050E00E94633C8AE024
:1032C000C82ED12CE12CF12CCA01B901A70196011D
:1032D0000E94633C21E030E02C0F3D1F620F731F02
:1032E000FB01408170E060E080E59BE00E94E11618
:1032F000C501B40120E137E240E050E00E94633CA8
:10330000CA01B901A70196010E94633C2BE030E09D
:103310002C0F3D1F620F731FFB01408161E070E0C5
:1033200080E59BE00E94E116C501B40128EE33E080
:1033300040E050E00E94633CCA01B901A701960138
:103340000E94633C2BE030E02C0F3D1F620F731F87
:10335000FB01408162E070E080E59BE00E94E116A5
:10336000C501B40124E630E040E050E00E94633C37
:10337000CA01B901A70196010E94633C2BE030E02D
:103380002C0F3D1F620F731FFB01408163E070E053
:1033900080E59BE00E94E116C501B401A7019601FA
:1033A0000E94633C4B01CA01B901A70196010E942A
:1033B000633C2BE030E02C0F3D1F620F731FFB01BD
:1033C000408164E070E080E59BE00E94E116EBE064
:1033D000F0E0EC0FFD1FE80DF91D408165E070E0A5
:1033E00080E59BE064960FB6F894DEBF0FBECDBFBC
:1033F000DF91CF91FF90EF90DF90CF90BF90AF9093
:103400009F908F900C94E116CF93C82FC1954C2FAD
:103410006EE070E08FE29BE00E94E1164C2F6FE0BF
:1034200070E08FE29BE0CF910C94E116CF92DF9297
:10343000EF92FF920F931F93CF93DF93EC01DD2464
:10344000D394F12CE12C01E010E0B9E0CB2ECE01B9
:103450000E946A1598010E2C02C0220F331F0A9495
:10346000E2F7E0E090E08B85E81798F5EC9DA0018D
:103470001124AC85BD85A40FB51F18966C9170E022
:1034800062237323672B19F16E2F70E08150990B23
:10349000861B970B880F991FAE85BF85A80FB91F94
:1034A000DC92AC85BD85A40FB51FAE0DBF1DFC9190
:1034B0008B858150990B861B970B880F991F4E8522
:1034C0005F85840F951FDC011196FC9391E0EF5FFF
:1034D000CACF992319F0CE010E941A11BFEFEB1A3F
:1034E000FB0AD39488E0E816F10409F0B0CF80E03D
:1034F00099E02B85821748F4EC85FD85899FE00DC6
:10350000F11D112410868F5FF4CFDF91CF911F91B1
:103510000F91FF90EF90DF90CF900895DF92EF92A0
:10352000FF920F931F93CF93DF936A30710508F0DA
:103530006BC08A017B01EC01DB840E946A1560E0AC
:103540007FEF7D0D82E0E816F10409F44FC0A8F486
:10355000E114F10411F1F1E0EF16F10409F43FC0B8
:103560006F5F761778F7CE01DF91CF911F910F91A2
:10357000FF90EF90DF900C941A1183E0E816F104AD
:10358000E1F1E4E0EE16F10459F791E001151105BF
:1035900009F490E0919589E006C091E001151105CC
:1035A00009F090E08CE0462F50E02B852150330B42
:1035B000241B350B220F331FEE85FF85E20FF31F0F
:1035C00080832B852150330B241B350B220F331F97
:1035D0004E855F85240F351FF9019183C1CF902F50
:1035E000083011050CF097E08BE0DDCF902F003113
:1035F00011050CF09FE08AE0D6CF91E0011511058E
:1036000009F490E08FE0CFCF21E04130510509F07F
:1036100020E0FC016B30710569F0248B41305105CD
:1036200051F4DF91CF911F910F91FF90EF90DF90B8
:103630000C94161A258BDF91CF911F910F91FF905B
:10364000EF90DF900895CF93DF93803108F08FE003
:10365000C82FD0E0AE0162E070E08FE29BE00E94F4
:103660008E1AAE0162E070E080E59BE0DF91CF91C1
:103670000C948E1ACF93DF93DC011B963C91315052
:1036800020E0C9E078E06FEF2C9FA0011124FC013D
:10369000A485B585A40FB51FFD01D72F1192DA952A
:1036A000E9F7DC011C96ED91FC911D97E40FF51FE5
:1036B00060872F5F321740F754962C91222321F018
:1036C000DF91CF910C94161ADF91CF910895CF928C
:1036D000DF92EF92FF92CF93DF93EC0188858823EE
:1036E00009F4A4C0FFB6F8948091A608811127C000
:1036F000E6E7F8E08491ECEBF8E09491E82FF0E055
:10370000EE0FFF1FED50F84FA591B491EC91E92316
:1037100021F461E085E30E941B0661E085E30E94DD
:1037200049068CB580618CBD8CB580648CBD61E030
:1037300084E30E94490661E083E30E944906809188
:10374000A6088F5F8093A608FFBE61E08F810E946C
:10375000490661E08F810E941B06198A188A1B8A1C
:103760001A8A8E899F898E5B924009F47CC0EEEBA9
:10377000F2E0FF8BEE8B188E88E0898F1A8E1C8EFC
:103780001B8E8FEF90E09E8F8D8F18A21F8EE4917D
:10379000E63461F5EFEBF2E0E491E13009F44FC07B
:1037A00082E090E0E23001F5E0ECF2E08491E1ECBF
:1037B000F2E0E49190E0982F88278E0F911D9C8F66
:1037C0008B8FE2ECF2E08491E3ECF2E0E49190E0A4
:1037D000982F88278E0F911D9E8F8D8FE4ECF2E03D
:1037E000E491E98F87E090E098A38F8FCF8CD8A0E9
:1037F000F12CE12C2B8D3C8D4D8D5E8D60E04217C0
:10380000530780F1F601E254FD4F8491681708F4E4
:10381000682F90E0B0E0A0E00196A11DB11DC80E98
:10382000D91EEA1EFB1E2F5F3F4FE9CF61E08D815D
:103830000E94490661E08E810E94490686CFE0EC35
:10384000F2E0E491F0E0FC8FEB8FE1ECF2E0E49148
:10385000F0E0FE8FED8FE2ECF2E0E491E98F85E09D
:1038600090E0C2CF6A8FFB8429E0F29EC001112450
:103870000E94B83F6C019D878C878F2D90E0880F48
:10388000991F0E94B83F9F878E87892BF1F1CD2821
:10389000E1F150E040E063E070E0CE010E948E1A5A
:1038A00047E050E061E070E0CE010E948E1A47E0F0
:1038B00050E062E070E0CE010E948E1A50E040E0DD
:1038C00064E070E0CE010E948E1ACE010E943A1B85
:1038D00050E040E070E060E0CE010E948E1A50E0BF
:1038E00040E06BE070E0CE010E948E1A41E050E0B3
:1038F0006AE070E0CE010E948E1A81E0DF91CF91E4
:10390000FF90EF90DF90CF90089580E0F7CFCF92B7
:10391000DF92EF92FF920F931F93CF93DF93EB0110
:103920007B0125E5E20EF11C8B016C01C61AD70A5A
:10393000C601800F911F0E94233CF80181938F01E3
:10394000EE15FF05A9F7CE01DF91CF911F910F91E1
:10395000FF90EF90DF90CF9008952F923F924F927B
:103960005F926F927F928F929F92AF92BF92CF920F
:10397000DF92EF92FF920F931F93CF93DF93CDB718
:10398000DEB7C65BD1090FB6F894DEBF0FBECDBF60
:103990000E94220D8091A50890E0982F8827BE01F3
:1039A0006A5A7F4F8C5D9E4F0E94871C45E550E010
:1039B00060E679E0CE018A5A9F4F0E94BE41892B72
:1039C00021F48091ED0881118BC1F8948091ED086C
:1039D000811152C18091A50890E0982F88279C0101
:1039E0002C5D3E4FCD54DF4F39832883C35BD040DD
:1039F0002901032E000C66087708809148029091F7
:103A00004902A0914A02B0914B02B301A2014B5A64
:103A10005F4F6F4F7F4F481759076A077B0708F4BE
:103A2000BEC0AC01421B530BCB54DF4F59834883BC
:103A3000C55BD040A0914C02B0914D02C555DF4FFF
:103A4000B983A883CB5AD0405F9744F0EEE1F0E011
:103A5000C555DF4FF983E883CB5AD04010E000E032
:103A6000CB54DF4F28813981C55BD0400217130743
:103A700008F002C11901201A310AC555DF4F4881EB
:103A80005981CB5AD040421553050CF41A0152E02B
:103A9000251631040CF457C080914C0290914D02D0
:103AA000C355DF4F99838883CD5AD0404C01B12C48
:103AB000A12C73016201C00ED11EE11CF11CC701D3
:103AC000B601A50194010E94633CC155DF4F2883D4
:103AD00039834A835B83CF5AD04091E0C91AD10819
:103AE000E108F108B101032C000C880B990B6C0D57
:103AF0007D1D8E1D9F1DA50194010E94633CC15533
:103B0000DF4FA881B981CF5AD040A217B307D8F4AC
:103B10004D01BFEF8B1A9B0AC355DF4FE881F98136
:103B2000CD5AD0408E9E10018F9E300C9E9E300C40
:103B30001124CD54DF4F88819981C35BD040800F21
:103B4000911F281A390AF0904702809148029091FB
:103B50004902A0914A02B0914B020097A140B105E1
:103B600060F0D301C201800F911FA11DB11D00970C
:103B7000A140B10510F06894F2F880914F028823BB
:103B8000B9F03FEF80914702F3128F2D0E94AE0AE9
:103B900081110EC08BE891E00197F1F7EECF85E53A
:103BA00090E0CB54DF4F99838883C55BD04042CFF0
:103BB000A0914502B091460241E04093CB09F092BA
:103BC000ED091092CC091092EE09409148025091F3
:103BD000490260914A0270914B02413058406105A0
:103BE000710590F0B301A201400F511F611D711DBD
:103BF0009927872F762F652FED91FC9111970190D2
:103C0000F081E02DCD0119958091450290914602F9
:103C1000DC01ED91FC910190F081E02D64E2600FF8
:103C20001995F12C2F2D30E022153305A4F4809145
:103C3000450290914602200F311FD901A05AB64F7C
:103C4000FC0120813181F901208131816C91F901E0
:103C50001995F394E7CF81E00E94BE09020D131D70
:103C600080914F028111FCCE60914E0270E090E095
:103C700080E00E94C706F4CE0091A50810E0102F46
:103C8000002745EBA42E49E0B42E50E6E52E59E07E
:103C9000F52E0D531840D7019D907D016801CA0E85
:103CA000DB1EC6010E94233C981621F0692DC60137
:103CB0000E942B3CAE14BF0471F778941091A508B4
:103CC000812F90E0982F8827BE016F5F7F4F8C5D1A
:103CD0009E4F0E94871C1F5F1330E1F01093A508D0
:103CE000CA54DF4F0FB6F894DEBF0FBECDBFDF91D1
:103CF000CF911F910F91FF90EF90DF90CF90BF90E9
:103D0000AF909F908F907F906F905F904F903F907B
:103D10002F9008951092A508E3CF1F920F920FB62F
:103D20000F9211242F933F938F939F93AF93BF9341
:103D30008091BB099091BC09A091BD09B091BE09C9
:103D40003091BA0923E0230F2D3758F50196A11DB4
:103D5000B11D2093BA098093BB099093BC09A0932D
:103D6000BD09B093BE098091BF099091C009A0918F
:103D7000C109B091C2090196A11DB11D8093BF096F
:103D80009093C009A093C109B093C209BF91AF91AC
:103D90009F918F913F912F910F900FBE0F901F9089
:103DA000189526E8230F0296A11DB11DD2CF1F92B0
:103DB0000F920FB60F9211240BB60F922F933F93D1
:103DC0004F935F936F937F938F939F93AF93BF9323
:103DD000EF93FF938BE39AE00E94A907FF91EF9185
:103DE000BF91AF919F918F917F916F915F914F9113
:103DF0003F912F910F900BBE0F900FBE0F901F9011
:103E000018951F920F920FB60F9211240BB60F92B6
:103E10002F938F939F93EF93FF93E0914B0AF09131
:103E20004C0A8081E091510AF091520A82FD1DC036
:103E300090818091540A8F5F8F732091550A821769
:103E400041F0E091540AF0E0E55CF54F958F8093E6
:103E5000540AFF91EF919F918F912F910F900BBE7C
:103E60000F900FBE0F901F9018958081F2CF1F9278
:103E70000F920FB60F9211240BB60F922F933F9310
:103E80004F935F936F937F938F939F93AF93BF9362
:103E9000EF93FF938091B900887F803609F44DC07D
:103EA00008F040C0883209F4A9C028F5803109F42F
:103EB0009DC0C8F4882309F4FBC0883009F496C07B
:103EC000FF91EF91BF91AF919F918F917F916F91F2
:103ED0005F914F913F912F910F900BBE0F900FBEAE
:103EE0000F901F901895883109F488C0803241F7EF
:103EF0008093130A14C0803409F49DC040F48033C9
:103F0000B9F38833E9F68093130A85ECB0C08035A5
:103F100009F485C0883509F496C0883489F60E9472
:103F20003215CECF883909F48CC038F5883729F09E
:103F300050F4883611F0803719F683E08093350A03
:103F40001092EC0857C0883809F47BC0803919F00A
:103F5000803809F0B5CF8091EC08803208F071C04C
:103F6000E091EC0881E08E0F8093EC088091BB001B
:103F7000F0E0E453F74F80833DC0803B39F0E0F43C
:103F8000803A09F479C0883A09F09ACF84E08093A6
:103F9000350A1092CB081092CA08E091C509F09139
:103FA000C60919958091CA0881110FC081E08093DC
:103FB000CA081092AA0809C0803C09F4A6CF883C20
:103FC00009F4A3CF883B09F07BCFE091CB0881E0D7
:103FD0008E0F8093CB08F0E0E655F74F80818093F9
:103FE000BB009091CB088091CA0829C08091100A2B
:103FF0008093BB0085EC8093BC0062CF9091120A45
:104000008091110A981758F5E091120A81E08E0FFD
:104010008093120AF0E0E151F64F8081E9CFE09100
:10402000120A81E08E0F8093120A8091BB00F0E0AB
:10403000E151F64F80839091120A8091110A9817EE
:10404000C8F285E8D8CFE091120A81E08E0F809304
:10405000120A8091BB00F0E0E151F64F808380911D
:10406000140A81115CCF81E080930F0A84EA809367
:10407000BC001092350A24CF85EC8093BC001092CE
:10408000350A8091EC08803230F4E091EC08F0E0E1
:10409000E453F74F10826091EC0870E0E091C3099F
:1040A000F091C4098CEC98E019951092EC0808CFB7
:1040B0001092130A34CF1F920F920FB60F92112451
:1040C0000BB60F922F933F934F935F936F937F9312
:1040D0008F939F93AF93BF93CF93EF93FF93909161
:1040E0000601C0912409C09580912F098923C82316
:1040F00090932409C0FF05C0E0911E02F0911F02B9
:104100001995C1FF05C0E0912002F0912102199597
:10411000C2FF05C0E0912202F09123021995C3FF6E
:1041200005C0E0912402F09125021995C4FF05C055
:10413000E0913B02F0913C021995C5FF05C0E0916A
:104140002602F09127021995C6FF05C0E0912802CA
:10415000F09129021995C7FF05C0E0912A02F0915C
:104160002B021995FF91EF91CF91BF91AF919F9144
:104170008F917F916F915F914F913F912F910F9010
:104180000BBE0F900FBE0F901F9018951F920F92AD
:104190000FB60F9211240BB60F922F933F934F93AC
:1041A0005F936F937F938F939F93AF93BF93CF93BF
:1041B000EF93FF939CB1809103019170880F892B3D
:1041C000C0912309C09590912E09C923C8238093DB
:1041D0002309C0FF05C0E0911002F091110219956A
:1041E000C1FF05C0E0911202F09113021995C2FFC0
:1041F00005C0E0911402F09115021995C3FF05C0A6
:10420000E0911602F09117021995C4FF05C0E091E4
:104210003902F0913A021995C5FF05C0E0911802E4
:10422000F09119021995C6FF05C0E0911A02F091AC
:104230001B021995C7FF05C0E0911C02F0911D02F9
:104240001995FF91EF91CF91BF91AF919F918F9170
:104250007F916F915F914F913F912F910F900BBE86
:104260000F900FBE0F901F9018951F920F920FB6D0
:104270000F9211240BB60F922F933F934F935F939E
:104280006F937F938F939F93AF93BF93CF93EF934E
:10429000FF9393B1C0912209C09580912D09892384
:1042A000C82390932209C4FF05C0E0910002F09159
:1042B00001021995C5FF05C0E0910202F0910302C9
:1042C0001995C6FF05C0E0910402F0910502199509
:1042D000C7FF05C0E0910602F09107021995C0FFE3
:1042E00005C0E0910802F09109021995C1FF05C0CF
:1042F000E0910A02F0910B021995C2FF05C0E0910E
:104300000C02F0910D021995C3FF05C0E0910E0259
:10431000F0910F021995FF91EF91CF91BF91AF915D
:104320009F918F917F916F915F914F913F912F91CD
:104330000F900BBE0F900FBE0F901F9018951F92FD
:104340000F920FB60F9211240BB60F922F923F923D
:104350004F925F926F927F928F929F92AF92BF9295
:10436000CF92DF92EF92FF920F931F932F933F9381
:104370004F935F936F937F938F939F93AF93BF936D
:10438000EF93FF93CF93DF93CDB7DEB72E97DEBFCA
:10439000CDBF8091A2089091A30801969093A308A5
:1043A0008093A2080E94A20600911E0910911F0985
:1043B0002091200930912109601B710B820B930B16
:1043C000603472448F409105A0F440911A095091D5
:1043D0001B0960911C0970911D098EEF9AE00E94E3
:1043E000610C9B01AC01283E83E038074105510573
:1043F00018F420E030E0A9012093580930935909BE
:1044000040935A0950935B09211531054105510527
:1044100009F440C060E472E48FE090E00E94633CE5
:10442000A0916609B09167090E94583C60935809B1
:104430007093590980935A0990935B092091B009B0
:1044400021FF12C00E94043B22E134E14FE15FE30F
:104450000E94653B0E947A3D609358097093590908
:1044600080935A0990935B0960915809709159099A
:1044700080915A0990915B0924E630E040E050E0D9
:104480000E94633C209358093093590940935A097C
:1044900050935B09C0904809D0904909E0904A09BF
:1044A000F0904B09609158097091590980915A090F
:1044B00090915B090E94043BA70196010E94943CE5
:1044C00020E030E040E05FE30E94653BA7019601F9
:1044D0000E94953C609348097093490980934A096A
:1044E00090934B090E94A2060091290910912A0974
:1044F00020912B0930912C09601B710B820B930BBF
:10450000C12CD12C7601603472448F40910570F437
:104510004091250950912609609127097091280939
:1045200084EE9AE00E94610C6B017C01C0924D09FF
:10453000D0924E09E0924F09F0925009C114D10473
:10454000E104F10409F40BC42090E80A3090E90A70
:104550000091EE0A1091EF0AF80130E020E060E0EF
:1045600070E0CB012215330564F482809380A4802F
:10457000B580680D791D8A1D9B1D2F5F3F4F3696B4
:10458000F1CF2101032C000C66087708A3019201EA
:104590000E94633C2B873C874D875E87F0E0E0E01C
:1045A000812C912C5401E215F305DCF4D80112960C
:1045B0006D917D918D919C9115972B853C854D85B5
:1045C0005E85621B730B840B950B9B01AC010E94F3
:1045D000383E860E971EA81EB91E31960A5F1F4FE1
:1045E000E2CF8091A8099091A9099C0150E040E098
:1045F0002B873C874D875E87C501B401A3019201DB
:104600000E94633C6CE056954795379527956A95CF
:10461000D1F78B859C85AD85BE85281739074A075C
:104620005B07E0F5809164099091650964E670E0AC
:104630000E94543E8B0160E472E48FE090E0A70199
:1046400096010E94633CD8010E94583C60934D093A
:1046500070934E0980934F0990935009C0905C0964
:10466000D0905D09E0905E09F0905F090E94043BE4
:10467000A70196010E94943C2DEC3CEC4CE45EE3D7
:104680000E94653BA70196010E94953C60935C09DE
:1046900070935D0980935E0990935F0980913B0957
:1046A000882371F080918A0981110AC08EE20E94EC
:1046B000F20561E0892B09F060E08EE20E941B06A2
:1046C00081E40E948506BC01990F880B990B0E941A
:1046D000063B6B017C01C092F608D092F708E0928D
:1046E000F808F092F90820E030E04CE553E40E942D
:1046F000653B4B015C01A701960160E070EC8FE720
:1047000094E40E94943C9B01AC01C501B4010E9459
:10471000013D5B016C0160916E0970916F0990E041
:1047200080E00E94043B7B018C019B01AC01B50140
:10473000C6010E94FF3A87FD14C060917009709114
:10474000710990E080E00E94043B7B018C019B0199
:10475000AC01B501C6010E94A93D181614F07501FF
:1047600086012DEC3CEC44E251E4B701C8010E9403
:10477000653B9B01AC0160E070E882EA94E40E9432
:10478000943C4B015C0125E531EC48EA5CE3B70160
:10479000C8010E94653B9701A8010E94653B9B01EF
:1047A000AC01C501B4010E94953C20E030E04AE72D
:1047B00054E40E94013D9B01AC0160E070E080E8A0
:1047C0009FE30E94943C4B015C01C090F208D090A2
:1047D000F308E090F408F090F508AC019B0160E06C
:1047E00070E080E89FE30E94943CA70196010E943C
:1047F000943C2091FE083091FF08409100095091AF
:1048000001090E94653BA70196010E94953C6093B7
:10481000F2087093F3088093F4089093F508C09021
:10482000EE08D090EF08E090F008F090F108A701B2
:104830009601C501B4010E94943C2091FA08309180
:10484000FB084091FC085091FD080E94653BA701C0
:1048500096010E94953C6B017C01C092EE08D092BB
:10486000EF08E092F008F092F1080E94FA06009139
:104870001609109117092091180930911909601B28
:10488000710B820B930B613477478B41910590F04C
:104890000E94FA066093160970931709809318090D
:1048A00090931909C0929C08D0929D08E0929E08AE
:1048B000F0929F0880E40E948506BC01990F880B46
:1048C000990B0E94063B6B017C0120E030E04CE537
:1048D00053E40E94653B4B015C01A701960160E037
:1048E00070EC8FE794E40E94943C9B01AC01C501FD
:1048F000B4010E94013D20E030E04AE754E40E9408
:10490000013D0E94B63D2091350230913602409122
:104910003702509138020E94013DC0904409D09066
:104920004509E0904609F09047092FE03FEC4BE540
:104930005BE30E94953C9B01AC0160E070E080E885
:104940009FE30E94013D23E333E948E853E40E94DA
:10495000943CA70196010E94943C20910A09309151
:104960000B0940910C0950910D090E94653BA7016C
:1049700096010E94953C6093440970934509809389
:1049800046099093470984E40E948506BC01990F6B
:10499000880B990B0E94063B6B017C0120E030E004
:1049A0004CE553E40E94653B4B015C01A701960175
:1049B00060E070EC8FE794E40E94943C9B01AC01B2
:1049C000C501B4010E94013D20E030E04AE754E413
:1049D0000E94013D0E94B63D209131023091320289
:1049E00040913302509134020E94013DC0900E0963
:1049F000D0900F09E0901009F09011092FE03FECE2
:104A00004BE55BE30E94953C9B01AC0160E070E0EC
:104A100080E89FE30E94013D23E333E948E853E443
:104A20000E94943CA70196010E94943C20910609A3
:104A30003091070940910809509109090E94653B8E
:104A4000A70196010E94953C60930E0970930F098F
:104A5000809310099093110985E40E948506BC019A
:104A6000990F880B990B0E94063B6B017C01C09249
:104A7000F608D092F708E092F808F092F90820E0E2
:104A800030E04AE754E40E94653B4B015C01A7011A
:104A9000960160E070EC8FE794E40E94943C9B01E7
:104AA000AC01C501B4010E94013D2DE336EF4AE39C
:104AB00055E40E94013D0E94B63D20912D023091A7
:104AC0002E0240912F02509130020E94013DC09071
:104AD0001209D0901309E0901409F09015092FE005
:104AE0003FEC4BE55BE30E94953C9B01AC0160E031
:104AF00070E080E89FE30E94013D23E333E948E84A
:104B000053E40E94943CA70196010E94943C20919A
:104B100002093091030940910409509105090E944E
:104B2000653BA70196010E94953C60931209709322
:104B3000130980931409909315098FE30E94850649
:104B40008C018FE30E948506080F191F8FE30E94D6
:104B50008506080F191F8FE30E948506080F191F8D
:104B60008FE30E948506080F191F8FE30E948506B8
:104B7000080F191F8FE30E948506800F911F813255
:104B8000B3E09B0748F423E0969587952A95E1F7D3
:104B900090933509809334098091A0089091A108E1
:104BA00001969093A1088093A008049709F091C002
:104BB0008090480990904909A0904A09B0904B090B
:104BC000C501B4010E947A3D8B018AE0E2E8F2E07F
:104BD000DE01119601900D928A95E1F7C80164E615
:104BE00070E00E94543ECB01EAE0F0E0BF010E9479
:104BF000543E9C01C801BF010E94543E7C01CB0180
:104C0000BF010E94543E8C01E1E0F0E0EC0FFD1F7B
:104C1000EE0EFF1E2115310509F4B5C02E0F3F1F02
:104C2000D901DC904D2D60E170E080E59BE00E94B1
:104C3000E116E1E0F0E0EC0FFD1FE00FF11F008155
:104C4000402F61E170E080E59BE00E94E116F701F2
:104C50001081412F62E170E080E59BE00E94E11647
:104C60004D2D63E170E080E59BE00E94E116402F4E
:104C700064E170E080E59BE00E94E116412F65E170
:104C800070E080E59BE00E94E116C0905109D09051
:104C90005209E0905309F0905409A7019601C5010B
:104CA000B4010E94943C2AE037ED43E25CE30E94A9
:104CB000653BA70196010E94953C60935109709352
:104CC000520980935309909354091092A1081092AD
:104CD000A00860915C0970915D0980915E099091D6
:104CE0005F090E947A3D29E0ECE8F2E0DE011196CE
:104CF00001900D922A95E1F790E080E020E330E00A
:104D000040E050E00E94843E20908B0930908C0956
:104D10005101C12CD12CE12CF12C00E010E00E94BB
:104D2000B13ED22E03E00E94863F022F132F0730A0
:104D3000110514F006E010E092E0F92E5801BFEFE3
:104D4000AB1ABB0A6F2D70E0A616B7060CF465C04F
:104D50004FEF8FE29BE00E94E116F394F3CFC090F7
:104D60005C09D0905D09E0905E09F0905F09A701B1
:104D7000960160E070E0CB010E94943C20E030E0BE
:104D800040E05FE37DCCD701FC9040E060E170E063
:104D900080E59BE00115110539F10E94E116E1E083
:104DA000F0E0EC0FFD1FE00FF11F1081412F61E1DA
:104DB00070E080E59BE00E94E1164F2D62E170E01B
:104DC00080E59BE00E94E11640E063E170E080E551
:104DD0009BE00E94E116412F64E170E080E59BE0DA
:104DE0000E94E1164F2D4BCF0E94E11640E061E199
:104DF00070E080E59BE00E94E1164F2D62E170E0DB
:104E000080E59BE00E94E11640E063E170E080E510
:104E10009BE00E94E11640E0DFCF83E0800FE82EA8
:104E2000F12CE7E0EE1550F040E0B7018FE29BE097
:104E30000E94E116FFEFEF1AFF0AF3CF2D2D277026
:104E400030E040E050E060E070E080E090E0A1E021
:104E50000E94A33FE1E0F0E0EC0FFD1FE20FF31F23
:104E6000B8016E5F7F4F40818FE29BE00E94E116A8
:104E70008091B00982FFC3C060912C0270E090E085
:104E800080E00E94043B2091F2083091F3084091A9
:104E9000F4085091F5080E94653B2DE831E447E89D
:104EA0005EE30E94653B6B017C0120E030E0A901DC
:104EB0000E94FF3A87FD9EC020E030E046EC52E4BD
:104EC000C701B6010E94A93D18160CF495C0C70190
:104ED000B6010E947A3D162F623008F08EC081E044
:104EE0000E94041A8AE0E6E5F2E0DE0111960190E4
:104EF0000D928A95E1F72AE0812F622F0E94483EA9
:104F0000092F0E94483E21E030E02C0F3D1F200F6A
:104F1000311D8901992309F478C0E1E0F0E0EC0F3C
:104F2000FD1FE90FF11D408166E070E080E59BE028
:104F30000E94E116D8014C9167E070E080E59BE0AB
:104F40000E94E1160091A4091091A509B80190E012
:104F500080E00E94043B9B01AC0160914409709188
:104F6000450980914609909147090E94943C6B0144
:104F70007C016091A6097091A709601B710B90E0FC
:104F800080E00E94043B9B01AC01C701B6010E9476
:104F9000013D20E030E040E651E40E94653B0E9484
:104FA000733D10E077FD06C06F30710514F06EE0C0
:104FB00070E0162F85E0E5E9F2E0DE011196019040
:104FC0000D928A95E1F7E12EF12CF694E794F69490
:104FD000E79408E06701F7E0CF0ED11C602F70E086
:104FE000C616D706E4F04FEF8FE29BE00E94E11671
:104FF0000F5FF4CF10E073CF13E680E071CF0E9413
:10500000C10D182F8A30C8F76ACF4FE766E070E00D
:1050100080E59BE00E94E116F80140818DCF88E099
:105020008E0DC82ED12C2BE0C21651F040E0B601F7
:105030008FE29BE00E94E1163FEFC31AD30AF3CF41
:10504000E12FE370EC0FFD2FF11DB701685F7F4F7B
:1050500042818FE29BE00E94E1162E960FB6F894F3
:10506000DEBF0FBECDBFDF91CF91FF91EF91BF911A
:10507000AF919F918F917F916F915F914F913F91F0
:105080002F911F910F91FF90EF90DF90CF90BF90E5
:10509000AF909F908F907F906F905F904F903F90D8
:1050A0002F900F900BBE0F900FBE0F901F90189572
:1050B00080E59BE00E948E148FE29BE00E948E149C
:1050C0008DE79BE00E94861487E79BE00E94861490
:1050D00081E79BE00C948614CF93DF93EBE3FAE037
:1050E0001382128288EE93E0A0E0B0E0848395837F
:1050F000A683B7832EE932E03183208325EC30E0AC
:105100003587248724EC30E03787268720EC30E091
:10511000318B208B21EC30E0338B228B22EC30E082
:10512000358B248B26EC30E0378B268B118E128E3C
:10513000138E148EE8EDFAE0138212828483958335
:10514000A683B78380EB92E091838083C4EEDAE09C
:1051500085E090E09D838C838EE190E00E94B83FD3
:105160009B878A879D878C871F861E86188A198A47
:105170001A8A1B8A82EF9AE09D8B8C8B1E8A1F8A6B
:10518000188E198E87E895E0998388831B821A828E
:10519000CEEFDAE08CE090E09D838C8388E490E0B1
:1051A0000E94B83F9B878A879D878C871F861E86B3
:1051B000188A198A1A8A1B8A8CE09BE09D8B8C8B3B
:1051C0001E8A1F8A188E198E8FEB94E0998388832C
:1051D0001B821A8281E79BE00E94041587E79BE00F
:1051E0000E9404158DE79BE00E940415EFE2FBE0AE
:1051F0008CE085838AE086838BE08783108628E1B4
:105200003BE03287218782E0838781E0848B1182B3
:105210001082128283831482E0E5FBE098E095839C
:1052200096E0968397E0978310863287218793E0F4
:105230009387848B1182108212828383148240E8C8
:1052400053E46DE678E383E29BE00E94710B40E853
:1052500053E46DE678E389E29BE00E94710B40E83D
:1052600053E46DE678E38DE19BE00E94710B1092B0
:10527000190B10921A0B10921B0B10921C0BDF9142
:10528000CF910895CF93DF93CDB7DEB7A5970FB633
:10529000F894DEBF0FBECDBF789484B5826084BD24
:1052A00084B5816084BD85B5826085BD85B581602A
:1052B00085BD80916E00816080936E0010928100A8
:1052C0008091810082608093810080918100816063
:1052D0008093810080918000816080938000809124
:1052E000B10084608093B1008091B00081608093B0
:1052F000B000809191008260809391008091910034
:1053000081608093910080919000816080939000F3
:105310008091A10082608093A1008091A1008160B2
:105320008093A1008091A00081608093A000809173
:10533000210182608093210180912101816080930D
:1053400021018091200181608093200180917A0069
:10535000846080937A0080917A00826080937A00E2
:1053600080917A00816080937A0080917A008068D1
:1053700080937A001092C100109258091092590936
:1053800010925A0910925B0910924D0910924E0921
:1053900010924F0910925009109248091092490931
:1053A00010924A0910924B0910925C0910925D0903
:1053B00010925E0910925F0961E089E20E9449063D
:1053C00061E088E20E94490661E089E20E941B06D2
:1053D00061E088E20E941B0664E670E080E090E0F5
:1053E0000E94C7060E94AE088091C7099091C80923
:1053F000009711F00E94544086E090E00E94B83F70
:105400008C0188E6D8018C9378EDC72E7AE0D72EF0
:105410001296DC92CE92119713961C92139780E20B
:1054200090E015969C938E9314971093C80900935F
:10543000C7090E94AE08FF24F394F801F382C80163
:105440000E944C0B8093B5091092ED080E942E0D1E
:105450000E94AE08D0924602C092450280E5809339
:1054600047028FEF0E94AE0A811176C7F092ED08D5
:1054700080E293E090933E0280933D0254E2E52E59
:10548000FF24F39410E000E064EBC62E69E0D62E12
:1054900060E679E0C7010E94871CE0E6F9E080E061
:1054A00091918927CE16DF06D9F79091B409891317
:1054B000D7C788EC90E00130110539F084E690E020
:1054C0000230110511F48CE291E090933E0280933A
:1054D0003D0280913D0290913E028032934041F422
:1054E0000E942E0D0E94AD1C0E94AD1C0E94AD1C9E
:1054F000E0918D0924E0E29FF0011124E05AF64F7B
:1055000086A997A9A0ADB1AD809351099093520996
:10551000A0935309B09354098091B509882309F4E5
:105520005BC0CE0101960E947F0F86E0FE0131969E
:10553000A3E2BBE001900D928A95E1F780919E096C
:1055400090919F091CE3189F7001199FF00C112482
:1055500083E29BE00E941D0CAB01BC014E195F0968
:1055600061097109CE0101960E94710B86E0FE016E
:105570003196A3E2BBE001900D928A95E1F7CE014E
:1055800001960E947F0F86E0FE013196A9E2BBE002
:1055900001900D928A95E1F78091A0099091A1095F
:1055A000189F7001199FF00C112489E29BE00E9462
:1055B0001D0CAB01BC014E195F0961097109CE01D7
:1055C00001960E94710B86E0FE013196A9E2BBE0D4
:1055D00001900D928A95E1F78FE29BE00E94671B94
:1055E00080E59BE00E94671B6AE070E080E090E04D
:1055F0000E94C7068FE29BE00E94671B80E59BE04C
:105600000E94671B6AE070E080E090E00E94C7069D
:105610008FE29BE00E94671B80E59BE00E94671B76
:105620006AE070E080E090E00E94C7068FE29BE0B5
:105630000E94671B80E59BE00E94671B6AE070E0A8
:1056400080E090E00E94C7068FE29BE00E94671B0B
:1056500080E59BE00E94671B6AE070E080E090E0DC
:105660000E94C7068FE29BE00E94671B80E59BE0DB
:105670000E94671B61E070E080E090E00E94C70636
:1056800050E040E06AE070E08FE29BE00E948E1AFA
:105690008FE29BE00E943A1B80E59BE00E943A1B50
:1056A00081E00E94231B61E088E10E94490661E0DD
:1056B00089E10E94490661E08AE10E94490660E0B2
:1056C00087E30E94490660E088E30E94490660E0A3
:1056D0008FE30E94490660E080E40E94490660E092
:1056E00081E40E94490660E084E40E94490660E08B
:1056F00085E40E9449060E94FA0660931609709399
:10570000170980931809909319091092350910927E
:105710003409609168097091690990E080E00E9405
:10572000043B4B015C018092350290923602A092BC
:105730003702B092380260916A0970916B0990E06B
:1057400080E00E94043B6E8F7F8F88A399A36093B3
:10575000310270933202809333029093340260914D
:105760006C0970916D0990E080E00E94043B2B0170
:105770003C0140922D0250922E0260922F027092B4
:105780003002609172097091730990E080E00E948C
:10579000043B2AE037ED43E25CE30E94653B609303
:1057A0000A0970930B0980930C0990930D0960917D
:1057B00074097091750990E080E00E94043B2AE032
:1057C00037ED43E25CE30E94653B2DEC3CEC4CEC96
:1057D0005DE30E94653B609306097093070980931F
:1057E000080990930909609176097091770990E012
:1057F00080E00E94043B2AE037ED43E25CE30E9434
:10580000653B2DEC3CEC4CEC5DE30E94653B60930A
:10581000020970930309809304099093050960912C
:1058200078097091790990E080E00E94043B2AE0B9
:1058300037ED43E25CE30E94653B6B017C012FE89E
:1058400032EC45EF5CE30E94653B6093FE08709389
:10585000FF0880930009909301092AE037ED43E2A5
:105860005CE3C701B6010E94653B6093FA08709340
:10587000FB088093FC089093FD0880918809809331
:105880002C0204E610E080E40E948506BC01990F1A
:10589000880B990B0E94063B2091F6083091F7087F
:1058A0004091F8085091F9080E94953C6093F608E1
:1058B0007093F7088093F8089093F9080150110944
:1058C00011F720E030E048EC52E40E94013D6B010A
:1058D0007C01C092F608D092F708E092F808F092A6
:1058E000F90820E030E04CE553E40E94653B6AA3F0
:1058F0007BA38CA39DA3A701960160E070EC8FE7CA
:1059000094E40E94943C9B01AC016AA17BA18CA110
:105910009DA10E94013D20E030E04AE754E40E944E
:10592000013D0E94B63DA50194010E94013D2FE07A
:105930003FEC4BE55BE30E94953C9B01AC0160E0D2
:1059400070E080E89FE30E94013D23E333E948E8EB
:1059500053E40E94943C60934409709345098093FA
:1059600046099093470904E610E084E40E94850606
:10597000BC01990F880B990B0E94063B2091F608F9
:105980003091F7084091F8085091F9080E94953C31
:105990006093F6087093F7088093F8089093F908DD
:1059A0000150110911F720E030E048EC52E40E9468
:1059B000013D6B017C01C092F608D092F708E0929D
:1059C000F808F092F90820E030E04CE553E40E943A
:1059D000653B4B015C01A701960160E070EC8FE72D
:1059E00094E40E94943C9B01AC01C501B4010E9467
:1059F000013D20E030E04AE754E40E94013D0E946E
:105A0000B63D2E8D3F8D48A159A10E94013D2FE04A
:105A10003FEC4BE55BE30E94953C9B01AC0160E0F1
:105A200070E080E89FE30E94013D23E333E948E80A
:105A300053E40E94943C60930E0970930F09809385
:105A40001009909311090CE211E081E40E9485068F
:105A5000BC01990F880B990B0E94063B2091F60818
:105A60003091F7084091F8085091F9080E94953C50
:105A70006093F6087093F7088093F8089093F908FC
:105A80000150110911F720E030E046E953E40E948B
:105A9000013D6B017C01C092F608D092F708E092BC
:105AA000F808F092F90820E030E04CE553E40E9459
:105AB000653B4B015C01A701960160E070EC8FE74C
:105AC00094E40E94943C9B01AC01C501B4010E9486
:105AD000013D5B016C0160916E0970916F0990E06E
