:100000000C942C040C945D040C945D040C945D041D
:100010000C945D040C945D040C945D040C945D04DC
:100020000C945D040C94C91C0C945A1C0C94EF1B8A
:100030000C945D040C945D040C945D040C945D04BC
:100040000C945D040C945D040C945D040C945D04AC
:100050000C945D040C945D040C945D040C94211AC2
:100060000C945D040C94951A0C946B1A0C945D041A
:100070000C945D040C945D040C945D040C945D047C
:100080000C945D040C945D040C945D040C945D046C
:100090000C945D040C945D040C945D040C94CB1AD8
:1000A0000C945D040C945D040C94331D0C945D045D
:1000B0000C945D040C945D040C945D040C945D043C
:1000C0000C945D040C945D040C945D040C945D042C
:1000D0000C945D040C945D040C945D040C945D041C
:1000E0000C945D0408000000BE922449123EABAAA5
:1000F000AA2ABECDCCCC4C3E00000080BEABAAAA42
:10010000AA3E00000000BF000000803F0000000089
:1001100000084178D3BB4387D1133D190E3CC3BDC2
:100120004282AD2B3E68EC8276BED98FE1A93E4C6F
:1001300080EFFFBE01C4FF7F3F00000000000C9471
:100140006A070C9472050C94B40B0C940E350C9445
:1001500032070C94D60B0C9480050C9443310C940C
:10016000C30B0C9489050C94F6300C9457050C9431
:1001700024070C9420310C9484050C945B050C949A
:10018000B30B0C94DD300C940A0C0C944F050C94BA
:1001900053050C944F300C9476050C9468050C9420
:1001A0000F310C94CC0D0C94390C0C942A050C9442
:1001B0006E050C9401070C9449050C94DD0B0C940E
:1001C000D3060C9429050C9427050C9452310C94F9
:1001D0000A240C945F040C94A6060C94D4060C9488
:1001E0007C050C9464050C948E050C941E240C94D0
:1001F00010070C94B7070C945E050C948A05460210
:10020000000000FF0800053E5B4F5B3E053E6B4F64
:100210006B3E051C3E7C3E1C05183C7E3C18051CB4
:10022000577D571C051C5E7F5E1C0400183C18059A
:10023000FFE7C3E7FF040018241805FFE7DBE7FF2B
:100240000530483A060E05262979292605407F05FE
:10025000050705407F05253F055A3CE73C5A057FC9
:100260003E1C1C0805081C1C3E7F0514227F22141E
:1002700005FFFFFFFFFF05F0F0F0F0F003FFFFFFC9
:1002800005000000FFFF050F0F0F0F0F0508047E8C
:1002900004080510207E20100508082A1C080508FF
:1002A0001C2A080805AA005500AA05AA55AA55AA9D
:1002B0000530383E383005060E3E0E0602000001BD
:1002C0005F0307000705147F147F1405444AFF4AA3
:1002D000320563130864630536494936480107034C
:1002E0003E41410341413E05082A1C2A08050808F1
:1002F0003E08080260E00408080808026060056023
:1003000010080403053E5149453E0304027F057170
:1003100049494946054149494936050F0808087FBA
:10032000054F49494931053E494949300503010115
:10033000017F05364949493605064949493E026C5F
:100340006C026CEC03081422041414141403221419
:1003500008050159090906053E415D594E057E090A
:1003600009097E057F49494936053E41414141051C
:100370007F4141413E057F49494941057F090909BE
:1003800001053E41414979057F0808087F03417F07
:100390004105304141413F057F08142241057F401E
:1003A000404040057F020C027F057F0408107F0556
:1003B0003E4141413E057F09090906053E41416133
:1003C0007E057F091929460546494949310501013C
:1003D0007F0101053F4040403F051F2040201F0591
:1003E0003F4038403F056314081463050304780454
:1003F00003056151494543037F414105030408104A
:10040000600341417F050402010204048080808072
:1004100003010204043844447C047F444438043813
:10042000444444043844447F043854545804047EFB
:1004300005010418A4A47C047F040478017D0384CE
:10044000857C047F102844017F057C0478047804AF
:100450007C040478043844443804FC242418041828
:100460002424FC047C040408045854543403047FFA
:1004700004043C40407C041C20407C053C4030404F
:100480003C046C10106C041CA0A07C046454544CFC
:100490000408364141017F0441413608040201024B
:1004A00001057F4141417F053E5555554105384481
:1004B000443844057C2A2A3E14057E0202060605BD
:1004C000027E027E02056355494163053844443C7F
:1004D0000405407E201E200506027E0202086313EA
:1004E000086463006060052A2A2A2A2A03514A44C4
:1004F00003444A51050000FF010303E080FF053675
:1005000012362436030205020218180210100530B4
:1005100040FF0101041F01011E000000000901014C
:100520007F017F020C027F0000000000000100013B
:100530007D0418247E2404447E454105221C141C9D
:100540002205012A7C2A010177044E555539030200
:100550000002077E81BDA5A5817E0326292F0508FF
:10056000142A1422040808081803080808077E81C2
:10057000BD95A9817E050101010101030205020368
:10058000242E24031915120315150A02020104F87A
:100590002040780506097F017F021818040080A01A
:1005A000C003121F10032629260522142A14080846
:1005B000402F1008041E117C08402F1008046255BB
:1005C0004C0915553F1008041E117C053048484D54
:1005D00040057815161478057814161578057A15DF
:1005E00014157A05781615167905781514157805F9
:1005F0007814151478077E09097F494941059EA1A1
:10060000612121057C54554644057C5456454405DA
:100610007E55544546057C5554454403457E440368
:10062000447E4503467D4603457C4505087F494198
:100630003E057C0A11227D0538444546380538447C
:10064000464538053A4544453A0538464546390554
:100650003845444538052214081422057C625A4660
:100660003E053C4041423C053C4042413C053C4249
:1006700041423C053C4140413C0502047A050204EC
:100680003F12120C057E49494E30043845467C0421
:100690003844467D043846457E043A45467D043854
:1006A00045447D04304A4D7A0720545438545458F8
:1006B000049CA262220438555658043854565904F2
:1006C0003856555A043855545902017A027A0103B2
:1006D0000279020302780204304B4B3C047A090A87
:1006E000710430494A300430484A3104304A4932B2
:1006F0000432494A3104394444390508082A0808B3
:100700000438544C38043841427804384042790463
:100710003842417A043A40407A0418A0A27904FC95
:10072000282810041AA0A07A1F1C1F1E1F1E1F1F9E
:100730001E1F1E00002100240027002A002D00306B
:1007400000330001010000040107010A010000223A
:1007500000250028002B002E00310034000201008B
:1007600000050108010B01000020002300260029DC
:10077000002C002F003200000100000301060109D7
:100780000105050505070508080808020202020A16
:100790000A08080404040401010101010101010324
:1007A00003030303030303040707070C0C0C0C0CDF
:1007B0000C0C0C0202020206060606060606060BD2
:1007C0000B0B0B0B0B0B0B01021020200808102049
:1007D00040102040800201020108040201010204CD
:1007E000081020408080402010080402018004028C
:1007F00001804020100804020108040201010204E3
:100800000810204080010204081020408000000AE7
:100810000B02090C0D0E0807030401000000000084
:1008200000000000000000000000000000000000C8
:100830000000000000000000001211100000000085
:1008400000000000000000000000000000000000A8
:10085000000000001E240A2411241FBECFEFD1E2A5
:10086000DEBFCDBF00E00CBF12E0A0E0B2E0E0E7E9
:10087000F0E700E00BBF02C007900D92AE3AB1075F
:10088000D9F725E0AEEAB2E001C01D92A838B20760
:10089000E1F714E0CBE2D4E000E006C021970109C3
:1008A000802FFE010E94CD34CA32D10780E00807B4
:1008B000A9F70E94F4240C9426380C9400002F927F
:1008C0003F924F925F926F927F928F929F92AF92E0
:1008D000BF92CF92DF92EF92FF920F931F93CF932D
:1008E000DF93FC01411551056105710521F441E0DB
:1008F00050E060E070E08485958506969587848752
:1009000022853385E480F580821B930B959587952E
:10091000CBEADAEA8C9FD0018D9FB00D9C9FB00D81
:100920001124AE15BF0514F035872487C485D585FD
:100930004A835B836C837D83088119812F0124E1C5
:10094000420E511C84899589C817D90711F4158B5B
:10095000048B848995891201712C612C6F01AEE0A2
:10096000CA0ED11C6E147F040CF053C0DC01AD9094
:10097000BC901197CA15DB0511F40D931C93DC0193
:1009800012968D909D90AD90BC901597841695060B
:10099000A606B70658F4D2014D915C911197598380
:1009A0004883CD93DC9340E050E0BA01D1012D9013
:1009B0003C90C816D90669F1DC014D905C90D201DB
:1009C000AD90BC901197CA15DB0511F40D931C93E3
:1009D000D20112968D909D90AD90BC901597841683
:1009E0009506A606B70658F4DC014D915C91119767
:1009F00059834883CD93DC9340E050E0BA01C4149E
:100A0000D50439F0D2018D919C91BFEF6B1A7B0A0E
:100A1000A9CFD10112966D917D918D919C911597E1
:100A20006683778380879187DF91CF911F910F91A4
:100A3000FF90EF90DF90CF90BF90AF909F908F90FE
:100A40007F906F905F904F903F902F9008950C94FF
:100A50005F04089508958150823108F05AC0E82F4C
:100A6000F0E08827E95CFA4F8F4F0C94CD3457059E
:100A70005B0549054F05530589055E056405680555
:100A80006E05720576057C058005890584058A0555
:100A90008E05809180008F778093800008958091EB
:100AA00080008F7DF9CF80918000877FF5CF84B55E
:100AB0008F7784BD089584B58F7DFBCF8091B00082
:100AC0008F778093B00008958091B0008F7DF9CF2B
:100AD000809190008F77809390000895809190008E
:100AE0008F7DF9CF80919000877FF5CF8091A00016
:100AF0008F778093A00008958091A0008F7DF9CF1B
:100B00008091A000877FF5CF809120018F7780931F
:100B100020010895809120018F7DF9CF80912001DF
:100B2000877FF5CFCF93DF93282F30E0F901E35F84
:100B3000F74F8491F901E953F84FD491F901EF5738
:100B4000F84FC491CC23A1F081110E942B05EC2F0A
:100B5000F0E0EE0FFF1FE959F84FA591B491EC9129
:100B6000ED2381E090E009F480E0DF91CF910895DA
:100B700080E090E0FACF1F93CF93DF93282F30E0EF
:100B8000F901E35FF74F8491F901E953F84FD491EC
:100B9000F901EF57F84FC491CC23A9F0162F81111A
:100BA0000E942B05EC2FF0E0EE0FFF1FE35BF84FE8
:100BB000A591B4918FB7F894EC91111108C0D0951C
:100BC000DE23DC938FBFDF91CF911F910895DE2B41
:100BD000F8CFCF93DF9390E0FC01E953F84F2491D5
:100BE0008F57984FFC0184918823C9F090E0880FBB
:100BF000991FFC01ED5CF84FA591B491FC01E35BFA
:100C0000F84FC591D49161110DC09FB7F8948C91A4
:100C1000209582238C938881282328839FBFDF918E
:100C2000CF910895623051F49FB7F8943C91822F90
:100C3000809583238C93E8812E2BEFCF8FB7F89488
:100C4000EC912E2B2C938FBFEACF863308F086537E
:100C500020917B00982F9870277F922B90937B0098
:100C60008770806480937C0080917A008064809398
:100C70007A0080917A0086FDFCCF80917800909177
:100C8000790008953FB7F89480916F0390917003B5
:100C9000A0917103B091720326B5A89B05C02F3FA8
:100CA00019F00196A11DB11D3FBFBA2FA92F982F92
:100CB0008827BC01CD01620F711D811D911D42E08D
:100CC000660F771F881F991F4A95D1F708958F9255
:100CD0009F92AF92BF92CF92DF92EF92FF926B0101
:100CE0007C010E9442064B015C01C114D104E10465
:100CF000F104B9F00E944206681979098A099B0932
:100D0000683E73408105910580F321E0C21AD10845
:100D1000E108F10888EE880E83E0981EA11CB11C42
:100D2000E4CFFF90EF90DF90CF90BF90AF909F9077
:100D30008F9008952FB7F89460916B0370916C03B6
:100D400080916D0390916E032FBF08950F931F93B1
:100D50000E94420600913F031091400320914103FD
:100D600030914203DC01CB01801B910BA20BB30B32
:100D7000893B2BE09207A105B10590F080933B03DE
:100D800090933C03A0933D03B0933E030E94420620
:100D900060933F0370934003809341039093420319
:100DA0001F910F9108950895AF92BF92CF92DF9255
:100DB000EF92FF920F931F93CF93DF936C017B0110
:100DC0008B01040F151FEB015E01AE18BF08C017A1
:100DD000D10759F06991D601ED91FC910190F08114
:100DE000E02DC6011995892B79F7C501DF91CF91C7
:100DF0001F910F91FF90EF90DF90CF90BF90AF9039
:100E00000895FC01538D448D252F30E0842F90E010
:100E1000821B930B541710F0CF96089501970895F5
:100E2000FC01918D828D981761F0A28DAE0FBF2FBE
:100E3000B11D5D968C91928D9F5F9F73928F90E014
:100E400008958FEF9FEF0895FC01918D828D981783
:100E500031F0828DE80FF11D858D90E008958FEFC0
:100E60009FEF0895FC01918D228D892F90E0805C89
:100E70009F4F821B91098F73992708958CE394E00B
:100E80000E94320721E0892B09F420E0822F089587
:100E9000FC01A48DA80FB92FB11DA35ABF4F2C91EF
:100EA000848D90E001968F739927848FA689B789E6
:100EB0002C93A089B1898C91837080648C93938DDD
:100EC000848D981306C00288F389E02D80818F7D80
:100ED00080830895EF92FF920F931F93CF93DF9338
:100EE000EC0181E0888F9B8D8C8D98131AC0E88966
:100EF000F989808185FF15C09FB7F894EE89FF8935
:100F00006083E889F98980818370806480839FBFD2
:100F100081E090E0DF91CF911F910F91FF90EF90D2
:100F20000895F62E0B8D10E00F5F1F4F0F731127E2
:100F3000E02E8C8D8E110CC00FB607FCFACFE8891D
:100F4000F989808185FFF5CFCE010E944807F1CF56
:100F5000EB8DEC0FFD2FF11DE35AFF4FF0829FB791
:100F6000F8940B8FEA89FB8980818062CFCFCF9381
:100F7000DF93EC01888D8823B9F0AA89BB89E889C1
:100F8000F9898C9185FD03C0808186FD0DC00FB667
:100F900007FCF7CF8C9185FFF2CF808185FFEDCFE5
:100FA000CE010E944807E9CFDF91CF91089580E0FC
:100FB00090E0892B29F00E943E0781110E940000D9
:100FC00080E090E0892B49F080E090E0892B29F0C7
:100FD0000E94000081110E94000080E090E0892BB7
:100FE00049F080E090E0892B29F00E9400008111F7
:100FF0000E94000080E090E0892B49F080E090E0C2
:10100000892B29F00E94000081110C9400000895A2
:101010002091DC02260F3327331F21323105ECF4F7
:1010200020913604FC0190E080E0243069F082E0F9
:101030000895A091DC022191AC0144545D4FA40FAE
:10104000B52FB11D2C930196861798F38091DC0281
:10105000680F6093DC0280E0089581E008951092AB
:10106000360481E0809315041092100461E084E15D
:101070000E94BB0561E085E10E94BB05E9EBF0E061
:1010800080818E7F808380818D7F808388E48093C0
:10109000B80085E48093BC0008951092C9031092B3
:1010A000C8031092CD031092EF030E942F0889E22B
:1010B00095E090937603809375038AE295E0909390
:1010C0007403809373030895CF93DF9391E090931B
:1010D000BB028823B9F0C091B800D091BA008091CA
:1010E000BC008A7B8093BC0060E084E10E94BB0569
:1010F00060E085E10E94BB050E942F08D093BA00F2
:10110000C093B800DF91CF9108958F929F92AF92D4
:10111000BF92CF92DF92EF92FF920F931F93CF93E4
:10112000DF93D82FC62F142F613208F09CC00E9485
:1011300042066B017C018091360481116FC081E011
:1011400080933604109315049FEF9093140410922B
:1011500013049C0F90931204809311048091110446
:10116000DD0FD82BD093110480911004813009F049
:101170007CC0109210040E9442066B017C01809199
:1011800011048093BB008091380490913904A091A0
:101190003A04B0913B04892B8A2B8B2BA1F00E943F
:1011A0004206009138041091390420913A0430919C
:1011B0003B046C197D098E099F090617170728073C
:1011C000390708F44CC08091BC0083FDD8CF85EC72
:1011D0008093BC000E9442066B017C018091360422
:1011E000813009F444C0809113048C1710F4C0912D
:1011F0001304E0EFF3E0A6E1B4E080E08C1359C003
:101200008C2FDF91CF911F910F91FF90EF90DF9086
:10121000CF90BF90AF909F908F90089580913804A9
:1012200090913904A0913A04B0913B04892B8A2B08
:101230008B2B09F480CF0E94420680903804909056
:101240003904A0903A04B0903B046C197D098E09D2
:101250009F0986169706A806B90608F06CCF8091FC
:1012600037040E946408C0E0CBCF85EEB1CF8091F7
:10127000380490913904A0913A04B0913B04892B31
:101280008A2B8B2B09F4AACF0E94420600913804C6
:101290001091390420913A0430913B046C197D0976
:1012A0008E099F09061717072807390708F096CFF8
:1012B000D6CF91919D938F5FA1CF8F929F92AF9246
:1012C000BF92CF92DF92EF92FF920F931F93CF9333
:1012D000DF93D091EF03D13208F0D7C0182FC0911F
:1012E000EE030E9442066B017C018091360481115D
:1012F0006BC082E080933604109315048FEF8093C7
:10130000140410921304D0931204AEECB3E0E0EF97
:10131000F3E080E0D81391C0109211048091110481
:10132000CC0FC82BC093110480911004813009F0B8
:1013300088C0109210040E9442066B017C018091CB
:1013400011048093BB008091380490913904A091DE
:101350003A04B0913B04892B8A2B8B2BA1F00E947D
:101360004206009138041091390420913A043091DA
:101370003B046C197D098E099F090617170728077A
:10138000390708F442C08091BC0083FDD8CF85ECBA
:101390008093BC000E9442066B017C018091360460
:1013A000823009F450C0809114048F3F09F46FC05B
:1013B00080911404803209F46CC08091140480334D
:1013C00009F469C084E026C0809138049091390402
:1013D000A0913A04B0913B04892B8A2B8B2B09F402
:1013E00084CF0E9442068090380490903904A090E7
:1013F0003A04B0903B046C197D098E099F0986164A
:101400009706A806B90608F070CF809137040E94AD
:10141000640885E01092CD031092EF031092CC0384
:10142000DF91CF911F910F91FF90EF90DF90CF90C0
:10143000BF90AF909F908F9008959D9191938F5FF3
:1014400069CF85EEA5CF8091380490913904A091A1
:101450003A04B0913B04892B8A2B8B2B09F49ECF45
:101460000E944206009138041091390420913A04F8
:1014700030913B046C197D098E099F0906171707E7
:101480002807390708F08ACFC0CF81E0C3CF80E0BA
:10149000C1CF82E0BFCF83E0BDCF8F3F11F48091F9
:1014A000430291E09093CC038093EE031092CD031E
:1014B0001092EF0381E00E945D0991E0811190E0BC
:1014C000892F08952F923F924F925F926F927F9251
:1014D0008F929F92AF92BF92CF92DF92EF92FF9244
:1014E0000F931F93CF93DF93CDB7DEB72C970FB633
:1014F000F894DEBF0FBECDBF4B015C015A87498710
:1015000019018091440290914502A0914602B09148
:101510004702B501A401420F531F611D711D4817F9
:1015200059076A077B0718F01C0128183908209111
:101530004802309149023A8329832F31310524F042
:101540008EE190E09A8389831C861B86AB85BC85DF
:10155000A215B30508F0EEC081010A1B1B0BE9813F
:10156000FA81E017F1070CF48F01023011050CF439
:1015700044C020914802309149023C832B832901C9
:10158000712C612C750164018B859C85C80ED91E58
:10159000E11CF11CC701B601A3010E94B9322D83E1
:1015A0003E834F83588791E0C91AD108E108F108BA
:1015B000B801012E000C880B990B6C0D7D1D8E1D42
:1015C0009F1DA30192010E94B932AD81BE81A21775
:1015D000B30798F42D01BFEF4B1A5B0AEB81FC8136
:1015E0004E9E80014F9E100D5E9E100D11248B8526
:1015F0009C85880D991D081B190BF0904302809162
:10160000440290914502A0914602B0914702009792
:10161000A140B10570F0D501C4012B853C85820F36
:10162000931FA11DB11D0097A140B10510F0689452
:10163000F2F880914B02882381F08FEFF8120BC0F3
:10164000809143020E944D0A811107C08BE891E00E
:101650000197F1F7EECF8F2DF5CFA0914102B09118
:10166000420291E09093CC03F092EE031092CD03EE
:101670001092EF034091440250914502609146025E
:10168000709147024130584061057105A0F0B501E5
:10169000A4012B853C85420F531F611D711D9927A5
:1016A000872F762F652FED91FC9111970190F08196
:1016B000E02DCD0119958091410290914202DC010B
:1016C000ED91FC910190F081E02D6B85680D1995ED
:1016D000D12CE984FA84EB85FC85EE0EFF1EAD2D3E
:1016E000B0E0A017B1078CF48091410290914202C2
:1016F000AE0DBF1DFC0120813181F90120813181B6
:101700006C91F9011995D394EACF81E00E945D09AB
:101710002B853C85200F311F3C872B8780914B0206
:10172000811114CF60914A0270E090E080E00E9445
:1017300067060CCF2C960FB6F894DEBF0FBECDBF58
:10174000DF91CF911F910F91FF90EF90DF90CF909D
:10175000BF90AF909F908F907F906F905F904F90D1
:101760003F902F9008950895E091C9038091C80398
:10177000E81730F4F0E0EA5EFB4F808190E00895D6
:101780008FEF9FEF08959091C9038091C8032FEFC9
:101790003FEF981748F4E92FF0E0EA5EFB4F208115
:1017A00030E09F5F9093C903C90108958091C803F9
:1017B0009091C903891B990B0895CF92DF92EF9204
:1017C000FF920F931F93CF93DF937C01CB018A018C
:1017D0002091CC03222389F0EB016B01C40ED51EAE
:1017E000CC15DD0569F06991D701ED91FC9101906F
:1017F000F081E02DC7011995F3CF642F0E940808EE
:10180000C801DF91CF911F910F91FF90EF90DF9072
:10181000CF900895CF93DF931F92CDB7DEB7698342
:101820002091CC032223F9F02091EF03203258F0CD
:1018300021E030E0FC013383228390E080E00F90D0
:10184000DF91CF9108958091CD03E82FF0E0E2532E
:10185000FC4F998190838F5F8093CD038093EF033A
:1018600081E090E0ECCF61E0CE0101960E94080893
:10187000F7CF90E080E00895CF93DF93EC018B8168
:101880008823A1F0888191E09093CC038093EE03AC
:101890001092CD031092EF0381E00E945D0991E068
:1018A000811190E0892FDF91CF9108950E944D081A
:1018B00081E08B83CE010E943C0C982F8111E2CFF6
:1018C000F1CFEF92FF920F931F93CF93DF93EC0131
:1018D00069813881432F50E02A81822F90E0E8E22D
:1018E000F7E021E0261730F47491870F911D2F5FE8
:1018F0003196F8CF633018F0337009F401966DE635
:1019000071E0469F9001479F300D569F300D112486
:10191000215031094D5F5F4F569547955695479534
:10192000240F351F280F391FA8E1B0E00E94DB32D9
:101930002B817B018C01E20EF11C011D111DA80100
:101940009701ACE3B0E00E94AE322C817B018C01A8
:10195000E20EF11C011D111DA80197010E94AE327B
:10196000AB01BC019D81892F90E0B0E0A0E08058E0
:101970009C4BA249B74C8A019B01080F191F2A1FD3
:101980003B1FC901B801DF91CF911F910F91FF90CB
:10199000EF9008958F929F92AF92BF92CF92DF9275
:1019A000EF92FF92CF93DF93EC016A017B0180E815
:1019B000C81A83E4D80A8DE6E80A88E3F80A8CE3BB
:1019C000882E912CA12CB12CC701B601A501940140
:1019D0000E94B9326D83CA01B901A50194010E9428
:1019E000B9326C83C701B60120E13EE040E050E02F
:1019F0000E94B932CA01B90128E130E040E050E06C
:101A00000E94B9326B83C701B60120E831E541E09D
:101A100050E00E94B932188263E97EEF8881982FE6
:101A2000937041E050E011F050E040E0FA01E359DA
:101A3000FE4F2E173F0740F0FB01E41BF50B2E0F66
:101A40003F1F8F5F8883EACF81E0898389818C3053
:101A5000A0F4482F4150550BFA01E85DF84FE4918E
:101A6000911103C0823009F4EF5FF0E02E173F07B9
:101A700020F02E1B3F0B8F5FE8CF2F5F2A83DF9173
:101A8000CF91FF90EF90DF90CF90BF90AF909F905D
:101A90008F900895CF93DF93EC012A813B81D90188
:101AA000B595A795A80FB91FE881F98120FF08C057
:101AB0008D919C911197E80FF91F0190F081E02D15
:101AC000CD01DF91CF911994CF92DF92EF92FF92E7
:101AD0000F931F93DC011C962D913C911D972A5F5B
:101AE0003F4F1D963C932E931C971A96ED91FC91B7
:101AF0001B972E1B3F0B2D30310524F01D96FC93B8
:101B0000EE931C971C960D90BC91A02D12964D93B0
:101B10005D936D937C931597C684D784E088F18894
:101B20000085118522853385628173818481958149
:101B30000617170728073907D0F0C616D706E80694
:101B4000F90650F0C701B60106171707280739072D
:101B5000D0F4C901B80117C0601771078207930755
:101B600090F0C016D106E206F30630F40CC0C016A1
:101B7000D106E206F30668F3C616D706E806F906AC
:101B800010F4C701B6011F910F91FF90EF90DF9005
:101B9000CF9008950C94640DCF92DF92EF92FF9254
:101BA0000E944206C0903403D0903503E090360383
:101BB000F09037036C197D098E099F0963387640D0
:101BC00081059105C0F00E9442066C197D098E09BD
:101BD0009F09609330037093310380933203909395
:101BE00033030E944206609334037093350380935D
:101BF000360390933703FF90EF90DF90CF900895D6
:101C0000E7E7F3E080E09191892793E0EB3CF90767
:101C1000D1F78093BD030895CF92DF92EF92FF92A8
:101C2000CF93DF93C4E6D0E08BE30E942506BC018E
:101C3000990F880B990B0E945C319B01AC01C70185
:101C4000B6010E94EB326B017C01219769F720E01D
:101C500030E048EC52E40E94573320E030E74DE991
:101C600056E40E94BB3120E030EC4FE754E40E9480
:101C7000573320E030E040EA50E40E94BB319B0142
:101C8000AC0160E876E885EA97E40E94EA32DF91E9
:101C9000CF91FF90EF90DF90CF9008952F923F92D9
:101CA0004F925F926F927F928F929F92AF92BF926C
:101CB000CF92DF92EF92FF920F931F93CF93DF9318
:101CC0002B013C015A014901D0E0C0E09BE8292EDC
:101CD0003324339484010C1B1D0B0132110510F0C9
:101CE00000E210E0F090430280914B02882379F0EB
:101CF0008FEFF8120AC0809143020E944D0A8111B1
:101D000006C0C1010197F1F7EFCF8F2DF6CFA0915B
:101D10004102B0914202E1E0E093CC03F092EE0385
:101D20001092CD031092EF0340914402509145026E
:101D3000609146027091470241305840610571053B
:101D400090F0B301A2014C0F5D1F611D711D992719
:101D5000872F762F652FED91FC9111970190F081DF
:101D6000E02DCD0119958091410290914202DC0154
:101D7000ED91FC910190F081E02D6C2F640D19958F
:101D800081E00E945D0941E0602F8F2D0E9485084F
:101D90001092C9038093C8036501CC0EDD1E760145
:101DA000C7018C199D098017910778F48091410231
:101DB00090914202DC01ED91FC910284F385E02DCB
:101DC0001995F70181937F01EBCFC00FD11FC81583
:101DD000D90508F47FCFDF91CF911F910F91FF902C
:101DE000EF90DF90CF90BF90AF909F908F907F90BB
:101DF0006F905F904F903F902F9008954F925F9219
:101E00006F927F928F929F92AF92BF92CF92DF920A
:101E1000EF92FF921F93CF93DF9300D000D01F92D9
:101E20001F92CDB7DEB780E2C82ED12CE12CF12C69
:101E3000260137018FEF481A580A680A780A4601C6
:101E4000570192E0890E911CA11CB11CD701C6015B
:101E50000396A11DB11D8D839E83AF83B8871AE0C1
:101E600021E030E0AE014F5F5F4FC701B6010E9435
:101E70004E0E21E030E0AE014E5F5F4FC301B20174
:101E80000E944E0E21E030E0AE014D5F5F4FC50174
:101E9000B4010E944E0E21E030E0AE014C5F5F4F76
:101EA0006D817E818F8198850E944E0E8981843458
:101EB00049F48A81893431F48B81873419F48C8117
:101EC000893429F1115061F69FEFD91AE90AF90A0C
:101ED000A0E2CA16A3E0DA06E104F10409F0A8CFF3
:101EE00080E028960FB6F894DEBF0FBECDBFDF911D
:101EF000CF911F91FF90EF90DF90CF90BF90AF9068
:101F00009F908F907F906F905F904F90089581E0A9
:101F1000E8CF4F925F926F927F928F929F92AF9293
:101F2000BF92CF92DF92EF92FF920F931F93CF93C6
:101F3000DF9300D000D01F92CDB7DEB78C0119829D
:101F4000A090CA03B090CB03D50114968D919C91BB
:101F50001597892B09F468C011968D919C91129761
:101F60002C9131E03093CC032093EE031092CD03FB
:101F70001092EF03DC01ED91FC910280F381E02DE2
:101F800041E050E0BE016F5F7F4F1995019709F066
:101F90004BC080E00E945D09811146C0D12CC12C4C
:101FA000B7E06B2E712CF501848195817301EC18DB
:101FB000FD088E159F0508F47C0141E0C3018E19D0
:101FC0009F09C816D90608F440E06E2DD5018C9102
:101FD0000E9485081092C9038093C8038E151F04C0
:101FE00019F588248394912C8C0E9D1E8C0C9D1CBD
:101FF0002401C401841995098E159F0570F4F5011B
:1020000081819281DC01ED91FC910284F385E02DC8
:102010001995F40181934F01ECCFCE0CDF1CF7E052
:10202000CF16D10408F4BFCFE981EF77FA81FB80A6
:102030005D814E814F778F81282F30E094E0359578
:1020400027959A95E1F7922F990F990F291B220F47
:10205000280FD8012C93842F90E024E09595879544
:102060002A95E1F7982F990F990F891B880F840FF4
:1020700011968C931197652F70E034E075956795F4
:102080003A95E1F7862F880F880F681B660F650F5A
:1020900012966C9312974F2D50E064E0559547953A
:1020A0006A95E1F7842F880F880F481B440F4F0D66
:1020B00013964C9313972F2F30E074E035952795A6
:1020C0007A95E1F7822F880F880F281B220F2F0F98
:1020D00014962C9314978E2F90E0F4E095958795A5
:1020E000FA95E1F7982F990F990F891B880F8E0F9A
:1020F00015968C93C80127960FB6F894DEBF0FBED5
:10210000CDBFDF91CF911F910F91FF90EF90DF90A6
:10211000CF90BF90AF909F908F907F906F905F9087
:102120004F900895CF92DF92EF92FF920F931F93FB
:10213000CF93DF93EC0188858823A1F08091BA02C8
:10214000882361F08FB7F8949091BA02913041F5ED
:102150009DB39093B9029DB39DBB8FBF80E58CBDAD
:1021600081E08DBD60E08F810E94BB05888588235A
:10217000D1F030E020E08B8590E0880F991F281780
:102180003907C8F5EE85FF85E20FF31F80818EBD0C
:1021900000000DB407FEFDCF8EB52F5F3F4FEBCF94
:1021A0008093B902DBCF10E000E08B8590E0880FD0
:1021B000991F08171907F8F4EE85FF85E00FF11F46
:1021C000E080DE80CD8088E0F82E6E2D661F6627C9
:1021D000661F8C2D0E94BB05EE0C61E08D2D0E94C8
:1021E000BB0560E08D2D0E94BB05FA94F110EDCF88
:1021F0000F5F1F4FDACF61E08F810E94BB0588859A
:10220000882371F08091BA02882351F09FB7F89427
:102210002091BA028091B902213059F48DBB9FBF41
:10222000DF91CF911F910F91FF90EF90DF90CF90B2
:1022300008958FBFF5CFFF920F931F93CF93DF9336
:102240008C01EB01F8800E947932F81621F06F2D95
:10225000C8010E948132CE01DF91CF911F910F9171
:10226000FF900895AF92BF92DF92EF92FF920F938B
:102270001F93CF93DF935C0107E713E0D0E0C0E04A
:10228000F801D1908F017501EC0EFD1EC7010E946F
:102290007932D81621F06D2DC7010E948132219626
:1022A000C135D10569F787E793E0DF91CF911F91A1
:1022B0000F91FF90EF90DF90BF90AF9008950E9434
:1022C000000EF8948091FF02811111C06091B70255
:1022D00070E0762F66276C5D7F4F072E000C880B11
:1022E000990B21E530E047E753E00E94620A8091B4
:1022F000B70290E0982F882784960E943211789434
:102300008091B7028F5F833019F08093B7020895F0
:102310001092B70208950F931F93CF93DF93C7E7EF
:10232000D3E08C0107571340C8018C0F9D1F0E94FA
:102330007932899383E0C83CD807B1F787E793E007
:10234000DF91CF911F910F910895CF93DF93EB0110
:102350000E9479328883CE01DF91CF9108958F92C8
:102360009F92AF92BF92CF92DF92FF920F931F93F3
:10237000CF93DF9300D01F92CDB7DEB700E210E01D
:1023800068018FEFC81AD80A580182E0A80EB11C64
:10239000480183E0880E911C8AE0F82EBE016F5F31
:1023A0007F4FC8010E94A511BE016E5F7F4FC6011D
:1023B0000E94A511BE016D5F7F4FC5010E94A5114E
:1023C000BE016C5F7F4FC4010E94A51189818434D6
:1023D00049F48A81893431F48B81873419F48C81F2
:1023E0008934C9F0FA94F110D9CF1395003283E003
:1023F000180731F680E00F900F900F900F90DF914B
:10240000CF911F910F91FF90DF90CF90BF90AF9031
:102410009F908F90089581E0EECFCF93DF93EC01F2
:10242000198218821B821A821D821C8261E070E070
:1024300090E080E00E942E370097A1F09983888376
:102440001B821A822C813D81232B11F4FC01108206
:102450001D821C826CEA72E088819981DF91CF91A4
:102460000C941F3888819981009711F00E94A5363D
:10247000198218821D821C821B821A82DF91CF91E1
:102480000895FC0180819181009711F00C94A5368C
:102490000895CF93DF93EC018885882399F09FB747
:1024A000F8948091B802882319F081508093B80283
:1024B0008091B802811105C08CB58F7B8CBD1092C4
:1024C000BA029FBF8C859D850E94A5368E859F850B
:1024D000DF91CF910C94A5368F929F92AF92BF92CD
:1024E000CF92DF92EF92FF9285E40E942506BC0115
:1024F000990F880B990B0E945C316B017C01C09293
:102500000803D0920903E0920A03F0920B0320E043
:1025100030E04AE754E40E94BB314B015C01A70163
:10252000960160E070EC8FE794E40E94EA329B0130
:10253000AC01C501B4010E9457332DE336EF4AE3E5
:1025400055E40E9457330E940C342091350230919B
:10255000360240913702509138020E9457332FE0E3
:102560003FEC4BE55BE30E94EB329B01AC0160E08A
:1025700070E080E89FE30E94573323E333E948E8A3
:1025800053E40E94EA326B017C0120E030E048E431
:1025900052EC0E94553187FD33C020E030E048E422
:1025A00053E4C701B6010E94FF3318164CF1809026
:1025B000280390902903A0902A03B0902B03A50133
:1025C0009401C701B6010E94EA322DEC3CEC4CECC0
:1025D0005DE30E94BB31A50194010E94EB32609340
:1025E00028037093290380932A0390932B03FF9071
:1025F000EF90DF90CF90BF90AF909F908F90089515
:102600006AE979EF89E794ECF2CF8F929F92AF92CB
:10261000BF92CF92DF92EF92FF9284E40E94250650
:10262000BC01990F880B990B0E945C316B017C01F6
:10263000C0920803D0920903E0920A03F0920B03C0
:1026400020E030E04CE553E40E94BB314B015C01DB
:10265000A701960160E070EC8FE794E40E94EA32F3
:102660009B01AC01C501B4010E94573320E030E06A
:102670004AE754E40E9457330E940C3420913502FB
:102680003091360240913702509138020E94573300
:102690002FE03FEC4BE55BE30E94EB329B01AC018A
:1026A00060E070E080E89FE30E94573323E333E962
:1026B00048E853E40E94EA326B017C0120E030E0FC
:1026C00048E452EC0E94553187FD33C020E030E0F1
:1026D00048E453E4C701B6010E94FF3318164CF1D9
:1026E0008090240390902503A0902603B0902703A8
:1026F000A5019401C701B6010E94EA322DEC3CEC21
:102700004CEC5DE30E94BB31A50194010E94EB32C9
:1027100060932403709325038093260390932703EB
:10272000FF90EF90DF90CF90BF90AF909F908F90F1
:1027300008956AE979EF89E794ECF2CF85ED80930B
:10274000BC008091380490913904A0913A04B09172
:102750003B040796A11DB11D23E0B695A79597955B
:1027600087952A95D1F72091BC0024FD03C01092D3
:1027700036040895409138045091390460913A0428
:1027800070913B04452B462B472B69F30097A1051D
:10279000B10541F02AE22A95F1F700C00197A1099D
:1027A000B109E1CF809137040C946408FC014385A2
:1027B00050E0440F551F70E060E0868597850C94CB
:1027C0001838BF92CF92DF92EF92FF920F931F9330
:1027D000CF93DF93EC0189E0689F70011124D12C25
:1027E000C12C062F10E0BB24B394BC0CEC85FD85F6
:1027F000EE0DFF1D808590E00C2C02C0959587950D
:102800000A94E2F780FF27C0CE010E94D6138B8581
:102810008150990B801B910B880F991F2E853F8546
:10282000820F931FFC01B082EC85FD85EE0DFF1D2C
:10283000EC0DFD1D40818B858150990B801B910B08
:10284000880F991F2E853F85820F931FFC014183BE
:10285000CE010E949210FFEFCF1ADF0A88E0C8165F
:10286000D10409F68C859D85E80EF91EF7011086C6
:10287000DF91CF911F910F91FF90EF90DF90CF905C
:10288000BF900895CF93DF9320915C05C0E0223084
:1028900008F44BC09C012770332750915305E091F9
:1028A0005D05F0915E0540915505709154056623D4
:1028B00009F45CC0552309F449C090E080E044234A
:1028C00011F087E090E0E80FF91F6185772389F127
:1028D000C7E0D0E0C21BD30B81E090E0A0E0B0E005
:1028E00004C0880F991FAA1FBB1FCA95D2F7862B59
:1028F0008187E0915D05F0915E056189552309F4BA
:1029000071C080E8411101C081E0682B618BC091EA
:102910006505CC2309F47CC080915C05823028F0E9
:1029200061E081E595E00E94E1138C2FDF91CF916A
:10293000089581E090E0A0E0B0E0022E04C0880F8E
:10294000991FAA1FBB1F0A94D2F7D1CF87E090E04E
:10295000821B930B411101C0C901E80FF91F81854A
:1029600090E8711101C091E0892BC2CF552351F13C
:1029700090E080E0442311F087E090E0E80FF91F39
:102980006185772391F0C7E0D0E0C21BD30B81E0D3
:1029900090E0A0E0B0E004C0880F991FAA1FBB1F01
:1029A000CA95D2F780958623A3CF81E090E0A0E07E
:1029B000B0E0022E04C0880F991FAA1FBB1F0A9403
:1029C000D2F7F0CF87E090E0821B930B411101C05A
:1029D000C901E80FF91F81859FE7711101C09EEFC2
:1029E000892386CF442331F087E090E0AC01421B7D
:1029F000530B9A0181E090E0A0E0B0E004C0880FA2
:102A0000991FAA1FBB1F2A95D2F7862B818B7FCFD8
:102A1000C1E08BCFCF93C82F8093B60260E08CE0EB
:102A200090E00E94421460E08DE090E00E94421429
:102A30006C2F8EE090E0CF910C944214CF93C82F6E
:102A40008091B50381110BC061E088E090E00E94A5
:102A5000421461E089E090E0CF910C9442146C2F15
:102A600088E090E00E9442146C2F89E090E00E9480
:102A7000421480919C0381110EC06C2F8CE090E079
:102A80000E9442146C2F8DE090E00E9442146C2F43
:102A90008EE090E0E1CFCF9108954F925F927F92C8
:102AA0008F929F92AF92BF92CF92DF92EF92FF925E
:102AB0000F931F93CF93DF93FC01842F362F377032
:102AC00053E0769567955A95E1F7262FC281938555
:102AD000CC2309F479C0C0E0691708F056C099E02A
:102AE000699F20011124C12CD12C7601C394460189
:102AF0005701032E04C0880C991CAA1CBB1C0A9405
:102B0000D2F7082D182D109547E050E0431B5109CE
:102B100004C0CC0CDD1CEE1CFF1C4A95D2F73C2DEA
:102B2000C094B0E0A0E090E047E0842E912CAD018D
:102B3000E484F584E40CF51C7480D3805C010A2ED7
:102B400002C0B594A7940A94E2F7A0FE2FC07720A4
:102B500019F0A4014A1B5B0B4E0D5F1DEA01F880C2
:102B6000E02ED110E32EFE28EA01F8821196A8305B
:102B7000B105E9F684859585E201C80FD91F8FEF6D
:102B80008887C489C11173C0C1E08C2FDF91CF91B8
:102B90001F910F91FF90EF90DF90CF90BF90AF907B
:102BA0009F908F907F905F904F900895772019F0BD
:102BB000A4014A1B5B0B4E0D5F1DEA01F880E12E5C
:102BC000D110EC2CFE20D0CF6917F8F69381992311
:102BD000C1F08295482F50E0CA019595879595954B
:102BE00087958373440F551F440F551F4C7C842BCE
:102BF00090E0AC01559547954575880F991F8A7AE5
:102C0000842B99E0699FE0011124A485B585AC0F60
:102C1000BD1F032F10E0948147E050E0401B510B93
:102C2000911101C0A801A40FB51F8C9384859585CF
:102C3000C80FD91F48858481882399F087E090E0E8
:102C4000DC01A01BB10B8D0181E090E0A0E0B0E0C1
:102C500004C0880F991FAA1FBB1F0A95D2F7842BA7
:102C60008FCF81E001C0880F3A95EAF7F8CF8385CE
:102C7000281708F089CFCF010E94E11386CFEF9289
:102C8000FF920F931F93CF93DF9300D000D000D01B
:102C90001F92CDB7DEB78C018091B6029AE0E2E5D3
:102CA000F2E0DE01119601900D929A95E1F717FD81
:102CB0006EC04EEF811101C04FEFC80168EE73E0A6
:102CC0000E94B934CB01EAE0F0E0BF010E94B934C0
:102CD0009C01C80164E670E00E94B934CB01BF01D9
:102CE0000E94B934E1E0F0E0EC0FFD1FE80FF91F9E
:102CF000F080F4222115310509F447C081E090E00D
:102D00008C0F9D1F280F391FF901808148236CE02B
:102D100070E081E595E00E944D154F2D6DE070E06B
:102D200081E595E00E944D152AE030E0C801B90127
:102D30000E94B9348C01CB01B9010E94B934E1E0A1
:102D4000F0E0EC0FFD1FE80FF91F40816EE070E02E
:102D500081E595E00E944D15E1E0F0E0EC0FFD1FEC
:102D6000E00FF11F40816FE070E081E595E02A9669
:102D70000FB6F894DEBF0FBECDBFDF91CF911F918C
:102D80000F91FF90EF900C944D154F77C0CF3EEF11
:102D9000F32E811102C0FF24FA94C80168EE73E09B
:102DA0000E94B934CB012AE030E0B9010E94B93465
:102DB0004F2D4F77892B81F4FF2DF178EF2EC8012D
:102DC00064E670E00E94B934CB01B9010E94B934C5
:102DD000892B09F441C04F2F6CE070E081E595E04C
:102DE0000E944D15802F819564E60E949934E1E0A0
:102DF000F0E0EC0FFD1FE80FF11D40814F216DE069
:102E000070E081E595E00E944D15C80166EF7FEF07
:102E10000E94B934CB012AE0E22EF12CB7010E94C6
:102E2000B934E1E0F0E0EC0FFD1FE80FF91F40813D
:102E30006EE070E081E595E00E944D1588279927A6
:102E4000801B910BB7010E94B934E1E0F0E0EC0F78
:102E5000FD1FE80FF91F86CF4F2D41706CE070E029
:102E600081E595E00E944D154E2DC9CFFF920F933D
:102E70001F93CF93DF9300D000D000D01F92CDB727
:102E8000DEB7F62E9AE0E2E5F2E0DE01119601905F
:102E90000D929A95E1F72AE0622F0E949934092F4A
:102EA0000E94993421E030E02C0F3D1F200F311D8E
:102EB00089014FE7992339F0E1E0F0E0EC0FFD1FC5
:102EC000E90FF11D408168E070E081E595E00E9426
:102ED0004D15F801408169E070E081E595E00E94C0
:102EE0004D152AE08F2D622F0E949934192F0E94D0
:102EF0009934E1E0F0E0EC0FFD1FE90FF11D408196
:102F00006AE070E081E595E00E944D15E1E0F0E0B7
:102F1000EC0FFD1FE10FF11D40816BE070E081E5DA
:102F200095E02A960FB6F894DEBF0FBECDBFDF91B5
:102F3000CF911F910F91FF900C944D15CF93C82FF7
:102F4000C1954C2F6EE070E080E395E00E944D1536
:102F50004C2F6FE070E080E395E0CF910C944D151D
:102F6000CF92DF92EF92FF920F931F93CF93DF9355
:102F7000EC01DD24D394F12CE12C01E010E0B9E068
:102F8000CB2ECE010E94D61398010E2C02C0220F28
:102F9000331F0A94E2F7E0E090E08B85E81798F59C
:102FA000EC9DA0011124AC85BD85A40FB51F18961A
:102FB0006C9170E062237323672B19F16E2F70E020
:102FC0008150990B861B970B880F991FAE85BF8583
:102FD000A80FB91FDC92AC85BD85A40FB51FAE0D3F
:102FE000BF1DFC918B858150990B861B970B880F19
:102FF000991F4E855F85840F951FDC011196FC9308
:1030000091E0EF5FCACF992319F0CE010E94921090
:10301000BFEFEB1AFB0AD39488E0E816F10409F03D
:10302000B0CF80E099E02B85821748F4EC85FD85D0
:10303000899FE00DF11D112410868F5FF4CFDF9181
:10304000CF911F910F91FF90EF90DF90CF90089557
:10305000DF92EF92FF920F931F93CF93DF936A302B
:10306000710508F06BC08A017B01EC01DB840E94D2
:10307000D61360E07FEF7D0D82E0E816F10409F4DD
:103080004FC0A8F4E114F10411F1F1E0EF16F104DE
:1030900009F43FC06F5F761778F7CE01DF91CF91CB
:1030A0001F910F91FF90EF90DF900C94921083E0AE
:1030B000E816F104E1F1E4E0EE16F10459F791E0CD
:1030C0000115110509F490E0919589E006C091E0A1
:1030D0000115110509F090E08CE0462F50E02B859A
:1030E0002150330B241B350B220F331FEE85FF8538
:1030F000E20FF31F80832B852150330B241B350BEC
:10310000220F331F4E855F85240F351FF9019183F0
:10311000C1CF902F083011050CF097E08BE0DDCF88
:10312000902F003111050CF09FE08AE0D6CF91E09E
:103130000115110509F490E08FE0CFCF21E0413077
:10314000510509F020E0FC016B30710569F0248B1A
:103150004130510551F4DF91CF911F910F91FF90B4
:10316000EF90DF900C94B017258BDF91CF911F91DA
:103170000F91FF90EF90DF900895CF93DF93803110
:1031800008F08FE0C82FD0E0AE0162E070E080E38D
:1031900095E00E942818AE0162E070E081E595E0BC
:1031A000DF91CF910C942818CF93DF93DC011B960D
:1031B0003C91315020E0C9E078E06FEF2C9FA001F6
:1031C0001124FC01A485B585A40FB51FFD01D72FDF
:1031D0001192DA95E9F7DC011C96ED91FC911D97AF
:1031E000E40FF51F60872F5F321740F754962C913C
:1031F000222321F0DF91CF910C94B017DF91CF9172
:103200000895CF92DF92EF92FF92CF93DF93EC017C
:103210008885882309F4A4C0FFB6F8948091B80289
:10322000811127C0E6EBF7E08491ECEFF7E0949191
:10323000E82FF0E0EE0FFF1FED5CF84FA591B49181
:10324000EC91E92321F461E085E30E94BB0561E094
:1032500085E30E94E9058CB580618CBD8CB58064E6
:103260008CBD61E084E30E94E90561E083E30E9494
:10327000E9058091B8028F5F8093B802FFBE61E0DC
:103280008F810E94E90561E08F810E94BB05198A48
:10329000188A1B8A1A8A8E899F898E5F914009F449
:1032A0007CC0EEEFF1E0FF8BEE8B188E88E0898F0B
:1032B0001A8E1C8E1B8E8FEF90E09E8F8D8F18A222
:1032C0001F8EE491E63461F5EFEFF1E0E491E13037
:1032D00009F44FC082E090E0E23001F5E0E0F2E076
:1032E0008491E1E0F2E0E49190E0982F88278E0F3E
:1032F000911D9C8F8B8FE2E0F2E08491E3E0F2E09D
:10330000E49190E0982F88278E0F911D9E8F8D8FCE
:10331000E4E0F2E0E491E98F87E090E098A38F8FFA
:10332000CF8CD8A0F12CE12C2B8D3C8D4D8D5E8D5A
:1033300060E04217530780F1F601E250FE4F84919E
:10334000681708F4682F90E0B0E0A0E00196A11D96
:10335000B11DC80ED91EEA1EFB1E2F5F3F4FE9CFDD
:1033600061E08D810E94E90561E08E810E94E9059E
:1033700086CFE0E0F2E0E491F0E0FC8FEB8FE1E05B
:10338000F2E0E491F0E0FE8FED8FE2E0F2E0E49114
:10339000E98F85E090E0C2CF6A8FFB8429E0F29E3E
:1033A000C00111240E9409366C019D878C878F2DE6
:1033B00090E0880F991F0E9409369F878E87892B7E
:1033C000F1F1CD28E1F150E040E063E070E0CE01A2
:1033D0000E94281847E050E061E070E0CE010E94B2
:1033E000281847E050E062E070E0CE010E94281803
:1033F00050E040E064E070E0CE010E942818CE0169
:103400000E94D41850E040E070E060E0CE010E94DD
:10341000281850E040E06BE070E0CE010E942818D0
:1034200041E050E06AE070E0CE010E94281881E09F
:10343000DF91CF91FF90EF90DF90CF90089580E0E3
:10344000F7CF1F920F920FB60F9211242F933F9335
:103450008F939F93AF93BF9380916B0390916C0375
:10346000A0916D03B0916E0330916A0323E0230FA6
:103470002D3758F50196A11DB11D20936A03809345
:103480006B0390936C03A0936D03B0936E038091D4
:103490006F0390917003A0917103B0917203019634
:1034A000A11DB11D80936F0390937003A0937103CE
:1034B000B0937203BF91AF919F918F913F912F91E4
:1034C0000F900FBE0F901F90189526E8230F0296BD
:1034D000A11DB11DD2CF1F920F920FB60F921124D2
:1034E0000BB60F922F933F934F935F936F937F93FE
:1034F0008F939F93AF93BF93EF93FF938CE394E0ED
:103500000E944807FF91EF91BF91AF919F918F91DA
:103510007F916F915F914F913F912F910F900BBED3
:103520000F900FBE0F901F9018951F920F920FB61D
:103530000F9211240BB60F922F938F939F93EF93BB
:10354000FF93E0914C04F0914D048081E09152048E
:10355000F091530482FD1DC09081809155048F5FCE
:103560008F7320915604821741F0E0915504F0E0EA
:10357000E45CFB4F958F80935504FF91EF919F91F1
:103580008F912F910F900BBE0F900FBE0F901F9039
:1035900018958081F2CF1F920F920FB60F921124CF
:1035A0000BB60F922F933F934F935F936F937F933D
:1035B0008F939F93AF93BF93EF93FF938091B90045
:1035C000887F803609F44DC008F040C0883209F485
:1035D000A9C028F5803109F49DC0C8F4882309F4F6
:1035E000FBC0883009F496C0FF91EF91BF91AF9175
:1035F0009F918F917F916F915F914F913F912F910B
:103600000F900BBE0F900FBE0F901F901895883132
:1036100009F488C0803241F78093140414C08034C8
:1036200009F49DC040F48033B9F38833E9F6809300
:10363000140485ECB0C0803509F485C0883509F4E0
:1036400096C0883489F60E949E13CECF883909F43B
:103650008CC038F5883729F050F4883611F080375F
:1036600019F683E0809336041092FE0257C0883822
:1036700009F47BC0803919F0803809F0B5CF80910A
:10368000FE02803208F071C0E091FE0281E08E0FF0
:103690008093FE028091BB00F0E0E252FD4F8083F8
:1036A0003DC0803B39F0E0F4803A09F479C0883AB3
:1036B00009F09ACF84E0809336041092DD021092D4
:1036C000DC02E0917503F091760319958091DC029C
:1036D00081110FC081E08093DC021092BC0209C00E
:1036E000803C09F4A6CF883C09F4A3CF883B09F0BD
:1036F0007BCFE091DD0281E08E0F8093DD02F0E070
:10370000E454FD4F80818093BB009091DD02809155
:10371000DC0229C0809111048093BB0085EC80936A
:10372000BC0062CF9091130480911204981758F551
:10373000E091130481E08E0F80931304F0E0E051D8
:10374000FC4F8081E9CFE091130481E08E0F8093DC
:1037500013048091BB00F0E0E051FC4F8083909116
:103760001304809112049817C8F285E8D8CFE0912D
:10377000130481E08E0F809313048091BB00F0E06E
:10378000E051FC4F80838091150481115CCF81E072
:103790008093100484EA8093BC001092360424CFF6
:1037A00085EC8093BC00109236048091FE0280323A
:1037B00030F4E091FE02F0E0E252FD4F10826091A1
:1037C000FE0270E0E0917303F09174038EED92E0DD
:1037D00019951092FE0208CF1092140434CF1F9254
:1037E0000F920FB60F9211240BB60F922F933F93A7
:1037F0004F935F936F937F938F939F93AF93BF93F9
:10380000CF93EF93FF9390910601C0913A03C09537
:10381000809145038923C82390933A03C0FF05C0D4
:10382000E0911E02F0911F021995C1FF05C0E091C1
:103830002002F09121021995C2FF05C0E0912202F9
:10384000F09123021995C3FF05C0E0912402F09185
:1038500025021995C4FF05C0E0913B02F0913C029E
:103860001995C5FF05C0E0912602F0912702199530
:10387000C6FF05C0E0912802F09129021995C7FF03
:1038800005C0E0912A02F0912B021995FF91EF916A
:10389000CF91BF91AF919F918F917F916F915F91E8
:1038A0004F913F912F910F900BBE0F900FBE0F9035
:1038B0001F9018951F920F920FB60F9211240BB6FE
:1038C0000F922F933F934F935F936F937F938F93B9
:1038D0009F93AF93BF93CF93EF93FF939CB180914E
:1038E00003019170880F892BC0913903C095909185
:1038F0004403C923C82380933903C0FF05C0E09166
:103900001002F09111021995C1FF05C0E091120259
:10391000F09113021995C2FF05C0E0911402F091D5
:1039200015021995C3FF05C0E0911602F091170228
:103930001995C4FF05C0E0913902F0913A0219953A
:10394000C5FF05C0E0911802F09119021995C6FF54
:1039500005C0E0911A02F0911B021995C7FF05C03E
:10396000E0911C02F0911D021995FF91EF91CF910A
:10397000BF91AF919F918F917F916F915F914F9187
:103980003F912F910F900BBE0F900FBE0F901F9085
:1039900018951F920F920FB60F9211240BB60F922B
:1039A0002F933F934F935F936F937F938F939F9347
:1039B000AF93BF93CF93EF93FF9393B1C09138032D
:1039C000C095809143038923C82390933803C4FF93
:1039D00005C0E0910002F09101021995C5FF05C0F4
:1039E000E0910202F09103021995C6FF05C0E09133
:1039F0000402F09105021995C7FF05C0E091060287
:103A0000F09107021995C0FF05C0E0910802F091FE
:103A100009021995C1FF05C0E0910A02F0910B025D
:103A20001995C2FF05C0E0910C02F0910D021995A5
:103A3000C3FF05C0E0910E02F0910F021995FF91AE
:103A4000EF91CF91BF91AF919F918F917F916F91A6
:103A50005F914F913F912F910F900BBE0F900FBE32
:103A60000F901F9018951F920F920FB60F9211246E
:103A70000BB60F922F923F924F925F926F927F926E
:103A80008F929F92AF92BF92CF92DF92EF92FF926E
:103A90000F931F932F933F934F935F936F937F9356
:103AA0008F939F93AF93BF93EF93FF93CF93DF9346
:103AB000CDB7DEB72E97DEBFCDBF8091B402909117
:103AC000B50201969093B5028093B4020E9442061B
:103AD0000091340310913503209136033091370360
:103AE000601B710B820B930B603472448F40910505
:103AF000A0F44091300350913103609132037091F2
:103B000033038FEF94E00E944A0D9B01AC01283EE5
:103B100083E038074105510518F420E030E0A901A1
:103B200020935D0330935E0340935F0350936003E3
:103B3000211531054105510509F440C060E472E4E6
:103B40008FE090E00E94B932A0917903B0917A039E
:103B50000E94AE3260935D0370935E0380935F03B7
:103B6000909360032091C40321FF12C00E945A3138
:103B700022E134E14FE15FE30E94BB310E94D03388
:103B800060935D0370935E0380935F039093600383
:103B900060915D0370915E0380915F03909160037B
:103BA00024E630E040E050E00E94B93220935D030B
:103BB00030935E0340935F0350936003C0904F03C4
:103BC000D0905003E0905103F090520360915D0358
:103BD00070915E0380915F03909160030E945A315F
:103BE000A70196010E94EA3220E030E040E05FE366
:103BF0000E94BB31A70196010E94EB3260934F03F4
:103C00007093500380935103909352030E94420695
:103C100000913F03109140032091410330914203F2
:103C2000601B710B820B930BC12CD12C760160347D
:103C300072448F40910570F440913B0350913C03D6
:103C400060913D0370913E0385EE94E00E944A0D21
:103C50006B017C01C0925303D0925403E092550350
:103C6000F0925603C114D104E104F10409F40BC429
:103C70002090E9043090EA040091EF041091F004E0
:103C8000F80130E020E060E070E0CB012215330560
:103C900064F482809380A480B580680D791D8A1DAC
:103CA0009B1D2F5F3F4F3696F1CF2101032C000C57
:103CB00066087708A30192010E94B9322B873C87DE
:103CC0004D875E87F0E0E0E0812C912C5401E215F5
:103CD000F305DCF4D80112966D917D918D919C9144
:103CE00015972B853C854D855E85621B730B840B78
:103CF000950B9B01AC010E948934860E971EA81E6D
:103D0000B91E31960A5F1F4FE2CF8091BB0390919D
:103D1000BC039C0150E040E02B873C874D875E87C9
:103D2000C501B401A30192010E94B9326CE056951D
:103D30004795379527956A95D1F78B859C85AD85F5
:103D4000BE85281739074A075B07E0F5809177039E
:103D50009091780364E670E00E94A5348B0160E4E2
:103D600072E48FE090E0A70196010E94B932D80179
:103D70000E94AE32609353037093540380935503B3
:103D800090935603C0906103D0906203E090630368
:103D9000F09064030E945A31A70196010E94EA3212
:103DA0002DEC3CEC4CE45EE30E94BB31A701960194
:103DB0000E94EB326093610370936203809363030C
:103DC0009093640380914B03882371F080919D034D
:103DD00081110AC08EE20E94920561E0892B09F0F0
:103DE00060E08EE20E94BB0581E40E942506BC01D2
:103DF000990F880B990B0E945C316B017C01C0927A
:103E00000803D0920903E0920A03F0920B0320E02A
:103E100030E04CE553E40E94BB314B015C01A7014B
:103E2000960160E070EC8FE794E40E94EA329B0117
:103E3000AC01C501B4010E9457335B016C01609174
:103E400081037091820390E080E00E945A317B01EF
:103E50008C019B01AC01B501C6010E94553187FD63
:103E600014C0609183037091840390E080E00E940D
:103E70005A317B018C019B01AC01B501C6010E9446
:103E8000FF33181614F0750186012DEC3CEC44E26A
:103E900051E4B701C8010E94BB319B01AC0160E055
:103EA00070E882EA94E40E94EA324B015C0125E565
:103EB00031EC48EA5CE3B701C8010E94BB319701CD
:103EC000A8010E94BB319B01AC01C501B4010E9455
:103ED000EB3220E030E04AE754E40E9457339B0184
:103EE000AC0160E070E080E89FE30E94EA324B01A1
:103EF0005C01C0900403D0900503E0900603F090AD
:103F00000703AC019B0160E070E080E89FE30E9442
:103F1000EA32A70196010E94EA3220911003309103
:103F2000110340911203509113030E94BB31A7016A
:103F300096010E94EB326093040370930503809313
:103F4000060390930703C0900003D0900103E09014
:103F50000203F0900303A7019601C501B4010E947A
:103F6000EA3220910C0330910D0340910E035091E1
:103F70000F030E94BB31A70196010E94EB326B0137
:103F80007C01C0920003D0920103E0920203F09200
:103F900003030E949A0600912C0310912D03209197
:103FA0002E0330912F03601B710B820B930B613436
:103FB00077478B41910590F00E949A0660932C03FD
:103FC00070932D0380932E0390932F03C092AE0223
:103FD000D092AF02E092B002F092B10280E40E946F
:103FE0002506BC01990F880B990B0E945C316B016F
:103FF0007C0120E030E04CE553E40E94BB314B01F2
:104000005C01A701960160E070EC8FE794E40E94E8
:10401000EA329B01AC01C501B4010E94573320E094
:1040200030E04AE754E40E9457330E940C34209158
:1040300035023091360240913702509138020E9489
:104040005733C0902003D0902103E0902203F090DA
:1040500023032FE03FEC4BE55BE30E94EB329B0137
:10406000AC0160E070E080E89FE30E94573323E3F7
:1040700033E948E853E40E94EA32A70196010E941E
:10408000EA3220911C0330911D0340911E03509190
:104090001F030E94BB31A70196010E94EB3260937F
:1040A000200370932103809322039093230384E4DD
:1040B0000E942506BC01990F880B990B0E945C3168
:1040C0006B017C0120E030E04CE553E40E94BB3101
:1040D0004B015C01A701960160E070EC8FE794E46E
:1040E0000E94EA329B01AC01C501B4010E94573322
:1040F00020E030E04AE754E40E9457330E940C3439
:1041000020913102309132024091330250913402B9
:104110000E945733C0902403D0902503E0902603DB
:10412000F09027032FE03FEC4BE55BE30E94EB327E
:104130009B01AC0160E070E080E89FE30E94573390
:1041400023E333E948E853E40E94EA32A7019601E9
:104150000E94EA32209118033091190340911A030A
:1041600050911B030E94BB31A70196010E94EB32C4
:104170006093240370932503809326039093270371
:1041800085E40E942506BC01990F880B990B0E94BB
:104190005C316B017C01C0920803D0920903E0926C
:1041A0000A03F0920B0320E030E04AE754E40E9457
:1041B000BB314B015C01A701960160E070EC8FE719
:1041C00094E40E94EA329B01AC01C501B4010E9453
:1041D00057332DE336EF4AE355E40E9457330E94EC
:1041E0000C3420912D0230912E0240912F025091DB
:1041F00030020E945733C0902803D0902903E090EA
:104200002A03F0902B032FE03FEC4BE55BE30E9489
:10421000EB329B01AC0160E070E080E89FE30E941C
:10422000573323E333E948E853E40E94EA32A70115
:1042300096010E94EA3220911403309115034091B7
:104240001603509117030E94BB31A70196010E94EB
:10425000EB32609328037093290380932A03909391
:104260002B038FE30E9425068C018FE30E94250615
:10427000080F191F8FE30E942506080F191F8FE3EF
:104280000E942506080F191F8FE30E942506080FBC
:10429000191F8FE30E942506080F191F8FE30E9444
:1042A0002506800F911F8132B3E09B0748F423E07D
:1042B000969587952A95E1F790934E0380934D0349
:1042C0008091B2029091B30201969093B3028093D1
:1042D000B202049709F091C080904F039090500370
:1042E000A0905103B0905203C501B4010E94D03395
:1042F0008B018AE0E0E7F2E0DE01119601900D9279
:104300008A95E1F7C80164E670E00E94A534CB010C
:10431000EAE0F0E0BF010E94A5349C01C801BF01A2
:104320000E94A5347C01CB01BF010E94A5348C0101
:10433000E1E0F0E0EC0FFD1FEE0EFF1E2115310550
:1043400009F4B5C02E0F3F1FD901DC904D2D60E15F
:1043500070E081E595E00E944D15E1E0F0E0EC0FA2
:10436000FD1FE00FF11F0081402F61E170E081E54A
:1043700095E00E944D15F7011081412F62E170E038
:1043800081E595E00E944D154D2D63E170E081E5DA
:1043900095E00E944D15402F64E170E081E595E0C5
:1043A0000E944D15412F65E170E081E595E00E9486
:1043B0004D15C0905703D0905803E0905903F090EA
:1043C0005A03A7019601C501B4010E94EA322AE00E
:1043D00037ED43E25CE30E94BB31A70196010E94E6
:1043E000EB32609357037093580380935903909373
:1043F0005A031092B3021092B2026091610370915D
:10440000620380916303909164030E94D03329E09A
:10441000EAE7F2E0DE01119601900D922A95E1F7AC
:1044200090E080E020E330E040E050E00E94D534AE
:1044300020909E0330909F035101C12CD12CE12C80
:10444000F12C00E010E00E940235D22E03E00E9421
:10445000D735022F132F0730110514F006E010E0B6
:1044600092E0F92E5801BFEFAB1ABB0A6F2D70E036
:10447000A616B7060CF465C04FEF80E395E00E94E6
:104480004D15F394F3CFC0906103D0906203E09098
:104490006303F0906403A701960160E070E0CB0134
:1044A0000E94EA3220E030E040E05FE37DCCD701BB
:1044B000FC9040E060E170E081E595E001151105B8
:1044C00039F10E944D15E1E0F0E0EC0FFD1FE00F27
:1044D000F11F1081412F61E170E081E595E00E94BC
:1044E0004D154F2D62E170E081E595E00E944D157C
:1044F00040E063E170E081E595E00E944D15412FB9
:1045000064E170E081E595E00E944D154F2D4BCFA1
:104510000E944D1540E061E170E081E595E00E9468
:104520004D154F2D62E170E081E595E00E944D153B
:1045300040E063E170E081E595E00E944D1540E0C8
:10454000DFCF83E0800FE82EF12CE7E0EE1550F08E
:1045500040E0B70180E395E00E944D15FFEFEF1AB0
:10456000FF0AF3CF2D2D277030E040E050E060E0EF
:1045700070E080E090E0A1E00E94F435E1E0F0E03E
:10458000EC0FFD1FE20FF31FB8016E5F7F4F4081FC
:1045900080E395E00E944D1560912C02C0900403C9
:1045A000D0900503E0900603F09007032091C40328
:1045B00070E090E080E022FFB3C00E945A31A70172
:1045C00096010E94BB312DE831E447E85EE30E948A
:1045D000BB316B017C0120E030E0A9010E94553124
:1045E00087FDC1C020E030E046EC52E4C701B601CF
:1045F0000E94FF3318160CF4B8C0C701B6010E9420
:10460000D033162F623008F0ACC081E00E949E17B4
:104610008AE0E2E5F2E0DE01119601900D928A95C2
:10462000E1F72AE0812F622F0E949934092F0E941E
:10463000993421E030E02C0F3D1F200F311D8901FE
:10464000992309F494C0E1E0F0E0EC0FFD1FE90FBD
:10465000F11D408166E070E081E595E00E944D1516
:10466000D8014C9167E070E081E595E00E944D151E
:104670000091B7031091B803B80190E080E00E9468
:104680005A319B01AC01609120037091210380910C
:104690002203909123030E94EA326B017C01609116
:1046A000B9037091BA03601B710B90E080E00E9427
:1046B0005A319B01AC01C701B6010E94573320E07B
:1046C00030E040E651E40E94BB310E94C93310E063
:1046D00077FD06C06F30710514F06EE070E0162FA4
:1046E00085E0E3E8F2E0DE01119601900D928A95F3
:1046F000E1F7E12EF12CF694E794F694E79408E0C4
:104700006701F7E0CF0ED11C602F70E0C616D70608
:10471000C4F14FEF80E395E00E944D150F5FF4CF99
:104720000E945A31A70196010E94BB316B017C01A6
:1047300020E030E0A9010E94553187FD14C020E03F
:1047400030E046EC52E4C701B6010E94FF33181670
:1047500064F0C701B6010E94D033162F6A3008F406
:1047600054CF80E053CF10E050CF13E6FACF4FE79D
:1047700066E070E081E595E00E944D15F80140810A
:1047800071CF88E08E0DC82ED12C2BE0C21651F0CF
:1047900040E0B60180E395E00E944D153FEFC31A5B
:1047A000D30AF3CFE12FE370EC0FFD2FF11DB7011A
:1047B000685F7F4F428180E395E00E944D152E9601
:1047C0000FB6F894DEBF0FBECDBFDF91CF91FF9142
:1047D000EF91BF91AF919F918F917F916F915F9179
:1047E0004F913F912F911F910F91FF90EF90DF908C
:1047F000CF90BF90AF909F908F907F906F905F9081
:104800004F903F902F900F900BBE0F900FBE0F90C8
:104810001F90189581E595E00E94491280E395E08C
:104820000E9449128EE795E00E94411288E795E0C8
:104830000E94411282E795E00C944112CF93DF93DE
:10484000ECE3F4E01382128288EE93E0A0E0B0E0A3
:1048500084839583A683B7832CE832E03183208359
:1048600025EC30E03587248724EC30E03787268735
:1048700020EC30E0318B208B21EC30E0338B228B2D
:1048800022EC30E0358B248B26EC30E0378B268B06
:10489000118E128E138E148EE9EDF4E013821282C3
:1048A00084839583A683B7838EE992E09183808386
:1048B000C5EED4E085E090E09D838C838EE190E0AE
:1048C0000E9409369B878A879D878C871F861E8654
:1048D000188A198A1A8A1B8A83EF94E09D8B8C8B25
:1048E0001E8A1F8A188E198E87E295E09983888325
:1048F0001B821A82CFEFD4E08CE090E09D838C8302
:1049000088E490E00E9409369B878A879D878C8780
:104910001F861E86188A198A1A8A1B8A8DE095E0DE
:104920009D8B8C8B1E8A1F8A188E198E8FE594E0C2
:10493000998388831B821A8282E795E00E940D1278
:1049400088E795E00E940D128EE795E00E940D1217
:10495000E0E3F5E08CE085838AE086838BE0878363
:10496000108629E135E03287218782E0838781E064
:10497000848B11821082128283831482E1E5F5E038
:1049800098E0958396E0968397E097831086328728
:10499000218793E09387848B118210821282838314
:1049A000148240E853E46DE678E384E295E00E94E7
:1049B000CA0C40E853E46DE678E38AE295E00E9491
:1049C000CA0C40E853E46DE678E38EE195E00E947E
:1049D000CA0C10921A0510921B0510921C05109219
:1049E0001D05DF91CF910895CF93DF93CDB7DEB74B
:1049F0006C970FB6F894DEBF0FBECDBF789484B528
:104A0000826084BD84B5816084BD85B5826085BDCA
:104A100085B5816085BD80916E00816080936E0058
:104A2000109281008091810082608093810080914A
:104A300081008160809381008091800081608093FB
:104A400080008091B10084608093B1008091B000BB
:104A500081608093B000809191008260809391008A
:104A6000809191008160809391008091900081609D
:104A7000809390008091A10082608093A10080913A
:104A8000A10081608093A1008091A000816080934B
:104A9000A0008091210182608093210180912101F9
:104AA00081608093210180912001816080932001A9
:104AB00080917A00846080937A0080917A0082608D
:104AC00080937A0080917A00816080937A0080914F
:104AD0007A00806880937A001092C10010925D0382
:104AE00010925E0310925F031092600310925303C2
:104AF00010925403109255031092560310924F03D4
:104B000010925003109251031092520310926103BD
:104B100010926203109263031092640361E089E2D1
:104B20000E94E90561E088E20E94E90561E089E20E
:104B30000E94BB0561E088E20E94BB0564E670E06C
:104B400080E090E00E9467060E944D088091CA03B1
:104B50009091CB03009711F00E94A53686E090E07B
:104B60000E9409368C0188E6D8018C9399EDC92EF4
:104B700094E0D92E1296DC92CE92119713961C9245
:104B8000139780E290E015969C938E931497109360
:104B9000CB030093CA030E944D08FF24F394F8014D
:104BA000F382C8010E943C0C809365031092FF02BF
:104BB00088EB9BE0909378038093770384E690E002
:104BC00090937A038093790380EA9FE090937C032B
:104BD00080937B0390937E0380937D0384EE9EE01D
:104BE0009093800380937F0383E290E0909382030D
:104BF0008093810389E091E0909384038093830301
:104C000082E090E0909386038093850390938803DD
:104C10008093870390938A038093890390938C03F6
:104C200080938B0310928D0310928E0310928F034A
:104C3000109290031092910310929203109293039A
:104C4000109294031092950310929603109297037A
:104C500010929803F09299038AE080939A038FE36D
:104C600080939B0310929C03F0929D0380E49FE14C
:104C700090939F0380939E031092A0031092A10330
:104C80001092A2031092A3031092A4031092A50302
:104C90001092A6031092A7031092A8031092A903E2
:104CA0001092AA031092AB031092AC031092AD03C2
:104CB0001092AE031092AF031092B0031092B203A1
:104CC0001092B1031092B4031092B3031092B50383
:104CD000F092B6038CE390E09093B8038093B7030F
:104CE00088E790E09093BA038093B9038FEF9FEF2A
:104CF0009093BC038093BB0380E197E29093BF0342
:104D00008093BE031092C0031092C1031092C2039D
:104D10001092C3038FE090E0A0E0B0E08093C40362
:104D20009093C503A093C603B093C7030E94000EDF
:104D30000E944D08D0924202C092410280E58093C9
:104D400043028FEF0E944D0A81112FC0F092FF02A3
:104D50000E94AF1181117DC084E48983BE016F5F21
:104D60007F4F80E290E00E941B1119E41983BE017D
:104D70006F5F7F4F81E290E00E941B1187E489837F
:104D8000BE016F5F7F4F82E290E00E941B1119838A
:104D9000BE016F5F7F4F83E290E00E941B1184E2AF
:104DA00090E00E9432110C942A2F0E94AF118111C1
:104DB0000C94CF2E0E94FE0E14E2C12ED12CE12CB9
:104DC000F12C0BEC13E08111C7C784E4898321E047
:104DD00030E0AE014F5F5F4F60E270E080E090E056
:104DE0000E94620A19E4198321E030E0AE014F5FAE
:104DF0005F4F61E270E080E090E00E94620A87E429
:104E0000898321E030E0AE014F5F5F4F62E270E0E6
:104E100080E090E00E94620A198321E030E0AE0158
:104E20004F5F5F4F63E270E080E090E00E94620AB3
:104E300021E530E047E753E064E270E080E090E095
:104E40000E94620A0E945F110E945F110E945F111E
:104E500083CF04E210E08BECE82E83E0F82EC8014B
:104E60000E948B11E7E7F3E080E091918927EE162D
:104E7000FF06D9F79091BD03891729F013950432E5
:104E8000F3E01F0761F7E091A00394E0E99FF001D0
:104E90001124E958FC4F82A993A9A4A9B5A980932C
:104EA000570390935803A0935903B0935A038091EA
:104EB0006503882309F45BC0CE0101960E94890F27
:104EC00086E0FE013196A4E2B5E001900D928A954C
:104ED000E1F78091B1039091B2031CE3189F700138
:104EE000199FF00C112484E295E00E94610CAB0143
:104EF000BC014E195F0961097109CE0101960E943A
:104F0000CA0C86E0FE013196A4E2B5E001900D9254
:104F10008A95E1F7CE0101960E94890F86E0FE0195
:104F20003196AAE2B5E001900D928A95E1F7809161
:104F3000B3039091B403189F7001199FF00C1124D2
:104F40008AE295E00E94610CAB01BC014E195F0939
:104F500061097109CE0101960E94CA0C86E0FE012A
:104F60003196AAE2B5E001900D928A95E1F780E3CF
:104F700095E00E94011981E595E00E94011950E039
:104F800040E06AE070E080E395E00E94281880E34A
:104F900095E00E94D41881E595E00E94D41881E044
:104FA0000E94BD1861E088E10E94E90561E089E1A5
:104FB0000E94E90561E08AE10E94E90560E087E37B
:104FC0000E94E90560E088E30E94E90560E08FE364
:104FD0000E94E90560E080E40E94E90560E081E468
:104FE0000E94E90560E084E40E94E90560E085E450
:104FF0000E94E9050E949A0660932C0370932D038A
:1050000080932E0390932F0310924E0310924D0322
:1050100060917B0370917C0390E080E00E945A31A4
:105020004B015C018092350290923602A0923702C9
:10503000B092380260917D0370917E0390E080E031
:105040000E945A316D8B7E8B8F8B988F60933102CB
:1050500070933202809333029093340260917F0305
:105060007091800390E080E00E945A312B013C0156
:1050700040922D0250922E0260922F0270923002C6
:10508000609185037091860390E080E00E945A3120
:105090002AE037ED43E25CE30E94BB3160931C03DE
:1050A00070931D0380931E0390931F0360918703E9
:1050B0007091880390E080E00E945A312AE037ED39
:1050C00043E25CE30E94BB312DEC3CEC4CEC5DE335
:1050D0000E94BB31609318037093190380931A03E5
:1050E00090931B036091890370918A0390E080E0A4
:1050F0000E945A312AE037ED43E25CE30E94BB3163
:105100002DEC3CEC4CEC5DE30E94BB31609314034E
:1051100070931503809316039093170360918B038C
:1051200070918C0390E080E00E945A312AE037EDC4
:1051300043E25CE30E94BB316B017C012FE832EC5F
:1051400045EF5CE30E94BB31609310037093110341
:1051500080931203909313032AE037ED43E25CE35C
:10516000C701B6010E94BB3160930C0370930D031D
:1051700080930E0390930F0380919B0380932C02E6
:1051800004E610E080E40E942506BC01990F880B1C
:10519000990B0E945C3120910803309109034091E2
:1051A0000A0350910B030E94EB3260930803709343
:1051B000090380930A0390930B030150110911F71F
:1051C00020E030E048EC52E40E9457336B017C0150
:1051D000C0920803D0920903E0920A03F0920B03F5
:1051E00020E030E04CE553E40E94BB31698F7A8FB8
:1051F0008B8F9C8FA701960160E070EC8FE794E4A1
:105200000E94EA329B01AC01698D7A8D8B8D9C8D59
:105210000E94573320E030E04AE754E40E945733BD
:105220000E940C34A50194010E9457332FE03FECFB
:105230004BE55BE30E94EB329B01AC0160E070E068
:1052400080E89FE30E94573323E333E948E853E4BF
:105250000E94EA326093200370932103809322031B
:105260009093230304E610E084E40E942506BC0129
:10527000990F880B990B0E945C31209108033091A3
:10528000090340910A0350910B030E94EB32609393
:1052900008037093090380930A0390930B03015052
:1052A000110911F720E030E048EC52E40E94573336
:1052B0006B017C01C0920803D0920903E0920A03BB
:1052C000F0920B0320E030E04CE553E40E94BB3148
:1052D0004B015C01A701960160E070EC8FE794E45C
:1052E0000E94EA329B01AC01C501B4010E94573310
:1052F00020E030E04AE754E40E9457330E940C3427
:105300002D893E894F89588D0E9457332FE03FECFD
:105310004BE55BE30E94EB329B01AC0160E070E087
:1053200080E89FE30E94573323E333E948E853E4DE
:105330000E94EA326093240370932503809326032E
:10534000909327030CE211E081E40E942506BC0142
:10535000990F880B990B0E945C31209108033091C2
:10536000090340910A0350910B030E94EB326093B2
:1053700008037093090380930A0390930B03015071
:10538000110911F720E030E046E953E40E94573359
:105390006B017C01C0920803D0920903E0920A03DA
:1053A000F0920B0320E030E04CE553E40E94BB3167
:1053B0004B015C01A701960160E070EC8FE794E47B
:1053C0000E94EA329B01AC01C501B4010E9457332F
:1053D0005B016C01609181037091820390E080E039
:1053E0000E945A317B018C019B01AC01B501C601C1
:1053F0000E94553187FD14C060918303709184032E
:1054000090E080E00E945A317B018C019B01AC014D
:10541000B501C6010E94FF33181614F0750186010C
:105420002DEC3CEC44E251E4B701C8010E94BB31D1
:105430009B01AC0160E070E882EA94E40E94EA32E9
:105440004B015C0125E531EC48EA5CE3B701C8019A
:105450000E94BB319701A8010E94BB319B01AC01A6
:10546000C501B4010E94EB3220E030E04AE754E489
:105470000E9457339B01AC0160E070E080E89FE33D
:105480000E94EA326B017C01AC019B0160E070E09C
:1054900080E89FE30E94EA3260930403709305035F
:1054A0008093060390930703C0920003D0920103F8
:1054B000E0920203F092030304E610E085E40E9408
:1054C0002506BC01990F880B990B0E945C31209135
:1054D00008033091090340910A0350910B030E9485
:1054E000EB32609308037093090380930A0390934F
:1054F0000B030150110911F720E030E048EC52E4B1
:105500000E9457336B017C01C0920803D0920903BB
:10551000E0920A03F0920B0320E030E04AE754E403
:105520000E94BB314B015C01A701960160E070EC69
:105530008FE794E40E94EA329B01AC01C501B401FB
:105540000E9457332DE336EF4AE355E40E94573368
:105550000E940C34A30192010E9457332FE03FECCC
:105560004BE55BE30E94EB326093280370932903C1
:1055700080932A0390932B0380910401877F80936B
:1055800004018CEC9DE090933A0280933902809163
:1055900044038061809344039CB180910301917026
:1055A000880F892B8093390380916C0080618093F0
:1055B0006C008091680082608093680078940E94FB
:1055C00042066093340370933503809336039093BF
:1055D000370310923003109231031092320310926D
:1055E000330340E050E0BA018FEF94E00E944A0D8F
:1055F00040E050E0BA018FEF94E00E944A0D40E095
:1056000050E0BA018FEF94E00E944A0D40E050E074
:10561000BA018FEF94E00E944A0D40E050E0BA01D9
:105620008FEF94E00E944A0D62E082E40E94E90557
:1056300086EA96E090933C0280933B02809145037A
:105640008061809345038091060180933A038091A5
:105650006D00806180936D0080916800846080930C
:10566000680078940E94420660933F037093400361
:10567000809341039093420310923B0310923C03AA
:1056800010923D0310923E0340E050E0BA0185EED7
:1056900094E00E944A0D40E050E0BA0185EE94E0AB
:1056A0000E944A0D40E050E0BA0185EE94E00E946D
:1056B0004A0D40E050E0BA0185EE94E00E944A0DA8
:1056C00040E050E0BA0185EE94E00E944A0DE0917E
:1056D0004C04F0914D0482E08083E0914804F09105
:1056E00049041082E0914A04F0914B048FEC8083CE
:1056F00010925404E0915004F091510486E08083AC
:10570000E0914E04F0914F04808180618083E091AC
:105710004E04F0914F04808188608083E0914E04B4
:10572000F0914F04808180688083E0914E04F09175
:105730004F0480818F7D80830E949A0610924B03D4
:1057400061E08EE20E94E90560E083E40E94E905E1
:1057500060E08FE00E94E90560E08EE00E94E905CC
:1057600060E087E10E94E9050E949A0660E087E315
:105770000E94E90560E088E30E94E9058091040148
:105780008B7F8093040161E086E10E94E90560E07F
:1057900086E10E94BB050E949A06609346037093BF
:1057A000470380934803909349030E949A066093AD
:1057B0006603709367038093680390936903F8947A
:1057C0001092A0001092A1001092A5001092A400C7
:1057D00081EA97E09093A9008093A8008091A100AE
:1057E00088608093A1008091A10085608093A100D2
:1057F000809172008260809372007894FAE04F2E5C
:10580000512C612C712C80E395E00E94B0170E940E
:105810009A06C0906603D0906703E0906803F0900A
:1058200069036C197D098E099F09653F71408105E7
:10583000910518F081E00E941E150E949A066C19CD
:105840007D098E099F09693E73408105910508F421
:10585000A3C40E949A0660936603709367038093C3
:1058600068039093690380916503882309F424C336
:10587000CE0101960E94890F86E0FE013196AEE1CD
:10588000B5E001900D928A95E1F7B09021058B2D3E
:1058900090E09093400280933F02A09022058A2DD1
:1058A00090E090933E0280933D020091A003E6E0D9
:1058B0000E9F800111240C5D1A4F8EE195E00E942D
:1058C000610C6B017C01C8010E94610CA70196016B
:1058D000261B370B480B590BCA01B90160931A05F7
:1058E00070931B0580931C0590931D050091A003E8
:1058F00010E0000F111F0F541C4F2CE330E040E06C
:1059000050E00E948F32D8012D933C936A2D8B2D4D
:105910000E94361720916103309162034091630326
:10592000509164032D8B3E8B4F8B588F20E030E0DD
:1059300048E453E46D897E898F89988D0E94FF33F6
:1059400018169CF48091C0039091C103A091C203EA
:10595000B091C3030196A11DB11D8093C003909324
:10596000C103A093C203B093C30380915D039091E0
:105970005E03A0915F03B091600340918D0350914D
:105980008E0360918F0370919003480F591F6A1F17
:105990007B1F40938D0350938E0360938F0370930E
:1059A0009003E091A00334E0E39FF0011124E95853
:1059B000FC4F428D538D648D758D840F951FA61FEE
:1059C000B71F828F938FA48FB58F0E940C0E20E09B
:1059D00030E04AE754E40E94573320E030E0A90168
:1059E0000E94553187FF6BC2C12CD12C76010091EA
:1059F000A00344E0049F8001112409581C4FD801E2
:105A00009A968D909D90AD90BC909D97A501940124
:105A1000C701B6010E94EA322AE037ED43E25CE3B7
:105A20000E94BB31A50194010E94EB32F80162A7EC
:105A300073A784A795A7C0908D03D0908E03E090A4
:105A40008F03F09090038AE0ECE5F2E0DE011B9614
:105A500001900D928A95E1F78AE0E6E6F2E0DE0138
:105A6000119601900D928A95E1F7C701B60120E0E9
:105A70003AE245E755E10E94B932CA01B901A301F2
:105A800092010E94B9322BE030E02C0F3D1F620FD3
:105A9000731FDB014C9170E060E081E595E00E94AE
:105AA0004D15C701B60120E031E545E252E00E9404
:105AB000B932CA01B901A30192010E94B932E1E0F1
:105AC000F0E0EC0FFD1F6E0F7F1FDB014C9161E0DA
:105AD00070E081E595E00E944D15C701B60120E810
