:100000000C948C040C94BD040C94BD040C94BD049D
:100010000C94BD040C94BD040C94BD040C94BD045C
:100020000C94BD040C94F81E0C94891E0C941E1E96
:100030000C94BD040C94BD040C94BD040C94BD043C
:100040000C94BD040C94BD040C94BD040C94BD042C
:100050000C94BD040C94BD040C94BD040C94501C71
:100060000C94BD040C94C41C0C949A1C0C94BD04F8
:100070000C94BD040C94BD040C94BD040C94BD04FC
:100080000C94BD040C94BD040C94BD040C94BD04EC
:100090000C94BD040C94BD040C94BD040C94FA1C87
:1000A0000C94BD040C94BD040C94621F0C94BD040C
:1000B0000C94BD040C94BD040C94BD040C94BD04BC
:1000C0000C94BD040C94BD040C94BD040C94BD04AC
:1000D0000C94BD040C94BD040C94BD040C94BD049C
:1000E0000C94BD0408000000BE922449123EABAA45
:1000F000AA2ABECDCCCC4C3E00000080BEABAAAA42
:10010000AA3E00000000BF000000803F0000000089
:1001100000084178D3BB4387D1133D190E3CC3BDC2
:100120004282AD2B3E68EC8276BED98FE1A93E4C6F
:1001300080EFFFBE01C4FF7F3F00000000000C9471
:100140008A050C94EF3E0C94CB390C94373A0C94FE
:10015000893A0C9480350C94613A0C942A0D0C94D5
:100160008E390C94AF050C9484390C94C8050C940A
:10017000E6390C94CE050C946B390C9433070C942F
:10018000E9050C94CB3A0C9461390C94493A0C94DF
:10019000ED390C94EE050C94A0380C94B3390C9402
:1001A000390D0C9434390C940A3A0C943D340C9467
:1001B000C7350C94A7380C94DF390C94723A0C9420
:1001C00077140C94EA050C94E0050C94F8390C941F
:1001D000A03A0C94800D0C94BF390C9493350C9478
:1001E00050340C94B3050C944A390C943D390C945A
:1001F00064380C9462070C94253A0C9418080C94FB
:1002000093070C9473380C94133A0C94B3350C94F4
:1002100035070C94D2050C9485070C947A390C940C
:1002200009270C94B9390C942C340C94013A0C9491
:10023000530D0C94403A0C9487050C947B3A0C9423
:100240001C3A0C9406070C94D6050C94DC050C940F
:10025000D8390C94C4050C946D350C94A9050C94F4
:1002600057390C94D1390C9453150C94AD390C9426
:10027000973A0C94C5390C94B7050C94BF040C94B0
:10028000F7370C94CB070C9489050C94BE050C949D
:100290002E3A0C94290D0C94903A0C9471070C94FE
:1002A000BB050C94340E0C94A7390C94523A0C9460
:1002B000AF0D0C944C0D0C94823A0C94E4051F1C69
:1002C0001F1E1F1E1F1F1E1F1E4602000000FF08CC
:1002D00000053E5B4F5B3E053E6B4F6B3E051C3E93
:1002E0007C3E1C05183C7E3C18051C577D571C05A0
:1002F0001C5E7F5E1C0400183C1805FFE7C3E7FF87
:10030000040018241805FFE7DBE7FF0530483A062C
:100310000E05262979292605407F05050705407F1A
:1003200005253F055A3CE73C5A057F3E1C1C080545
:10033000081C1C3E7F0514227F221405FFFFFFFFCF
:10034000FF05F0F0F0F0F003FFFFFF05000000FFF5
:10035000FF050F0F0F0F0F0508047E04080510207E
:100360007E20100508082A1C0805081C2A08080514
:10037000AA005500AA05AA55AA55AA0530383E3844
:100380003005060E3E0E06020000015F030700075F
:1003900005147F147F1405444AFF4A32056313088D
:1003A00064630536494936480107033E414103412C
:1003B000413E05082A1C2A080508083E0808026074
:1003C000E0040808080802606005601008040305DE
:1003D0003E5149453E0304027F057149494946059E
:1003E0004149494936050F0808087F054F494949E1
:1003F00031053E4949493005030101017F05364970
:1004000049493605064949493E026C6C026CEC03C9
:1004100008142204141414140322140805015909A1
:100420000906053E415D594E057E0909097E057F95
:1004300049494936053E41414141057F4141413EDF
:10044000057F49494941057F09090901053E4141A7
:100450004979057F0808087F03417F410530414104
:10046000413F057F08142241057F40404040057F01
:10047000020C027F057F0408107F053E4141413E8A
:10048000057F09090906053E4141617E057F09197D
:1004900029460546494949310501017F0101053FCA
:1004A0004040403F051F2040201F053F4038403F4F
:1004B00005631408146305030478040305615149B6
:1004C0004543037F41410503040810600341417F18
:1004D00005040201020404808080800301020404F8
:1004E0003844447C047F4444380438444444043849
:1004F00044447F043854545804047E05010418A46D
:10050000A47C047F040478017D0384857C047F102F
:100510002844017F057C04780478047C0404780472
:100520003844443804FC24241804182424FC047C93
:10053000040408045854543403047F04043C404029
:100540007C041C20407C053C4030403C046C101076
:100550006C041CA0A07C046454544C040836414133
:10056000017F04414136080402010201057F414137
:10057000417F053E55555541053844443844057C76
:100580002A2A3E14057E0202060605027E027E022B
:10059000056355494163053844443C0405407E20C9
:1005A0001E200506027E02020863130864630060D1
:1005B00060052A2A2A2A2A03514A4403444A51053B
:1005C0000000FF010303E080FF05361236243603E6
:1005D000020502021818021010053040FF01010444
:1005E0001F01011E000000000901017F017F020CB4
:1005F000027F0000000000000100017D0418247E3D
:100600002404447E454105221C141C2205012A7C39
:100610002A010177044E55553903020002077E81F5
:10062000BDA5A5817E0326292F0508142A142204BE
:100630000808081803080808077E81BD95A9817E6F
:100640000501010101010302050203242E240319FF
:1006500015120315150A02020104F8204078050658
:10066000097F017F021818040080A0C003121F1028
:10067000032629260522142A140808402F100804EE
:100680001E117C08402F10080462554C0915553F77
:100690001008041E117C053048484D400578151699
:1006A0001478057814161578057A1514157A0578D6
:1006B000161516790578151415780578141514781B
:1006C000077E09097F494941059EA1612121057CD9
:1006D00054554644057C54564544057E555445467C
:1006E000057C5554454403457E4403447E450346FA
:1006F0007D4603457C4505087F49413E057C0A113E
:10070000227D053844454638053844464538053A83
:100710004544453A05384645463905384544453847
:10072000052214081422057C625A463E053C4041CD
:10073000423C053C4042413C053C4241423C053C78
:100740004140413C0502047A0502043F12120C05A7
:100750007E49494E30043845467C043844467D0481
:100760003846457E043A45467D043845447D04308C
:100770004A4D7A0720545438545458049CA262229B
:1007800004385556580438545659043856555A04A6
:100790003855545902017A027A01030279020302A0
:1007A000780204304B4B3C047A090A710430494A00
:1007B000300430484A3104304A49320432494A311F
:1007C00004394444390508082A08080438544C38C8
:1007D00004384142780438404279043842417A046E
:1007E0003A40407A0418A0A27904FC282810041A80
:1007F000A0A07A00002100240027002A002D00304C
:1008000000330001010000040107010A0100002279
:1008100000250028002B002E0031003400020100CA
:1008200000050108010B010000200023002600291B
:10083000002C002F00320000010000030106010916
:100840000105050505070508080808020202020A55
:100850000A08080404040401010101010101010363
:1008600003030303030303040707070C0C0C0C0C1E
:100870000C0C0C0202020206060606060606060B11
:100880000B0B0B0B0B0B0B01021020200808102088
:10089000401020408002010201080402010102040C
:1008A00008102040808040201008040201800402CB
:1008B0000180402010080402010804020101020422
:1008C0000810204080010204081020408000000A27
:1008D0000B02090C0D0E08070304010000000000C4
:1008E0000000000000000000000000000000000008
:1008F00000000000000000000012111000000000C5
:1009000000000000000000000000000000000000E7
:10091000000000000927CB3A11241FBECFEFD1E21F
:10092000DEBFCDBF00E00CBF18E0A0E0B2E0E2E91E
:10093000F4E800E00BBF02C007900D92A636B107A5
:10094000D9F72BE0A6E6B8E001C01D92A537B207A3
:10095000E1F714E0CBE8D4E000E006C021970109FC
:10096000802FFE010E94D93ECA38D10780E00807D7
:10097000A9F70E94D6270C9437420C9400002F92BE
:100980003F924F925F926F927F928F929F92AF921F
:10099000BF92CF92DF92EF92FF920F931F93CF936C
:1009A000DF93FC01411551056105710521F441E01A
:1009B00050E060E070E08485958506969587848791
:1009C00022853385E480F580821B930B959587956E
:1009D000CBEADAEA8C9FD0018D9FB00D9C9FB00DC1
:1009E0001124AE15BF0514F035872487C485D5853D
:1009F0004A835B836C837D83088119812F0124E105
:100A0000420E511C84899589C817D90711F4158B9A
:100A1000048B848995891201712C612C6F01AEE0E1
:100A2000CA0ED11C6E147F040CF053C0DC01AD90D3
:100A3000BC901197CA15DB0511F40D931C93DC01D2
:100A400012968D909D90AD90BC901597841695064A
:100A5000A606B70658F4D2014D915C9111975983BF
:100A60004883CD93DC9340E050E0BA01D1012D9052
:100A70003C90C816D90669F1DC014D905C90D2011A
:100A8000AD90BC901197CA15DB0511F40D931C9322
:100A9000D20112968D909D90AD90BC9015978416C2
:100AA0009506A606B70658F4DC014D915C911197A6
:100AB00059834883CD93DC9340E050E0BA01C414DD
:100AC000D50439F0D2018D919C91BFEF6B1A7B0A4E
:100AD000A9CFD10112966D917D918D919C91159721
:100AE0006683778380879187DF91CF911F910F91E4
:100AF000FF90EF90DF90CF90BF90AF909F908F903E
:100B00007F906F905F904F903F902F9008950C943E
:100B1000BF04089508958150823108F05AC0E82F2B
:100B2000F0E08827E956FA4F8F4F0C94D93EB7056D
:100B3000BB05A905AF05B305E905BE05C405C80594
:100B4000CE05D205D605DC05E005E905E405EA0594
:100B5000EE05809180008F778093800008958091CA
:100B600080008F7DF9CF80918000877FF5CF84B59D
:100B70008F7784BD089584B58F7DFBCF8091B000C1
:100B80008F778093B00008958091B0008F7DF9CF6A
:100B9000809190008F7780939000089580919000CD
:100BA0008F7DF9CF80919000877FF5CF8091A00055
:100BB0008F778093A00008958091A0008F7DF9CF5A
:100BC0008091A000877FF5CF809120018F7780935F
:100BD00020010895809120018F7DF9CF809120011F
:100BE000877FF5CFCF93DF93282F30E0F901E353D0
:100BF000F74F8491F901E957F74FD491F901EF5B71
:100C0000F74FC491CC23A1F081110E948B05EC2FEA
:100C1000F0E0EE0FFF1FE95DF74FA591B491EC9165
:100C2000ED2381E090E009F480E0DF91CF91089519
:100C300080E090E0FACF1F93CF93DF93282F30E02E
:100C4000F901E353F74F8491F901E957F74FD49134
:100C5000F901EF5BF74FC491CC23A9F0162F811156
:100C60000E948B05EC2FF0E0EE0FFF1FE35FF74FC4
:100C7000A591B4918FB7F894EC91111108C0D0955B
:100C8000DE23DC938FBFDF91CF911F910895DE2B80
:100C9000F8CFCF93DF9390E0FC01E957F74F249111
:100CA0008F5B974FFC0184918823C9F090E0880FF7
:100CB000991FFC01ED50F84FA591B491FC01E35F41
:100CC000F74FC591D49161110DC09FB7F8948C91E5
:100CD000209582238C938881282328839FBFDF91CE
:100CE000CF910895623051F49FB7F8943C91822FD0
:100CF000809583238C93E8812E2BEFCF8FB7F894C8
:100D0000EC912E2B2C938FBFEACF863308F08653BD
:100D100020917B00982F9870277F922B90937B00D7
:100D20008770806480937C0080917A0080648093D7
:100D30007A0080917A0086FDFCCF809178009091B6
:100D4000790008953FB7F89480912609909127097A
:100D5000A0912809B091290926B5A89B05C02F3F6D
:100D600019F00196A11DB11D3FBFBA2FA92F982FD1
:100D70008827BC01CD01620F711D811D911D42E0CC
:100D8000660F771F881F991F4A95D1F708958F9294
:100D90009F92AF92BF92CF92DF92EF92FF926B0140
:100DA0007C010E94A2064B015C01C114D104E10444
:100DB000F104B9F00E94A206681979098A099B0911
:100DC000683E73408105910580F321E0C21AD10885
:100DD000E108F10888EE880E83E0981EA11CB11C82
:100DE000E4CFFF90EF90DF90CF90BF90AF909F90B7
:100DF0008F9008952FB7F89460912209709123097C
:100E000080912409909125092FBF08950F931F9376
:100E10000E94A2060091E8081091E9082091EA08D2
:100E20003091EB08DC01CB01801B910BA20BB30BC3
:100E30008D3D25E09207A105B10590F08093E4086F
:100E40009093E508A093E608B093E7080E94A206F5
:100E50006093E8087093E9088093EA089093EB08A0
:100E60001F910F91089508950895AF92BF92CF9268
:100E7000DF92EF92FF920F931F93CF93DF936C015A
:100E80007B018B01040F151FEB015E01AE18BF083B
:100E9000C017D10759F06991D601ED91FC910190ED
:100EA000F081E02DC6011995892B79F7C501DF91F5
:100EB000CF911F910F91FF90EF90DF90CF90BF9057
:100EC000AF900895FC01538D448D252F30E0842F81
:100ED00090E0821B930B541710F0CF960895019762
:100EE0000895FC01918D828D981761F0A28DAE0F4F
:100EF000BF2FB11D5D968C91928D9F5F9F73928FD6
:100F000090E008958FEF9FEF0895FC01918D828D01
:100F1000981731F0828DE80FF11D858D90E00895CE
:100F20008FEF9FEF0895FC01918D228D892F90E026
:100F3000805C9F4F821B91098F739927089584EFDE
:100F400099E00E94930721E0892B09F420E0822F89
:100F50000895FC01A48DA80FB92FB11DA35ABF4F4E
:100F60002C91848D90E001968F739927848FA689A8
:100F7000B7892C93A089B1898C91837080648C93FC
:100F8000938D848D981306C00288F389E02D8081AB
:100F90008F7D80830895EF92FF920F931F93CF93DD
:100FA000DF93EC0181E0888F9B8D8C8D98131AC0A4
:100FB000E889F989808185FF15C09FB7F894EE898B
:100FC000FF896083E889F9898081837080648083E8
:100FD0009FBF81E090E0DF91CF911F910F91FF9033
:100FE000EF900895F62E0B8D10E00F5F1F4F0F73DB
:100FF0001127E02E8C8D8E110CC00FB607FCFACF96
:10100000E889F989808185FFF5CFCE010E94A90783
:10101000F1CFEB8DEC0FFD2FF11DE35AFF4FF08266
:101020009FB7F8940B8FEA89FB8980818062CFCFCC
:10103000CF93DF93EC01888D8823B9F0AA89BB890F
:10104000E889F9898C9185FD03C0808186FD0DC0FA
:101050000FB607FCF7CF8C9185FFF2CF808185FF1B
:10106000EDCFCE010E94A907E9CFDF91CF9108957E
:1010700080E090E0892B29F00E949F0781110E9457
:10108000000080E090E0892B49F080E090E0892B1F
:1010900029F00E94000081110E94000080E090E091
:1010A000892B49F080E090E0892B29F00E94000014
:1010B00081110E94000080E090E0892B49F080E0DF
:1010C00090E0892B29F00E94000081110C9400000F
:1010D00008958F929F92AF92BF92CF92DF92EF923C
:1010E000FF92CF93DF93EC016A017B0180E8C81A7D
:1010F00083E4D80A8DE6E80A88E3F80A8CE3882EB0
:10110000912CA12CB12CC701B601A50194010E941C
:10111000C03C6D83CA01B901A50194010E94C03C85
:101120006C83C701B60120E13EE040E050E00E9440
:10113000C03CCA01B90128E130E040E050E00E9423
:10114000C03C6B83C701B60120E831E541E050E0C7
:101150000E94C03C188263E97EEF8881982F9370CB
:1011600041E050E011F050E040E0FA01E359FE4F59
:101170002E173F0740F0FB01E41BF50B2E0F3F1F1E
:101180008F5F8883EACF81E0898389818C30A0F4E6
:10119000482F4150550BFA01E254FD4FE491911153
:1011A00003C0823009F4EF5FF0E02E173F0720F014
:1011B0002E1B3F0B8F5FE8CF2F5F2A83DF91CF91EC
:1011C000FF90EF90DF90CF90BF90AF909F908F9067
:1011D0000895DC0150E0EEEBF2E081E0861730F498
:1011E0009491490F511D8F5F3196F8CF633038F0DD
:1011F000CD0183709927892B11F44F5F5F4F9D01BB
:101200002D5F3F4F36952795369527956DE671E012
:10121000A69FC001A79F900DB69F900D1124019726
:10122000820F931F840F951F0895EF92FF920F93E3
:101230001F93CF93DF93EC0188814A81698190E00D
:101240000E94E9089C01A8E1B0E00E94E23C2B81E9
:101250007B018C01E20EF11C011D111DA8019701FB
:10126000ACE3B0E00E94B53C2C817B018C01E20E26
:10127000F11C011D111DA80197010E94B53CAB0195
:10128000BC019D81892F90E0B0E0A0E080589C4B8C
:10129000A249B74C8A019B01080F191F2A1F3B1F47
:1012A000C901B801DF91CF911F910F91FF90EF908D
:1012B000089520919108260F3327331F21323105DD
:1012C000ECF42091ED09FC0190E080E0243069F01D
:1012D00082E00895A09191082191AC014F58574F99
:1012E000A40FB52FB11D2C930196861798F380910A
:1012F0009108680F6093910880E0089581E0089557
:101300001092ED0981E08093CC091092C70961E049
:1013100084E10E941B0661E085E10E941B06E9EB67
:10132000F0E080818E7F808380818D7F808388E460
:101330008093B80085E48093BC00089510928209E0
:1013400010928109109284091092A6090E948009C6
:1013500089E895E090932D0980932C098AE895E01F
:1013600090932B0980932A090895CF93DF9391E0FE
:10137000909370088823B9F0C091B800D091BA005A
:101380008091BC008A7B8093BC0060E084E10E9475
:101390001B0660E085E10E941B060E948009D09335
:1013A000BA00C093B800DF91CF9108958F929F92B9
:1013B000AF92BF92CF92DF92EF92FF920F931F9363
:1013C000CF93DF93D82FC62F142F613208F09CC023
:1013D0000E94A2066B017C018091ED0981116FC012
:1013E00081E08093ED091093CC099FEF9093CB0996
:1013F0001092CA099C0F9093C9098093C8098091E3
:10140000C809DD0FD82BD093C8098091C709813056
:1014100009F07CC01092C7090E94A2066B017C01F2
:101420008091C8098093BB008091EF099091F009E9
:10143000A091F109B091F209892B8A2B8B2BA1F095
:101440000E94A2060091EF091091F0092091F10984
:101450003091F2096C197D098E099F09061717074B
:101460002807390708F44CC08091BC0083FDD8CF11
:1014700085EC8093BC000E94A2066B017C018091E8
:10148000ED09813009F444C08091CA098C1710F429
:10149000C091CA09E7EAF9E0ADECB9E080E08C134D
:1014A00059C08C2FDF91CF911F910F91FF90EF903A
:1014B000DF90CF90BF90AF909F908F9008958091D4
:1014C000EF099091F009A091F109B091F209892BEF
:1014D0008A2B8B2B09F480CF0E94A2068090EF0903
:1014E0009090F009A090F109B090F2096C197D0973
:1014F0008E099F0986169706A806B90608F06CCFD4
:101500008091EE090E94B509C0E0CBCF85EEB1CF46
:101510008091EF099091F009A091F109B091F20941
:10152000892B8A2B8B2B09F4AACF0E94A20600914B
:10153000EF091091F0092091F1093091F2096C192D
:101540007D098E099F09061717072807390708F034
:1015500096CFD6CF91919D938F5FA1CF8F929F927F
:10156000AF92BF92CF92DF92EF92FF920F931F93B1
:10157000CF93DF93D091A609D13208F0D7C0182FAE
:10158000C091A5090E94A2066B017C018091ED0922
:1015900081116BC082E08093ED091093CC098FEF2D
:1015A0008093CB091092CA09D093C909A5E8B9E084
:1015B000E7EAF9E080E0D81391C01092C809809161
:1015C000C809CC0FC82BC093C8098091C7098130C6
:1015D00009F088C01092C7090E94A2066B017C0125
:1015E0008091C8098093BB008091EF099091F00928
:1015F000A091F109B091F209892B8A2B8B2BA1F0D4
:101600000E94A2060091EF091091F0092091F109C2
:101610003091F2096C197D098E099F090617170789
:101620002807390708F442C08091BC0083FDD8CF59
:1016300085EC8093BC000E94A2066B017C01809126
:10164000ED09823009F450C08091CB098F3F09F435
:101650006FC08091CB09803209F46CC08091CB09B6
:10166000803309F469C084E026C08091EF0990912D
:10167000F009A091F109B091F209892B8A2B8B2BEB
:1016800009F484CF0E94A2068090EF099090F0099F
:10169000A090F109B090F2096C197D098E099F099B
:1016A00086169706A806B90608F070CF8091EE0955
:1016B0000E94B50985E0109284091092A609109243
:1016C0008309DF91CF911F910F91FF90EF90DF90F1
:1016D000CF90BF90AF909F908F9008959D919193E0
:1016E0008F5F69CF85EEA5CF8091EF099091F009CA
:1016F000A091F109B091F209892B8A2B8B2B09F467
:101700009ECF0E94A2060091EF091091F00920914E
:10171000F1093091F2096C197D098E099F090617AC
:1017200017072807390708F08ACFC0CF81E0C3CF59
:1017300080E0C1CF82E0BFCF83E0BDCF8F3F11F407
:101740008091450291E0909383098093A5091092BE
:1017500084091092A60981E00E94AE0A91E08111ED
:1017600090E0892F08952F923F924F925F926F924F
:101770007F928F929F92AF92BF92CF92DF92EF9221
:10178000FF920F931F93CF93DF93CDB7DEB72C97C4
:101790000FB6F894DEBF0FBECDBF4B015C015A8778
:1017A000498719018091460290914702A091480211
:1017B000B0914902B501A401420F531F611D711D73
:1017C000481759076A077B0718F01C0128183908C1
:1017D00020914A0230914B023A8329832F313105FF
:1017E00024F08EE190E09A8389831C861B86AB856A
:1017F000BC85A215B30508F0EEC081010A1B1B0BC6
:10180000E981FA81E017F1070CF48F01023011052C
:101810000CF444C020914A0230914B023C832B834C
:101820002901712C612C750164018B859C85C80E82
:10183000D91EE11CF11CC701B601A3010E94C03CE6
:101840002D833E834F83588791E0C91AD108E10860
:10185000F108B801012E000C880B990B6C0D7D1D51
:101860008E1D9F1DA30192010E94C03CAD81BE81CF
:10187000A217B30798F42D01BFEF4B1A5B0AEB8157
:10188000FC814E9E80014F9E100D5E9E100D112416
:101890008B859C85880D991D081B190BF0904502BE
:1018A0008091460290914702A0914802B09149026E
:1018B0000097A140B10570F0D501C4012B853C858E
:1018C000820F931FA11DB11D0097A140B10510F01B
:1018D0006894F2F880914D02882381F08FEFF8121E
:1018E0000BC0809145020E949E0B811107C08BE8BE
:1018F00091E00197F1F7EECF8F2DF5CFA091430244
:10190000B091440291E090938309F092A50910925E
:1019100084091092A60940914602509147026091B5
:101920004802709149024130584061057105A0F0AC
:10193000B501A4012B853C85420F531F611D711D0C
:101940009927872F762F652FED91FC9111970190A4
:10195000F081E02DCD0119958091430290914402D0
:10196000DC01ED91FC910190F081E02D6B85680D1B
:101970001995D12CE984FA84EB85FC85EE0EFF1EC7
:10198000AD2DB0E0A017B1078CF480914302909187
:101990004402AE0DBF1DFC0120813181F90120817F
:1019A00031816C91F9011995D394EACF81E00E94BD
:1019B000AE0A2B853C85200F311F3C872B878091F9
:1019C0004D02811114CF60914C0270E090E080E0F4
:1019D0000E94C7060CCF2C960FB6F894DEBF0FBE40
:1019E000CDBFDF91CF911F910F91FF90EF90DF90CE
:1019F000CF90BF90AF909F908F907F906F905F90AF
:101A00004F903F902F900895CF93DF93EC018B81FF
:101A10008823A1F0888191E0909383098093A509A0
:101A2000109284091092A60981E00E94AE0A91E00A
:101A3000811190E0892FDF91CF9108950E949E0936
:101A400081E08B83CE010E94040D982F8111E2CF9B
:101A5000F1CF0895E091820980918109E81730F46F
:101A6000F0E0E353F64F808190E008958FEF9FEF11
:101A7000089590918209809181092FEF3FEF981787
:101A800048F4E92FF0E0E353F64F208130E09F5F08
:101A900090938209C90108958091810990918209EA
:101AA000891B990B0895CF92DF92EF92FF920F93CB
:101AB0001F93CF93DF937C01CB018A01209183098F
:101AC000222389F0EB016B01C40ED51ECC15DD0578
:101AD00069F06991D701ED91FC910190F081E02DC1
:101AE000C7011995F3CF642F0E945909C801DF91EE
:101AF000CF911F910F91FF90EF90DF90CF900895BD
:101B0000CF93DF931F92CDB7DEB76983209183090E
:101B10002223F9F02091A609203258F021E030E08C
:101B2000FC013383228390E080E00F90DF91CF911E
:101B3000089580918409E82FF0E0EB57F64F9981E2
:101B400090838F5F809384098093A60981E090E061
:101B5000ECCF61E0CE0101960E945909F7CF90E0E9
:101B600080E00895CF93DF93EC012A813B81D90176
:101B7000B595A795A80FB91FE881F98120FF08C086
:101B80008D919C911197E80FF91F0190F081E02D44
:101B9000CD01DF91CF911994CF92DF92EF92FF9216
:101BA0000F931F93DC011C962D913C911D972A5F8A
:101BB0003F4F1D963C932E931C971A96ED91FC91E6
:101BC0001B972E1B3F0B2D30310524F01D96FC93E7
:101BD000EE931C971C960D90BC91A02D12964D93E0
:101BE0005D936D937C931597C684D784E088F188C4
:101BF0000085118522853385628173818481958179
:101C00000617170728073907D0F0C616D706E806C3
:101C1000F90650F0C701B60106171707280739075C
:101C2000D0F4C901B80117C0601771078207930784
:101C300090F0C016D106E206F30630F40CC0C016D0
:101C4000D106E206F30668F3C616D706E806F906DB
:101C500010F4C701B6011F910F91FF90EF90DF9034
:101C6000CF9008950C94CC0DCF92DF92EF92FF921B
:101C70000E94A206C090DD08D090DE08E090DF0848
:101C8000F090E0086C197D098E099F096338764051
:101C900081059105C0F00E94A2066C197D098E098C
:101CA0009F096093D9087093DA088093DB089093BA
:101CB000DC080E94A2066093DD087093DE08809322
:101CC000DF089093E008FF90EF90DF90CF900895A9
:101CD000EEE2F9E080E09191892799E0E238F90796
:101CE000D1F7809374090895EEE2F9E08CED95E068
:101CF0009183808384E690E09383828380EA9FE0EF
:101D0000958384839783868384EE9EE09187808782
:101D100083E290E09387828789E091E095878487CA
:101D200082E090E097878687918B808B938B828B64
:101D3000958B848B168A178A108E118E128E138EB5
:101D4000148E158E168E178E10A211A281E082A31A
:101D50009AE093A396E494A315A286A328E53BE119
:101D600030A727A311A612A613A614A615A616A679
:101D700017A610AA11AA12AA13AA14AA15AA16AA7B
:101D800017AA10AE11AE13AE12AE15AE14AE16AE4B
:101D900087AF8CE390E090936F0980936E0988E79A
:101DA00090E090937109809370098FEF9FEF90936B
:101DB00073098093720980E197E29093760980938A
:101DC000750910927709109278091092790910928A
:101DD0007A0981E090E0A0E0B0E080937B099093E5
:101DE0007C09A0937D09B0937E090C94680E4F92F4
:101DF0005F926F927F928F929F92AF92BF92CF929B
:101E0000DF92EF92FF920F931F93CF93DF93F82F00
:101E1000D62F843610F0D3E6F3E68091F808EAE096
:101E20006E2F0E94A53EC82FA92FB0E020EA36E809
:101E300041E050E00E94B53C6B017C012C2F30E06A
:101E4000A0E1B7E20E94E23CC60ED71EE81EF91ED2
:101E50008F2F6E2F0E94A53E492FC80ED11CE11C6A
:101E6000F11C8D2F0E94A53E582F292F30E0A8EE9F
:101E7000B3E00E94E23CC60ED71EE81EF91E252FD5
:101E800030E0A4E6B0E00E94E23CC60ED71EE81E99
:101E9000F91E242F30E0AAE0B0E00E94E23CC60E1A
:101EA000D71EE81EF91E1091200B81E0181728F5A7
:101EB000A090210BB12C9090160B8090050BC12F98
:101EC000D0E0C450D54FE12F8AE0482E512C612C30
:101ED000712CEE2309F440C00FEF0E0FF0E021E06B
:101EE00030E040E050E0F01778F4AAE0B0E00E9463
:101EF000B53C9B01AC01FF5FF6CFE82FF0E0E4506A
:101F0000F54F12828F5FD2CFC216D306E406F506D4
:101F100030F41E1708F08A822197E02FDACFCE0125
:101F20008C5F9A40B50102C0759567958A95E2F776
:101F300060FF10C0C701B6010E94C03CCA01B901D0
:101F4000A30192010E94C03C6450754FFB01818542
:101F50008A83E2CF892DFCCFDF91CF911F910F9122
:101F6000FF90EF90DF90CF90BF90AF909F908F90B9
:101F70007F906F905F904F90089524E630E0B90114
:101F80000E94C53E482FCB01B9010E94C53E642F77
:101F90000C94F70ECF92DF92EF92FF9260912C0299
:101FA00070E090E080E00E94613B2091B9083091A0
:101FB000BA084091BB085091BC080E94C23B6B011B
:101FC0007C0120E030E0A9010E945C3B87FD14C049
:101FD00020E030E046EC52E4C701B6010E94063E24
:101FE000181664F0C701B6010E94D73D862FFF90F6
:101FF000EF90DF90CF90089580E0F9CF83E6F7CFA0
:10200000CF92DF92EF92FF92CF93DF93C4E6D0E0BE
:102010008BE30E948506BC01990F880B990B0E94E7
:10202000633B9B01AC01C701B6010E94F23C6B010E
:102030007C01219769F720E030E048EC52E40E94EF
:102040005E3D20E030E74DE956E40E94C23B20E0CF
:1020500030EC4FE754E40E945E3D20E030E040EA7F
:1020600050E40E94C23B9B01AC0160E876E885EA3F
:1020700097E40E94F13CDF91CF91FF90EF90DF90C9
:10208000CF90089580E008950895FC0180819181AA
:10209000009711F00C94A2400895EF92FF920F93D5
:1020A0001F93CF93DF938091460B8823A1F08091FB
:1020B0003C0B882361F08FB7F89490913C0B9130E2
:1020C00071F59DB39093F3099DB39DBB8FBF80E5E0
:1020D0008CBD81E08DBD60E08091450B0E941B06A8
:1020E0008091460B8823F1F030E020E08091490B8D
:1020F00090E0880F991F2817390708F03DC0E0913C
:102100004C0BF0914D0BE20FF31F80818EBD000050
:102110000DB407FEFDCF8EB52F5F3F4FE7CF809305
:10212000F309D5CFD0E0C0E08091490B90E0880F53
:10213000991FC817D90700F5E0914C0BF0914D0B92
:10214000EC0FFD1F0081F090440BE090430B18E072
:10215000602F661F6627661F8E2D0E941B06000FCC
:1021600061E08F2D0E941B0660E08F2D0E941B06F0
:10217000115071F72196D8CF61E08091450B0E94F4
:102180001B068091460B882371F080913C0B8823BD
:1021900051F09FB7F89420913C0B8091F3092130C6
:1021A00049F48DBB9FBFDF91CF911F910F91FF909D
:1021B000EF9008958FBFF7CF2F923F924F925F928B
:1021C0006F927F928F929F92AF92BF92CF92DF9247
:1021D000EF92FF920F931F93CF93DF932B013C015C
:1021E0005A014901D0E0C0E09BE8292E3324339402
:1021F00084010C1B1D0B0132110510F000E210E0F0
:10220000F090450280914D02882379F08FEFF8120B
:102210000AC0809145020E949E0B811106C0C10137
:102220000197F1F7EFCF8F2DF6CFA0914302B09138
:102230004402E1E0E0938309F092A5091092840939
:102240001092A609409146025091470260914802BF
:1022500070914902413058406105710590F0B30119
:10226000A2014C0F5D1F611D711D9927872F762FCD
:10227000652FED91FC9111970190F081E02DCD013A
:1022800019958091430290914402DC01ED91FC91FB
:102290000190F081E02D6C2F640D199581E00E9472
:1022A000AE0A41E0602F8F2D0E94D609109282095C
:1022B000809381096501CC0EDD1E7601C7018C1962
:1022C0009D098017910778F4809143029091440210
:1022D000DC01ED91FC910284F385E02D1995F70165
:1022E00081937F01EBCFC00FD11FC815D90508F42A
:1022F0007FCFDF91CF911F910F91FF90EF90DF90F3
:10230000CF90BF90AF909F908F907F906F905F9095
:102310004F903F902F9008954F925F926F927F92CF
:102320008F929F92AF92BF92CF92DF92EF92FF92E5
:102330001F93CF93DF9300D000D01F921F92CDB791
:10234000DEB780E2C82ED12CE12CF12C260137011A
:102350008FEF481A580A680A780A4601570192E036
:10236000890E911CA11CB11CD701C6010396A11DA9
:10237000B11D8D839E83AF83B8871AE021E030E0E2
:10238000AE014F5F5F4FC701B6010E94DC1021E034
:1023900030E0AE014E5F5F4FC301B2010E94DC101E
:1023A00021E030E0AE014D5F5F4FC501B4010E94F6
:1023B000DC1021E030E0AE014C5F5F4F6D817E812B
:1023C0008F8198850E94DC108981843449F48A8148
:1023D000893431F48B81873419F48C81893429F163
:1023E000115061F69FEFD91AE90AF90AA0E2CA165C
:1023F000A3E0DA06E104F10409F0A8CF80E0289612
:102400000FB6F894DEBF0FBECDBFDF91CF911F9105
:10241000FF90EF90DF90CF90BF90AF909F908F9004
:102420007F906F905F904F90089581E0E8CF6F921A
:102430007F928F929F92AF92BF92CF92DF92EF9254
:10244000FF920F931F93CF93DF936C013B017A01AF
:1024500010E000E0D60114968D919C91E701C01B1D
:10246000D10B8C179D0708F4EC0141E0C7018C1BD0
:102470009D0B0817190708F440E06C2FC13208F0D3
:1024800060E2F60180810E94D60910928209809351
:1024900081098C171D0679F54301800E911E5401A8
:1024A000C501881999098C179D0778F4D6011196F2
:1024B0008D919C91DC01ED91FC910284F385E02DDE
:1024C0001995F50181935F01EBCF0C0F1D1F0E15C0
:1024D0001F0508F4BFCF81E0DF91CF911F910F91CD
:1024E000FF90EF90DF90CF90BF90AF909F908F9034
:1024F0007F906F90089580E0EFCF1F93CF93DF938D
:10250000DC011496ED91FC91E417F50710F490E0CE
:102510001FC0122FEA01FC0181819281208131E0EC
:10252000309383092093A509109284091092A6097B
:10253000DC01ED91FC910280F381E02D1995C81723
:10254000D90729F7812F0E94AE0A91E08111DFCFD0
:10255000892FDF91CF911F910895EF92FF920F93F2
:102560001F93CF93DF9300D000D01F92CDB7DEB77B
:102570008C011982E0907F09F090800920E041E011
:1025800050E0BE016F5F7F4FC7010E947D1288231C
:1025900041F047E050E0BE016F5F7F4FC7010E94EE
:1025A0001712E981EF77FA81FB805D814E814F77C9
:1025B0008F81282F30E094E0359527959A95E1F7A3
:1025C000922F990F990F291B220F280FD8012C93B6
:1025D000842F90E024E0959587952A95E1F7982F30
:1025E000990F990F891B880F840F11968C9311975F
:1025F000652F70E034E0759567953A95E1F7862F81
:10260000880F880F681B660F650F12966C931297E0
:102610004F2D50E064E0559547956A95E1F7842F7A
:10262000880F880F481B440F4F0D13964C93139738
:102630002F2F30E074E0359527957A95E1F7822FBA
:10264000880F880F281B220F2F0F14962C93149796
:102650008E2F90E0F4E095958795FA95E1F7982F05
:10266000990F990F891B880F8E0F15968C93C801AF
:1026700027960FB6F894DEBF0FBECDBFDF91CF9186
:102680001F910F91FF90EF9008951F93CF93DF93C9
:1026900000D000D0CDB7DEB7109153091130C1F191
:1026A00008F443C0153039F11630D9F4E0915709D8
:1026B000F0E0EE0FFF1FE859F64F11821082CE01B5
:1026C00001960E94AD12A09157091A9FD0011124C2
:1026D000A05DB44F86E0FE01319601900D928A957F
:1026E000E1F726960FB6F894DEBF0FBECDBFDF919F
:1026F000CF911F910895E091570984E0E89FF00180
:102700001124E25DF64F128E138E148E158EE9CFD2
:10271000E091570984E0E89FF0011124E25DF64F53
:1027200012A613A614A615A6DCCFE091570984E0E3
:10273000E89FF0011124E25DF64F12AA13AA14AA31
:1027400015AACFCFEF92FF920F931F93CF93DF93F2
:1027500000D000D000D01F921F92CDB7DEB78C0101
:10276000CE0101967C0188E0F70111928A95E9F784
:10277000F80135812AE0832F622F0E94A53E982F11
:10278000880F890F880F830F8A833481832F0E94DB
:10279000A53E982F880F890F880F830F8B83338175
:1027A000832F0E94A53E982F880F890F880F830FD3
:1027B0008C8380814281618190E00E94E9080696C5
:1027C00067E070E00E94B13E811101C087E08D8317
:1027D000F80132812AE0832F622F0E94A53E982FB4
:1027E000880F890F880F830F8E833181832F0E947A
:1027F000A53E982F880F890F880F830F8F83308114
:10280000832F0E94A53E982F880F890F880F830F72
:10281000888721E048E050E0B70180917F099091DE
:1028200080090E947D121FE01B8721E041E050E0FB
:10283000BE01655F7F4F80917F09909180090E9462
:102840007D1241E050E0BE01675F7F4F80917F09BC
:10285000909180090E941712898519878F778A873E
:1028600021E042E050E0BE01675F7F4F80917F0929
:10287000909180090E947D122B960FB6F894DEBFCE
:102880000FBECDBFDF91CF911F910F91FF90EF90C1
:102890000895EF92FF920F931F93CF93DF938C01D4
:1028A000D0E0C0E0E62EF12CF80181A597010C2EB6
:1028B00002C0359527950A94E2F761E020FF60E0B9
:1028C0000E941B0660E0F80180A50E941B0661E0E3
:1028D000F80180A50E941B062196C830D10521F77A
:1028E000DF91CF911F910F91FF90EF900895EF929C
:1028F000FF920F931F93CF93DF93EC018B01E42E94
:1029000061E088A50E941B0660E08FA10E941B0663
:102910008BE490E00197F1F7E00EF12EF11C0E151B
:102920001F0539F0F80161918F01CE010E94491411
:10293000F6CF8BE490E00197F1F761E08FA1DF9192
:10294000CF911F910F91FF90EF900C941B06CF93A6
:10295000DF931F921F92CDB7DEB7FC0161157105A1
:10296000B1F4442391F08FEF83A388E0898383A19E
:102970008A8342E0BE016F5F7F4FCF010E947714D0
:102980000F900F90DF91CF91089513A2EECF83A106
:10299000442319F0682B63A3E8CF60956823FBCF2D
:1029A000FC0144A1339620E0421719F011922F5FE9
:1029B000FBCF4F5FBC016E5F7F4F0C947714CF93BA
:1029C000DF9300D01F921F92CDB7DEB740E1649F26
:1029D00090011124622BFC01668F678F60A361A3B5
:1029E00028E129836A836B836C836D8345E0BE0194
:1029F0006F5F7F4F0E9477140F900F900F900F9092
:102A00000F90DF91CF910895CF93DF9300D01F9265
:102A10001F92CDB7DEB720E12983FC0124A121500C
:102A20002A83F0E16F9F90011124622BFC01638FD8
:102A3000648F658F6B836C836D8345E0BE016F5F30
:102A40007F4F0E9477140F900F900F900F900F9070
:102A5000DF91CF9108950F931F93CF93DF931F9230
:102A6000CDB7DEB78C018BE490E00197F1F7F80168
:102A7000128262E0C8010E94041562E0C8010E944F
:102A8000DF14C8010E94D0148DE0898341E0BE01AB
:102A90006F5F7F4FC8010E9477140F90DF91CF9135
:102AA0001F910F910895CF92DF92FF920F931F9382
:102AB000CF93DF93EC01162F61E088A50E941B06DF
:102AC00060E08FA10E941B0683E090E00197F1F780
:102AD000612F6864CE010E94491462E089A50E94BA
:102AE000490610E000E0F12CCC24C394D12C60E026
:102AF00088A50E941B0661E088A50E941B0689A587
:102B00000E94F205892B39F0C601002E01C0880F02
:102B10000A94EAF7F82A0F5F1F4F0830110539F7BA
:102B200083E090E00197F1F761E08FA10E941B061E
:102B300061E089A50E9449068F2DDF91CF911F91F9
:102B40000F91FF90DF90CF900895EEE3FBE0438577
:102B500050E0440F551F70E060E0868597850C9427
:102B60001542EF92FF920F931F93CF93DF93FF24B1
:102B7000F394D0E0C0E001E010E0B9E0EB2E0E9459
:102B8000A51598010C2E02C0220F331F0A94E2F7FC
:102B9000E0E090E08091490BE817E0F5EE9DB00190
:102BA0001124A0914A0BB0914B0BA60FB71F18969A
:102BB0004C9150E042235323452B51F14E2F50E0CE
:102BC0008150990B841B950B880F991FA0914C0B7A
:102BD000B0914D0BA80FB91FFC92A0914A0BB09178
:102BE0004B0BA60FB71FAC0FBD1F6C918091490B0B
:102BF0008150990B841B950B880F991F40914C0BAA
:102C000050914D0B840F951FDC0111966C9391E050
:102C1000EF5FC0CF91110E944D102196F394C83000
:102C2000D10509F0ACCF80E099E02091490B8217E3
:102C300058F4E0914A0BF0914B0B899FE00DF11D88
:102C4000112410868F5FF1CFDF91CF911F910F91EB
:102C5000FF90EF900895FF920F931F93CF93DF9310
:102C60008A30910508F068C0EB018C01F090490BA7
:102C70000E94A51540E05FEF5F0D0230110509F4D9
:102C80004EC088F401151105E1F00130110509F479
:102C90003FC04F5F541788F7DF91CF911F910F917D
:102CA000FF900C944D100330110509F43FC004301F
:102CB000110579F791E0209709F490E0919589E06A
:102CC00005C091E0209709F090E08CE0642F70E05F
:102CD0002091490B2150330B261B370B220F331F3A
:102CE000E0914C0BF0914D0BE20FF31F808320918C
:102CF000490B2150330B261B370B220F331F6091DA
:102D00004C0B70914D0B260F371FF9019183C1CFEA
:102D10009C2FC830D1050CF097E08BE0D7CF9C2FCB
:102D2000C031D1050CF09FE08AE0D0CF91E0209730
:102D300009F490E08FE0CACF21E06130710509F01D
:102D400020E00B9761F02093520B6130710549F43C
:102D5000DF91CF911F910F91FF900C94B1152093AB
:102D6000530BDF91CF911F910F91FF900895DF9248
:102D7000EF92FF920F931F93CF93DF9399E0899F78
:102D800080011124F12CE12CC82FD0E0DD24D39454
:102D9000DE0CE0914A0BF0914B0BE00FF11F8085A8
:102DA00090E00E2C02C0959587950A94E2F780FF7B
:102DB0002DC00E94A5158091490B8150990B8C1B49
:102DC0009D0B880F991F20914C0B30914D0B820F5A
:102DD000931FFC01D082E0914A0BF0914B0BE00F66
:102DE000F11FEE0DFF1D40812091490B2150330B47
:102DF0002C1B3D0B220F331F80914C0B90914D0BE0
:102E0000280F391FF90141830E944D10FFEFEF1A7F
:102E1000FF0A88E0E816F10409F0B8CF80914A0B68
:102E200090914B0B080F191FF8011086DF91CF917D
:102E30001F910F91FF90EF90DF9008952F923F9296
:102E40004F925F926F927F929F92AF92BF92CF927A
:102E5000DF92EF92FF920F931F93CF93DF93262F72
:102E6000582F5770D3E096958795DA95E1F7E82FBC
:102E7000C091400B3091490BCC2309F485C0C0E0D0
:102E8000831708F060C039E0389F1001399F300C7B
:102E90001124C12CD12C7601C39426013701052EB3
:102EA00004C0440C551C661C771C0A94D2F7B42C41
:102EB000F42DF09567E070E0651B710904C0CC0C3F
:102EC000DD1CEE1CFF1C6A95D2F7AC2C3C2D309516
:102ED000B0E0A0E0622F70E007E010E0AD01E0900C
:102EE0004A0BF0904B0BE20CF31C2091420B90909C
:102EF000410B6B010A2E02C0D594C7940A94E2F7E5
:102F0000C0FE34C0222319F0A8014A1B5B0B4E0DF2
:102F10005F1DEA012881FB2C9110FA2C2F29EA0170
:102F200028831196A830B105C9F620914A0B30913B
:102F30004B0BE101C20FD31F2FEF2887C091520B1B
:102F4000C11180C0C1E08C2FDF91CF911F910F91F3
:102F5000FF90EF90DF90CF90BF90AF909F907F90C9
:102F60006F905F904F903F902F900895222319F01B
:102F7000A8014A1B5B0B4E0D5F1DEA012881FF2E45
:102F80009110F32E2F21CBCF8317E8F63091410B10
:102F90003323C1F02295622F70E09B013595279570
:102FA000359527952373660F771F660F771F6C7C07
:102FB000262B30E0B901759567956575220F331F93
:102FC0002A7A262B39E0389FE001399FD00D112451
:102FD000A0914A0BB0914B0BAC0FBD1FE52EF12C0D
:102FE0003091420B67E070E06E197F09311101C02A
:102FF000B701A60FB71F2C93A0914A0BB0914B0BB2
:10300000AC0FBD1F18962C9118973091420B3323AB
:1030100099F0C7E0D0E0CE19DF0941E050E060E070
:1030200070E004C0440F551F661F771FCA95D2F782
:10303000422B18964C9382CF41E001C0440F5A9521
:10304000EAF7F6CF2091490BE21708F07BCF0E94F8
:10305000B71679CF9091490B915080E069E058E024
:103060004FEF869F90011124A0914A0BB0914B0B1A
:10307000A20FB31FFD01752F11927A95E9F7E09128
:103080004A0BF0914B0BE20FF31F40878F5F9817AD
:1030900040F78091520B81110C94B1150895FF9265
:1030A0000F931F93CF93DF938C01EB01F8800E9465
:1030B000803CF81621F06F2DC8010E94883CCE019B
:1030C000DF91CF911F910F91FF900895AF92BF9222
:1030D000DF92EF92FF920F931F93CF93DF935C01E8
:1030E0000EE219E0D0E0C0E0F801D1908F01750147
:1030F000EC0EFD1EC7010E94803CD81621F06D2DFC
:10310000C7010E94883C2196C135D10569F78EE23E
:1031100099E0DF91CF911F910F91FF90EF90DF9099
:10312000BF90AF9008950E94680EF8948091B40803
:10313000811111C060916F0870E0762F66276C5D79
:103140007F4F072E000C880B990B21E530E04EE2F3
:1031500059E00E94B30B80916F0890E0982F882768
:1031600084960E946618789480916F088F5F8330F0
:1031700019F080936F08089510926F080895809158
:1031800053098F5F873020F4809353090C94931870
:1031900010925309FBCF0F931F93CF93DF93CEE28F
:1031A000D9E08C010E521940C8018C0F9D1F0E945E
:1031B000803C899389E0CF37D807B1F78EE299E058
:1031C000DF91CF911F910F910895CF93DF93EB0182
:1031D0000E94803C8883CE01DF91CF9108958F9229
:1031E0009F92AF92BF92CF92DF92FF920F931F9365
:1031F000CF93DF9300D01F92CDB7DEB700E210E08F
:1032000068018FEFC81AD80A580182E0A80EB11CD5
:10321000480183E0880E911C8AE0F82EBE016F5FA2
:103220007F4FC8010E94E518BE016E5F7F4FC60147
:103230000E94E518BE016D5F7F4FC5010E94E51831
:10324000BE016C5F7F4FC4010E94E5188981843400
:1032500049F48A81893431F48B81873419F48C8163
:103260008934C9F0FA94F110D9CF1395003283E074
:10327000180731F680E00F900F900F900F90DF91BC
:10328000CF911F910F91FF90DF90CF90BF90AF90A3
:103290009F908F90089581E0EECFFC010190002077
:1032A000E9F73197AF01481B590BBC0184EF99E056
:1032B0000C9435078F929F92AF92BF920F931F93FA
:1032C000CF93DF93CDB7DEB7A1970FB6F894DEBFEB
:1032D0000FBECDBF19A2423008F44AE08E010F5D47
:1032E0001F4F842E912CB12CA12CA50194010E947A
:1032F000C03CE62FB901CA01EA30F4F4E05DD80120
:10330000EE938D01232B242B252B79F790E080E081
:10331000109719F0CD010E944D19A1960FB6F8949F
:10332000DEBF0FBECDBFDF91CF911F910F91BF9038
:10333000AF909F908F900895E95CE1CFCF93DF939A
:103340000E944D19EC018FEB92E00E944D198C0FF9
:103350009D1FDF91CF910895CF93DF93682F70E089
:1033600090E080E04AE00E945A19EC018FEB92E075
:103370000E944D198C0F9D1FDF91CF910895CF931F
:10338000DF93BC0190E080E04AE00E945A19EC0112
:103390008FEB92E00E944D198C0F9D1FDF91CF9112
:1033A0000895CF93DF934AE00E945A19EC018FEB06
:1033B00092E00E944D198C0F9D1FDF91CF910895CF
:1033C0004F925F926F927F928F929F92AF92BF9235
:1033D000CF92DF92EF92FF926B017C01AC019B01D7
:1033E0000E945B3E8823C1F082EC92E00E944D195E
:1033F0007C018FEB92E00E944D198E0D9F1DFF9076
:10340000EF90DF90CF90BF90AF909F908F907F9084
:103410006F905F904F90089546015701E894B7F878
:103420002FEF3FEF4FE75FE7C501B4010E945B3E1E
:1034300081110DC02FEF3FEF4FE75FE7C501B401EA
:103440000E945C3B18161CF486EC92E0CFCF2FEF65
:103450003FEF4FE75FE4C701B6010E94063E181632
:103460001CF48AEC92E0C2CF2FEF3FEF4FE75FEC06
:10347000C701B6010E945C3B87FDF3CF20E030E03E
:10348000A901C701B6010E945C3BB12CA12C87FFAA
:103490000AC06DE284EF99E00E94CB075C01F7FA65
:1034A000F094F7F8F0942AE037ED43EA5BE3C701C4
:1034B000B6010E94F23C2B013C010E94D73D6B01FA
:1034C0007C010E94613B9B01AC01C301B2010E94DF
:1034D000F13C2B013C014AE0C701B6010E945A1998
:1034E0007C01EA0CFB1C6EE284EF99E00E94CB07A2
:1034F000E80EF91E20E030E040E251E4C301B201E1
:103500000E94C23B2B013C010E94D73D4B01B12CD4
:10351000A12C4AE0C501B4010E945A19E80EF91E17
:10352000C501B4010E94613B9B01AC01C301B20122
:103530000E94F13C20E030E040E251E40E94C23BB6
:103540000E94D73D90E080E04AE00E945A19E80EC0
:10355000F91E4FCFCF93DF9380916F0B9091700B3B
:10356000892B81F0C0916B0BD0916C0B60E270E005
:10357000CE010E941C42009729F08C1B9D0BDF910D
:10358000CF9108958FEF9FEFFACF0F931F93CF93B3
:10359000DF938C01EB01FC01808191810097E1F0C8
:1035A0006881798161157105A9F0428153812C816F
:1035B0003D814217530770F00E9430428C819D81FB
:1035C000F801958384831D821C82DF91CF911F9126
:1035D0000F9108950E94A24088819981F8019183FA
:1035E00080838A819B81938382838C819D81958353
:1035F0008483198218821B821A82E5CF8F929F9250
:10360000AF92BF92CF92DF92EF92FF9285E40E9439
:103610008506BC01990F880B990B0E94633B6B01D7
:103620007C01C0920209D0920309E0920409F09251
:10363000050920E030E04AE754E40E94C23B4B0118
:103640005C01A701960160E070EC8FE794E40E94B2
:10365000F13C9B01AC01C501B4010E945E3D2DE32C
:1036600036EF4AE355E40E945E3D0E94133E2091EE
:103670003B0230913C0240913D0250913E020E943B
:103680005E3D2FE03FEC4BE55BE30E94F23C9B018B
:10369000AC0160E070E080E89FE30E945E3D23E3C0
:1036A00033E948E853E40E94F13C6B017C0120E0DF
:1036B00030E048E452EC0E945C3B87FD33C020E0E0
:1036C00030E048E453E4C701B6010E94063E1816F4
:1036D0004CF18090D1089090D208A090D308B0907F
:1036E000D408A5019401C701B6010E94F13C2DEC5C
:1036F0003CEC4CEC5DE30E94C23BA50194010E94AE
:10370000F23C6093D1087093D2088093D3089093D1
:10371000D408FF90EF90DF90CF90BF90AF909F9034
:103720008F9008956AE979EF89E794ECF2CF0F93CF
:103730001F93CF93DF93EC0188819981009759F013
:103740002A813B812617370730F081E0DF91CF9146
:103750001F910F9108958B016F5F7F4F0E942B4146
:10376000009759F0998388831B830A832C813D81BC
:10377000232B59F7FC011082E8CF80E0E7CFEF92CE
:10378000FF920F931F93CF93DF93EC017B018A018C
:10379000BA010E94971B28813981811114C021151B
:1037A000310519F0C9010E94A240198218821D82B8
:1037B0001C821B821A82CE01DF91CF911F910F9143
:1037C000FF90EF9008951D830C83B701C9010E94FB
:1037D0003042F1CFFC0111821082138212821582D5
:1037E000148250E040E061EC72E00C94BF1BCF9378
:1037F000DF93EC016115710571F0FB010190002070
:10380000E9F73197AF01461B570B0E94BF1BCE0152
:10381000DF91CF91089588819981009711F00E94DE
:10382000A240198218821D821C821B821A82EFCF4D
:1038300085ED8093BC008091EF099091F009A091F3
:10384000F109B091F2090796A11DB11D23E0B695CB
:10385000A795979587952A95D1F72091BC0024FDCF
:1038600003C01092ED0908954091EF095091F009BD
:103870006091F1097091F209452B462B472B69F3B2
:103880000097A105B10541F02AE22A95F1F700C0A1
:103890000197A109B109E1CF8091EE090C94B50916
:1038A0001F920F920FB60F9211242F933F938F9375
:1038B0009F93AF93BF938091220990912309A09188
:1038C0002409B09125093091210923E0230F2D37D8
:1038D00058F50196A11DB11D20932109809322095D
:1038E00090932309A0932409B09325098091260978
:1038F00090912709A0912809B09129090196A11D4D
:10390000B11D8093260990932709A0932809B093AD
:103910002909BF91AF919F918F913F912F910F9066
:103920000FBE0F901F90189526E8230F0296A11D39
:10393000B11DD2CF1F920F920FB60F9211240BB66A
:103940000F922F933F934F935F936F937F938F9338
:103950009F93AF93BF93EF93FF9384EF99E00E94FF
:10396000A907FF91EF91BF91AF919F918F917F91A7
:103970006F915F914F913F912F910F900BBE0F90E0
:103980000FBE0F901F9018951F920F920FB60F92B7
:1039900011240BB60F922F938F939F93EF93FF9366
:1039A000E091040AF091050A8081E0910A0AF09101
:1039B0000B0A82FD1DC0908180910D0A8F5F8F736D
:1039C00020910E0A821741F0E0910D0AF0E0EC50D0
:1039D000F64F958F80930D0AFF91EF919F918F91F4
:1039E0002F910F900BBE0F900FBE0F901F90189548
:1039F0008081F2CF1F920F920FB60F9211240BB657
:103A00000F922F933F934F935F936F937F938F9377
:103A10009F93AF93BF93EF93FF938091B900887FFB
:103A2000803609F44DC008F040C0883209F4A9C0BE
:103A300028F5803109F49DC0C8F4882309F4FBC03F
:103A4000883009F496C0FF91EF91BF91AF919F919B
:103A50008F917F916F915F914F913F912F910F9037
:103A60000BBE0F900FBE0F901F901895883109F470
:103A700088C0803241F78093CB0914C0803409F4A8
:103A80009DC040F48033B9F38833E9F68093CB09C5
:103A900085ECB0C0803509F485C0883509F496C03E
:103AA000883489F60E94181CCECF883909F48CC05E
:103AB00038F5883729F050F4883611F0803719F638
:103AC00083E08093ED091092B30857C0883809F459
:103AD0007BC0803919F0803809F0B5CF8091B308E8
:103AE000803208F071C0E091B30881E08E0F8093BE
:103AF000B3088091BB00F0E0ED56F74F80833DC0E6
:103B0000803B39F0E0F4803A09F479C0883A09F052
:103B10009ACF84E08093ED09109292081092910858
:103B2000E0912C09F0912D0919958091910881114E
:103B30000FC081E0809391081092710809C0803C09
:103B400009F4A6CF883C09F4A3CF883B09F07BCFCA
:103B5000E091920881E08E0F80939208F0E0EF5898
:103B6000F74F80818093BB009091920880919108DB
:103B700029C08091C8098093BB0085EC8093BC006C
:103B800062CF9091CA098091C909981758F5E091C0
:103B9000CA0981E08E0F8093CA09F0E0E955F64F1B
:103BA0008081E9CFE091CA0981E08E0F8093CA0934
:103BB0008091BB00F0E0E955F64F80839091CA09EF
:103BC0008091C9099817C8F285E8D8CFE091CA0951
:103BD00081E08E0F8093CA098091BB00F0E0E95527
:103BE000F64F80838091CC0981115CCF81E0809376
:103BF000C70984EA8093BC001092ED0924CF85ECBC
:103C00008093BC001092ED098091B308803230F4AB
:103C1000E091B308F0E0ED56F74F10826091B308E1
:103C200070E0E0912A09F0912B0983E998E0199559
:103C30001092B30808CF1092CB0934CF1F920F9285
:103C40000FB60F9211240BB60F922F933F934F9301
:103C50005F936F937F938F939F93AF93BF93CF9314
:103C6000EF93FF9390910601C091E308C095809176
:103C7000EE088923C8239093E308C0FF05C0E091B4
:103C80001E02F0911F021995C1FF05C0E0912002AC
:103C9000F09121021995C2FF05C0E0912202F09136
:103CA00023021995C3FF05C0E0912402F09125027B
:103CB0001995C4FF05C0E0913702F09138021995BB
:103CC000C5FF05C0E0912602F09127021995C6FFB5
:103CD00005C0E0912802F09129021995C7FF05C09F
:103CE000E0912A02F0912B021995FF91EF91CF916B
:103CF000BF91AF919F918F917F916F915F914F9104
:103D00003F912F910F900BBE0F900FBE0F901F9001
:103D100018951F920F920FB60F9211240BB60F92A7
:103D20002F933F934F935F936F937F938F939F93C3
:103D3000AF93BF93CF93EF93FF939CB18091030117
:103D40009170880F892BC091E208C0959091ED0881
:103D5000C923C8238093E208C0FF05C0E091100288
:103D6000F09111021995C1FF05C0E0911202F09186
:103D700013021995C2FF05C0E0911402F0911502DB
:103D80001995C3FF05C0E0911602F091170219952D
:103D9000C4FF05C0E0913502F09136021995C5FFC8
:103DA00005C0E0911802F09119021995C6FF05C0EF
:103DB000E0911A02F0911B021995C7FF05C0E0912E
:103DC0001C02F0911D021995FF91EF91CF91BF91C7
:103DD000AF919F918F917F916F915F914F913F91A3
:103DE0002F910F900BBE0F900FBE0F901F90189544
:103DF0001F920F920FB60F9211240BB60F922F93B2
:103E00003F934F935F936F937F938F939F93AF9362
:103E1000BF93CF93EF93FF9393B1C091E108C09507
:103E20008091EC088923C8239093E108C4FF05C062
:103E3000E0910002F09101021995C5FF05C0E091E3
:103E40000202F09103021995C6FF05C0E091040239
:103E5000F09105021995C7FF05C0E0910602F091A7
:103E600007021995C0FF05C0E0910802F091090210
:103E70001995C1FF05C0E0910A02F0910B02199556
:103E8000C2FF05C0E0910C02F0910D021995C3FF2D
:103E900005C0E0910E02F0910F021995FF91EF918C
:103EA000CF91BF91AF919F918F917F916F915F91D2
:103EB0004F913F912F910F900BBE0F900FBE0F901F
:103EC0001F9018951F920F920FB60F9211240BB6E8
:103ED0000F922F923F924F925F926F927F928F92AA
:103EE0009F92AF92BF92CF92DF92EF92FF920F9389
:103EF0001F932F933F934F935F936F937F938F9372
:103F00009F93AF93BF93EF93FF93CF93DF93CDB77F
:103F1000DEB7A397DEBFCDBF80916D0890916E088C
:103F2000019690936E0880936D080E94A2060091FE
:103F3000DD081091DE082091DF083091E008601B59
:103F4000710B820B930B603472448F409105A0F487
:103F50004091D9085091DA086091DB087091DC0833
:103F600087EB9AE00E94B20D9B01AC01283E83E0F2
:103F700038074105510518F420E030E0A9012093ED
:103F80001409309315094093160950931709211508
:103F900031054105510509F440C060E472E48FE049
:103FA00090E00E94C03CA0913009B09131090E947C
:103FB000B53C60931409709315098093160990938A
:103FC000170920917B0921FF12C00E94613B22E169
:103FD00034E14FE15FE30E94C23B0E94D73D609312
:103FE000140970931509809316099093170960912D
:103FF000140970911509809116099091170924E60A
:1040000030E040E050E00E94C03C2093140930931F
:1040100015094093160950931709C0900609D090CE
:104020000709E0900809F09009096091140970915E
:10403000150980911609909117090E94613BA7010B
:1040400096010E94F13C20E030E040E05FE30E94F6
:10405000C23BA70196010E94F23C6093060970934F
:10406000070980930809909309090E94A20600910C
:10407000E8081091E9082091EA083091EB08601BEC
:10408000710B820B930B812C912C54016034724480
:104090008F40910570F44091E4085091E5086091DB
:1040A000E6087091E7088DE99AE00E94B20D4B0195
:1040B0005C0180920A0990920B09A0920C09B092BF
:1040C0000D09C0901809D0901909E0901A09F090D4
:1040D0001B0981149104A104B10409F499C420902E
:1040E000A10A3090A20A0091A70A1091A80AF8012B
:1040F00030E020E060E070E0CB012215330564F48D
:104100004280538064807580640D751D861D971DE7
:104110002F5F3F4F3696F1CF9101032C000C440BDB
:10412000550B2C8F3D8F4E8F5F8F0E94C03C290115
:104130003A01F0E0E0E0188E198E1A8E1B8EE2151F
:10414000F305FCF4D80112966D917D918D919C91AF
:10415000159764197509860997099B01AC010E949E
:10416000953E288D398D4A8D5B8D260F371F481F50
:10417000591F288F398F4A8F5B8F31960A5F1F4FE7
:10418000DECF4090720950907309712C612C688DBC
:10419000798D8A8D9B8D2C8D3D8D4E8D5F8D0E94EE
:1041A000C03C6CE056954795379527956A95D1F7B1
:1041B0002415350546055705A0F580912E099091E7
:1041C0002F0964E670E00E94B13E8B0160E472E466
:1041D0008FE090E0A50194010E94C03CD8010E94AC
:1041E000B53C60930A0970930B0980930C09909376
:1041F0000D090E94613BA70196010E94F13C2DEC44
:104200003CEC4CE45EE30E94C23BA70196010E9495
:10421000F23C609318097093190980931A099093DE
:104220001B098091F608882371F08091540981114F
:104230000AC08EE20E94F20561E0892B09F060E07D
:104240008EE20E941B0681E40E948506BC01990F44
:10425000880B990B0E94633B6B017C01C0920209A1
:10426000D0920309E0920409F092050920E030E0C1
:104270004CE553E40E94C23B4B015C01A70196014F
:1042800060E070EC8FE794E40E94F13C9B01AC018C
:10429000C501B4010E945E3D5B016C01609138096B
:1042A0007091390990E080E00E94613B7B018C01B4
:1042B0009B01AC01B501C6010E945C3B87FD14C0A7
:1042C00060913A0970913B0990E080E00E94613B67
:1042D0007B018C019B01AC01B501C6010E94063E29
:1042E000181614F0750186012DEC3CEC44E251E403
:1042F000B701C8010E94C23B9B01AC0160E070E8BD
:1043000082EA94E40E94F13C4B015C0125E531EC2A
:1043100048EA5CE3B701C8010E94C23B9701A801CB
:104320000E94C23B9B01AC01C501B4010E94F23C5A
:1043300020E030E04AE754E40E945E3D9B01AC017E
:1043400060E070E080E89FE30E94F13C4B015C017B
:10435000C090B908D090BA08E090BB08F090BC08B3
:10436000AC019B0160E070E080E89FE30E94F13CBB
:10437000A70196010E94F13C2091C1083091C2082A
:104380004091C3085091C4080E94C23BA701960106
:104390000E94F23C6C8F7D8F8E8F9F8F6093B90847
:1043A0007093BA088093BB089093BC08C090B5087E
:1043B000D090B608E090B708F090B808A701960131
:1043C000C501B4010E94F13C2091BD083091BE08A6
:1043D0004091BF085091C0080E94C23BA7019601BE
:1043E0000E94F23C6B017C01C092B508D092B608E5
:1043F000E092B708F092B8080E94FA060091D5083A
:104400001091D6082091D7083091D808601B710B05
:10441000820B930B613477478B41910590F00E949A
:10442000FA066093D5087093D6088093D7089093C6
:10443000D808C0926608D0926708E0926808F092A7
:10444000690880E40E948506BC01990F880B990BCE
:104450000E94633B6B017C0120E030E04CE553E4BB
:104460000E94C23B4B015C01A701960160E070EC29
:104470008FE794E40E94F13C9B01AC01C501B401BB
:104480000E945E3D20E030E04AE754E40E945E3D39
:104490000E94133E20913B0230913C0240913D022C
:1044A00050913E020E945E3DC090FA08D090FB08F9
:1044B000E090FC08F090FD082FE03FEC4BE55BE35B
:1044C0000E94F23C9B01AC0160E070E080E89FE359
:1044D0000E945E3D23E333E948E853E40E94F13C47
:1044E000A70196010E94F13C2091CD083091CE08A1
:1044F0004091CF085091D0080E94C23BA70196017D
:104500000E94F23C6093FA087093FB088093FC08C9
:104510009093FD0884E40E948506BC01990F880BE6
:10452000990B0E94633B6B017C0120E030E04CE57D
:1045300053E40E94C23B4B015C01A701960160E07D
:1045400070EC8FE794E40E94F13C9B01AC01C50143
:10455000B4010E945E3D20E030E04AE754E40E944E
:104560005E3D0E94133E2091310230913202409113
:104570003302509134020E945E3DC090FE08D090FC
:10458000FF08E0900009F09001092FE03FEC4BE5B7
:104590005BE30E94F23C9B01AC0160E070E080E8CC
:1045A0009FE30E945E3D23E333E948E853E40E9421
:1045B000F13CA70196010E94F13C2091C90830917D
:1045C000CA084091CB085091CC080E94C23BA70179
:1045D00096010E94F23C6093FE087093FF0880935E
:1045E00000099093010985E40E948506BC01990F9A
:1045F000880B990B0E94633B6B017C01C0920209FE
:10460000D0920309E0920409F092050920E030E01D
:104610004AE754E40E94C23B4B015C01A7019601AA
:1046200060E070EC8FE794E40E94F13C9B01AC01E8
:10463000C501B4010E945E3D2DE336EF4AE355E427
:104640000E945E3D0E94133E20912D0230912E0269
:1046500040912F02509130020E945E3DC090D108DF
:10466000D090D208E090D308F090D4082FE03FEC2F
:104670004BE55BE30E94F23C9B01AC0160E070E023
:1046800080E89FE30E945E3D23E333E948E853E47A
:104690000E94F13CA70196010E94F13C2091C508BF
:1046A0003091C6084091C7085091C8080E94C23B8B
:1046B000A70196010E94F23C6093D1087093D20842
:1046C0008093D3089093D4088FE30E9485068C01D1
:1046D0008FE30E948506080F191F8FE30E9485064D
:1046E000080F191F8FE30E948506080F191F8FE31B
:1046F0000E948506080F191F8FE30E948506080F88
:10470000191F8FE30E948506800F911F813243E0BD
:10471000940748F423E0969587952A95E1F79093BE
:10472000F5088093F40880916B0890916C080196CD
:1047300090936C0880936B08049709F0F9C08091FE
:10474000060990910709A0910809B0910909888F7D
:10475000998FAA8FBB8FA091EF08B091F008B9A3F1
:10476000A8A38091F308282E312C84E68A9F60014B
:104770008B9FD00C11249601220D331D3BA32AA33D
:10478000688D798D8A8D9B8D0E94D73D6B01F12CB0
:10479000E12C0AE0402E512C612C712CC701B6018E
:1047A000A30192010E94C03C4B01CA01B901A301BF
:1047B00092010E94C03C162FC701B60124E630E0EA
:1047C00040E050E00E94C03CCA01B901A30192013F
:1047D0000E94C03C862FF401EE52F54F91859093D4
:1047E000D70A9091EC0A112329F0E12FF0E0EE5264
:1047F000F54F91859093D60A882309F415C1E62FC9
:10480000F0E0EE52F54F81858093D50A4AA15BA175
:104810006A01F12CE12C1AE0412E512C612C712CF3
:10482000C701BA01A30192010E94C03C4B01CA0119
:10483000B901A30192010E94C03C162FC701B60125
:1048400024E630E040E050E00E94C03CCA01B901DB
:10485000A30192010E94C03C862FF401EE52F54F55
:1048600091859093DA0A9091DB0A112329F0E12FC8
:10487000F0E0EE52F54F91859093D90A882309F420
:10488000D6C0E62FF0E0EE52F54F81858093D80A2E
:104890008091D80A9091F40A892B8093D80A80914C
:1048A000F1089091F20828163906E1F088A199A143
:1048B0006AE070E00E94B13EFB01FF27EE52F54F27
:1048C00081858093F50A98E099838A8342E0BE014E
:1048D0006F5F7F4F82ED9AE00E9477143092F2086A
:1048E0002092F108C0900E09D0900F09E0901009B5
:1048F000F0901109A7019601688D798D8A8D9B8DA5
:104900000E94F13C2AE037ED43E25CE30E94C23BA7
:10491000A70196010E94F23C60930E0970930F0963
:10492000809310099093110910926C0810926B08F3
:10493000609118097091190980911A0990911B09C9
:104940000E94D73D29E0E7E7F2E0DE0111960190F1
:104950000D922A95E1F7683E53E0750708F46AC0A6
:1049600069358BE1780710F068E57BE14B01B12CEC
:10497000A12CC12CD12C76019401A501B601C7014F
:10498000285E334041095109610971098109910982
:1049900005E00E94B83FE0E7AE2EF7E1BF2EC12C44
:1049A000D12CE12CF12C00E010E00E94E33EB22E6D
:1049B000032F142FB52FF62FE72F7C01A2E00E94C2
:1049C000FA3F4CF442E0B42E00E010E0B0E0F0E03A
:1049D000E0E0E12CF12C2B2D302F412F5B2F6F2F9E
:1049E0007E2FC70103E00E94D13FE22E022F132F3A
:1049F00032E0F32E68019FEFC91AD90A8F2D90E09B
:104A0000C816D90614F16FEF0E941E17F394F6CF63
:104A1000A701960160E070E0CB010E94F13C20E02C
:104A200030E040E05FE3EFCB8091EC0AEDCE809187
:104A3000DB0A2CCFA8EE8A2EB3E09B2EA12CB12C42
:104A4000C12CD12CE12CF12C97CFA3E0EA0EF12C54
:104A5000B5E0BE1540F060E0C7010E941E172FEFC1
:104A6000E21AF20AF5CF2B2D277030E040E050E03B
:104A700060E070E080E090E0A1E00E94EE3FE1E0C5
:104A8000F0E0EC0FFD1FE20FF31F6081C8010296FA
:104A90000E941E178091F908882351F06FEF86E07D
:104AA00090E00E941E176FEF87E090E00E941E17B3
:104AB00080917B0982FFDBC060912C0270E090E066
:104AC00080E00E94613B2C8D3D8D4E8D5F8D0E945C
:104AD000C23B2DE831E447E85EE30E94C23B6B0134
:104AE0007C0120E030E0A9010E945C3B87FDB8C05A
:104AF00020E030E046EC52E4C701B6010E94063ED9
:104B000018160CF4AFC0C701B6010E94D73D623041
:104B100008F0A9C08091050180628093050160932F
:104B2000F80870E090E080E00E94613B6B017C013E
:104B30006091520970E090E080E00E94633B9B012D
:104B4000AC01C701B6010E945E3D20E030E048E8BC
:104B500051E40E94C23B0E94D73D162F60936A0821
:104B6000E0906E09F0906F09B70190E080E00E943C
:104B7000613B9B01AC016091FA087091FB08809148
:104B8000FC089091FD080E94F13C4B015C01609192
:104B90007009709171096E197F0990E080E00E94A0
:104BA000613B9B01AC01C501B4010E945E3D20E068
:104BB00030E048E851E40E94C23B0E94D03D00E052
:104BC00077FD06C06231710514F061E170E0062FD7
:104BD00085E0E0E8F2E0DE011F9601900D928A95F3
:104BE000E1F78091850290918602A0918702B091B1
:104BF00088028C8B9D8BAE8BBF8B85E0E9E8F2E061
:104C0000DE011A9601900D928A95E1F785E0EEE8B3
:104C1000F2E0DE01119601900D928A95E1F7C02E27
:104C2000D12CD694C794D694C794E12EE694E694FA
:104C3000F12C34E0E316F1041CF093E0E92EF12CA2
:104C400088E0B82E460147E0840E911C8B2D90E041
:104C500088169906A4F06FEF0E941E17B394F6CF42
:104C600060E058CF63E6809105018F7D56CF0E94AA
:104C7000CA0F682F809105016A30B8F74DCFE02F39
:104C8000E370EC0FFD2FF11D0089602F6066C601F7
:104C900008960E941E1789E08C0DA82EB12C5BE0AF
:104CA0005A1540F060E6C5010E941E178FEFA81A42
:104CB000B80AF5CF94E0C916D104D1F06CE11430F4
:104CC00020F4FE01E10FF11D64898CE090E00E9468
:104CD0001E170DE06701ABE0CA0ED11C802F90E0DB
:104CE000C816D9067CF06FEF0E941E170F5FF6CF33
:104CF000602F6C61143048F7FE01E10FF11D6489EB
:104D0000602BE3CF8DE08E0DC82ED12CB0E1CB16F9
:104D100041F060E0C6010E941E172FEFC21AD20AAE
:104D2000F5CF8CEF810F8C30A8F5E12FE370EC0FFD
:104D3000FD2FF11D6385C7010C960E941E17A396D7
:104D40000FB6F894DEBF0FBECDBFDF91CF91FF91BC
:104D5000EF91BF91AF919F918F917F916F915F91F3
:104D60004F913F912F911F910F91FF90EF90DF9006
:104D7000CF90BF90AF909F908F907F906F905F90FB
:104D80004F903F902F900F900BBE0F900FBE0F9043
:104D90001F901895103198F2E12FE370EC0FFD2F62
:104DA000F11D62818FE090E0C8CFCF93DF93EC01DB
:104DB000862F92E1E4E5F2E0DE01199601900D9272
:104DC0009A95E1F79FEF9DA390E19EA396E09CA3A7
:104DD00027E932E0398328836FA327E028A799A722
:104DE00061E00E94490661E088A50E94490661E0F1
:104DF00089A50E94490661E08FA10E941B0661E01F
:104E000088A50E941B0660E089A5DF91CF910C94D4
:104E10001B06CF93DF93E4EFF9E01382128288EE52
:104E200093E0A0E0B0E084839583A683B7832FE965
:104E300032E03183208325EC30E03587248724EC71
:104E400030E03787268720EC30E0318B208B21EC57
:104E500030E0338B228B22EC30E0358B248B26EC38
:104E600030E0378B268B118E128E138E148EE1E973
:104E7000FAE01382128284839583A683B78381EB41
:104E800092E091838083CDE9DAE085E090E09D8334
:104E90008C838EE190E00E9406409B878A879D87E5
:104EA0008C871F861E86188A198A1A8A1B8A8BEAA3
:104EB0009AE09D8B8C8B1E8A1F8A188E198E87E82C
:104EC00095E0998388831B821A82C7EBDAE08CE035
:104ED00090E09D838C8388E490E00E9406409B874D
:104EE0008A879D878C871F861E86188A198A1A8A48
:104EF0001B8A85EC9AE09D8B8C8B1E8A1F8A188EEC
:104F0000198E8FEB94E0998388831B821A828FE538
:104F10009BE00E94EA1B85E69BE00E94EA1B8BE671
:104F20009BE00E94EA1BEEE3FBE08CE085838AE0D5
:104F300086838BE08783108681ED9AE09287818754
:104F400084E0838781E0848B1182108212828383C4
:104F5000148269E08CEF9AE00E94D52668E082ED29
:104F60009AE00E94D52640E853E46DE678E380E3BA
:104F70009BE00E94690840E853E46DE678E386E32D
:104F80009BE00E94690840E853E46DE678E38AE21A
:104F90009BE00E9469081092260B1092270B10923A
:104FA000280B1092290BDF91CF910895CF93DF93B7
:104FB000CDB7DEB7A5970FB6F894DEBF0FBECDBF55
:104FC000789484B5826084BD84B5816084BD85B5E4
:104FD000826085BD85B5816085BD80916E008160F0
:104FE00080936E0010928100809181008260809396
:104FF0008100809181008160809381008091800098
:105000008160809380008091B10084608093B100C2
:105010008091B00081608093B000809191008260A7
:1050200080939100809191008160809391008091A4
:1050300090008160809390008091A10082608093B5
:10504000A1008091A10081608093A1008091A000C7
:1050500081608093A0008091210182608093210172
:1050600080912101816080932101809120018160E4
:105070008093200180917A00846080937A008091EF
:105080007A00826080937A0080917A0081608093B8
:105090007A0080917A00806880937A001092C10033
:1050A00010921409109215091092160910921709FE
:1050B00010920A0910920B0910920C0910920D0916
:1050C0001092060910920709109208091092090916
:1050D000109218091092190910921A0910921B09BE
:1050E00061E089E20E94490661E088E20E94490687
:1050F00061E089E20E941B0661E088E20E941B06D3
:1051000064E670E080E090E00E94C7060E949E097D
:1051100080917F0990918009009711F00E94A24030
:1051200086E090E00E9406408C0188E6D8018C93CE
:1051300041E9C42E4AE0D42E1296DC92CE92119709
:1051400013961C92139780E290E015969C938E9391
:1051500014971093800900937F090E949E09FF24F1
:10516000F394F801F382C8010E94040D80931C0996
:105170001092B4080E94740E0E949E09D0924402BC
:10518000C092430280E5809345028FEF0E949E0B00
:10519000811134C0F092B4080E94EF1804E210E0CC
:1051A00032E8E32E39E0F32E81117BC084E4898359
:1051B000BE016F5F7F4F80E290E00E944F1819E4BC
:1051C0001983BE016F5F7F4F81E290E00E944F180C
:1051D00087E48983BE016F5F7F4F82E290E00E9487
:1051E0004F181983BE016F5F7F4F83E290E00E94EA
:1051F0004F1884E290E00E94661820C20E94EF18C7
:105200008111C1C10E948C1124E2C22ED12CE12C4B
:10521000F12C02E819E0811195C184E4898321E031
:1052200030E0AE014F5F5F4F60E270E080E090E001
:105230000E94B30B19E4198321E030E0AE014F5F07
:105240005F4F61E270E080E090E00E94B30B87E482
:10525000898321E030E0AE014F5F5F4F62E270E092
:1052600080E090E00E94B30B198321E030E0AE01B2
:105270004F5F5F4F63E270E080E090E00E94B30B0D
:1052800021E530E04EE259E064E270E080E090E039
:105290000E94B30B0E9493180E9493180E949318C7
:1052A00085CFC8010E94CB18EEE2F9E080E0919131
:1052B0008927EE16FF06D9F790917409891729F00E
:1052C00013950432F3E01F0761F7E091570994E06A
:1052D000E99FF0011124E25DF64F82A993A9A4A9E8
:1052E000B5A980930E0990930F09A0931009B0936C
:1052F000110980911C09882309F45BC0CE01019635
:105300000E94AD1286E0FE013196A0E3BBE0019061
:105310000D928A95E1F780916809909169091CE3E3
:10532000189F7001199FF00C112480E39BE00E94EC
:105330001509AB01BC014E195F0961097109CE0164
:1053400001960E94690886E0FE013196A0E3BBE069
:1053500001900D928A95E1F7CE0101960E94AD125F
:1053600086E0FE013196A6E3BBE001900D928A959E
:10537000E1F780916A0990916B09189F7001199F5C
:10538000F00C112486E39BE00E941509AB01BC01DF
:105390004E195F0961097109CE0101960E946908E1
:1053A00086E0FE013196A6E3BBE001900D928A955E
:1053B000E1F78091460B882309F46FC11FB7F89479
:1053C00080913D0B811127C0E6E7F8E08491ECEB7A
:1053D000F8E09491E82FF0E0EE0FFF1FED50F84F4A
:1053E000A591B491EC91E92321F461E085E30E9459
:1053F0001B0661E085E30E9449068CB580618CBD87
:105400008CB580648CBD61E084E30E94490661E054
:1054100083E30E94490680913D0B8F5F80933D0B93
:105420001FBF61E08091450B0E94490661E08091B9
:10543000450B0E941B0610924F0B10924E0B1092C0
:10544000510B1092500B8091540B9091550B895C2D
:10545000924009F447C1E9ECF2E0F093550BE09378
:10546000540B1092560B88E08093570B10925A0BF6
:105470001092590B8FEF90E090935C0B80935B0B35
:1054800010925E0B10925D0BE491E63409F033C08C
:10549000EAECF2E0E491E13009F40AC182E090E044
:1054A000E23029F5EBECF2E08491ECECF2E0E491EF
:1054B00090E0982F88278E0F911D90935A0B809320
:1054C000590BEDECF2E08491EEECF2E0E49190E027
:1054D000982F88278E0F911D90935C0B80935B0B08
:1054E000EFECF2E0E491E093570B87E090E09093CB
:1054F0005E0B80935D0BC0905D0BD0905E0BF12C2A
:10550000E12C2091590B30915A0B40915B0B50913B
:105510005C0B60E04217530708F4E2C0F601E75362
:10552000FD4F8491681708F4682F90E0B0E0A0E088
:105530000196A11DB11DC80ED91EEA1EFB1E2F5FCC
:105540003F4FE8CF21E530E04EE259E0C701B60118
:105550000E94DC10EEE2F9E080E0919189270E17BD
:105560001F07D9F790917409891709F41FCE2FEFFF
:10557000D21AE20AF20A34E2C31633E0D306E10497
:10558000F10401F713CE0E948C1181115EC004E278
:1055900010E092E8E92E99E0F92EC8010E94CB189C
:1055A000EEE2F9E080E091918927EE16FF06D9F747
:1055B00090917409891729F01395043243E0140778
:1055C00061F784E4898321E030E0AE014F5F5F4FF3
:1055D00060E270E080E090E00E94B30B19E4198370
:1055E00021E030E0AE014F5F5F4F61E270E080E0AC
:1055F00090E00E94B30B87E4898321E030E0AE01A4
:105600004F5F5F4F62E270E080E090E00E94B30B7A
:10561000198321E030E0AE014F5F5F4F63E270E03D
:1056200080E090E00E94B30B21E530E04EE259E0CB
:1056300064E270E080E090E00E94B30B0E94931857
:105640000E9493180E94931840CE84E2C82ED12C59
:10565000E12CF12C02E819E021E530E04EE259E0BE
:10566000C701B6010E94DC10EEE2F9E080E0919102
:1056700089270E171F07D9F790917409891709F424
:1056800095CD5FEFD51AE50AF50A84E2C81683E0E6
:10569000D806E104F10401F789CD61E08091430B64
:1056A0000E94490661E08091440B0E944906B9CEF0
:1056B000EBECF2E0E491F0E0F0935A0BE093590B3D
:1056C000ECECF2E0E491F0E0F0935C0BE0935B0B28
:1056D000EDECF2E0E491E093570B85E090E007CF2A
:1056E0006093580B1091490BB9E01B9FC001112426
:1056F0000E9406407C0190934B0B80934A0B812FB4
:1057000090E0880F991F0E94064090934D0B809364
:105710004C0B892B71F1EF2861F170E060E083E0C0
:1057200090E00E942B1667E070E081E090E00E941C
:105730002B1667E070E082E090E00E942B1670E08C
:1057400060E084E090E00E942B160E942A1870E02E
:1057500060E090E080E00E942B1670E060E08BE05B
:1057600090E00E942B1661E070E08AE090E00E94D9
:105770002B1670E060E08AE090E00E942B160E94F9
:105780002A18A0E82A2E20921E0BBFE33B2E30924F
:10579000050B16E0412E4092060B0BE5502E509261
:1057A000070B8FE4682E6092080B96E6792E7092B4
:1057B000090B2DE6822E80920A0B3DE7932E9092E4
:1057C0000B0B47E0A42EA0920C0B5FE7B52EB09216
:1057D0000D0B6FE6C62EC0920E0B77E7D72ED09238
:1057E0000F0BECE7EE2EE092100BF9E3FF2EF09298
:1057F000110B0EE50093120B19E71093130BE1E761
:10580000E093140BE091220BF0E0E450F54F20E41C
:1058100021878CEF9AE00E942B1562E08CEF9AE0D2
:105820000E94041561E08CEF9AE00E94DF148CEF77
:105830009AE00E94D01440E070E060E08CEF9AE0C3
:105840000E94A7142092F40A3092DB0A4092DC0AEC
:105850005092DD0A6092DE0A7092DF0A8092E00ABE
:105860009092E10AA092E20AB092E30AC092E40A9E
:10587000D092E50AE092E60AF092E70A0093E80A7D
:105880001093E90A31E73093EA0AE091F80AF0E070
:10589000EE52F54F40E4418782ED9AE00E942B15CD
:1058A00062E082ED9AE00E94041562E082ED9AE0E7
:1058B0000E94DF1482ED9AE00E94D01440E070E074
:1058C00060E082ED9AE00E94A71461E088E10E9406
:1058D000490661E089E10E94490661E08AE10E948F
:1058E0004906809104018062809304018091050142
:1058F0008F7D809305018091040180618093040174
:10590000809105018F7E809305011092F90860E077
:1059100087E30E94490660E088E30E94490660E050
:105920008FE30E94490660E080E40E94490660E03F
:1059300081E40E94490660E084E40E94490660E038
:1059400085E40E9449060E94FA066093D508709388
:10595000D6088093D7089093D8081092F508109233
:10596000F408609132097091330990E080E00E9460
:10597000613B4B015C0180923B0290923C02A09201
:105980003D02B0923E02609134097091350990E079
:1059900080E00E94613B6E8F7F8F88A399A3609304
:1059A00031027093320280933302909334026091FB
:1059B00036097091370990E080E00E94613B2B012D
:1059C0003C0140922D0250922E0260922F02709262
:1059D000300260913C0970913D0990E080E00E94A6
:1059E000613B2AE037ED43E25CE30E94C23B6093F7
:1059F000CD087093CE088093CF089093D008609123
:105A00003E0970913F0990E080E00E94613B2AE0EE
:105A100037ED43E25CE30E94C23B2DEC3CEC4CECE6
:105A20005DE30E94C23B6093C9087093CA088093EB
:105A3000CB089093CC08609140097091410990E0A7
:105A400080E00E94613B2AE037ED43E25CE30E9484
:105A5000C23B2DEC3CEC4CEC5DE30E94C23B6093FE
:105A6000C5087093C6088093C7089093C8086091D2
:105A700042097091430990E080E00E94613B2AE076
:105A800037ED43E25CE30E94C23B6B017C012FE8EF
:105A900032EC45EF5CE30E94C23B6093C108709317
:105AA000C2088093C3089093C4082AE037ED43E20C
:105AB0005CE3C701B6010E94C23B6093BD087093CE
:105AC000BE088093BF089093C008809152098093CC
:105AD0002C0204E610E080E40E948506BC01990FC8
