:100000000C9430040C9461040C9461040C9461040D
:100010000C9461040C9461040C9461040C946104CC
:100020000C9461040C94F21A0C94831A0C94181A10
:100030000C9461040C9461040C9461040C946104AC
:100040000C9461040C9461040C9461040C9461049C
:100050000C9461040C9461040C9461040C944A188F
:100060000C9461040C94BE180C9494180C946104C4
:100070000C9461040C9461040C9461040C9461046C
:100080000C9461040C9461040C9461040C9461045C
:100090000C9461040C9461040C9461040C94F418A5
:1000A0000C9461040C9461040C945C1B0C9461042A
:1000B0000C9461040C9461040C9461040C9461042C
:1000C0000C9461040C9461040C9461040C9461041C
:1000D0000C9461040C9461040C9461040C9461040C
:1000E0000C94610408000000BE922449123EABAAA1
:1000F000AA2ABECDCCCC4C3E00000080BEABAAAA42
:10010000AA3E00000000BF000000803F0000000089
:1001100000084178D3BB4387D1133D190E3CC3BDC2
:100120004282AD2B3E68EC8276BED98FE1A93E4C6F
:1001300080EFFFBE01C4FF7F3F00000000000C9471
:1001400068050C94FA330C9462050C94D7060C9451
:100150009E0B0C9428070C944D050C946E070C9480
:1001600005070C94992F0C94750B0C943D300C944E
:100170004E230C94AC2F0C94970B0C9492050C947A
:10018000952F0C94CC2F0C94E0100C94BC110C9473
:100190008D050C94AA060C942E050C94840B0C94DB
:1001A000FA0B0C9472050C946C050C94822F0C9431
:1001B00076050C946D2F0C942B050C9488050C94EB
:1001C00014070C942D050C94BB070C948E050C940D
:1001D0005B050C945F050C94CB0B0C947F0C0C947A
:1001E00057050C947A050C9463040C94740B0C94CE
:1001F00053050C94D8060C9484050C9480050C943B
:10020000E02F0C9436071F1C1F1E1F1E1F1F1E1FD2
:100210001E4602000000FF0800053E5B4F5B3E05E6
:100220003E6B4F6B3E051C3E7C3E1C05183C7E3CE5
:1002300018051C577D571C051C5E7F5E1C040018AA
:100240003C1805FFE7C3E7FF040018241805FFE783
:10025000DBE7FF0530483A060E05262979292605F1
:10026000407F05050705407F05253F055A3CE73CD3
:100270005A057F3E1C1C0805081C1C3E7F051422E5
:100280007F221405FFFFFFFFFF05F0F0F0F0F00301
:10029000FFFFFF05000000FFFF050F0F0F0F0F0509
:1002A00008047E04080510207E20100508082A1C7A
:1002B0000805081C2A080805AA005500AA05AA5521
:1002C000AA55AA0530383E383005060E3E0E060205
:1002D0000000015F0307000705147F147F14054425
:1002E0004AFF4A32056313086463053649493648B4
:1002F0000107033E41410341413E05082A1C2A08EB
:100300000508083E08080260E004080808080260C2
:1003100060056010080403053E5149453E03040290
:100320007F057149494946054149494936050F0844
:1003300008087F054F49494931053E49494930057B
:10034000030101017F0536494949360506494949F6
:100350003E026C6C026CEC03081422041414141496
:1003600003221408050159090906053E415D594E4D
:10037000057E0909097E057F49494936053E414107
:100380004141057F4141413E057F49494941057F42
:1003900009090901053E41414979057F0808087F9F
:1003A00003417F4105304141413F057F081422410F
:1003B000057F40404040057F020C027F057F040816
:1003C000107F053E4141413E057F09090906053E72
:1003D0004141617E057F0919294605464949493150
:1003E0000501017F0101053F4040403F051F2040BE
:1003F000201F053F4038403F056314081463050380
:1004000004780403056151494543037F41410503D5
:10041000040810600341417F0504020102040480C6
:1004200080808003010204043844447C047F4444F7
:10043000380438444444043844447F0438545458FD
:1004400004047E05010418A4A47C047F040478013C
:100450007D0384857C047F102844017F057C04781B
:100460000478047C040478043844443804FC2424CC
:100470001804182424FC047C04040804585454343C
:1004800003047F04043C40407C041C20407C053C69
:100490004030403C046C10106C041CA0A07C046430
:1004A00054544C0408364141017F0441413608044C
:1004B00002010201057F4141417F053E55555541ED
:1004C000053844443844057C2A2A3E14057E02023D
:1004D000060605027E027E02056355494163053822
:1004E00044443C0405407E201E200506027E020294
:1004F000086313086463006060052A2A2A2A2A0315
:10050000514A4403444A51050000FF010303E080BF
:10051000FF053612362436030205020218180210AF
:1005200010053040FF0101041F01011E0000000002
:100530000901017F017F020C027F00000000000022
:100540000100017D0418247E2404447E45410522D7
:100550001C141C2205012A7C2A010177044E5555E2
:100560003903020002077E81BDA5A5817E032629ED
:100570002F0508142A14220408080818030808087C
:10058000077E81BD95A9817E05010101010103025C
:10059000050203242E24031915120315150A02025D
:1005A0000104F82040780506097F017F021818042D
:1005B0000080A0C003121F10032629260522142A3A
:1005C000140808402F1008041E117C08402F100842
:1005D0000462554C0915553F1008041E117C053066
:1005E00048484D4005781516147805781416157886
:1005F000057A1514157A05781615167905781514E7
:100600001578057814151478077E09097F49494142
:10061000059EA1612121057C54554644057C545614
:100620004544057E55544546057C5554454403458F
:100630007E4403447E4503467D4603457C450508CC
:100640007F49413E057C0A11227D053844454638E4
:10065000053844464538053A4544453A0538464547
:100660004639053845444538052214081422057CCE
:10067000625A463E053C4041423C053C4042413CBA
:10068000053C4241423C053C4140413C0502047A64
:100690000502043F12120C057E49494E30043845CC
:1006A000467C043844467D043846457E043A454637
:1006B0007D043845447D04304A4D7A07205454382F
:1006C000545458049CA26222043855565804385495
:1006D0005659043856555A043855545902017A026D
:1006E0007A01030279020302780204304B4B3C0486
:1006F0007A090A710430494A300430484A310430DA
:100700004A49320432494A31043944443905080817
:100710002A08080438544C380438414278043840D8
:100720004279043842417A043A40407A0418A0A23F
:100730007904FC282810041AA0A07A0000210024C3
:100740000027002A002D00300033000101000004C2
:100750000107010A0100002200250028002B002EBD
:10076000003100340002010000050108010B010006
:100770000020002300260029002C002F003200005A
:10078000010000030106010901050505050705082B
:10079000080808020202020A0A0808040404040104
:1007A0000101010101010103030303030303030426
:1007B0000707070C0C0C0C0C0C0C0C0202020206B6
:1007C000060606060606060B0B0B0B0B0B0B0B01A6
:1007D0000210202008081020401020408002010252
:1007E000010804020101020408102040808040201A
:1007F0001008040201800402018040201008040255
:1008000001080402010102040810204080010204D2
:10081000081020408000000A0B02090C0D0E08078A
:1008200003040100000000000000000000000000C0
:1008300000000000000000000000000000000000B8
:100840000012111000000000000000000000000075
:100850000000000000000000000000004E233D30BA
:1008600011241FBECFEFD1E2DEBFCDBF00E00CBF31
:1008700012E0A0E0B2E0EAE9FEE600E00BBF02C051
:1008800007900D92AE3BB107D9F725E0AEEBB2E091
:1008900001C01D92A13DB207E1F714E0CFE2D4E020
:1008A00000E006C021970109802FFE010E94E43379
:1008B000CE32D10780E00807A9F70E941B240C94D0
:1008C0003B370C9400002F923F924F925F926F92B1
:1008D0007F928F929F92AF92BF92CF92DF92EF92D0
:1008E000FF920F931F93CF93DF93FC0141155105A6
:1008F0006105710521F441E050E060E070E084851D
:10090000958506969587848722853385E480F580D2
:10091000821B930B95958795CBEADAEA8C9FD001E1
:100920008D9FB00D9C9FB00D1124AE15BF0514F026
:1009300035872487C485D5854A835B836C837D8313
:10094000088119812F0124E1420E511C8489958967
:10095000C817D90711F4158B048B84899589120166
:10096000712C612C6F01AEE0CA0ED11C6E147F0495
:100970000CF053C0DC01AD90BC901197CA15DB059B
:1009800011F40D931C93DC0112968D909D90AD9007
:10099000BC90159784169506A606B70658F4D201A2
:1009A0004D915C91119759834883CD93DC9340E03E
:1009B00050E0BA01D1012D903C90C816D90669F1DA
:1009C000DC014D905C90D201AD90BC901197CA159E
:1009D000DB0511F40D931C93D20112968D909D901E
:1009E000AD90BC90159784169506A606B70658F4E8
:1009F000DC014D915C91119759834883CD93DC9331
:100A000040E050E0BA01C414D50439F0D2018D9110
:100A10009C91BFEF6B1A7B0AA9CFD10112966D9101
:100A20007D918D919C9115976683778380879187BF
:100A3000DF91CF911F910F91FF90EF90DF90CF90BA
:100A4000BF90AF909F908F907F906F905F904F90EE
:100A50003F902F9008950C94630408950895815059
:100A6000823108F05AC0E82FF0E08827E55CFA4FA1
:100A70008F4F0C94E4335B055F054D055305570517
:100A80008D05620568056C05720576057A05800599
:100A900084058D0588058E059205809180008F77ED
:100AA000809380000895809180008F7DF9CF8091A0
:100AB0008000877FF5CF84B58F7784BD089584B596
:100AC0008F7DFBCF8091B0008F778093B000089529
:100AD0008091B0008F7DF9CF809190008F778093C7
:100AE00090000895809190008F7DF9CF80919000C3
:100AF000877FF5CF8091A0008F778093A000089525
:100B00008091A0008F7DF9CF8091A000877FF5CFE5
:100B1000809120018F77809320010895809120019A
:100B20008F7DF9CF80912001877FF5CFCF93DF9321
:100B3000282F30E0F901EB5EF74F8491F901E15382
:100B4000F84FD491F901E757F84FC491CC23A1F0A5
:100B500081110E942F05EC2FF0E0EE0FFF1FE159ED
:100B6000F84FA591B491EC91ED2381E090E009F468
:100B700080E0DF91CF91089580E090E0FACF1F935D
:100B8000CF93DF93282F30E0F901EB5EF74F84918C
:100B9000F901E153F84FD491F901E757F84FC491A7
:100BA000CC23A9F0162F81110E942F05EC2FF0E025
:100BB000EE0FFF1FEB5AF84FA591B4918FB7F89441
:100BC000EC91111108C0D095DE23DC938FBFDF912B
:100BD000CF911F910895DE2BF8CFCF93DF9390E054
:100BE000FC01E153F84F24918757984FFC01849101
:100BF0008823C9F090E0880F991FFC01E55CF84F4D
:100C0000A591B491FC01EB5AF84FC591D4916111B3
:100C10000DC09FB7F8948C91209582238C93888186
:100C2000282328839FBFDF91CF910895623051F42C
:100C30009FB7F8943C91822F809583238C93E88111
:100C40002E2BEFCF8FB7F894EC912E2B2C938FBFD8
:100C5000EACF863308F0865320917B00982F987056
:100C6000277F922B90937B008770806480937C0019
:100C700080917A00806480937A0080917A0086FD6A
:100C8000FCCF809178009091790008953FB7F89457
:100C90008091D3039091D403A091D503B091D60352
:100CA00026B5A89B05C02F3F19F00196A11DB11DC7
:100CB0003FBFBA2FA92F982F8827BC01CD01620F03
:100CC000711D811D911D42E0660F771F881F991FBE
:100CD0004A95D1F708958F929F92AF92BF92CF928B
:100CE000DF92EF92FF926B017C010E9446064B015E
:100CF0005C01C114D104E104F104B9F00E9446067C
:100D0000681979098A099B09683E73408105910534
:100D100080F321E0C21AD108E108F10888EE880EBC
:100D200083E0981EA11CB11CE4CFFF90EF90DF90F0
:100D3000CF90BF90AF909F908F9008952FB7F89469
:100D40006091CF037091D0038091D1039091D20331
:100D50002FBF08950F931F930E94460600914C03E6
:100D600010914D0320914E0330914F03DC01CB01D4
:100D7000801B910BA20BB30B8D3D25E09207A105C3
:100D8000B10590F08093480390934903A0934A03E0
:100D9000B0934B030E94460660934C0370934D033F
:100DA00080934E0390934F031F910F9108950895E0
:100DB000AF92BF92CF92DF92EF92FF920F931F9369
:100DC000CF93DF936C017B018B01040F151FEB01A7
:100DD0005E01AE18BF08C017D10759F06991D6015E
:100DE000ED91FC910190F081E02DC6011995892BC0
:100DF00079F7C501DF91CF911F910F91FF90EF908F
:100E0000DF90CF90BF90AF900895FC01538D448D3B
:100E1000252F30E0842F90E0821B930B541710F0A5
:100E2000CF96089501970895FC01918D828D9817B2
:100E300061F0A28DAE0FBF2FB11D5D968C91928D8A
:100E40009F5F9F73928F90E008958FEF9FEF0895BB
:100E5000FC01918D828D981731F0828DE80FF11D84
:100E6000858D90E008958FEF9FEF0895FC01918D9F
:100E7000228D892F90E0805C9F4F821B91098F7398
:100E80009927089580E594E00E94360721E0892B98
:100E900009F420E0822F0895FC01A48DA80FB92F3A
:100EA000B11DA35ABF4F2C91848D90E001968F7392
:100EB0009927848FA689B7892C93A089B1898C91B1
:100EC000837080648C93938D848D981306C0028800
:100ED000F389E02D80818F7D80830895EF92FF92CA
:100EE0000F931F93CF93DF93EC0181E0888F9B8D4D
:100EF0008C8D98131AC0E889F989808185FF15C007
:100F00009FB7F894EE89FF896083E889F989808129
:100F10008370806480839FBF81E090E0DF91CF91F8
:100F20001F910F91FF90EF900895F62E0B8D10E01A
:100F30000F5F1F4F0F731127E02E8C8D8E110CC089
:100F40000FB607FCFACFE889F989808185FFF5CFD4
:100F5000CE010E944C07F1CFEB8DEC0FFD2FF11D60
:100F6000E35AFF4FF0829FB7F8940B8FEA89FB8911
:100F700080818062CFCFCF93DF93EC01888D88236F
:100F8000B9F0AA89BB89E889F9898C9185FD03C0EC
:100F9000808186FD0DC00FB607FCF7CF8C9185FFD1
:100FA000F2CF808185FFEDCFCE010E944C07E9CFC3
:100FB000DF91CF91089580E090E0892B29F00E9485
:100FC000420781110E94000080E090E0892B49F0E7
:100FD00080E090E0892B29F00E94000081110E949E
:100FE000000080E090E0892B49F080E090E0892BC0
:100FF00029F00E94000081110E94000080E090E032
:10100000892B49F080E090E0892B29F00E940000B4
:1010100081110C9400000895EF92FF920F931F939B
:10102000CF93DF93EC0169813881432F50E02A810F
:10103000822F90E0E6E0F2E021E0261730F4749190
:10104000870F911D2F5F3196F8CF633018F0337002
:1010500009F401966DE671E0469F9001479F300DBF
:10106000569F300D1124215031094D5F5F4F569529
:10107000479556954795240F351F280F391FA8E12E
:10108000B0E00E94F2312B817B018C01E20EF11C59
:10109000011D111DA8019701ACE3B0E00E94C5310C
:1010A0002C817B018C01E20EF11C011D111DA80198
:1010B00097010E94C531AB01BC019D81892F90E051
:1010C000B0E0A0E080589C4BA249B74C8A019B013C
:1010D000080F191F2A1F3B1FC901B801DF91CF91CB
:1010E0001F910F91FF90EF9008958F929F92AF9272
:1010F000BF92CF92DF92EF92FF92CF93DF93EC01FA
:101100006A017B0180E8C81A83E4D80A8DE6E80A00
:1011100088E3F80A8CE3882E912CA12CB12CC7010E
:10112000B601A50194010E94D0316D83CA01B901B5
:10113000A50194010E94D0316C83C701B60120E162
:101140003EE040E050E00E94D031CA01B90128E100
:1011500030E040E050E00E94D0316B83C701B6011F
:1011600020E831E541E050E00E94D031188263E987
:101170007EEF8881982F937041E050E011F050E0AD
:1011800040E0FA01E359FE4F2E173F0740F0FB0104
:10119000E41BF50B2E0F3F1F8F5F8883EACF81E0A2
:1011A000898389818C30A0F4482F4150550BFA0176
:1011B000EA5FFD4FE491911103C0823009F4EF5FC3
:1011C000F0E02E173F0720F02E1B3F0B8F5FE8CF7C
:1011D0002F5F2A83DF91CF91FF90EF90DF90CF9028
:1011E000BF90AF909F908F9008952091E902260FB5
:1011F0003327331F21323105ECF420914A04FC01DE
:1012000090E080E0243069F082E00895A091E90246
:101210002191AC0147535D4FA40FB52FB11D2C9305
:101220000196861798F38091E902680F6093E902AE
:1012300080E0089581E0089510924A0481E080934F
:1012400029041092240461E084E10E94BF0561E05A
:1012500085E10E94BF05E9EBF0E080818E7F80830D
:1012600080818D7F808388E48093B80085E48093BB
:10127000BC0008951092DD031092DC031092E1038C
:10128000109203040E941C098DE295E09093DA030A
:101290008093D9038EE295E09093D8038093D7038F
:1012A0000895CF93DF9391E09093C8028823B9F01B
:1012B000C091B800D091BA008091BC008A7B809325
:1012C000BC0060E084E10E94BF0560E085E10E940F
:1012D000BF050E941C09D093BA00C093B800DF91EB
:1012E000CF9108958F929F92AF92BF92CF92DF924B
:1012F000EF92FF920F931F93CF93DF93D82FC62FB8
:10130000142F613208F09CC00E9446066B017C01DC
:1013100080914A0481116FC081E080934A04109348
:1013200029049FEF90932804109227049C0F909318
:1013300026048093250480912504DD0FD82BD093BB
:10134000250480912404813009F07CC0109224048B
:101350000E9446066B017C01809125048093BB00AE
:1013600080914C0490914D04A0914E04B0914F0493
:10137000892B8A2B8B2BA1F00E94460600914C04EE
:1013800010914D0420914E0430914F046C197D0949
:101390008E099F09061717072807390708F44CC05C
:1013A0008091BC0083FDD8CF85EC8093BC000E9467
:1013B00046066B017C0180914A04813009F444C0E7
:1013C000809127048C1710F4C0912704E4E0F4E026
:1013D000AAE2B4E080E08C1359C08C2FDF91CF914A
:1013E0001F910F91FF90EF90DF90CF90BF90AF9043
:1013F0009F908F90089580914C0490914D04A091FE
:101400004E04B0914F04892B8A2B8B2B09F480CF8B
:101410000E94460680904C0490904D04A0904E048B
:10142000B0904F046C197D098E099F0986169706A6
:10143000A806B90608F06CCF80914B040E945109B0
:10144000C0E0CBCF85EEB1CF80914C0490914D049C
:10145000A0914E04B0914F04892B8A2B8B2B09F459
:10146000AACF0E94460600914C0410914D04209191
:101470004E0430914F046C197D098E099F0906179F
:1014800017072807390708F096CFD6CF91919D937B
:101490008F5FA1CF8F929F92AF92BF92CF92DF9238
:1014A000EF92FF920F931F93CF93DF93D09103049A
:1014B000D13208F0D7C0182FC09102040E9446060E
:1014C0006B017C0180914A0481116BC082E08093A2
:1014D0004A04109329048FEF809328041092270464
:1014E000D0932604A2EEB3E0E4E0F4E080E0D81369
:1014F00091C01092250480912504CC0FC82BC09375
:10150000250480912404813009F088C010922404BD
:101510000E9446066B017C01809125048093BB00EC
:1015200080914C0490914D04A0914E04B0914F04D1
:10153000892B8A2B8B2BA1F00E94460600914C042C
:1015400010914D0420914E0430914F046C197D0987
:101550008E099F09061717072807390708F442C0A4
:101560008091BC0083FDD8CF85EC8093BC000E94A5
:1015700046066B017C0180914A04823009F450C018
:10158000809128048F3F09F46FC080912804803235
:1015900009F46CC080912804803309F469C084E0A8
:1015A00026C080914C0490914D04A0914E04B091BE
:1015B0004F04892B8A2B8B2B09F484CF0E9446067B
:1015C00080904C0490904D04A0904E04B0904F0435
:1015D0006C197D098E099F0986169706A806B9061B
:1015E00008F070CF80914B040E94510985E0109261
:1015F000E103109203041092E003DF91CF911F9159
:101600000F91FF90EF90DF90CF90BF90AF909F90A1
:101610008F9008959D9191938F5F69CF85EEA5CFAF
:1016200080914C0490914D04A0914E04B0914F04D0
:10163000892B8A2B8B2B09F49ECF0E9446060091A2
:101640004C0410914D0420914E0430914F046C19BC
:101650007D098E099F09061717072807390708F023
:101660008ACFC0CF81E0C3CF80E0C1CF82E0BFCFBF
:1016700083E0BDCF8F3F11F48091450291E09093BC
:10168000E003809302041092E1031092030481E0CE
:101690000E944A0A91E0811190E0892F0895CF932A
:1016A000DF93EC018B818823A1F0888191E09093F6
:1016B000E003809302041092E1031092030481E09E
:1016C0000E944A0A91E0811190E0892FDF91CF9129
:1016D00008950E943A0981E08B83CE010E944F0B4E
:1016E000982F8111E2CFF1CF0895E091DD03809131
:1016F000DC03E81730F4F0E0E65DFB4F808190E01A
:1017000008958FEF9FEF08959091DD038091DC03A2
:101710002FEF3FEF981748F4E92FF0E0E65DFB4F1D
:10172000208130E09F5F9093DD03C901089580918F
:10173000DC039091DD03891B990B0895CF92DF9212
:10174000EF92FF920F931F93CF93DF937C01CB0116
:101750008A012091E003222389F0EB016B01C40E82
:10176000D51ECC15DD0569F06991D701ED91FC918D
:101770000190F081E02DC7011995F3CF642F0E94ED
:10178000F508C801DF91CF911F910F91FF90EF9065
:10179000DF90CF900895CF93DF931F92CDB7DEB740
:1017A00069832091E0032223F9F020910304203281
:1017B00058F021E030E0FC013383228390E080E0A8
:1017C0000F90DF91CF9108958091E103E82FF0E031
:1017D000EE51FC4F998190838F5F8093E10380935A
:1017E000030481E090E0ECCF61E0CE0101960E941D
:1017F000F508F7CF90E080E00895CF93DF93EC01F8
:101800002A813B81D901B595A795A80FB91FE88119
:10181000F98120FF08C08D919C911197E80FF91F65
:101820000190F081E02DCD01DF91CF911994CF92FD
:10183000DF92EF92FF920F931F93DC011C962D9184
:101840003C911D972A5F3F4F1D963C932E931C970A
:101850001A96ED91FC911B972E1B3F0B2D303105F5
:1018600024F01D96FC93EE931C971C960D90BC9152
:10187000A02D12964D935D936D937C931597C6841E
:10188000D784E088F18800851185228533856281BF
:101890007381848195810617170728073907D0F0CF
:1018A000C616D706E806F90650F0C701B6010617B6
:1018B000170728073907D0F4C901B80117C0601706
:1018C00071078207930790F0C016D106E206F3066F
:1018D00030F40CC0C016D106E206F30668F3C61653
:1018E000D706E806F90610F4C701B6011F910F915B
:1018F000FF90EF90DF90CF9008950C94170CCF924B
:10190000DF92EF92FF920E944606C0904103D09072
:101910004203E0904303F09044036C197D098E0963
:101920009F096338764081059105C0F00E94460604
:101930006C197D098E099F0960933D0370933E03E6
:1019400080933F03909340030E94460660934103B7
:10195000709342038093430390934403FF90EF906E
:10196000DF90CF900895E4E7F3E080E0919189273C
:1019700093E0E83CF907D1F78093C8030895E4E7C2
:10198000F3E08091B8029091B902A091BA02B091AF
:10199000BB0280839183A283B3838CED95E0958312
:1019A000848384E690E09783868380EA9FE0918732
:1019B00080879387828784EE9EE09587848783E281
:1019C00090E09787868789E091E0918B808B82E019
:1019D00090E0938B828B958B848B978B868B918FEA
:1019E000808F128E138E148E158E168E178E10A267
:1019F00011A212A213A214A215A281E086A39AE05A
:101A000097A396E490A711A682A728E53BE134A707
:101A100023A715A616A617A610AA11AA12AA13AADA
:101A200014AA15AA16AA17AA10AE11AE12AE13AEBA
:101A300014AE15AE17AE16AE1092B5031092B403E5
:101A40001092B6038093B7038CE390E09093B903B0
:101A50008093B80388E790E09093BB038093BA0328
:101A60008FEF9FEF9093BD038093BC0380E197E2DB
:101A70009093BF038093BE031092C0031092C103E2
:101A80001092C2031092C30381E090E0A0E0B0E0A6
:101A90008093C4039093C503A093C603B093C70378
:101AA0000C94B30C4F925F926F927F928F929F92A1
:101AB000AF92BF92CF92DF92EF92FF920F931F935C
:101AC000CF93DF93F82FD62F843610F0D3E6F3E6CA
:101AD00080915303EAE06E2F0E94B033C82FA92FE4
:101AE000B0E020EA36E841E050E00E94C5316B01E9
:101AF0007C012C2F30E0A0E1B7E20E94F231C60E4B
:101B0000D71EE81EF91E8F2F6E2F0E94B033492F6B
:101B1000C80ED11CE11CF11C8D2F0E94B033582F30
:101B2000292F30E0A8EEB3E00E94F231C60ED71E96
:101B3000E81EF91E252F30E0A4E6B0E00E94F23145
:101B4000C60ED71EE81EF91E242F30E0AAE0B0E032
:101B50000E94F231C60ED71EE81EF91E10917C05B8
:101B600081E0181728F5A0907D05B12C90907205A2
:101B700080906105C12FD0E0C85ADA4FE12F8AE08A
:101B8000482E512C612C712CEE2309F440C00FEF2C
:101B90000E0FF0E021E030E040E050E0F01778F484
:101BA000AAE0B0E00E94C5319B01AC01FF5FF6CF17
:101BB000E82FF0E0E85AFA4F12828F5FD2CFC216B8
:101BC000D306E406F50630F41E1708F08A82219742
:101BD000E02FDACFCE0188559540B50102C075954A
:101BE00067958A95E2F760FF10C0C701B6010E94B1
:101BF000D031CA01B901A30192010E94D031685AC3
:101C00007A4FFB0181858A83E2CF892DFCCFDF915A
:101C1000CF911F910F91FF90EF90DF90CF90BF90E9
:101C2000AF909F908F907F906F905F904F900895AE
:101C300024E630E0B9010E94D033482FCB01B9012E
:101C40000E94D033642F0C94520DCF92DF92EF920A
:101C5000FF92CF93DF93C4E6D0E08BE30E94290686
:101C6000BC01990F880B990B0E9473309B01AC014A
:101C7000C701B6010E9402326B017C01219769F70E
:101C800020E030E048EC52E40E946E3220E030E781
:101C90004DE956E40E94D23020E030EC4FE754E4A6
:101CA0000E946E3220E030E040EA50E40E94D230E0
:101CB0009B01AC0160E876E885EA97E40E94013276
:101CC000DF91CF91FF90EF90DF90CF90089580E06B
:101CD000089508952F923F924F925F926F927F9254
:101CE0008F929F92AF92BF92CF92DF92EF92FF922C
:101CF0000F931F93CF93DF932B013C015A014901AE
:101D0000D0E0C0E09BE8292E3324339484010C1BDF
:101D10001D0B0132110510F000E210E0F0904502B9
:101D200080914D02882379F08FEFF8120AC08091DC
:101D300045020E943A0B811106C0C1010197F1F7DB
:101D4000EFCF8F2DF6CFA0914302B0914402E1E096
:101D5000E093E003F09202041092E1031092030476
:101D600040914602509147026091480270914902A9
:101D7000413058406105710590F0B301A2014C0F4C
:101D80005D1F611D711D9927872F762F652FED919E
:101D9000FC9111970190F081E02DCD011995809172
:101DA000430290914402DC01ED91FC910190F0819D
:101DB000E02D6C2F640D199581E00E944A0A41E0E4
:101DC000602F8F2D0E9472091092DD038093DC0337
:101DD0006501CC0EDD1E7601C7018C199D098017A7
:101DE000910778F48091430290914402DC01ED91D7
:101DF000FC910284F385E02D1995F70181937F0111
:101E0000EBCFC00FD11FC815D90508F47FCFDF91E4
:101E1000CF911F910F91FF90EF90DF90CF90BF90E7
:101E2000AF909F908F907F906F905F904F903F907A
:101E30002F9008954F925F926F927F928F929F9210
:101E4000AF92BF92CF92DF92EF92FF920F931F93C8
:101E5000CF93DF9300D000D01F92CDB7DEB78C01B7
:101E60001982A090DE03B090DF03D50114968D9106
:101E70009C911597892B09F468C011968D919C91BE
:101E800012972C9131E03093E003209302041092DA
:101E9000E10310920304DC01ED91FC910280F381D7
:101EA000E02D41E050E0BE016F5F7F4F1995019733
:101EB00009F04BC080E00E944A0A811146C0D12C33
:101EC000C12CB7E06B2E712CF501848195817301D3
:101ED000EC18FD088E159F0508F47C0141E0C30154
:101EE0008E199F09C816D90608F440E06E2DD50159
:101EF0008C910E9472091092DD038093DC038E1591
:101F00001F0419F588248394912C8C0E9D1E8C0C33
:101F10009D1C2401C401841995098E159F0570F438
:101F2000F50181819281DC01ED91FC910284F385C0
:101F3000E02D1995F40181934F01ECCFCE0CDF1CFD
:101F4000F7E0CF16D10408F4BFCFE981EF77FA812B
:101F5000FB805D814E814F778F81282F30E094E0A8
:101F6000359527959A95E1F7922F990F990F291B8F
:101F7000220F280FD8012C93842F90E024E0959510
:101F800087952A95E1F7982F990F990F891B880F4C
:101F9000840F11968C931197652F70E034E075953E
:101FA00067953A95E1F7862F880F880F681B660FB3
:101FB000650F12966C9312974F2D50E064E0559583
:101FC00047956A95E1F7842F880F880F481B440FC7
:101FD0004F0D13964C9313972F2F30E074E03595E7
:101FE00027957A95E1F7822F880F880F281B220FFB
:101FF0002F0F14962C9314978E2F90E0F4E0959564
:102000008795FA95E1F7982F990F990F891B880FFB
:102010008E0F15968C93C80127960FB6F894DEBFE5
:102020000FBECDBFDF91CF911F910F91FF90EF9029
:10203000DF90CF90BF90AF909F908F907F906F90E8
:102040005F904F900895EF92FF920F931F93CF935D
:10205000DF938091A2058823A1F0809198058823C1
:1020600061F08FB7F89490919805913071F59DB318
:102070009093DB039DB39DBB8FBF80E58CBD81E05A
:102080008DBD60E08091A1050E94BF058091A205F1
:102090008823F1F030E020E08091A50590E0880FE2
:1020A000991F2817390708F03DC0E091A805F09165
:1020B000A905E20FF31F80818EBD00000DB407FE5D
:1020C000FDCF8EB52F5F3F4FE7CF8093DB03D5CF9A
:1020D000D0E0C0E08091A50590E0880F991FC81757
:1020E000D90700F5E091A805F091A905EC0FFD1FB7
:1020F0000081F090A005E0909F0518E0602F661F1A
:102100006627661F8E2D0E94BF05000F61E08F2D90
:102110000E94BF0560E08F2D0E94BF05115071F72E
:102120002196D8CF61E08091A1050E94BF058091E2
:10213000A205882371F080919805882351F09FB7FC
:10214000F894209198058091DB03213049F48DBBF0
:102150009FBFDF91CF911F910F91FF90EF90089556
:102160008FBFF7CFEF92FF920F931F93CF93DF9321
:102170008C01D0E0C0E0E62EF12CF80181A597019A
:102180000C2E02C0359527950A94E2F761E020FFF6
:1021900060E00E94BF0560E0F80180A50E94BF05D5
:1021A00061E0F80180A50E94BF052196C830D105E5
:1021B00021F7DF91CF911F910F91FF90EF9008953C
:1021C000EF92FF920F931F93CF93DF93EC018B015C
:1021D000E42E61E088A50E94BF0560E08FA10E9407
:1021E000BF058BE490E00197F1F7E00EF12EF11CB2
:1021F0000E151F0539F0F80161918F01CE010E9483
:10220000B210F6CF8BE490E00197F1F761E08FA177
:10221000DF91CF911F910F91FF90EF900C94BF052C
:10222000CF93DF9300D01F921F92CDB7DEB740E16E
:10223000649F90011124622BFC01668F678F60A35D
:1022400061A328E129836A836B836C836D8345E0F6
:10225000BE016F5F7F4F0E94E0100F900F900F90B4
:102260000F900F90DF91CF910895CF93DF9300D01F
:102270001F921F92CDB7DEB720E12983FC0124A174
:1022800021502A83F0E16F9F90011124622BFC0101
:10229000638F648F658F6B836C836D8345E0BE01B4
:1022A0006F5F7F4F0E94E0100F900F900F900F9084
:1022B0000F90DF91CF910895CF93DF931F921F92DC
:1022C000CDB7DEB7FC0161157105B1F4442391F07F
:1022D0008FEF83A388E0898383A18A8342E0BE01D4
:1022E0006F5F7F4FCF010E94E0100F900F90DF9142
:1022F000CF91089513A2EECF83A1442319F0682B48
:1023000063A3E8CF60956823FBCFFC0144A133961B
:1023100020E0421719F011922F5FFBCF4F5FBC01F5
:102320006E5F7F4F0C94E0100F931F93CF93DF935A
:102330001F92CDB7DEB78C018BE490E00197F1F7E7
:10234000F801128262E0C8010E94351162E0C80102
:102350000E941011C8010E9485118DE0898341E01F
:10236000BE016F5F7F4FC8010E94E0100F90DF91A8
:10237000CF911F910F910895CF92DF92FF920F930B
:102380001F93CF93DF93EC01162F61E088A50E9485
:10239000BF0560E08FA10E94BF0583E090E0019738
:1023A000F1F7612F6864CE010E94B21062E089A546
:1023B0000E94ED0510E000E0F12CCC24C394D12C58
:1023C00060E088A50E94BF0561E088A50E94BF0566
:1023D00089A50E949605892B39F0C601002E01C0FF
:1023E000880F0A94EAF7F82A0F5F1F4F083011058B
:1023F00039F783E090E00197F1F761E08FA10E9447
:10240000BF0561E089A50E94ED058F2DDF91CF9179
:102410001F910F91FF90DF90CF900895EAE9F5E0CA
:10242000438550E0440F551F70E060E08685978536
:102430000C942D37DF92EF92FF920F931F93CF935F
:10244000DF9399E0899F80011124F12CE12CC82FA2
:10245000D0E0DD24D394DE0CE091A605F091A70531
:10246000E00FF11F808590E00E2C02C095958795B6
:102470000A94E2F780FF2DC00E940E128091A505FC
:102480008150990B8C1B9D0B880F991F2091A805DB
:102490003091A905820F931FFC01D082E091A6051F
:1024A000F091A705E00FF11FEE0DFF1D4081209177
:1024B000A5052150330B2C1B3D0B220F331F8091A0
:1024C000A8059091A905280F391FF90141830E94A1
:1024D0002310FFEFEF1AFF0A88E0E816F10409F075
:1024E000B8CF8091A6059091A705080F191FF80194
:1024F0001086DF91CF911F910F91FF90EF90DF90A9
:1025000008952F923F924F925F926F927F929F9287
:10251000AF92BF92CF92DF92EF92FF920F931F93F1
:10252000CF93DF93262F582F5770D3E0969587953A
:10253000DA95E1F7E82FC0919C053091A505CC23F1
:1025400009F485C0C0E0831708F060C039E0389F07
:102550001001399F300C1124C12CD12C7601C39469
:1025600026013701052E04C0440C551C661C771C3F
:102570000A94D2F7B42CF42DF09567E070E0651B57
:10258000710904C0CC0CDD1CEE1CFF1C6A95D2F74F
:10259000AC2C3C2D3095B0E0A0E0622F70E007E05D
:1025A00010E0AD01E090A605F090A705E20CF31C49
:1025B00020919E0590909D056B010A2E02C0D59436
:1025C000C7940A94E2F7C0FE34C0222319F0A80190
:1025D0004A1B5B0B4E0D5F1DEA012881FB2C9110FD
:1025E000FA2C2F29EA0128831196A830B105C9F6E3
:1025F0002091A6053091A705E101C20FD31F2FEF4F
:102600002887C091AE05C11180C0C1E08C2FDF9139
:10261000CF911F910F91FF90EF90DF90CF90BF90DF
:10262000AF909F907F906F905F904F903F902F90D2
:102630000895222319F0A8014A1B5B0B4E0D5F1D64
:10264000EA012881FF2E9110F32E2F21CBCF831783
:10265000E8F630919D053323C1F02295622F70E09A
:102660009B0135952795359527952373660F771F21
:10267000660F771F6C7C262B30E0B9017595679546
:102680006575220F331F2A7A262B39E0389FE00127
:10269000399FD00D1124A091A605B091A705AC0FCC
:1026A000BD1FE52EF12C30919E0567E070E06E199C
:1026B0007F09311101C0B701A60FB71F2C93A0915C
:1026C000A605B091A705AC0FBD1F18962C911897C1
:1026D00030919E05332399F0C7E0D0E0CE19DF0991
:1026E00041E050E060E070E004C0440F551F661FF9
:1026F000771FCA95D2F7422B18964C9382CF41E0B0
:1027000001C0440F5A95EAF7F6CF2091A505E217CC
:1027100008F07BCF0E941A1279CF8F929F92AF92CE
:10272000BF92CF92DF92EF92FF92CF93DF9300D0D0
:1027300000D000D01F92CDB7DEB74B015C018AE01C
:10274000E6E6F2E0DE01119601900D928A95E1F73E
:10275000C50120EA36E841E050E00E94D0318AE02D
:10276000C82ED12CE12CF12CCA01B901A701960188
:102770000E94D03121E030E02C0F3D1F620F731F0B
:10278000FB01608181E190E00E948112C501B401EA
:1027900020E137E240E050E00E94D031CA01B901A7
:1027A000A70196010E94D03121E030E02C0F3D1F9F
:1027B000620F731FFB01608182E190E00E94811231
:1027C000C501B40128EE33E040E050E00E94D03172
:1027D000CA01B901A70196010E94D03121E030E081
:1027E0002C0F3D1F620F731FFB01608183E190E09E
:1027F0000E948112C501B40124E630E040E050E0BF
:102800000E94D031CA01B901A70196010E94D031BE
:1028100021E030E02C0F3D1F620F731FFB01608130
:1028200084E190E00E948112C501B401A7019601E4
:102830000E94D0314B01CA01B901A70196010E9443
:10284000D03121E030E02C0F3D1F620F731FFB01E0
:10285000608185E190E00E948112E1E0F0E0EC0F00
:10286000FD1FE80DF91D608186E190E02A960FB604
:10287000F894DEBF0FBECDBFDF91CF91FF90EF90F8
:10288000DF90CF90BF90AF909F908F900C9481126B
:10289000EF92FF920F931F93CF93DF93FF24F39454
:1028A000D0E0C0E001E010E0B9E0EB2E0E940E1293
:1028B00098010C2E02C0220F331F0A94E2F7E0E0C9
:1028C00090E08091A505E817E0F5EE9DB001112498
:1028D000A091A605B091A705A60FB71F18964C9119
:1028E00050E042235323452B51F14E2F50E08150AD
:1028F000990B841B950B880F991FA091A805B09187
:10290000A905A80FB91FFC92A091A605B091A70533
:10291000A60FB71FAC0FBD1F6C918091A50581500C
:10292000990B841B950B880F991F4091A805509116
:10293000A905840F951FDC0111966C9391E0EF5F60
:10294000C0CF91110E9423102196F394C830D10575
:1029500009F0ACCF80E099E02091A505821758F4EA
:10296000E091A605F091A705899FE00DF11D1124C6
:1029700010868F5FF1CFDF91CF911F910F91FF9064
:10298000EF900895FF920F931F93CF93DF938A30B8
:10299000910508F068C0EB018C01F090A5050E943C
:1029A0000E1240E05FEF5F0D0230110509F44EC0DA
:1029B00088F401151105E1F00130110509F43FC05B
:1029C0004F5F541788F7DF91CF911F910F91FF90C0
:1029D0000C9423100330110509F43FC00430110595
:1029E00079F791E0209709F490E0919589E005C08E
:1029F00091E0209709F090E08CE0642F70E0209146
:102A0000A5052150330B261B370B220F331FE091F6
:102A1000A805F091A905E20FF31F80832091A50579
:102A20002150330B261B370B220F331F6091A80553
:102A30007091A905260F371FF9019183C1CF9C2FF3
:102A4000C830D1050CF097E08BE0D7CF9C2FC03178
:102A5000D1050CF09FE08AE0D0CF91E0209709F4F7
:102A600090E08FE0CACF21E06130710509F020E0ED
:102A70000B9761F02093AE056130710549F4DF9149
:102A8000CF911F910F91FF900C9448142093AF05A4
:102A9000DF91CF911F910F91FF9008959091A5051F
:102AA000915080E069E058E04FEF869F900111243B
:102AB000A091A605B091A705A20FB31FFD01752F28
:102AC00011927A95E9F7E091A605F091A705E20F3A
:102AD000F31F40878F5F981740F78091AE058111F3
:102AE0000C94481408958F929F92AF92BF92CF9208
:102AF000DF92EF92FF9285E40E942906BC01990FB4
:102B0000880B990B0E9473306B017C01C0921503F6
:102B1000D0921603E0921703F092180320E030E001
:102B20004AE754E40E94D2304B015C01A7019601B0
:102B300060E070EC8FE794E40E9401329B01AC01ED
:102B4000C501B4010E946E322DE336EF4AE355E42D
:102B50000E946E320E94233320913502309136025A
:102B600040913702509138020E946E322FE03FECC4
:102B70004BE55BE30E9402329B01AC0160E070E038
:102B800080E89FE30E946E3223E333E948E853E490
:102B90000E9401326B017C0120E030E048E452ECFD
:102BA0000E946C3087FD33C020E030E048E453E4FD
:102BB000C701B6010E94163318164CF180903503F8
:102BC00090903603A0903703B0903803A50194018C
:102BD000C701B6010E9401322DEC3CEC4CEC5DE3E8
:102BE0000E94D230A50194010E9402326093350305
:102BF000709336038093370390933803FF90EF90E0
:102C0000DF90CF90BF90AF909F908F9008956AE92A
:102C100079EF89E794ECF2CF85ED8093BC00809149
:102C20004C0490914D04A0914E04B0914F0407962E
:102C3000A11DB11D23E0B695A795979587952A9577
:102C4000D1F72091BC0024FD03C010924A040895DE
:102C500040914C0450914D0460914E0470914F048A
:102C6000452B462B472B69F30097A105B10541F091
:102C70002AE22A95F1F700C00197A109B109E1CF35
:102C800080914B040C945109CF92DF92EF92FF9206
:102C90000F931F93CF93DF93EB017B0125E5E20EAA
:102CA000F11C8B016C01C61AD70AC601800F911F57
:102CB0000E949031F80181938F01EE15FF05A9F76D
:102CC000CE01DF91CF911F910F91FF90EF90DF9098
:102CD000CF9008952F923F924F925F926F927F9282
:102CE0008F929F92AF92BF92CF92DF92EF92FF921C
:102CF0000F931F93CF93DF93CDB7DEB7C65BD10998
:102D00000FB6F894DEBF0FBECDBF0E94B30C80910A
:102D1000C70290E0982F8827BE016A5A7F4F8C5DCA
:102D20009E4F0E94441645E550E064E773E0CE01F3
:102D30008A5A9F4F0E941737892B21F480910C03E8
:102D400081118BC1F89480910C03811152C1809143
:102D5000C70290E0982F88279C012C5D3E4FCD54F0
:102D6000DF4F39832883C35BD0402901032E000C39
:102D7000660877088091460290914702A091480228
:102D8000B0914902B301A2014B5A5F4F6F4F7F4F81
:102D9000481759076A077B0708F4BEC0AC01421BFD
:102DA000530BCB54DF4F59834883C55BD040A09170
:102DB0004A02B0914B02C555DF4FB983A883CB5A65
:102DC000D0405F9744F0EEE1F0E0C555DF4FF98366
:102DD000E883CB5AD04010E000E0CB54DF4F28818D
:102DE0003981C55BD0400217130708F002C11901F1
:102DF000201A310AC555DF4F48815981CB5AD0403E
:102E0000421553050CF41A0152E0251631040CF456
:102E100057C080914A0290914B02C355DF4F99836E
:102E20008883CD5AD0404C01B12CA12C7301620192
:102E3000C00ED11EE11CF11CC701B601A501940111
:102E40000E94D031C155DF4F288339834A835B8389
:102E5000CF5AD04091E0C91AD108E108F108B10178
:102E6000032C000C880B990B6C0D7D1D8E1D9F1D76
:102E7000A50194010E94D031C155DF4FA881B981CD
:102E8000CF5AD040A217B307D8F44D01BFEF8B1A29
:102E90009B0AC355DF4FE881F981CD5AD0408E9E01
:102EA00010018F9E300C9E9E300C1124CD54DF4FAC
:102EB00088819981C35BD040800F911F281A390AFD
:102EC000F09045028091460290914702A0914802FD
:102ED000B09149020097A140B10560F0D301C20151
:102EE000800F911FA11DB11D0097A140B10510F0E9
:102EF0006894F2F880914D028823B9F03FEF8091F9
:102F00004502F3128F2D0E943A0B81110EC08BE8FF
:102F100091E00197F1F7EECF85E590E0CB54DF4FDC
:102F200099838883C55BD04042CFA0914302B09182
:102F3000440241E04093E003F09202041092E10366
:102F4000109203044091460250914702609148025A
:102F500070914902413058406105710590F0B3010C
:102F6000A201400F511F611D711D9927872F762FD8
:102F7000652FED91FC9111970190F081E02DCD012D
:102F800019958091430290914402DC01ED91FC91EE
:102F90000190F081E02D64E2600F1995F12C2F2D46
:102FA00030E022153305A4F480914302909144024D
:102FB000200F311FD901AC58BC4FFC012081318159
:102FC000F901208131816C91F9011995F394E7CFD2
:102FD00081E00E944A0A020D131D80914D02811169
:102FE000FCCE60914C0270E090E080E00E946B06A5
:102FF000F4CE0091C70210E0102F002749ECA42E58
:1030000043E0B42E54E7E52E53E0F52E015512406F
:10301000D7019D907D016801CA0EDB1EC6010E948A
:103020009031981621F0692DC6010E949831AE1496
:10303000BF0471F778941091C702812F90E0982F08
:103040008827BE016F5F7F4F8C5D9E4F0E944416A4
:103050001F5F1330E1F01093C702CA54DF4F0FB661
:10306000F894DEBF0FBECDBFDF91CF911F910F91BE
:10307000FF90EF90DF90CF90BF90AF909F908F9098
:103080007F906F905F904F903F902F900895109297
:10309000C702E3CF1F920F920FB60F9211242F9306
:1030A0003F938F939F93AF93BF938091CF03909162
:1030B000D003A091D103B091D2033091CE0323E08D
:1030C000230F2D3758F50196A11DB11D2093CE0376
:1030D0008093CF039093D003A093D103B093D203F6
:1030E0008091D3039091D403A091D503B091D603DE
:1030F0000196A11DB11D8093D3039093D403A09397
:10310000D503B093D603BF91AF919F918F913F911B
:103110002F910F900FBE0F901F90189526E8230F48
:103120000296A11DB11DD2CF1F920F920FB60F9222
:1031300011240BB60F922F933F934F935F936F938E
:103140007F938F939F93AF93BF93EF93FF9380E50C
:1031500094E00E944C07FF91EF91BF91AF919F9136
:103160008F917F916F915F914F913F912F910F9030
:103170000BBE0F900FBE0F901F9018951F920F92CD
:103180000FB60F9211240BB60F922F938F939F932C
:10319000EF93FF93E0916004F09161048081E091EE
:1031A0006604F091670482FD1DC0908180916904DE
:1031B0008F5F8F7320916A04821741F0E091690458
:1031C000F0E0E05BFB4F958F80936904FF91EF91F6
:1031D0009F918F912F910F900BBE0F900FBE0F906C
:1031E0001F9018958081F2CF1F920F920FB60F9209
:1031F00011240BB60F922F933F934F935F936F93CE
:103200007F938F939F93AF93BF93EF93FF9380919F
:10321000B900887F803609F44DC008F040C088327C
:1032200009F4A9C028F5803109F49DC0C8F48823A9
:1032300009F4FBC0883009F496C0FF91EF91BF916B
:10324000AF919F918F917F916F915F914F913F913E
:103250002F910F900BBE0F900FBE0F901F901895DF
:10326000883109F488C0803241F78093280414C063
:10327000803409F49DC040F48033B9F38833E9F613
:103280008093280485ECB0C0803509F485C088356A
:1032900009F496C0883489F60E940C16CECF88397E
:1032A00009F48CC038F5883729F050F4883611F0CD
:1032B000803719F683E080934A0410920B0357C0BD
:1032C000883809F47BC0803919F0803809F0B5CF0F
:1032D00080910B03803208F071C0E0910B0381E014
:1032E0008E0F80930B038091BB00F0E0E551FD4F02
:1032F00080833DC0803B39F0E0F4803A09F479C026
:10330000883A09F09ACF84E080934A041092EA0246
:103310001092E902E091D903F091DA0319958091B6
:10332000E90281110FC081E08093E9021092C90285
:1033300009C0803C09F4A6CF883C09F4A3CF883BA0
:1033400009F07BCFE091EA0281E08E0F8093EA02E0
:10335000F0E0E753FD4F80818093BB009091EA023B
:103360008091E90229C0809125048093BB0085ECFF
:103370008093BC0062CF9091270480912604981717
:1033800058F5E091270481E08E0F80932704F0E048
:10339000EC5FFB4F8081E9CFE091270481E08E0F45
:1033A000809327048091BB00F0E0EC5FFB4F8083AB
:1033B00090912704809126049817C8F285E8D8CF09
:1033C000E091270481E08E0F809327048091BB0059
:1033D000F0E0EC5FFB4F80838091290481115CCF8A
:1033E00081E08093240484EA8093BC0010924A0414
:1033F00024CF85EC8093BC0010924A0480910B038B
:10340000803230F4E0910B03F0E0E551FD4F108283
:1034100060910B0370E0E091D703F091D8038BEE3D
:1034200092E0199510920B0308CF1092280434CF24
:103430001F920F920FB60F9211240BB60F922F937B
:103440003F934F935F936F937F938F939F93AF932C
:10345000BF93CF93EF93FF9390910601C0914703E1
:10346000C095809152038923C82390934703C0FFDE
:1034700005C0E0911E02F0911F021995C1FF05C021
:10348000E0912002F09121021995C2FF05C0E09160
:103490002202F09123021995C3FF05C0E091240296
:1034A000F09125021995C4FF05C0E0913B02F0910F
:1034B0003C021995C5FF05C0E0912602F091270254
:1034C0001995C6FF05C0E0912802F09129021995CF
:1034D000C7FF05C0E0912A02F0912B021995FF91D8
:1034E000EF91CF91BF91AF919F918F917F916F910C
:1034F0005F914F913F912F910F900BBE0F900FBE98
:103500000F901F9018951F920F920FB60F921124D3
:103510000BB60F922F933F934F935F936F937F93CD
:103520008F939F93AF93BF93CF93EF93FF939CB1F0
:10353000809103019170880F892BC0914603C0953B
:1035400090915103C923C82380934603C0FF05C04F
:10355000E0911002F09111021995C1FF05C0E091B0
:103560001202F09113021995C2FF05C0E0911402F6
:10357000F09115021995C3FF05C0E0911602F09174
:1035800017021995C4FF05C0E0913902F0913A0283
:103590001995C5FF05C0E0911802F091190219951F
:1035A000C6FF05C0E0911A02F0911B021995C7FFF2
:1035B00005C0E0911C02F0911D021995FF91EF9159
:1035C000CF91BF91AF919F918F917F916F915F91BB
:1035D0004F913F912F910F900BBE0F900FBE0F9008
:1035E0001F9018951F920F920FB60F9211240BB6D1
:1035F0000F922F933F934F935F936F937F938F938C
:103600009F93AF93BF93CF93EF93FF9393B1C091E9
:103610004503C095809150038923C82390934503A7
:10362000C4FF05C0E0910002F09101021995C5FFA9
:1036300005C0E0910202F09103021995C6FF05C092
:10364000E0910402F09105021995C7FF05C0E091D1
:103650000602F09107021995C0FF05C0E09108022B
:10366000F09109021995C1FF05C0E0910A02F0919D
:103670000B021995C2FF05C0E0910C02F0910D02FA
:103680001995C3FF05C0E0910E02F0910F02199544
:10369000FF91EF91CF91BF91AF919F918F917F91CA
:1036A0006F915F914F913F912F910F900BBE0F90B3
:1036B0000FBE0F901F9018951F920F920FB60F928A
:1036C00011240BB60F922F923F924F925F926F92FE
:1036D0007F928F929F92AF92BF92CF92DF92EF92A2
:1036E000FF920F931F932F933F934F935F936F938B
:1036F0007F938F939F93AF93BF93EF93FF93CF935A
:10370000DF93CDB7DEB7A397DEBFCDBF8091C502F3
:103710009091C60201969093C6028093C5020E94C2
:1037200046060091410310914203209143033091DA
:103730004403601B710B820B930B603472448F4007
:103740009105A0F440913D0350913E0360913F03E9
:103750007091400383E195E00E94FD0B9B01AC0159
:10376000283E83E038074105510518F420E030E099
:10377000A90120936C0330936D0340936E03509323
:103780006F03211531054105510509F440C060E47E
:1037900072E48FE090E00E94D031A0917A03B09162
:1037A0007B030E94C53160936C0370936D0380931B
:1037B0006E0390936F032091C40321FF12C00E94F7
:1037C000713022E134E14FE15FE30E94D2300E9488
:1037D000E73260936C0370936D0380936E03909354
:1037E0006F0360916C0370916D0380916E039091F3
:1037F0006F0324E630E040E050E00E94D031209397
:103800006C0330936D0340936E0350936F03C0902D
:103810005903D0905A03E0905B03F0905C036091F1
:103820006C0370916D0380916E0390916F030E9401
:103830007130A70196010E94013220E030E040E0A3
:103840005FE30E94D230A70196010E94023260938A
:10385000590370935A0380935B0390935C030E9417
:10386000460600914C0310914D0320914E03309178
:103870004F03601B710B820B930B812C912C540115
:10388000603472448F40910570F440914803509128
:10389000490360914A0370914B0389EF94E00E94C1
:1038A000FD0B4B015C018092620390926303A09236
:1038B0006403B0926503C0907003D0907103E090F0
:1038C0007203F090730381149104A104B10409F40C
:1038D00099C42090FD043090FE04009103051091DE
:1038E0000405F80130E020E060E070E0CB01221533
:1038F000330564F44280538064807580640D751DC7
:10390000861D971D2F5F3F4F3696F1CF9101032CF7
:10391000000C440B550B2C8F3D8F4E8F5F8F0E94F8
:10392000D03129013A01F0E0E0E0188E198E1A8EAC
:103930001B8EE215F305FCF4D80112966D917D9172
:103940008D919C91159764197509860997099B01BA
:10395000AC010E94A033288D398D4A8D5B8D260FD6
:10396000371F481F591F288F398F4A8F5B8F319619
:103970000A5F1F4FDECF4090BC035090BD03712CF7
:10398000612C688D798D8A8D9B8D2C8D3D8D4E8D12
:103990005F8D0E94D0316CE05695479537952795FD
:1039A0006A95D1F72415350546055705A0F5809190
:1039B00078039091790364E670E00E94BC338B0138
:1039C00060E472E48FE090E0A50194010E94D031A0
:1039D000D8010E94C53160936203709363038093A2
:1039E0006403909365030E947130A70196010E94C1
:1039F00001322DEC3CEC4CE45EE30E94D230A70196
:103A000096010E9402326093700370937103809359
:103A100072039093730380915403882371F0809113
:103A20009E0381110AC08EE20E94960561E0892BF7
:103A300009F060E08EE20E94BF0581E40E94290641
:103A4000BC01990F880B990B0E9473306B017C01AC
:103A5000C0921503D0921603E0921703F092180358
:103A600020E030E04CE553E40E94D2304B015C0191
:103A7000A701960160E070EC8FE794E40E940132A8
:103A80009B01AC01C501B4010E946E325B016C0167
:103A9000609182037091830390E080E00E94713016
:103AA0007B018C019B01AC01B501C6010E946C3009
:103AB00087FD14C0609184037091850390E080E0DD
:103AC0000E9471307B018C019B01AC01B501C601E4
:103AD0000E941633181614F0750186012DEC3CEC8B
:103AE00044E251E4B701C8010E94D2309B01AC010D
:103AF00060E070E882EA94E40E9401324B015C01CC
:103B000025E531EC48EA5CE3B701C8010E94D230F8
:103B10009701A8010E94D2309B01AC01C501B401FC
:103B20000E94023220E030E04AE754E40E946E3204
:103B30009B01AC0160E070E080E89FE30E940132ED
:103B40004B015C01C0901103D0901203E09013036D
:103B5000F0901403AC019B0160E070E080E89FE30B
:103B60000E940132A70196010E94013220911D039B
:103B700030911E0340911F03509120030E94D230C8
:103B8000A70196010E9402326C8F7D8F8E8F9F8FCE
:103B900060931103709312038093130390931403A3
:103BA000C0900D03D0900E03E0900F03F09010032F
:103BB000A7019601C501B4010E94013220911903A9
:103BC00030911A0340911B0350911C030E94D23084
:103BD000A70196010E9402326B017C01C0920D0385
:103BE000D0920E03E0920F03F09210030E949E0603
:103BF0000091390310913A0320913B0330913C032B
:103C0000601B710B820B930B613477478B419105DD
:103C100090F00E949E066093390370933A0380935C
:103C20003B0390933C03C092BE02D092BF02E0924D
:103C3000C002F092C10280E40E942906BC01990FE3
:103C4000880B990B0E9473306B017C0120E030E0FF
:103C50004CE553E40E94D2304B015C01A701960170
:103C600060E070EC8FE794E40E9401329B01AC01AC
:103C7000C501B4010E946E3220E030E04AE754E40E
:103C80000E946E320E942333209135023091360219
:103C900040913702509138020E946E32C0902D033D
:103CA000D0902E03E0902F03F09030032FE03FECF4
:103CB0004BE55BE30E9402329B01AC0160E070E0E7
:103CC00080E89FE30E946E3223E333E948E853E43F
:103CD0000E940132A70196010E940132209129031E
:103CE00030912A0340912B0350912C030E94D23033
:103CF000A70196010E94023260932D0370932E0358
:103D000080932F039093300384E40E942906BC0122
:103D1000990F880B990B0E9473306B017C0120E096
:103D200030E04CE553E40E94D2304B015C01A70126
:103D3000960160E070EC8FE794E40E9401329B01F1
:103D4000AC01C501B4010E946E3220E030E04AE7C8
:103D500054E40E946E320E9423332091310230914C
:103D6000320240913302509134020E946E32C09070
:103D70003103D0903203E0903303F09034032FE00E
:103D80003FEC4BE55BE30E9402329B01AC0160E03B
:103D900070E080E89FE30E946E3223E333E948E855
:103DA00053E40E940132A70196010E940132209142
:103DB00025033091260340912703509128030E9448
:103DC000D230A70196010E940232609331037093B2
:103DD0003203809333039093340385E40E942906D1
:103DE000BC01990F880B990B0E9473306B017C0109
:103DF000C0921503D0921603E0921703F0921803B5
:103E000020E030E04AE754E40E94D2304B015C01EC
:103E1000A701960160E070EC8FE794E40E94013204
:103E20009B01AC01C501B4010E946E322DE336EF57
:103E30004AE355E40E946E320E94233320912D0202
:103E400030912E0240912F02509130020E946E322A
:103E5000C0903503D0903603E0903703F0903803DC
:103E60002FE03FEC4BE55BE30E9402329B01AC018B
:103E700060E070E080E89FE30E946E3223E333E964
:103E800048E853E40E940132A70196010E940132E2
:103E90002091210330912203409123035091240368
:103EA0000E94D230A70196010E940232609335032E
:103EB0007093360380933703909338038FE30E9407
:103EC00029068C018FE30E942906080F191F8FE332
:103ED0000E942906080F191F8FE30E942906080F68
:103EE000191F8FE30E942906080F191F8FE30E94F4
:103EF0002906080F191F8FE30E942906800F911FC2
:103F0000813243E0940748F423E0969587952A95FB
:103F1000E1F790935803809357038091C3029091E7
:103F2000C40201969093C4028093C302049709F0DF
:103F3000F9C08091590390915A03A0915B03B0910D
:103F40005C03888F998FAA8FBB8FA0915D03B0917E
:103F50005E03B9A3A8A380916103282E312C84E6C7
:103F60008A9F60018B9FD00C11249601220D331D76
:103F70003BA32AA3688D798D8A8D9B8D0E94E732A1
:103F80006B01F12CE12C0AE0402E512C612C712C9C
:103F9000C701B601A30192010E94D0314B01CA01B1
:103FA000B901A30192010E94D031162FC701B601B9
:103FB00024E630E040E050E00E94D031CA01B9016F
:103FC000A30192010E94D031862FF401E25DFA4FE5
:103FD00091859093330590914805112329F0E12FA5
:103FE000F0E0E25DFA4F918590933205882309F461
:103FF00015C1E62FF0E0E25DFA4F8185809331052F
:104000004AA15BA16A01F12CE12C1AE0412E512C4E
:10401000612C712CC701BA01A30192010E94D03119
:104020004B01CA01B901A30192010E94D031162FA0
:10403000C701B60124E630E040E050E00E94D031F4
:10404000CA01B901A30192010E94D031862FF40167
:10405000E25DFA4F918590933605909137051123D3
:1040600029F0E12FF0E0E25DFA4F9185909335055C
:10407000882309F4D6C0E62FF0E0E25DFA4F81858F
:10408000809334058091340590915005892B80935D
:10409000340580915F039091600328163906E1F0A2
:1040A00088A199A16AE070E00E94BC33FB01FF2760
:1040B000E25DFA4F81858093510598E099838A8368
:1040C00042E0BE016F5F7F4F8EE295E00E94E010FC
:1040D0003092600320925F03C0906603D090670324
:1040E000E0906803F0906903A7019601688D798DCF
:1040F0008A8D9B8D0E9401322AE037ED43E25CE31A
:104100000E94D230A70196010E940232609366039A
:104110007093670380936803909369031092C402BD
:104120001092C302609170037091710380917203C9
:10413000909173030E94E73229E0E0E7F2E0DE01AC
:10414000119601900D922A95E1F7683E53E07507AC
:1041500008F46AC069358BE1780710F068E57BE107
:104160004B01B12CA12CC12CD12C76019401A501BD
:10417000B601C701285E334041095109610971093F
:104180008109910905E00E94C334E0E7AE2EF7E112
:10419000BF2EC12CD12CE12CF12C00E010E00E94AC
:1041A000EE33B22E032F142FB52FF62FE72F7C01FD
:1041B000A2E00E9405354CF442E0B42E00E010E08D
:1041C000B0E0F0E0E0E0E12CF12C2B2D302F412F7E
:1041D0005B2F6F2F7E2FC70103E00E94DC34E22E9D
:1041E000022F132F32E0F32E68019FEFC91AD90A6C
:1041F0008F2D90E0C816D90614F16FEF0E9481123E
:10420000F394F6CFA701960160E070E0CB010E9425
:10421000013220E030E040E05FE3EFCB80914805E1
:10422000EDCE809137052CCFA8EE8A2EB3E09B2EE1
:10423000A12CB12CC12CD12CE12CF12C97CFA3E0D7
:10424000EA0EF12CB5E0BE1540F060E0C7010E9417
:1042500081122FEFE21AF20AF5CF2B2D277030E0F2
:1042600040E050E060E070E080E090E0A1E00E947B
:10427000F934E1E0F0E0EC0FFD1FE20FF31F608185
:10428000C80102960E94811280915603882351F042
:104290006FEF86E090E00E9481126FEF87E090E080
:1042A0000E94811260912C0270E090E080E00E94F8
:1042B00071302C8D3D8D4E8D5F8D0E94D2306B0103
:1042C0007C018091C40382FFC9C02DE831E447E836
:1042D0005EE3C701B6010E94D2306B017C0120E091
:1042E00030E0A9010E946C3087FDD6C020E030E0AC
:1042F00046EC52E4C701B6010E94163318160CF4BE
:10430000CDC0C701B6010E94E732623008F0C0C0DC
:10431000809105018062809305016093530370E0F2
:1043200090E080E00E9471306B017C0160919C0301
:1043300070E090E080E00E9473309B01AC01C70107
:10434000B6010E946E3220E030E048E851E40E945D
:10435000D2300E94E732162F6093C202E090B80379
:10436000F090B903B70190E080E00E9471309B01AA
:10437000AC0160912D0370912E0380912F039091D9
:1043800030030E9401324B015C016091BA037091CD
:10439000BB036E197F0990E080E00E9471309B01A1
:1043A000AC01C501B4010E946E3220E030E048E863
:1043B00051E40E94D2300E94E03200E077FD06C056
:1043C0006231710514F061E170E0062F85E0E9E7E4
:1043D000F2E0DE011F9601900D928A95E1F780913F
:1043E0007E0290917F02A0918002B09181028C8B1D
:1043F0009D8BAE8BBF8B85E0E2E8F2E0DE011A9682
:1044000001900D928A95E1F785E0E7E8F2E0DE01A0
:10441000119601900D928A95E1F7C02ED12CD69479
:10442000C794D694C794E12EE694E694F12C34E038
:10443000E316F1041CF093E0E92EF12C88E0B82E8D
:10444000460147E0840E911C8B2D90E0881699065A
:104450003CF16FEF0E948112B394F6CF20E030E080
:10446000A901C701B6010E946C3087FD15C020E08C
:1044700030E046EC52E4C701B6010E94163318162C
:104480006CF0C701B6010E94E7326A3008F440CFF1
:10449000809105018F7D3FCF60E03ACF63E6F8CF92
:1044A000E02FE370EC0FFD2FF11D0089602F606697
:1044B000C60108960E94811289E08C0DA82EB12CAD
:1044C0005BE05A1540F060E6C5010E9481128FEF53
:1044D000A81AB80AF5CF94E0C916D104D1F06CE15E
:1044E000143020F4FE01E10FF11D64898CE090E0AE
:1044F0000E9481120DE06701ABE0CA0ED11C802F33
:1045000090E0C816D9067CF06FEF0E9481120F5F11
:10451000F6CF602F6C61143048F7FE01E10FF11DFA
:104520006489602BE3CF8DE08E0DC82ED12CB0E1D5
:10453000CB1641F060E0C6010E9481122FEFC21A33
:10454000D20AF5CF8CEF810F8C30A8F5E12FE37004
:10455000EC0FFD2FF11D6385C7010C960E9481129F
:10456000A3960FB6F894DEBF0FBECDBFDF91CF91FB
:10457000FF91EF91BF91AF919F918F917F916F913B
:104580005F914F913F912F911F910F91FF90EF906D
:10459000DF90CF90BF90AF909F908F907F906F9063
:1045A0005F904F903F902F900F900BBE0F900FBEDB
:1045B0000F901F901895103198F2E12FE370EC0FD7
:1045C000FD2FF11D62818FE090E0C8CFCF93DF9384
:1045D000EC01862F92E1E4E5F2E0DE01199601900C
:1045E0000D929A95E1F79FEF9DA390E19EA396E02F
:1045F0009CA320E932E0398328836FA327E028A712
:1046000099A761E00E94ED0561E088A50E94ED0593
:1046100061E089A50E94ED0561E08FA10E94BF05C0
:1046200061E088A50E94BF0560E089A5DF91CF9178
:104630000C94BF05CF93DF93EC01198218821B8283
:104640001A821D821C8261E070E090E080E00E948E
:1046500036360097A1F0998388831B821A822C81B9
:104660003D81232B11F4FC0110821D821C826CEB16
:1046700072E088819981DF91CF910C9434378881E1
:104680009981009711F00E94AD35198218821D8220
:104690001C821B821A82DF91CF910895CF93DF9302
:1046A000E0E5F4E01382128288EE93E0A0E0B0E04F
:1046B00084839583A683B78328E932E031832083FE
:1046C00025EC30E03587248724EC30E037872687D7
:1046D00020EC30E0318B208B21EC30E0338B228BCF
:1046E00022EC30E0358B248B26EC30E0378B268BA8
:1046F000118E128E138E148EEDEEF4E01382128260
:1047000084839583A683B7838AEA92E0918380832A
:10471000C9EFD4E085E090E09D838C838EE190E04A
:104720000E9411359B878A879D878C871F861E86EE
:10473000188A198A1A8A1B8A87E095E09D8B8C8BD0
:104740001E8A1F8A188E198E8BE295E099838883C2
:104750001B821A82C3E1D5E08CE090E09D838C83BC
:1047600088E490E00E9411359B878A879D878C871B
:104770001F861E86188A198A1A8A1B8A81E295E08A
:104780009D8B8C8B1E8A1F8A188E198E83E694E06F
:10479000998388831B821A828BEB95E00E941A23EF
:1047A00081EC95E00E941A2387EC95E00E941A2381
:1047B000EAE9F5E08CE085838AE086838BE08783F5
:1047C00010868DE295E09287818784E0838781E07F
:1047D000848B1182108212828383148269E088E5BF
:1047E00095E00E94E62268E08EE295E00E94E622D3
:1047F00040E853E46DE678E38CE895E00E947508A4
:1048000040E853E46DE678E382E995E00E9475089C
:1048100040E853E46DE678E386E895E00E94750889
:1048200010928205109283051092840510928505DE
:10483000DF91CF910895CF93DF93CDB7DEB7619726
:104840000FB6F894DEBF0FBECDBF789484B58260FA
:1048500084BD84B5816084BD85B5826085BD85B524
:10486000816085BD80916E00816080936E001092A2
:10487000810080918100826080938100809181001D
:1048800081608093810080918000816080938000AE
:104890008091B10084608093B1008091B00081600C
:1048A0008093B0008091910082608093910080910C
:1048B000910081608093910080919000816080934D
:1048C00090008091A10082608093A1008091A1005E
:1048D00081608093A1008091A00081608093A000FE
:1048E000809121018260809321018091210181606A
:1048F000809321018091200181608093200180912B
:104900007A00846080937A0080917A00826080933C
:104910007A0080917A00816080937A0080917A0099
:10492000806880937A001092C10010926C031092FC
:104930006D0310926E0310926F0310926203109237
:10494000630310926403109265031092590310924E
:104950005A0310925B0310925C0310927003109242
:104960007103109272031092730361E089E20E9456
:10497000ED0561E088E20E94ED0561E089E20E94B8
:10498000BF0561E088E20E94BF0564E670E080E058
:1049900090E00E946B060E943A098091DE0390919C
:1049A000DF03009711F00E94AD3586E090E00E9491
:1049B00011358C0188E6D8018C934DEEC42E44E06D
:1049C000D42E1296DC92CE92119713961C921397C6
:1049D00080E290E015969C938E9314971093DF03DA
:1049E0000093DE030E943A09FF24F394F801F38256
:1049F000C8010E944F0B8093C90310920C030E94C0
:104A0000BF0C0E943A09D0924402C092430280E552
:104A1000809345028FEF0E943A0B81117FC1F09283
:104A20000C0380E293E090933E0280933D0224E2E7
:104A3000E22EFF24F39410E000E038ECC32E33E0C4
:104A4000D32E64E773E0C7010E944416E4E7F3E065
:104A500080E091918927CE16DF06D9F79091C8039F
:104A60008913E0C188EC90E00130110539F084E64B
:104A700090E00230110511F48CE291E090933E0237
:104A800080933D0280913D0290913E02803293409E
:104A900041F40E94BF0C0E946A160E946A160E948E
:104AA0006A16E091A10324E0E29FF0011124EC5882
:104AB000FC4F86A997A9A0ADB1AD809366039093F2
:104AC0006703A0936803B09369038091C9038823A7
:104AD00009F45BC0CE0101960E941A0F86E0FE0128
:104AE0003196ACE8B5E001900D928A95E1F780919E
:104AF000B2039091B3031CE3189F7001199FF00C4F
:104B000011248CE895E00E940C08AB01BC014E1901
:104B10005F0961097109CE0101960E94750886E05E
:104B2000FE013196ACE8B5E001900D928A95E1F76F
:104B3000CE0101960E941A0F86E0FE013196A2E98D
:104B4000B5E001900D928A95E1F78091B4039091C0
:104B5000B503189F7001199FF00C112482E995E0AC
:104B60000E940C08AB01BC014E195F096109710973
:104B7000CE0101960E94750886E0FE013196A2E9F9
:104B8000B5E001900D928A95E1F78091A205882306
:104B900009F450C11FB7F89480919905811127C07D
:104BA000EEEBF7E08491E4E0F8E09491E82FF0E098
:104BB000EE0FFF1FE55CF84FA591B491EC91E9234E
:104BC00021F461E085E30E94BF0561E085E30E9476
:104BD000ED058CB580618CBD8CB580648CBD61E0C9
:104BE00084E30E94ED0561E083E30E94ED0580917E
:104BF00099058F5F809399051FBF61E08091A105A2
:104C00000E94ED0561E08091A1050E94BF05109210
:104C1000AB051092AA051092AD051092AC058091DB
:104C2000B0059091B1058151924009F428C1E1E1AC
:104C3000F2E0F093B105E093B0051092B20588E080
:104C40008093B3051092B6051092B5058FEF90E0F2
:104C50009093B8058093B7051092BA051092B905E4
:104C6000E491E63409F033C0E2E1F2E0E491E130AE
:104C700009F4EBC082E090E0E23029F5E3E1F2E0F4
:104C80008491E4E1F2E0E49190E0982F88278E0F80
:104C9000911D9093B6058093B505E5E1F2E084910E
:104CA000E6E1F2E0E49190E0982F88278E0F911DC5
:104CB0009093B8058093B705E7E1F2E0E491E093C3
:104CC000B30587E090E09093BA058093B905C09052
:104CD000B905D090BA05F12CE12C2091B5053091A1
:104CE000B6054091B7055091B80560E042175307EB
:104CF00008F4C3C0F601EF5EFD4F8491681708F415
:104D0000682F90E0B0E0A0E00196A11DB11DC80E93
:104D1000D91EEA1EFB1E2F5F3F4FE8CF84EF91E0C4
:104D200090933E0280933D0290E2C92EDD24D394FD
:104D3000E12CF12C260137013FEF431A530A630A95
:104D4000730A4601570142E0840E911CA11CB11C5C
:104D5000D701C6010396A11DB11D8A879B87AC8729
:104D6000BD871AE021E030E0AE01475F5F4FC70129
:104D7000B6010E946A0E21E030E0AE01485F5F4F4D
:104D8000C301B2010E946A0E21E030E0AE01495F2A
:104D90005F4FC501B4010E946A0E21E030E0AE0110
:104DA0004F5F5F4F6A857B858C859D850E946A0E6B
:104DB0008985843459F48885893441F48F81873416
:104DC00029F48981893411F40C940A30115051F678
:104DD0009FEFD91AE90AF90AA0E2CA16A4E0DA0696
:104DE000E104F10409F0A6CF04E211E088ECE82E1A
:104DF00083E0F82E64E773E0C8010E944416E4E7FC
:104E0000F3E080E091918927EE16FF06D9F79091A3
:104E1000C803891709F43FCE13950432B4E01B0789
:104E200049F739CE0F5F1F4FF3940330110509F096
:104E300008CE28CE61E080919F050E94ED0561E0DB
:104E40008091A0050E94ED05D8CEE3E1F2E0E49167
:104E5000F0E0F093B605E093B505E4E1F2E0E4910B
:104E6000F0E0F093B805E093B705E5E1F2E0E491F6
:104E7000E093B30585E090E026CF6093B4051091F0
:104E8000A50549E0149FC00111240E9411357C0141
:104E90009093A7058093A605812F90E0880F991F16
:104EA0000E9411359093A9058093A805892B71F173
:104EB000EF2861F170E060E083E090E00E94C214AE
:104EC00067E070E081E090E00E94C21467E070E06B
:104ED00082E090E00E94C21470E060E084E090E024
:104EE0000E94C2140E944E1570E060E090E080E0E5
:104EF0000E94C21470E060E08BE090E00E94C21457
:104F000061E070E08AE090E00E94C21470E060E02E
:104F10008AE090E00E94C2140E944E15B0E82B2E49
:104F200020927A051FE3312E3092610506E0402E73
:104F3000409262058BE5582E509263059FE4692EDE
:104F40006092640526E6722E709265053DE6832E1A
:104F5000809266054DE7942E9092670557E0A52E46
:104F6000A09268056FE7B62EB09269057FE6C72E5E
:104F7000C0926A05E7E7DE2ED0926B05FCE7EF2EC4
:104F8000E0926C05A9E3FA2EF0926D050EE5009310
:104F90006E0519E710936F0551E750937005E09186
:104FA0007E05F0E0E85AFA4F80E4818788E595E0D5
:104FB0000E94941162E088E595E00E94351161E05D
:104FC00088E595E00E94101188E595E00E94851122
:104FD00040E070E060E088E595E00E945C1120927E
:104FE000500530923705409238055092390560924D
:104FF0003A0570923B0580923C0590923D05A09247
:105000003E05B0923F05C0924005D0924105E09226
:105010004205F0924305009344051093450591E73E
:1050200090934605E0915405F0E0E25DFA4FA0E46C
:10503000A1878EE295E00E94941162E08EE295E0F5
:105040000E94351162E08EE295E00E9410118EE21E
:1050500095E00E94851140E070E060E08EE295E00E
:105060000E945C1161E088E10E94ED0561E089E148
:105070000E94ED0561E08AE10E94ED058091040146
:10508000806280930401809105018F7D80930501EA
:1050900080910401806180930401809105018F7EDD
:1050A000809305011092560360E087E30E94ED05AE
:1050B00060E088E30E94ED0560E08FE30E94ED056B
:1050C00060E080E40E94ED0560E081E40E94ED056F
:1050D00060E084E40E94ED0560E085E40E94ED0557
:1050E0000E949E066093390370933A0380933B03BA
:1050F00090933C03109258031092570360917C03E5
:1051000070917D0390E080E00E9471304B015C0162
:105110008092350290923602A0923702B092380205
:1051200060917E0370917F0390E080E00E94713077
:105130006A877B878C879D876093310270933202E8
:1051400080933302909334026091800370918103C5
:1051500090E080E00E9471302B013C0140922D02D2
:1051600050922E0260922F0270923002609186035C
:105170007091870390E080E00E9471302AE037ED63
:1051800043E25CE30E94D2306093290370932A03C8
:1051900080932B0390932C03609188037091890373
:1051A00090E080E00E9471302AE037ED43E25CE35A
:1051B0000E94D2302DEC3CEC4CEC5DE30E94D230EE
:1051C000609325037093260380932703909328030D
:1051D00060918A0370918B0390E080E00E947130AF
:1051E0002AE037ED43E25CE30E94D2302DEC3CEC48
:1051F0004CEC5DE30E94D230609321037093220354
:10520000809323039093240360918C0370918D030A
:1052100090E080E00E9471302AE037ED43E25CE3E9
:105220000E94D2306B017C012FE832EC45EF5CE349
:105230000E94D23060931D0370931E0380931F035E
:10524000909320032AE037ED43E25CE3C701B60107
:105250000E94D2306093190370931A0380931B034A
:1052600090931C0380919C0380932C0204E610E031
:1052700080E40E942906BC01990F880B990B0E94BB
:10528000733020911503309116034091170350910C
:1052900018030E94023260931503709316038093E3
:1052A0001703909318030150110911F720E030E023
:1052B00048EC52E40E946E326B017C01C0921503EF
:1052C000D0921603E0921703F092180320E030E02A
:1052D0004CE553E40E94D2306E877F87888B998B90
:1052E000A701960160E070EC8FE794E40E94013220
:1052F0009B01AC016E857F85888999890E946E32F9
:1053000020E030E04AE754E40E946E320E942333EA
:10531000A50194010E946E322FE03FEC4BE55BE368
:105320000E9402329B01AC0160E070E080E89FE3E4
:105330000E946E3223E333E948E853E40E940132CD
:1053400060932D0370932E0380932F03909330036B
:1053500004E610E084E40E942906BC01990F880B42
:10536000990B0E94733020911503309116034091E0
:105370001703509118030E94023260931503709333
:10538000160380931703909318030150110911F726
:1053900020E030E048EC52E40E946E326B017C0168
:1053A000C0921503D0921603E0921703F0921803EF
:1053B00020E030E04CE553E40E94D2304B015C0128
:1053C000A701960160E070EC8FE794E40E9401323F
:1053D0009B01AC01C501B4010E946E3220E030E0B7
:1053E0004AE754E40E946E320E9423332A853B85AB
:1053F0004C855D850E946E322FE03FEC4BE55BE310
:105400000E9402329B01AC0160E070E080E89FE303
:105410000E946E3223E333E948E853E40E940132EC
:10542000609331037093320380933303909334037A
:105430000CE211E081E40E942906BC01990F880B5F
:10544000990B0E94733020911503309116034091FF
:105450001703509118030E94023260931503709352
:10546000160380931703909318030150110911F745
:1054700020E030E046E953E40E946E326B017C018B
:10548000C0921503D0921603E0921703F09218030E
:1054900020E030E04CE553E40E94D2304B015C0147
:1054A000A701960160E070EC8FE794E40E9401325E
:1054B0009B01AC01C501B4010E946E325B016C011D
:1054C000609182037091830390E080E00E947130CC
:1054D0007B018C019B01AC01B501C6010E946C30BF
:1054E00087FD14C0609184037091850390E080E093
:1054F0000E9471307B018C019B01AC01B501C6019A
:105500000E941633181614F0750186012DEC3CEC40
:1055100044E251E4B701C8010E94D2309B01AC01C2
:1055200060E070E882EA94E40E9401324B015C0181
:1055300025E531EC48EA5CE3B701C8010E94D230AE
:105540009701A8010E94D2309B01AC01C501B401B2
:105550000E94023220E030E04AE754E40E946E32BA
:105560009B01AC0160E070E080E89FE30E940132A3
:105570006B017C01AC019B0160E070E080E89FE37F
:105580000E940132609311037093120380931303FE
:1055900090931403C0920D03D0920E03E0920F0378
:1055A000F092100304E610E085E40E942906BC0195
:1055B000990F880B990B0E9473302091150330913D
:1055C000160340911703509118030E940232609312
:1055D00015037093160380931703909318030150DB
:1055E000110911F720E030E048EC52E40E946E32DD
:1055F0006B017C01C0921503D0921603E092170351
:10560000F092180320E030E04AE754E40E94D230E0
:105610004B015C01A701960160E070EC8FE794E418
:105620000E9401329B01AC01C501B4010E946E329F
:105630002DE336EF4AE355E40E946E320E94233395
:10564000A30192010E946E322FE03FEC4BE55BE339
:105650000E940232609335037093360380933703C0
:105660009093380380910401877F809304018FE732
:105670009CE090933A0280933902809151038061BB
:10568000809351039CB1809103019170880F892B05
:105690008093460380916C00806180936C008091C0
:1056A000680082608093680078940E944606609348
:1056B00041037093420380934303909344031092F9
:1056C0003D0310923E0310923F031092400340E0CE
:1056D00050E0BA0183E195E00E94FD0B40E050E00C
:1056E000BA0183E195E00E94FD0B40E050E0BA0171
:1056F00083E195E00E94FD0B40E050E0BA0183E1B8
:1057000095E00E94FD0B40E050E0BA0183E195E096
:105710000E94FD0B62E082E40E94ED058AEA96E0B9
:1057200090933C0280933B0280915203806180936E
:105730005203809106018093470380916D00806140
:1057400080936D00809168008460809368007894F5
:105750000E94460660934C0370934D0380934E0362
:1057600090934F03109248031092490310924A03FA
:1057700010924B0340E050E0BA0189EF94E00E94A0
:10578000FD0B40E050E0BA0189EF94E00E94FD0B70
:1057900040E050E0BA0189EF94E00E94FD0B40E048
:1057A00050E0BA0189EF94E00E94FD0B40E050E028
:1057B000BA0189EF94E00E94FD0BE0916004F09142
:1057C000610482E08083E0915C04F0915D041082CA
:1057D000E0915E04F0915F048FEC80831092680486
:1057E000E0916404F091650486E08083E0916204B6
:1057F000F0916304808180618083E0916204F09184
:105800006304808188608083E0916204F091630486
:10581000808180688083E0916204F09163048081DC
:105820008F7D80830E949E061092540361E08EE279
:105830000E94ED0560E083E40E94ED0560E08FE0EA
:105840000E94ED0560E08EE00E94ED0560E087E1DA
:105850000E94ED050E949E0660E087E30E94ED0530
:1058600060E088E30E94ED05809104018B7F8093C6
:10587000040161E086E10E94ED0560E086E10E949E
:10588000BF050E949E060E949E066093CA03709305
:10589000CB038093CC039093CD03F8941092A00097
:1058A0001092A1001092A5001092A40081EA97E046
:1058B0009093A9008093A8008091A10088608093B4
:1058C000A1008091A10085608093A1008091720069
:1058D000826080937200789433243394FCE34F2EDB
:1058E000512C612C712CA6E02A2E40917C054F5F33
:1058F0006AE575E088E595E00E94E0104091520568
:105900004F5F60E375E08EE295E00E94E0100E9438
:1059100048140E949E06C090CA03D090CB03E0902A
:10592000CC03F090CD030E949E066C197D098E0970
:105930009F09693E73408105910508F4E0C20E9409
:105940009E066093CA037093CB038093CC0390931D
:10595000CD038091C903882309F4ADC1CE0101961E
:105960000E941A0F86E0FE013196A6E8B5E001908C
:105970000D928A95E1F7E0908905F12CF0924202B0
:10598000E0924102D0908A058D2D90E090934002E4
:1059900080933F020091A103029D800111240457CE
:1059A0001A4F86E895E00E940C084B015C01C80183
:1059B0000E940C08A5019401261B370B480B590BBC
:1059C000CA01B901609382057093830580938405B1
:1059D000909385050091A10310E0000F111F0E5454
:1059E0001C4FA30192010E94A631D8012D933C9334
:1059F0008091610390E09093600380935F03F09245
:105A00005E03E0925D03D0926103209170033091B8
:105A1000710340917203509173032A873B874C872F
:105A20005D8720E030E048E453E46A857B858C851F
:105A30009D850E94163318169CF48091C0039091A6
:105A4000C103A091C203B091C3030196A11DB11D72
:105A50008093C0039093C103A093C203B093C30388
:105A600080916C0390916D03A0916E03B0916F03D0
:105A700040918E0350918F03609190037091910338
:105A8000480F591F6A1F7B1F40938E0350938F034B
:105A90006093900370939103E091A10334E0E39F3E
:105AA000F0011124EC58FC4F468D578D60A171A177
:105AB000840F951FA61FB71F868F978FA0A3B1A332
:105AC0000E94250E20E030E04AE754E40E946E3246
:105AD00020E030E0A9010E946C3087FFFDC0C12C9E
