:100000000C9489010C94BA010C94BA010C94BA01B5
:100010000C94BA010C94BA010C94BA010C94BA0174
:100020000C94BA010C942C150C94BD140C9452141D
:100030000C94BA010C94BA010C94BA010C94BA0154
:100040000C94BA010C94BA010C94BA010C94BA0144
:100050000C94BA010C94BA010C94BA010C94841259
:100060000C94BA010C94F8120C94CE120C94BA01B0
:100070000C94BA010C94BA010C94BA010C94BA0114
:100080000C94BA010C94BA010C94BA010C94BA0104
:100090000C94BA010C94BA010C94BA010C942E136E
:1000A0000C94BA010C94BA010C9496150C94BA01F4
:1000B0000C94BA010C94BA010C94BA010C94BA01D4
:1000C0000C94BA010C94BA010C94BA010C94BA01C4
:1000D0000C94BA010C94BA010C94BA010C94BA01B4
:1000E0000C94BA0108000000BE922449123EABAA4B
:1000F000AA2ABECDCCCC4C3E00000080BEABAAAA42
:10010000AA3E00000000BF000000803F0000000089
:1001100000084178D3BB4387D1133D190E3CC3BDC2
:100120004282AD2B3E68EC8276BED98FE1A93E4C6F
:1001300080EFFFBE01C4FF7F3F00000000000C9471
:10014000331C0C94BA020C9477040C94B5070C94ED
:10015000D1040C948B040C94F1020C94D7070C94EA
:1001600091020C9468040C94E3020C94B0020C9479
:10017000DE070C946A2E0C94B4070C941E050C94A4
:10018000F5020C94C2020C94EB020C94C4070C947C
:100190000B080C94D9020C943A040C94BC010C94F6
:1001A000A52A0C943B040C94DD020C94C5020C941B
:1001B000BC090C94BE020C9490020C94D5020C94D1
:1001C0000D040C94E7020C9499040C94CF020C9447
:1001D00084020C94490B0C94F0020C94B6020C941B
:1001E000CB021F1C1F1E1F1E1F1F1E1F1E000021D3
:1001F00000240027002A002D0030003300010100F8
:1002000000040107010A0100002200250028002B3C
:10021000002E003100340002010000050108010B2E
:1002200001000020002300260029002C002F0032AE
:10023000000001000003010601090105050505078D
:100240000508080808020202020A0A080804040451
:10025000040101010101010101030303030303037D
:1002600003040707070C0C0C0C0C0C0C0C0202020C
:100270000206060606060606060B0B0B0B0B0B0BFF
:100280000B0102102020080810204010204080029E
:1002900001020108040201010204081020408080CC
:1002A0004020100804020180040201804020100850
:1002B0000402010804020101020408102040800128
:1002C0000204081020408000000A0B02090C0D0EE9
:1002D0000807030401000000000000000000000007
:1002E000000000000000000000000000000000000E
:1002F00000000012111000000000000000000000CB
:100300000000000000000000000000000000331C9E
:10031000A52A11241FBECFEFD1E2DEBFCDBF00E082
:100320000CBF12E0A0E0B2E0EAE1F3E600E00BBFB0
:1003300002C007900D92A83CB107D9F726E0A8ECBF
:10034000B2E001C01D92A934B207E1F711E0C8E89C
:10035000D1E000E006C021970109802FFE010E9434
:10036000292EC738D10780E00807A9F70E94E81CAA
:100370000C947B310C9400002F923F924F925F922D
:100380006F927F928F929F92AF92BF92CF92DF92A5
:10039000EF92FF920F931F93CF93DF93FC014115D0
:1003A00051056105710521F441E050E060E070E025
:1003B0008485958506969587848722853385E48094
:1003C000F580821B930B95958795CBEADAEA8C9F93
:1003D000D0018D9FB00D9C9FB00D1124AE15BF05AF
:1003E00014F035872487C485D5854A835B836C8365
:1003F0007D83088119812F0124E1420E511C8489DB
:100400009589C817D90711F4158B048B84899589B0
:100410001201712C612C6F01AEE0CA0ED11C6E145A
:100420007F040CF053C0DC01AD90BC901197CA154D
:10043000DB0511F40D931C93DC0112968D909D90B9
:10044000AD90BC90159784169506A606B70658F48D
:10045000D2014D915C91119759834883CD93DC93E0
:1004600040E050E0BA01D1012D903C90C816D90669
:1004700069F1DC014D905C90D201AD90BC90119778
:10048000CA15DB0511F40D931C93D20112968D90C1
:100490009D90AD90BC90159784169506A606B7065C
:1004A00058F4DC014D915C91119759834883CD93A9
:1004B000DC9340E050E0BA01C414D50439F0D20115
:1004C0008D919C91BFEF6B1A7B0AA9CFD101129637
:1004D0006D917D918D919C9115976683778380872F
:1004E0009187DF91CF911F910F91FF90EF90DF9057
:1004F000CF90BF90AF909F908F907F906F905F90C4
:100500004F903F902F9008950C94BC0191E09093F0
:10051000E303809305041092E40310920604089507
:10052000089508958150823108F05AC0E82FF0E014
:100530008827E256FD4F8F4F0C94292EBE02C2022F
:10054000B002B602BA02F002C502CB02CF02D50257
:10055000D902DD02E302E702F002EB02F102F5024A
:10056000809180008F778093800008958091800033
:100570008F7DF9CF80918000877FF5CF84B58F770D
:1005800084BD089584B58F7DFBCF8091B0008F77B7
:100590008093B00008958091B0008F7DF9CF809155
:1005A00090008F77809390000895809190008F7DC8
:1005B000F9CF80919000877FF5CF8091A0008F7751
:1005C0008093A00008958091A0008F7DF9CF809145
:1005D000A000877FF5CF809120018F778093200145
:1005E0000895809120018F7DF9CF80912001877F30
:1005F000F5CFCF93DF93282F30E0F901E953FD4F7A
:100600008491F901EF57FD4FD491F901E55CFD4F5D
:10061000C491CC23A1F081110E949202EC2FF0E052
:10062000EE0FFF1FEF5DFD4FA591B491EC91ED230F
:1006300081E090E009F480E0DF91CF91089580E0BF
:1006400090E0FACF1F93CF93DF93282F30E0F9018A
:10065000E953FD4F8491F901EF57FD4FD491F90112
:10066000E55CFD4FC491CC23A9F0162F81110E94A7
:100670009202EC2FF0E0EE0FFF1FE95FFD4FA59116
:10068000B4918FB7F894EC91111108C0D095DE2386
:10069000DC938FBFDF91CF911F910895DE2BF8CFB0
:1006A000CF93DF9390E0FC01EF57FD4F2491855CE1
:1006B0009D4FFC0184918823C9F090E0880F991F19
:1006C000FC01E351FE4FA591B491FC01E95FFD4FA0
:1006D000C591D49161110DC09FB7F8948C9120956C
:1006E00082238C938881282328839FBFDF91CF9119
:1006F0000895623051F49FB7F8943C91822F809511
:1007000083238C93E8812E2BEFCF8FB7F894EC9155
:100710002E2B2C938FBFEACF863308F0865320917F
:100720007B00982F9870277F922B90937B00877087
:10073000806480937C0080917A00806480937A004A
:1007400080917A0086FDFCCF8091780090917900AD
:1007500008953FB7F8948091860390918703A09104
:100760008803B091890326B5A89B05C02F3F19F0D7
:100770000196A11DB11D3FBFBA2FA92F982F882721
:10078000BC01CD01620F711D811D911D42E0660FFC
:10079000771F881F991F4A95D1F708958F929F92CE
:1007A000AF92BF92CF92DF92EF92FF926B017C01EA
:1007B0000E94A9034B015C01C114D104E104F104BE
:1007C000B9F00E94A903681979098A099B09683E52
:1007D00073408105910580F321E0C21AD108E10838
:1007E000F10888EE880E83E0981EA11CB11CE4CFAE
:1007F000FF90EF90DF90CF90BF90AF909F908F9041
:1008000008952FB7F89460918203709183038091CB
:100810008403909185032FBF08950F931F930E9427
:10082000A90300915603109157032091580330916A
:100830005903DC01CB01801B910BA20BB30B893B4D
:100840002BE09207A105B10590F08093520390939D
:100850005303A0935403B09355030E94A9036093DC
:1008600056037093570380935803909359031F9135
:100870000F9108950895AF92BF92CF92DF92EF92B9
:10088000FF920F931F93CF93DF936C017B018B013A
:10089000040F151FEB015E01AE18BF08C017D1078A
:1008A00059F06991D601ED91FC910190F081E02D14
:1008B000C6011995892B79F7C501DF91CF911F9159
:1008C0000F91FF90EF90DF90CF90BF90AF90089581
:1008D000FC01538D448D252F30E0842F90E0821B46
:1008E000930B541710F0CF96089501970895FC01CB
:1008F000918D828D981761F0A28DAE0FBF2FB11D23
:100900005D968C91928D9F5F9F73928F90E008957A
:100910008FEF9FEF0895FC01918D828D981731F034
:10092000828DE80FF11D858D90E008958FEF9FEF88
:100930000895FC01918D228D892F90E0805C9F4F5E
:10094000821B91098F739927089583E594E00E9493
:10095000990421E0892B09F420E0822F0895FC01FD
:10096000A48DA80FB92FB11DA35ABF4F2C91848D10
:1009700090E001968F739927848FA689B7892C936D
:10098000A089B1898C91837080648C93938D848DC0
:10099000981306C00288F389E02D80818F7D8083C3
:1009A0000895EF92FF920F931F93CF93DF93EC0183
:1009B00081E0888F9B8D8C8D98131AC0E889F98906
:1009C000808185FF15C09FB7F894EE89FF89608309
:1009D000E889F98980818370806480839FBF81E08A
:1009E00090E0DF91CF911F910F91FF90EF900895CC
:1009F000F62E0B8D10E00F5F1F4F0F731127E02EA7
:100A00008C8D8E110CC00FB607FCFACFE889F989DE
:100A1000808185FFF5CFCE010E94AF04F1CFEB8D31
:100A2000EC0FFD2FF11DE35AFF4FF0829FB7F894B2
:100A30000B8FEA89FB8980818062CFCFCF93DF93D0
:100A4000EC01888D8823B9F0AA89BB89E889F989E6
:100A50008C9185FD03C0808186FD0DC00FB607FC1B
:100A6000F7CF8C9185FFF2CF808185FFEDCFCE014E
:100A70000E94AF04E9CFDF91CF91089580E090E02C
:100A8000892B29F00E94A50481110E94000080E0BA
:100A900090E0892B49F080E090E0892B29F00E94BA
:100AA000000081110E94000080E090E0892B49F055
:100AB00080E090E0892B29F00E94000081110E94C3
:100AC000000080E090E0892B49F080E090E0892BE5
:100AD00029F00E94000081110C94000008952091DB
:100AE000F202260F3327331F21323105ECF4209117
:100AF0004D04FC0190E080E0243069F082E008952C
:100B0000A091F2022191AC014E525D4FA40FB52F7E
:100B1000B11D2C930196861798F38091F202680F0D
:100B20006093F20280E0089581E0089510924D04F0
:100B300081E080932C041092270461E084E10E94FC
:100B4000220361E085E10E942203E9EBF0E080816D
:100B50008E7F808380818D7F808388E48093B8003E
:100B600085E48093BC0008951092E0031092DF03A7
:100B70001092E403109206040E94960580E992E028
:100B800090938D0380938C0381E992E090938B0383
:100B900080938A030895CF93DF9391E09093D102DD
:100BA0008823B9F0C091B800D091BA008091BC0000
:100BB0008A7B8093BC0060E084E10E94220360E0B5
:100BC00085E10E9422030E949605D093BA00C0934B
:100BD000B800DF91CF9108958F929F92AF92BF920C
:100BE000CF92DF92EF92FF920F931F93CF93DF93F9
:100BF000D82FC62F142F613208F09CC00E94A90381
:100C00006B017C0180914D0481116FC081E0809364
:100C10004D0410932C049FEF90932B0410922A0400
:100C20009C0F909329048093280480912804DD0F61
:100C3000D82BD093280480912704813009F07CC000
:100C4000109227040E94A9036B017C018091280463
:100C50008093BB0080914F0490915004A091510467
:100C6000B0915204892B8A2B8B2BA1F00E94A903EF
:100C700000914F041091500420915104309152047E
:100C80006C197D098E099F09061717072807390770
:100C900008F44CC08091BC0083FDD8CF85EC8093D4
:100CA000BC000E94A9036B017C0180914D0481303E
:100CB00009F444C080912A048C1710F4C0912A04CE
:100CC000E7E0F4E0ADE2B4E080E08C1359C08C2F93
:100CD000DF91CF911F910F91FF90EF90DF90CF9018
:100CE000BF90AF909F908F90089580914F04909106
:100CF0005004A0915104B0915204892B8A2B8B2B64
:100D000009F480CF0E94A90380904F049090500472
:100D1000A0905104B09052046C197D098E099F096E
:100D200086169706A806B90608F06CCF80914E0487
:100D30000E94CB05C0E0CBCF85EEB1CF80914F04B0
:100D400090915004A0915104B0915204892B8A2BA8
:100D50008B2B09F4AACF0E94A90300914F04109194
:100D6000500420915104309152046C197D098E0970
:100D70009F09061717072807390708F096CFD6CF1F
:100D800091919D938F5FA1CF8F929F92AF92BF92CF
:100D9000CF92DF92EF92FF920F931F93CF93DF9347
:100DA000D0910604D13208F0D7C0182FC0910504A5
:100DB0000E94A9036B017C0180914D0481116BC0DD
:100DC00082E080934D0410932C048FEF80932B04CA
:100DD00010922A04D0932904A5EEB3E0E7E0F4E0F2
:100DE00080E0D81391C01092280480912804CC0F81
:100DF000C82BC093280480912704813009F088C053
:100E0000109227040E94A9036B017C0180912804A1
:100E10008093BB0080914F0490915004A0915104A5
:100E2000B0915204892B8A2B8B2BA1F00E94A9032D
:100E300000914F04109150042091510430915204BC
:100E40006C197D098E099F090617170728073907AE
:100E500008F442C08091BC0083FDD8CF85EC80931C
:100E6000BC000E94A9036B017C0180914D0482307B
:100E700009F450C080912B048F3F09F46FC080911A
:100E80002B04803209F46CC080912B04803309F468
:100E900069C084E026C080914F0490915004A091D5
:100EA0005104B0915204892B8A2B8B2B09F484CFE7
:100EB0000E94A90380904F0490905004A090510488
:100EC000B09052046C197D098E099F098616970609
:100ED000A806B90608F070CF80914E040E94CB0599
:100EE00085E01092E403109206041092E303DF9170
:100EF000CF911F910F91FF90EF90DF90CF90BF9017
:100F0000AF909F908F9008959D9191938F5F69CF3F
:100F100085EEA5CF80914F0490915004A09151048B
:100F2000B0915204892B8A2B8B2B09F49ECF0E94FF
:100F3000A90300914F041091500420915104309165
:100F400052046C197D098E099F0906171707280797
:100F5000390708F08ACFC0CF81E0C3CF80E0C1CF8E
:100F600082E0BFCF83E0BDCF0895E091E0038091A0
:100F7000DF03E81730F4F0E0E35DFB4F808190E0A1
:100F800008958FEF9FEF08959091E0038091DF0324
:100F90002FEF3FEF981748F4E92FF0E0E35DFB4FA8
:100FA000208130E09F5F9093E003C9010895809114
:100FB000DF039091E003891B990B0895CF92DF9294
:100FC000EF92FF920F931F93CF93DF937C01CB019E
:100FD0008A012091E303222389F0EB016B01C40E07
:100FE000D51ECC15DD0569F06991D701ED91FC9115
:100FF0000190F081E02DC7011995F3CF642F0E9475
:101000006F05C801DF91CF911F910F91FF90EF9075
:10101000DF90CF900895CF93DF931F92CDB7DEB7C7
:1010200069832091E3032223F9F020910604203202
:1010300058F021E030E0FC013383228390E080E02F
:101040000F90DF91CF9108958091E403E82FF0E0B5
:10105000EB51FC4F998190838F5F8093E4038093E1
:10106000060481E090E0ECCF61E0CE0101960E94A1
:101070006F05F7CF682F86E395E00C940B0881E0AD
:101080000C94C4068F3F11F4809143020E948602A3
:1010900080914102909142020E943F0891E08111AB
:1010A00090E0892F08952F923F924F925F926F9216
:1010B0007F928F929F92AF92BF92CF92DF92EF92E8
:1010C000FF920F931F93CF93DF93CDB7DEB72C978B
:1010D0000FB6F894DEBF0FBECDBF4B015C015A873F
:1010E000498719018091440290914502A0914602DE
:1010F000B0914702B501A401420F531F611D711D3C
:10110000481759076A077B0718F01C012818390887
:1011100020914802309149023A8329832F313105C9
:1011200024F08EE190E09A8389831C861B86AB8530
:10113000BC85A215B30508F0E7C081010A1B1B0B93
:10114000E981FA81E017F1070CF48F0102301105F3
:101150000CF444C020914802309149023C832B8317
:101160002901712C612C750164018B859C85C80E49
:10117000D91EE11CF11CC701B601A3010E94152C68
:101180002D833E834F83588791E0C91AD108E10827
:10119000F108B801012E000C880B990B6C0D7D1D18
:1011A0008E1D9F1DA30192010E94152CAD81BE8151
:1011B000A217B30798F42D01BFEF4B1A5B0AEB811E
:1011C000FC814E9E80014F9E100D5E9E100D1124DD
:1011D0008B859C85880D991D081B190BF090430287
:1011E0008091440290914502A0914602B09147023D
:1011F0000097A140B10570F0D501C4012B853C8555
:10120000820F931FA11DB11D0097A140B10510F0E1
:101210006894F2F880914B02882381F08FEFF812E6
:101220000BC0809143020E944208811107C08BE8E5
:1012300091E00197F1F7EECF8F2DF5CF8F2D0E9422
:1012400086028091440290914502A0914602B0919D
:10125000470281309840A105B105C0F0A09141023C
:10126000B0914202B501A4012B853C85420F531F6A
:10127000611D711D9927872F762F652FED91FC91A8
:1012800011970190F081E02DCD01199580914102D7
:1012900090914202DC01ED91FC910190F081E02DF2
:1012A0006B85680D1995D12CE984FA84EB85FC8552
:1012B000EE0EFF1E8091410290914202AD2DB0E0F2
:1012C000A017B1076CF4AE0DBF1DFC012081318168
:1012D000F901208131816C91F9011995D394EACFFC
:1012E0000E943F082B853C85200F311F3C872B87B0
:1012F00080914B0281111BCF60914A0270E090E017
:1013000080E00E94CE0313CF2C960FB6F894DEBF78
:101310000FBECDBFDF91CF911F910F91FF90EF9046
:10132000DF90CF90BF90AF909F908F907F906F9005
:101330005F904F903F902F900895CF93DF938091CF
:1013400042050E94860280EE90E00E943A0890E0FA
:1013500080E00E943A08CCECD5E0699186E395E004
:101360000E940B0885E0C43FD807B9F786E395E0F3
:10137000DF91CF910C943F0890E080E00895CF93E7
:10138000DF93EC018B81882371F088810E948602B3
:1013900089819A810E943F0891E0811190E0892F14
:1013A000DF91CF9108950E94B40581E08B83CE0137
:1013B0000E94BF09982F8111E8CFF1CFEF92FF92E1
:1013C0000F931F93CF93DF93EC0169813881432FF3
:1013D00050E02A81822F90E0E2EEF1E021E0261732
:1013E00030F47491870F911D2F5F3196F8CF6330E1
:1013F00018F0337009F401966DE671E0469F900194
:10140000479F300D569F300D1124215031094D5FFB
:101410005F4F5695479556954795240F351F280FD2
:10142000391FA8E1B0E00E94372C2B817B018C0191
:10143000E20EF11C011D111DA8019701ACE3B0E003
:101440000E940A2C2C817B018C01E20EF11C011DF3
:10145000111DA80197010E940A2CAB01BC019D81BE
:10146000892F90E0B0E0A0E080589C4BA249B74C97
:101470008A019B01080F191F2A1F3B1FC901B801D0
:10148000DF91CF911F910F91FF90EF9008958F9270
:101490009F92AF92BF92CF92DF92EF92FF92CF9343
:1014A000DF93EC016A017B0180E8C81A83E4D80A63
:1014B0008DE6E80A88E3F80A8CE3882E912CA12CAB
:1014C000B12CC701B601A50194010E94152C6D83B2
:1014D000CA01B901A50194010E94152C6C83C701B2
:1014E000B60120E13EE040E050E00E94152CCA0128
:1014F000B90128E130E040E050E00E94152C6B83F8
:10150000C701B60120E831E541E050E00E94152C0A
:10151000188263E97EEF8881982F937041E050E054
:1015200011F050E040E0FA01E359FE4F2E173F075B
:1015300040F0FB01E41BF50B2E0F3F1F8F5F8883EC
:10154000EACF81E0898389818C30A0F4482F415013
:10155000550BFA01EE51FE4FE491911103C0823018
:1015600009F4EF5FF0E02E173F0720F02E1B3F0B32
:101570008F5FE8CF2F5F2A83DF91CF91FF90EF90AD
:10158000DF90CF90BF90AF909F908F900895CF93B2
:10159000DF93EC012A813B81D901B595A795A80F6E
:1015A000B91FE881F98120FF08C08D919C911197A6
:1015B000E80FF91F0190F081E02DCD01DF91CF916F
:1015C0001994CF92DF92EF92FF920F931F93DC0159
:1015D0001C962D913C911D972A5F3F4F1D963C9381
:1015E0002E931C971A96ED91FC911B972E1B3F0B87
:1015F0002D30310524F01D96FC93EE931C971C961C
:101600000D90BC91A02D12964D935D936D937C939C
:101610001597C684D784E088F188008511852285D6
:1016200033856281738184819581061717072807A6
:101630003907D0F0C616D706E806F90650F0C701FC
:10164000B6010617170728073907D0F4C901B801F2
:1016500017C0601771078207930790F0C016D10674
:10166000E206F30630F40CC0C016D106E206F3061B
:1016700068F3C616D706E806F90610F4C701B601E6
:101680001F910F91FF90EF90DF90CF9008950C94F1
:10169000E10ACF92DF92EF92FF920E94A903C090DD
:1016A0004B03D0904C03E0904D03F0904E036C1927
:1016B0007D098E099F096338764081059105C0F048
:1016C0000E94A9036C197D098E099F096093470345
:1016D000709348038093490390934A030E94A9039F
:1016E00060934B0370934C0380934D0390934E0390
:1016F000FF90EF90DF90CF900895AF92BF92CF927E
:10170000DF92EF92FF920F931F93CF93DF9300D05E
:1017100000D000D01F92CDB7DEB78C018AE0E2E5A1
:10172000F2E0DE01119601900D928A95E1F7C80171
:1017300068EE73E00E94152ECB012AE0C22ED12C58
:10174000B6010E94152E5C018091E0058F70F82E85
:10175000E091DF058E2F8F70E82EF091DE05F87F87
:101760002091E1054091E20517FD71C0C80164E6D2
:1017700070E00E94152ECB01B6010E94152EA1E04B
:10178000B0E0AC0FBD1FA80FB91F5C91652F67704B
:10179000507FF52AA114B10409F452C0A1E0B0E0D1
:1017A000AC0FBD1FAA0DBB1D3C91932F9770F92B59
:1017B000F093DE05307F3E29387F362B3093DF05EE
:1017C0008AE0C82ED12CC801B6010E94152EFC015A
:1017D000CB01B6010E94152EA1E0B0E0AC0FBD1FF9
:1017E000A80FB91F3C91632F67709F2D987FF92E2A
:1017F000F62AF092E00581E090E08C0F9D1FE80F43
:10180000F91F8081307F2870232B982F9770292B08
:101810002093E1054F70807F842B8093E2052A9608
:101820000FB6F894DEBF0FBECDBFDF91CF911F91F1
:101830000F91FF90EF90DF90CF90BF90AF90089501
:10184000F093DE05E870E62BE093DF05B9CFAB2817
:1018500009F467C0C80168E17CEF0E94152ECB0136
:10186000B6010E94152EA1E0B0E0AC0FBD1FA80F7D
:10187000B91F3C91832F8770F82BF093DE05C801C8
:101880006CE97FEF0E94152ECB01B6010E94152E48
:10189000E1E0F0E0EC0FFD1FE80FF91F9081307FD1
:1018A0003E29387F892F8770382B3093DF05907F52
:1018B0009F299093E005C80166EF7FEF0E94152EE7
:1018C000CB01EAE0F0E0BF010E94152EA1E0B0E0FC
:1018D000AC0FBD1FA80FB91F3C918091E005887F18
:1018E000932F9770892B8093E00588279927801B79
:1018F000910BBF010E94152EE1E0F0E0EC0FFD1FFF
:10190000E80FF91F8081307F2870232B982F977064
:10191000292B2093E1054F70807F482B4093E205EF
:101920007ECFE870C80164E670E00E94152ECB01FE
:10193000B6010E94152E892BE9F0F460F093DE05C4
:10194000C8016CE97FEF0E94152ECB01B6010E9401
:10195000152EA1E0B0E0AC0FBD1FA80FB91F8C91F0
:10196000382F3770E32BE093DF05807F8F2980933A
:10197000E005A1CFF093DE05E460E093DF05F0928F
:10198000E00599CF1F93CF93DF9300D000D000D014
:101990001F92CDB7DEB7162F9AE0E2E5F2E0DE0146
:1019A000119601900D929A95E1F72AE0622F0E941C
:1019B000F52DE92F0E94F52D3091DC053F70409107
:1019C000DB05487F8091EC058F705091EB05587FC7
:1019D00061E070E06C0F7D1F6E0F711DFB0199239C
:1019E00009F455C0A1E0B0E0AC0FBD1FA90FB11DB7
:1019F0002C91922F9770592B5093EB05207F282B19
:101A00002093EC059081892F8770482B4093DB054C
:101A1000907F892F832B8093DC052AE0812F622F12
:101A20000E94F52DE92F0E94F52DA1E0B0E0AC0F4A
:101A3000BD1FA90FB11D2C919091DC05987F822FBD
:101A40008770982B9093DC0581E090E08C0F9D1FB0
:101A50008E0F911DFC0190818091DD05207F8870A3
:101A6000822B292F2770822B8093DD058091DE0544
:101A70008F70907F892B8093DE052A960FB6F8949D
:101A8000DEBF0FBECDBFDF91CF911F910895509360
:101A9000EB058093EC058081982F9770492B40933C
:101AA000DB05807FB7CF9091E305882321F0986014
:101AB0009093E3050895977FFBCF9091E4058823E9
:101AC00021F098609093E4050895977FFBCFEEE8AE
:101AD000F3E080E09191892793E0E23EF907D1F7A6
:101AE0008093D4030895CF92DF92EF92FF92CF9329
:101AF000DF93C4E6D0E08BE30E948C03BC01990F16
:101B0000880B990B0E94B82A9B01AC01C701B60152
:101B10000E94472C6B017C01219769F720E030E09F
:101B200048EC52E40E94B32C20E030E74DE956E443
:101B30000E94172B20E030EC4FE754E40E94B32CB6
:101B400020E030E040EA50E40E94172B9B01AC01FA
:101B500060E876E885EA97E40E94462CDF91CF9111
:101B6000FF90EF90DF90CF9008952F923F924F9289
:101B70005F926F927F928F929F92AF92BF92CF921D
:101B8000DF92EF92FF920F931F93CF93DF932B017E
:101B90003C015A014901D0E0C0E09BE8292E3324E2
:101BA000339484010C1B1D0B0132110510F000E26F
:101BB00010E0F090430280914B02882369F02FEFF0
:101BC00080914302F2128F2D0E944208811104C0BD
:101BD000C1010197F1F7EFCF8F2D0E94860280910E
:101BE000440290914502A0914602B0914702813093
:101BF0009840A105B105B0F0A0914102B091420218
:101C0000B301A2014C0F5D1F611D711D9927872F24
:101C1000762F652FED91FC9111970190F081E02DC9
:101C2000CD0119958091410290914202DC01ED9124
:101C3000FC910190F081E02D6C2F640D199580913D
:101C40004102909142020E943F0841E0602F8F2D97
:101C50000E94EC051092E0038093DF036501CC0E37
:101C6000DD1E7601C7018C199D098017910778F454
:101C70008091410290914202DC01ED91FC9102843D
:101C8000F385E02D1995F70181937F01EBCFC00F0C
:101C9000D11FC815D90508F484CFDF91CF911F91CA
:101CA0000F91FF90EF90DF90CF90BF90AF909F90FB
:101CB0008F907F906F905F904F903F902F900895FE
:101CC0004F925F926F927F928F929F92AF92BF924C
:101CD000CF92DF92EF92FF921F93CF93DF9300D0CA
:101CE00000D01F921F92CDB7DEB780E2C82ED12C54
:101CF000E12CF12C260137018FEF481A580A680AA7
:101D0000780A4601570192E0890E911CA11CB11C72
:101D1000D701C6010396A11DB11D8D839E83AF839C
:101D2000B8871AE021E030E0AE014F5F5F4FC70196
:101D3000B6010E94B50D21E030E0AE014E5F5F4F6D
:101D4000C301B2010E94B50D21E030E0AE014D5F4C
:101D50005F4FC501B4010E94B50D21E030E0AE0136
:101D60004C5F5F4F6D817E818F8198850E94B50D9C
:101D70008981843449F48A81893431F48B818734B0
:101D800019F48C81893429F1115061F69FEFD91A29
:101D9000E90AF90AA0E2CA16A3E0DA06E104F104AE
:101DA00009F0A8CF80E028960FB6F894DEBF0FBEEA
:101DB000CDBFDF91CF911F91FF90EF90DF90CF903B
:101DC000BF90AF909F908F907F906F905F904F905B
:101DD000089581E0E8CF4F925F926F927F928F9249
:101DE0009F92AF92BF92CF92DF92EF92FF920F93AA
:101DF0001F93CF93DF9300D000D01F92CDB7DEB7F3
:101E00008C011982A090E103B090E203D5011496F1
:101E10008D919C911597892B09F460C08C910E943B
:101E20008602F50181819281DC01ED91FC910280B5
:101E3000F381E02D41E050E0BE016F5F7F4F1995C7
:101E4000019709F04BC080E00E94C406811146C092
:101E5000D12CC12CB7E06B2E712CF50184819581BA
:101E60007301EC18FD088E159F0508F47C0141E014
:101E7000C3018E199F09C816D90608F440E06E2DDB
:101E8000D5018C910E94EC051092E0038093DF0352
:101E90008E151F0419F588248394912C8C0E9D1E99
:101EA0008C0C9D1C2401C401841995098E159F0575
:101EB00070F4F50181819281DC01ED91FC91028445
:101EC000F385E02D1995F40181934F01ECCFCE0CF1
:101ED000DF1CF7E0CF16D10408F4BFCFE981EF771C
:101EE000FA81FB805D814E814F778F81282F30E012
:101EF00094E0359527959A95E1F7922F990F990FD0
:101F0000291B220F280FD8012C93842F90E024E066
:101F1000959587952A95E1F7982F990F990F891B29
:101F2000880F840F11968C931197652F70E034E021
:101F3000759567953A95E1F7862F880F880F681B8E
:101F4000660F650F12966C9312974F2D50E064E068
:101F5000559547956A95E1F7842F880F880F481BA0
:101F6000440F4F0D13964C9313972F2F30E074E0CE
:101F7000359527957A95E1F7822F880F880F281BD2
:101F8000220F2F0F14962C9314978E2F90E0F4E0CD
:101F900095958795FA95E1F7982F990F990F891BD9
:101FA000880F8E0F15968C93C80127960FB6F8945C
:101FB000DEBF0FBECDBFDF91CF911F910F91FF907C
:101FC000EF90DF90CF90BF90AF909F908F907F90D9
:101FD0006F905F904F900895FF920F931F93CF9350
:101FE000DF938C01EB01F8800E94D52BF81621F0CD
:101FF0006F2DC8010E94DD2BCE01DF91CF911F9183
:102000000F91FF900895AF92BF92DF92EF92FF92EF
:102010000F931F93CF93DF935C010EE813E0D0E0A2
:10202000C0E0F801D1908F017501EC0EFD1EC701D3
:102030000E94D52BD81621F06D2DC7010E94DD2BF3
:102040002196C135D10569F78EE893E0DF91CF91F4
:102050001F910F91FF90EF90DF90BF90AF90089588
:102060000E94670DF89480911503811111C0609151
:10207000D00270E0762F66276C5D7F4F072E000C34
:10208000880B990B21E530E04EE853E00E9453089D
:102090008091D00290E0982F882784960E940310A8
:1020A00078948091D0028F5F833019F08093D002B2
:1020B00008951092D00208950F931F93CF93DF934A
:1020C000CEE8D3E08C010E581340C8018C0F9D1F41
:1020D0000E94D52B899383E0CF3DD807B1F78EE8D6
:1020E00093E0DF91CF911F910F910895CF93DF93EC
:1020F000EB010E94D52B8883CE01DF91CF9108950B
:102100008F929F92AF92BF92CF92DF92FF920F93E6
:102110001F93CF93DF9300D01F92CDB7DEB700E2BD
:1021200010E068018FEFC81AD80A580182E0A80EA3
:10213000B11C480183E0880E911C8AE0F82EBE0194
:102140006F5F7F4FC8010E947610BE016E5F7F4FA8
:10215000C6010E947610BE016D5F7F4FC5010E94CF
:102160007610BE016C5F7F4FC4010E94761089819A
:10217000843449F48A81893431F48B81873419F4A9
:102180008C818934C9F0FA94F110D9CF13950032BB
:1021900083E0180731F680E00F900F900F900F90BA
:1021A000DF91CF911F910F91FF90DF90CF90BF9063
:1021B000AF909F908F90089581E0EECFCF93DF9303
:1021C000EC01198218821B821A821D821C8261E036
:1021D00070E090E080E00E948A300097A1F099833F
:1021E00088831B821A822C813D81232B11F4FC01F0
:1021F00010821D821C8266EC72E088819981DF91D9
:10220000CF910C94743188819981009711F00E94CC
:102210000130198218821D821C821B821A82DF9172
:10222000CF910895FC0180819181009711F00C9469
:10223000013008958F929F92AF92BF92CF92DF921A
:10224000EF92FF9285E40E948C03BC01990F880BEA
:10225000990B0E94B82A6B017C01C0921F03D09297
:102260002003E0922103F092220320E030E04AE7CD
:1022700054E40E94172B4B015C01A701960160E01A
:1022800070EC8FE794E40E94462C9B01AC01C501E1
:10229000B4010E94B32C2DE336EF4AE355E40E94CB
:1022A000B32C0E94682D2091350230913602409166
:1022B0003702509138020E94B32C2FE03FEC4BE5DF
:1022C0005BE30E94472C9B01AC0160E070E080E87A
:1022D0009FE30E94B32C23E333E948E853E40E94D0
:1022E000462C6B017C0120E030E048E452EC0E9477
:1022F000B12A87FD33C020E030E048E453E4C70151
:10230000B6010E945B2D18164CF180903F0390900F
:102310004003A0904103B0904203A5019401C7017E
:10232000B6010E94462C2DEC3CEC4CEC5DE30E9487
:10233000172BA50194010E94472C60933F037093D3
:1023400040038093410390934203FF90EF90DF900E
:10235000CF90BF90AF909F908F9008956AE979EFEA
:1023600089E794ECF2CF8F929F92AF92BF92CF9277
:10237000DF92EF92FF9284E40E948C03BC01990FDC
:10238000880B990B0E94B82A6B017C01C0921F0335
:10239000D0922003E0922103F092220320E030E06B
:1023A0004CE553E40E94172B4B015C01A7019601F9
:1023B00060E070EC8FE794E40E94462C9B01AC0136
:1023C000C501B4010E94B32C20E030E04AE754E498
:1023D0000E94B32C0E94682D209135023091360264
:1023E00040913702509138020E94B32C2FE03FEC0D
:1023F0004BE55BE30E94472C9B01AC0160E070E081
:1024000080E89FE30E94B32C23E333E948E853E4D8
:102410000E94462C6B017C0120E030E048E452EC45
:102420000E94B12A87FD33C020E030E048E453E445
:10243000C701B6010E945B2D18164CF180903B033A
:1024400090903C03A0903D03B0903E03A501940101
:10245000C701B6010E94462C2DEC3CEC4CEC5DE330
:102460000E94172BA50194010E94472C60933B0307
:1024700070933C0380933D0390933E03FF90EF9055
:10248000DF90CF90BF90AF909F908F9008956AE9B2
:1024900079EF89E794ECF2CF85ED8093BC008091D1
:1024A0004F0490915004A0915104B09152040796AA
:1024B000A11DB11D23E0B695A795979587952A95FF
:1024C000D1F72091BC0024FD03C010924D04089563
:1024D00040914F0450915004609151047091520406
:1024E000452B462B472B69F30097A105B10541F019
:1024F0002AE22A95F1F700C00197A109B109E1CFBD
:1025000080914E040C94CB051F920F920FB60F9240
:1025100011242F933F938F939F93AF93BF938091F9
:10252000820390918303A0918403B091850330913D
:10253000810323E0230F2D3758F50196A11DB11D0E
:10254000209381038093820390938303A093840359
:10255000B09385038091860390918703A0918803AF
:10256000B09189030196A11DB11D809386039093BC
:102570008703A0938803B0938903BF91AF919F9184
:102580008F913F912F910F900FBE0F901F90189534
:1025900026E8230F0296A11DB11DD2CF1F920F92E4
:1025A0000FB60F9211240BB60F922F933F934F93B8
:1025B0005F936F937F938F939F93AF93BF93EF93AB
:1025C000FF9383E594E00E94AF04FF91EF91BF91E8
:1025D000AF919F918F917F916F915F914F913F91BB
:1025E0002F910F900BBE0F900FBE0F901F9018955C
:1025F0001F920F920FB60F9211240BB60F922F93CA
:102600008F939F93EF93FF93E0916304F0916404A1
:102610008081E0916904F0916A0482FD1DC090817F
:1026200080916C048F5F8F7320916D04821741F04D
:10263000E0916C04F0E0ED5AFB4F958F80936C04B1
:10264000FF91EF919F918F912F910F900BBE0F9063
:102650000FBE0F901F9018958081F2CF1F920F929E
:102660000FB60F9211240BB60F922F933F934F93F7
:102670005F936F937F938F939F93AF93BF93EF93EA
:10268000FF938091B900887F803609F44DC008F02F
:1026900040C0883209F4A9C028F5803109F49DC0F2
:1026A000C8F4882309F4FBC0883009F496C0FF9170
:1026B000EF91BF91AF919F918F917F916F915F91BA
:1026C0004F913F912F910F900BBE0F900FBE0F9027
:1026D0001F901895883109F488C0803241F78093A3
:1026E0002B0414C0803409F49DC040F48033B9F346
:1026F0008833E9F680932B0485ECB0C0803509F46B
:1027000085C0883509F496C0883489F60E944C1239
:10271000CECF883909F48CC038F5883729F050F4C9
:10272000883611F0803719F683E080934D041092BB
:10273000140357C0883809F47BC0803919F08038F9
:1027400009F0B5CF80911403803208F071C0E09198
:10275000140381E08E0F809314038091BB00F0E09E
:10276000EC50FD4F80833DC0803B39F0E0F4803A6F
:1027700009F479C0883A09F09ACF84E080934D0437
:102780001092F3021092F202E0918C03F0918D030B
:1027900019958091F20281110FC081E08093F202BD
:1027A0001092D20209C0803C09F4A6CF883C09F4FB
:1027B000A3CF883B09F07BCFE091F30281E08E0F3D
:1027C0008093F302F0E0EE52FD4F80818093BB00D6
:1027D0009091F3028091F20229C0809128048093A5
:1027E000BB0085EC8093BC0062CF90912A0480915D
:1027F0002904981758F5E0912A0481E08E0F809300
:102800002A04F0E0E95FFB4F8081E9CFE0912A04E0
:1028100081E08E0F80932A048091BB00F0E0E95F95
:10282000FB4F808390912A04809129049817C8F265
:1028300085E8D8CFE0912A0481E08E0F80932A04A6
:102840008091BB00F0E0E95FFB4F808380912C0416
:1028500081115CCF81E08093270484EA8093BC00DF
:1028600010924D0424CF85EC8093BC0010924D044F
:1028700080911403803230F4E0911403F0E0EC50C6
:10288000FD4F10826091140370E0E0918A03F09193
:102890008B0384EF92E019951092140308CF1092E5
:1028A0002B0434CF1F920F920FB60F9211240BB648
:1028B0000F922F933F934F935F936F937F938F93D9
:1028C0009F93AF93BF93CF93EF93FF9390910601A4
:1028D000C0915103C09580915C038923C8239093D4
:1028E0005103C0FF05C0E0911E02F0911F0219952F
:1028F000C1FF05C0E0912002F09121021995C2FFAD
:1029000005C0E0912202F09123021995C3FF05C092
:10291000E0912402F09125021995C4FF05C0E091D1
:102920003B02F0913C021995C5FF05C0E0912602DB
:10293000F09127021995C6FF05C0E0912802F09199
:1029400029021995C7FF05C0E0912A02F0912B02D8
:102950001995FF91EF91CF91BF91AF919F918F9179
:102960007F916F915F914F913F912F910F900BBE8F
:102970000F900FBE0F901F9018951F920F920FB6D9
:102980000F9211240BB60F922F933F934F935F93A7
:102990006F937F938F939F93AF93BF93CF93EF9357
:1029A000FF939CB1809103019170880F892BC09196
:1029B0005003C09590915B03C923C82380935003B3
:1029C000C0FF05C0E0911002F09111021995C1FFFE
:1029D00005C0E0911202F09113021995C2FF05C0E3
:1029E000E0911402F09115021995C3FF05C0E09122
:1029F0001602F09117021995C4FF05C0E091390243
:102A0000F0913A021995C5FF05C0E0911802F091C6
:102A100019021995C6FF05C0E0911A02F0911B0238
:102A20001995C7FF05C0E0911C02F0911D02199590
:102A3000FF91EF91CF91BF91AF919F918F917F9136
:102A40006F915F914F913F912F910F900BBE0F901F
:102A50000FBE0F901F9018951F920F920FB60F92F6
:102A600011240BB60F922F933F934F935F936F9365
:102A70007F938F939F93AF93BF93CF93EF93FF93E6
:102A800093B1C0914F03C09580915A038923C82305
:102A900090934F03C4FF05C0E0910002F091010242
:102AA0001995C5FF05C0E0910202F0910302199546
:102AB000C6FF05C0E0910402F09105021995C7FF19
:102AC00005C0E0910602F09107021995C0FF05C00C
:102AD000E0910802F09109021995C1FF05C0E0914B
:102AE0000A02F0910B021995C2FF05C0E0910C0299
:102AF000F0910D021995C3FF05C0E0910E02F0910F
:102B00000F021995FF91EF91CF91BF91AF919F91D6
:102B10008F917F916F915F914F913F912F910F9086
:102B20000BBE0F900FBE0F901F9018951F920F9223
:102B30000FB60F9211240BB60F922F923F924F9225
:102B40005F926F927F928F929F92AF92BF92CF923D
:102B5000DF92EF92FF920F931F932F933F934F9328
:102B60005F936F937F938F939F93AF93BF93EF93F5
:102B7000FF93CF93DF93CDB7DEB7A697DEBFCDBF70
:102B80008091CE029091CF0201969093CF028093D4
:102B9000CE020E94A90300914B0310914C03209197
:102BA0004D0330914E03601B710B820B930B60340D
:102BB00072448F409105A0F440914703509148031F
:102BC0006091490370914A038AE095E00E94C70A28
:102BD0009B01AC01283E83E038074105510518F4FC
:102BE00020E030E0A90120937403309375034093F3
:102BF000760350937703211531054105510509F4FA
:102C000040C060E472E48FE090E00E94152CA09137
:102C10009003B09191030E940A2C60937403709307
:102C2000750380937603909377032091DB0321FF54
:102C300012C00E94B62A22E134E14FE15FE30E9414
:102C4000172B0E942C2D609374037093750380934F
:102C5000760390937703609174037091750380916C
:102C600076039091770324E630E040E050E00E9444
:102C7000152C20937403309375034093760350937F
:102C80007703C0906603D0906703E0906803F090EC
:102C9000690360917403709175038091760390913C
:102CA00077030E94B62AA70196010E94462C20E0D5
:102CB00030E040E05FE30E94172BA70196010E94DD
:102CC000472C609366037093670380936803909327
:102CD00069030E94A90300915603109157032091A4
:102CE000580330915903601B710B820B930BC12C5D
:102CF000D12C7601603472448F40910570F440917C
:102D0000520350915303609154037091550380EF27
:102D100094E00E94C70A6B017C01C0926A03D092C2
:102D20006B03E0926C03F0926D03C114D104E104D3
:102D3000F10409F408C42090F4043090F5040091E3
:102D4000FA041091FB04F80130E020E060E070E04C
:102D5000CB012215330564F482809380A480B58072
:102D6000680D791D8A1D9B1D2F5F3F4F3696F1CF51
:102D70002101032C000C66087708A30192010E9430
:102D8000152C2BA33CA34DA35EA3F0E0E0E0812C27
:102D9000912C5401E215F305DCF4D80112966D91E3
:102DA0007D918D919C9115972BA13CA14DA15EA188
:102DB000621B730B840B950B9B01AC010E94E52DEC
:102DC000860E971EA81EB91E31960A5F1F4FE2CFCE
:102DD0008091D2039091D3039C0150E040E02BA35B
:102DE0003CA34DA35EA3C501B401A30192010E94BF
:102DF000152C1CE056954795379527951A95D1F7D0
:102E00008BA19CA1ADA1BEA1281739074A075B077A
:102E1000E0F580918E0390918F0364E670E00E944C
:102E2000012E8B0160E472E48FE090E0A70196012F
:102E30000E94152CD8010E940A2C60936A0370939B
:102E40006B0380936C0390936D03C0907803D090D4
:102E50007903E0907A03F0907B030E94B62AA701E1
:102E600096010E94462C2DEC3CEC4CE45EE30E9463
:102E7000172BA70196010E94472C6093780370934B
:102E8000790380937A0390937B0380916203882374
:102E900071F08091B40381110AC08EE20E94F902A0
:102EA00061E0892B09F060E08EE20E94220381E458
:102EB0000E948C03BC01990F880B990B0E94B82AC1
:102EC0006B017C01C0921F03D0922003E09221038A
:102ED000F092220320E030E04CE553E40E94172BEF
:102EE0004B015C01A701960160E070EC8FE794E470
:102EF0000E94462C9B01AC01C501B4010E94B32C79
:102F00005B016C01609198037091990390E080E0FF
:102F10000E94B62A7B018C019B01AC01B501C60160
:102F20000E94B12A87FD14C060919A0370919B039F
:102F300090E080E00E94B62A7B018C019B01AC01ED
:102F4000B501C6010E945B2D181614F075018601AB
:102F50002DEC3CEC44E251E4B701C8010E94172B70
:102F60009B01AC0160E070E882EA94E40E94462C88
:102F70004B015C0125E531EC48EA5CE3B701C8018F
:102F80000E94172B9701A8010E94172B9B01AC01EF
:102F9000C501B4010E94472C20E030E04AE754E428
:102FA0000E94B32C9B01AC0160E070E080E89FE3DD
:102FB0000E94462C4B015C01C0901B03D0901C0367
:102FC000E0901D03F0901E03AC019B0160E070E0F7
:102FD00080E89FE30E94462CA70196010E94462CA0
:102FE00020912703309128034091290350912A030F
:102FF0000E94172BA70196010E94472C60931B0388
:1030000070931C0380931D0390931E03C0901703BD
:10301000D0901803E0901903F0901A03A7019601CD
:10302000C501B4010E94462C209123033091240352
:1030300040912503509126030E94172BA70196016A
:103040000E94472C6B017C01C0921703D092180399
:10305000E0921903F0921A030E94010400914303C5
:10306000109144032091450330914603601B710B7E
:10307000820B930B613477478B41910590F00E944E
:10308000010460934303709344038093450390933A
:103090004603C092C802D092C902E092CA02F092DE
:1030A000CB0280E40E948C03BC01990F880B990B22
:1030B0000E94B82A6B017C0120E030E04CE553E42B
:1030C0000E94172B4B015C01A701960160E070EC98
:1030D0008FE794E40E94462C9B01AC01C501B4012A
:1030E0000E94B32C20E030E04AE754E40E94B32C65
:1030F0000E94682D209135023091360240913702AE
:10310000509138020E94B32CC0903703D0903803FE
:10311000E0903903F0903A032FE03FEC4BE55BE39E
:103120000E94472C9B01AC0160E070E080E89FE3C7
:103130000E94B32C23E333E948E853E40E94462C71
:10314000A70196010E94462C20913303309134034D
:1031500040913503509136030E94172BA701960129
:103160000E94472C60933703709338038093390390
:1031700090933A0384E40E948C03BC01990F880B5E
:10318000990B0E94B82A6B017C0120E030E04CE5ED
:1031900053E40E94172B4B015C01A701960160E0EC
:1031A00070EC8FE794E40E94462C9B01AC01C501B2
:1031B000B4010E94B32C20E030E04AE754E40E94BE
:1031C000B32C0E94682D209131023091320240913F
:1031D0003302509134020E94B32CC0903B03D09034
:1031E0003C03E0903D03F0903E032FE03FEC4BE5C5
:1031F0005BE30E94472C9B01AC0160E070E080E83B
:103200009FE30E94B32C23E333E948E853E40E9490
:10321000462CA70196010E94462C20912F03309145
:10322000300340913103509132030E94172BA701C4
:1032300096010E94472C60933B0370933C0380935C
:103240003D0390933E0385E40E948C03BC01990FDB
:10325000880B990B0E94B82A6B017C01C0921F0356
:10326000D0922003E0922103F092220320E030E08C
:103270004AE754E40E94172B4B015C01A701960119
:1032800060E070EC8FE794E40E94462C9B01AC0157
:10329000C501B4010E94B32C2DE336EF4AE355E497
:1032A0000E94B32C0E94682D20912D0230912E0295
:1032B00040912F02509130020E94B32CC0903F03E6
:1032C000D0904003E0904103F09042032FE03FECA8
:1032D0004BE55BE30E94472C9B01AC0160E070E092
:1032E00080E89FE30E94B32C23E333E948E853E4EA
:1032F0000E94462CA70196010E94462C20912B0388
:1033000030912C0340912D0350912E030E94172BD6
:10331000A70196010E94472C60933F0370934003DE
:1033200080934103909342038FE30E948C038C01AE
:103330008FE30E948C03080F191F8FE30E948C03F8
:10334000080F191F8FE30E948C03080F191F8FE3CA
:103350000E948C03080F191F8FE30E948C03080F33
:10336000191F8FE30E948C03800F911F8132B3E0FD
:103370009B0748F4B3E096958795BA95E1F790934B
:103380006503809364038091CC029091CD020196F5
:103390009093CD028093CC02049709F069C0C0904D
:1033A0006603D0906703E0906803F0906903C7015B
:1033B000B6010E942C2D8B018AE0E6E6F2E0DE01E8
:1033C000119601900D928A95E1F7C80164E670E0CC
:1033D0000E94012ECB01AAE0AA2EB12CB5010E94B9
:1033E000012E9C01C801B5010E94012EFC01CB01F8
:1033F000B5010E94012E41E050E04C0F5D1FE40F2B
:10340000F51F2115310509F4B2C0240F351FD9016C
:103410002C912093EA05840F951FDC018C918093F9
:10342000E90580818093E80580906E0390906F039A
:10343000A0907003B0907103A5019401C701B6017B
:103440000E94462C2AE037ED43E25CE30E94172BF2
:10345000A50194010E94472C60936E0370936F0343
:1034600080937003909371031092CD021092CC025E
:10347000609178037091790380917A0390917B0336
:103480000E942C2D22E1E0E7F2E0DE01119601908E
:103490000D922A95E1F790E080E020E530E040E0F1
:1034A00050E00E94312EE0E4AE2EFFE1BF2EC12C91
:1034B000D12CE12CF12C00E010E00E945E2EB22F06
:1034C000F32E8A01F62FE72FD82EE92EA0E50E94D1
:1034D000502F11F00CF077C0A0E00E94502F41F463
:1034E000B1E0F12C00E010E0F0E0E0E0D12CE12CC4
:1034F0002B2F3F2DA8016F2F7E2F8D2D9E2D03E0AA
:103500000E94332F1092D5051092D4051092D30546
:103510001092D2051092D1051092D0051092CF05CD
:103520001092CE051092CD051092CC0580E039E0C6
:103530009FEF2817A1F1E32FE81BF0E0E453FA4FC7
:1035400090838F5FF6CFC0907803D0907903E0909E
:103550007A03F0907B03A701960160E070E0CB0155
:103560000E94462C20E030E040E05FE380CC3081D8
:103570002091EA0520782093EA05009769F0E1E0C0
:10358000F0E0EC0FFD1F8E0F9F1FDC018C918093EC
:10359000E9053093E80548CF1092E905FACF2A30C3
:1035A00090F4E9E0E21BF0E0E453FA4F8B2F8770D0
:1035B00090E0880F991FA1E0B0E0AC0FBD1FA80FED
:1035C000B91F8C91808360912C0270E090E080E0C4
:1035D0000E94B62A20911B0330911C0340911D03C9
:1035E00050911E030E94172B6B017C018091DB031D
:1035F00082FF0BC12DE831E447E85EE3C701B60165
:103600000E94172B6B017C0120E030E0A9010E9491
:10361000B12A87FD17C120E030E046EC52E4C70133
:10362000B6010E945B2D18160CF40EC1C701B6013D
:103630000E942C2D162F623008F002C181E00E94FA
:10364000530D8AE0E2E5F2E0DE01119601900D9261
:103650008A95E1F72AE0812F622F0E94F52DE92F4C
:103660000E94F52D3091E4053F708091E305209193
:10367000E205287F41E050E04C0F5D1F4E0F511DC9
:10368000FA01992309F4E2C0A1E0B0E0AC0FBD1F3C
:10369000A90FB11D9C91492F4770242B2093E2055F
:1036A0002081907F8870892B922F9770892B80932F
:1036B000E305207F922F932B9093E4050091CE0396
:1036C0001091CF03B80190E080E00E94B62A9B01E0
:1036D000AC01609137037091380380913903909168
:1036E0003A030E94462C6B017C016091D0037091DB
:1036F000D103601B710B90E080E00E94B62A9B0111
:10370000AC01C701B6010E94B32C20E030E040EAD2
:1037100051E40E94172B0E94252D77FDA2C0653130
:10372000710514F064E170E080E1E2E8F2E0DE01AE
:10373000539601900D928A95E1F780E1E2E9F2E07B
:10374000DE01119601900D928A95E1F780E0A0E0EC
:10375000683050F0A9EFA60F80E06E3020F06E5078
:10376000862F8770A7E067E0E62FF0E0EE0FFF1FDF
:1037700021E030E02C0F3D1FE20FF31F9289909360
:10378000E505B0E0AA0FBB1FA20FB31F52969C9194
:103790009093E605E82FF0E0EE0FFF1FE20FF31F16
:1037A00080818093E7058091160387FD03C08068C0
:1037B00080931603A6960FB6F894DEBF0FBECDBF5A
:1037C000DF91CF91FF91EF91BF91AF919F918F9139
:1037D0007F916F915F914F913F912F911F910F9129
:1037E000FF90EF90DF90CF90BF90AF909F908F9021
:1037F0007F906F905F904F903F902F900F900BBEF7
:103800000F900FBE0F901F90189520E030E0A90197
:10381000C701B6010E94B12A87FD14C020E030E044
:1038200046EC52E4C701B6010E945B2D181664F005
:10383000C701B6010E942C2D162F6A3008F4FECE67
:1038400080E0FDCE10E0FACE13E6FACF2093E20539
:103850009081292F27708870822B8093E305907FB9
:103860002ACF60E061CFCF93DF93E3E5F4E01382EA
:10387000128288EE93E0A0E0B0E084839583A68373
:10388000B78326EA32E03183208325EC30E03587A8
:10389000248724EC30E03787268720EC30E0318B1A
:1038A000208B21EC30E0338B228B22EC30E0358B07
:1038B000248B26EC30E0378B268B118E128E138EE4
:1038C000148EE6E3F5E01382128284839583A68347
:1038D000B78388EB92E091838083C0EFD4E085E0EA
:1038E00090E09D838C838EE190E00E94652F9B8702
:1038F0008A879D878C871F861E86188A198A1A8A4E
:103900001B8A8EEF94E09D8B8C8B1E8A1F8A188EEB
:10391000198E84E892E0998388831B821A82CAE018
:10392000D5E08CE090E09D838C8388E490E00E9459
:10393000652F9B878A879D878C871F861E86188A9E
:10394000198A1A8A1B8A88E195E09D8B8C8B1E8AC6
:103950001F8A188E198E8CEB91E0998388831B82C5
:103960001A8280E395E00E94DE108AE295E00E94D0
:10397000DE1084E295E00E94DE1010929205109213
:103980002D0610922E060E94B40540E853E46DE621
:1039900078E389E396E00E94470A40E853E46DE645
:1039A00078E38FE396E00E94470A40E853E46DE62F
:1039B00078E383E396E00E94470A10922F06109264
:1039C00030061092310610923206DF91CF910895A1
:1039D000CF93DF93CDB7DEB766970FB6F894DEBF0F
:1039E0000FBECDBF789484B5826084BD84B58160FC
:1039F00084BD85B5826085BD85B5816085BD8091BA
:103A00006E00816080936E00109281008091810031
:103A10008260809381008091810081608093810029
:103A2000809180008160809380008091B1008460EB
:103A30008093B1008091B00081608093B00080914C
:103A400091008260809391008091910081608093C9
:103A50009100809190008160809390008091A100FE
:103A600082608093A1008091A10081608093A10079
:103A70008091A00081608093A000809121018260EC
:103A800080932101809121018160809321018091A7
:103A9000200181608093200180917A00846080936E
:103AA0007A0080917A00826080937A0080917A0017
:103AB000816080937A0080917A00806880937A0098
:103AC0001092C10010927403109275031092760345
:103AD0001092770310926A0310926B0310926C039A
:103AE00010926D03109266031092670310926803A0
:103AF00010926903109278031092790310927A035E
:103B000010927B0364E670E080E090E00E94CE03B8
:103B10000E94B4058091E1039091E203009711F0B7
:103B20000E94013086E090E00E94652F8C0188E6BB
:103B3000D8018C9386E3C82E85E0D82E1296DC92AD
:103B4000CE92119713961C92139780E290E01596EF
:103B50009C938E9314971093E2030093E1030E94C9
:103B6000B405FF24F394F801F382C8010E94BF0951
:103B700080937C031092150388EB9BE090938F0356
:103B800080938E0384E690E090939103809390035A
:103B900080EA9FE090939303809392039093950320
:103BA0008093940384EE9EE0909397038093960312
:103BB00083E290E0909399038093980389E091E0E9
:103BC00090939B0380939A0382E090E090939D03EF
:103BD00080939C0390939F0380939E039093A103F3
:103BE0008093A0039093A3038093A2031092A40355
:103BF0001092A5031092A6031092A7031092A80397
:103C00001092A9031092AA031092AB031092AC0376
:103C10001092AD031092AE031092AF03F092B00376
:103C20008AE08093B1038FE38093B2031092B303D1
:103C3000F092B40380E49FE19093B6038093B503C0
:103C40001092B7031092B8031092B9031092BA03FE
:103C50001092BB031092BC031092BD031092BE03DE
:103C60001092BF031092C0031092C1031092C203BE
:103C70001092C3031092C4031092C5031092C6039E
:103C80001092C7031092C9031092C8031092CB037D
:103C90001092CA031092CC03F092CD038CE390E013
:103CA0009093CF038093CE0388E790E09093D10365
:103CB0008093D0038FEF9FEF9093D3038093D20331
:103CC00080E197E29093D6038093D5031092D703B7
:103CD0001092D8031092D9031092DA0381E090E099
:103CE000A0E0B0E08093DB039093DC03A093DD03BE
:103CF000B093DE030E94670D0E94B405D092420289
:103D0000C092410280E5809343028FEF0E944208F7
:103D1000811134C0F09215030E94801004E210E07B
:103D2000A2EEEA2EA3E0FA2E81117BC084E48983FF
:103D3000BE016F5F7F4F80E290E00E94EC0F19E4BC
:103D40001983BE016F5F7F4F81E290E00E94EC0F0C
:103D500087E48983BE016F5F7F4F82E290E00E941B
:103D6000EC0F1983BE016F5F7F4F83E290E00E94EA
:103D7000EC0F84E290E00E940310B4C10E94801016
:103D8000811155C10E94600EF4E2CF2ED12CE12C9E
:103D9000F12C02EE13E0811129C184E4898321E032
:103DA00030E0AE014F5F5F4F60E270E080E090E096
:103DB0000E94530819E4198321E030E0AE014F5FFF
:103DC0005F4F61E270E080E090E00E94530887E47A
:103DD000898321E030E0AE014F5F5F4F62E270E027
:103DE00080E090E00E945308198321E030E0AE01AA
:103DF0004F5F5F4F63E270E080E090E00E94530805
:103E000021E530E04EE853E064E270E080E090E0CD
:103E10000E9453080E9430100E9430100E943010FF
:103E200085CFC8010E945C10EEE8F3E080E091913C
:103E30008927EE16FF06D9F79091D403891729F048
:103E400013950432F3E01F0761F7E091B70394E0A4
:103E5000E99FF0011124E257FC4F82A993A9A4A97C
:103E6000B5A980936E0390936F03A0937003B093F2
:103E7000710380917C03882309F45BC0CE01019615
:103E80000E94EB0E86E0FE013196A9E3B6E00190B8
:103E90000D928A95E1F78091C8039091C9031CE3C4
:103EA000189F7001199FF00C112489E396E00E947D
:103EB000DE09AB01BC014E195F0961097109CE0130
:103EC00001960E94470A86E0FE013196A9E3B6E01A
:103ED00001900D928A95E1F7CE0101960E94EB0EBA
:103EE00086E0FE013196AFE3B6E001900D928A952F
:103EF000E1F78091CA039091CB03189F7001199F3D
:103F0000F00C11248FE396E00E94DE09AB01BC01A6
:103F10004E195F0961097109CE0101960E94470A95
:103F200086E0FE013196AFE3B6E001900D928A95EE
:103F3000E1F78091160380628093160364E670E0D7
:103F400080E090E00E94CE0380919205E5E0E89F3A
:103F5000D0011124AE5BBA4F48E34C9338E411967C
:103F60003C93119790E612969C93129724E7139630
:103F70002C93139798E714969C9351E0580FE59F64
:103F8000F0011124EE5BFA4F4083318331E6328336
:103F9000238394838E5F80939205F12C65E0E62E57
:103FA00080919205F81608F0CCC0EF9C8001112496
:103FB0000E5B1A4FD8018C910E948602F801818114
:103FC000806890E00E943A08D80113968C9180682E
:103FD00090E00E943A08F801828190E00E943A083D
:103FE00086E395E00E943F08F394DACF21E530E0C4
:103FF0004EE853E0C701B6010E94B50DEEE8F3E0CC
:1040000080E0919189270E171F07D9F79091D4036B
:10401000891709F48BCE2FEFD21AE20AF20A34E2A2
:10402000C31633E0D306E104F10401F77FCE0E940A
:10403000600E81115EC004E210E0E2EEEE2EE3E0DD
:10404000FE2EC8010E945C10EEE8F3E080E0919142
:104050008927EE16FF06D9F79091D403891729F026
:104060001395043243E0140761F784E4898321E067
:1040700030E0AE014F5F5F4F60E270E080E090E0C3
:104080000E94530819E4198321E030E0AE014F5F2C
:104090005F4F61E270E080E090E00E94530887E4A7
:1040A000898321E030E0AE014F5F5F4F62E270E054
:1040B00080E090E00E945308198321E030E0AE01D7
:1040C0004F5F5F4F63E270E080E090E00E94530832
:1040D00021E530E04EE853E064E270E080E090E0FB
:1040E0000E9453080E9430100E9430100E9430102D
:1040F000ACCE74E2C72ED12CE12CF12C02EE13E0F1
:1041000021E530E04EE853E0C701B6010E94B50D4D
:10411000EEE8F3E080E0919189270E171F07D9F7A9
:104120009091D403891709F401CE5FEFD51AE50AFF
:10413000F50A84E2C81683E0D806E104F10401F729
:10414000F5CDECECF5E084EF95E011928E179F072A
:10415000E1F7809142050E94860280EE90E00E9485
:104160003A0890E080E00E943A0810E000E054E154
:10417000F52E809192058F9DC00111240817190713
:104180003CF490E080E00E943A080F5F1F4FF1CFAF
:1041900086E395E00E943F088091E405857F809347
:1041A000E4058091D6058F778093D6058091D70559
:1041B0008F778093D7058091D8058F778093D80526
:1041C0008091D9058F778093D9058091DA058F7713
:1041D0008093DA058091DB059091E205977F9093BB
:1041E000E20587778093DB0561E088E10E94500358
:1041F00061E089E10E94500361E08AE10E9450037E
:1042000098989998809880910A018D7F80930A01EF
:10421000A098A198889880910B018D7F80930B01C5
:104220008091E405909916C782608093E40580919F
:10423000D605919911C780688093D6058091DA05DB
:1042400078990CC780688093DA0590910901809174
:10425000DB0591FD05C780688093DB058091E20551
:10426000877F8093E205909109018091DB0591FDA4
:10427000F9C688608093DB0560E087E30E94500305
:1042800060E088E30E94500360E08FE30E945003E7
:1042900060E080E40E94500360E081E40E945003EB
:1042A00060E084E40E94500360E085E40E945003D3
:1042B0000E94010460934303709344038093450379
:1042C00090934603109265031092640360919203E9
:1042D0007091930390E080E00E94B62A4B015C014C
:1042E0008092350290923602A0923702B092380244
:1042F000609194037091950390E080E00E94B62A4B
:104300006B877C878D879E87609331027093320222
:1043100080933302909334026091960370919703D7
:1043200090E080E00E94B62A2B013C0140922D02D1
:1043300050922E0260922F027092300260919C0384
:1043400070919D0390E080E00E94B62A2AE037ED4C
:1043500043E25CE30E94172B6093330370933403B2
:10436000809335039093360360919E0370919F0371
:1043700090E080E00E94B62A2AE037ED43E25CE359
:104380000E94172B2DEC3CEC4CEC5DE30E94172BAC
:1043900060932F0370933003809331039093320323
:1043A0006091A0037091A10390E080E00E94B62A82
:1043B0002AE037ED43E25CE30E94172B2DEC3CEC46
:1043C0004CEC5DE30E94172B60932B0370932C033E
:1043D00080932D0390932E036091A2037091A30309
:1043E00090E080E00E94B62A2AE037ED43E25CE3E9
:1043F0000E94172B6B017C012FE832EC45EF5CE348
:104400000E94172B6093270370932803809329033E
:1044100090932A032AE037ED43E25CE3C701B6013B
:104420000E94172B6093230370932403809325032A
:10443000909326038091B20380932C0204E610E04F
:1044400080E40E948C03BC01990F880B990B0E9499
:10445000B82A20911F0330912003409121035091ED
:1044600022030E94472C60931F03709320038093C4
:104470002103909322030150110911F720E030E04D
:1044800048EC52E40E94B32C6B017C01C0921F03E4
:10449000D0922003E0922103F092220320E030E04A
:1044A0004CE553E40E94172B6F87788B898B9A8B8E
:1044B000A701960160E070EC8FE794E40E94462C1F
:1044C0009B01AC016F85788989899A890E94B32CF8
:1044D00020E030E04AE754E40E94B32C0E94682DAB
:1044E000A50194010E94B32C2FE03FEC4BE55BE368
:1044F0000E94472C9B01AC0160E070E080E89FE3E4
:104500000E94B32C23E333E948E853E40E94462C8D
:1045100060933703709338038093390390933A0381
:1045200004E610E084E40E948C03BC01990F880B20
:10453000990B0E94B82A20911F03309120034091CB
:104540002103509122030E94472C60931F03709314
:10455000200380932103909322030150110911F746
:1045600020E030E048EC52E40E94B32C6B017C0167
:10457000C0921F03D0922003E0922103F092220305
:1045800020E030E04CE553E40E94172B4B015C0126
:10459000A701960160E070EC8FE794E40E94462C3E
:1045A0009B01AC01C501B4010E94B32C20E030E0B6
:1045B0004AE754E40E94B32C0E94682D2B853C8569
:1045C0004D855E850E94B32C2FE03FEC4BE55BE30D
:1045D0000E94472C9B01AC0160E070E080E89FE303
:1045E0000E94B32C23E333E948E853E40E94462CAD
:1045F00060933B0370933C0380933D0390933E0391
:104600000CE211E081E40E948C03BC01990F880B3D
:10461000990B0E94B82A20911F03309120034091EA
:104620002103509122030E94472C60931F03709333
:10463000200380932103909322030150110911F765
:1046400020E030E046E953E40E94B32C6B017C018A
:10465000C0921F03D0922003E0922103F092220324
:1046600020E030E04CE553E40E94172B4B015C0145
:10467000A701960160E070EC8FE794E40E94462C5D
:104680009B01AC01C501B4010E94B32C5B016C011C
:10469000609198037091990390E080E00E94B62A9F
:1046A0007B018C019B01AC01B501C6010E94B12ABE
:1046B00087FD14C060919A0370919B0390E080E0A5
:1046C0000E94B62A7B018C019B01AC01B501C60199
:1046D0000E945B2D181614F0750186012DEC3CEC40
:1046E00044E251E4B701C8010E94172B9B01AC01C1
:1046F00060E070E882EA94E40E94462C4B015C0181
:1047000025E531EC48EA5CE3B701C8010E94172BAC
:104710009701A8010E94172B9B01AC01C501B401B0
:104720000E94472C20E030E04AE754E40E94B32C7A
:104730009B01AC0160E070E080E89FE30E94462CA2
:104740006B017C01AC019B0160E070E080E89FE3BD
:104750000E94462C60931B0370931C0380931D03DF
:1047600090931E03C0921703D0921803E09219038E
:10477000F0921A0304E610E085E40E948C03BC0169
:10478000990F880B990B0E94B82A20911F03309132
:10479000200340912103509122030E94472C6093F3
:1047A0001F037093200380932103909322030150F1
:1047B000110911F720E030E048EC52E40E94B32CDC
:1047C0006B017C01C0921F03D0922003E092210371
:1047D000F092220320E030E04AE754E40E94172BD5
:1047E0004B015C01A701960160E070EC8FE794E457
:1047F0000E94462C9B01AC01C501B4010E94B32C60
:104800002DE336EF4AE355E40E94B32C0E94682D55
:10481000A30192010E94B32C2FE03FEC4BE55BE338
:104820000E94472C60933F037093400380934103A1
:104830009093420380910401877F8093040189E46F
:104840009BE090933A028093390280915B038061F0
:1048500080935B039CB1809103019170880F892B39
:104860008093500380916C00806180936C008091F4
:10487000680082608093680078940E94A903609326
:104880004B0370934C0380934D0390934E0310920F
:104890004703109248031092490310924A0340E0E4
:1048A00050E0BA018AE095E00E94C70A40E050E07B
:1048B000BA018AE095E00E94C70A40E050E0BA01E0
:1048C0008AE095E00E94C70A40E050E0BA018AE021
:1048D00095E00E94C70A40E050E0BA018AE095E006
:1048E0000E94C70A62E082E40E9450038DE094E0D7
:1048F00090933C0280933B0280915C0380618093A3
:104900005C03809106018093510380916D0080616A
:1049100080936D0080916800846080936800789433
:104920000E94A90360935603709357038093580322
:104930009093590310925203109253031092540310
:104940001092550340E050E0BA0180EF94E00E94DD
:10495000C70A40E050E0BA0180EF94E00E94C70A25
:1049600040E050E0BA0180EF94E00E94C70A40E0C6
:1049700050E0BA0180EF94E00E94C70A40E050E0A6
:10498000BA0180EF94E00E94C70AE0916304F091BD
:10499000640482E08083E0915F04F09160041082FF
:1049A000E0916104F09162048FEC808310926B04BB
:1049B000E0916704F091680486E08083E0916504EB
:1049C000F0916604808180618083E0916504F091BC
:1049D0006604808188608083E0916504F0916604BC
:1049E000808180688083E0916504F0916604808115
:1049F0008F7D80830E9401041092620361E08EE249
:104A00000E94500360E083E40E94500360E08FE066
:104A10000E94500360E08EE00E94500360E087E156
:104A20000E9450030E94010460E087E30E9450034B
:104A300060E088E30E945003809104018B7F8093A3
:104A4000040161E086E10E94500360E086E10E947B
:104A500022030E94010460935D0370935E038093C0
:104A60005F03909360030E94010460937D03709341
:104A70007E0380937F0390938003F8941092A000AC
:104A80001092A1001092A5001092A40081EA97E074
:104A90009093A9008093A8008091A10088608093E2
:104AA000A1008091A10085608093A1008091720097
:104AB0008260809372007894332433948091E4056B
:104AC000909BD2C282608093E4058091D605919933
:104AD000CDC280688093D6058091DA057899C8C2E6
:104AE00080688093DA05909109018091DB0590FF41
:104AF000C1C280688093DB058091E205877F809347
:104B0000E205909109018091DB0590FFB5C28860B4
:104B10008093DB050E949D090E949D090E9401046B
:104B2000C0907D03D0907E03E0907F03F0908003DF
:104B30000E9401046C197D098E099F09693E73402A
:104B40008105910508F483C20E94010460937D03EE
:104B500070937E0380937F039093800380917C0306
:104B6000882309F48BC2CE0101960E94EB0E86E0E9
:104B7000FE013196A3E3B6E001900D928A95E1F72C
:104B8000B09036068B2D90E09093400280933F02C8
:104B9000A09037068A2D90E090933E0280933D02CC
:104BA0000091B70326E0029F80011124075C194F92
:104BB00083E396E00E94DE096B017C01C8010E943C
:104BC000DE0926013701461A570A680A790AC30125
:104BD000B20160932F067093300680933106909354
:104BE00032060091B70310E0000F111F08531C4F4D
:104BF0002CE330E040E050E00E94EB2BD8012D93F5
:104C00003C936A2D8B2D0E94C20C409078035090EB
:104C1000790360907A0370907B0320E030E048E4F1
:104C200053E4C301B2010E945B2D18169CF48091DD
:104C3000D7039091D803A091D903B091DA030196DC
:104C4000A11DB11D8093D7039093D803A093D903DE
:104C5000B093DA038091740390917503A091760369
:104C6000B09177034091A4035091A5036091A603EE
:104C70007091A703480F591F6A1F7B1F4093A4031D
:104C80005093A5036093A6037093A703E091B70325
:104C900004E0E09FF0011124E257FC4F428D538D58
:104CA000648D758D840F951FA61FB71F828F938FFC
:104CB000A48FB58F0E94730D20E030E04AE754E4E2
:104CC0000E94B32C20E030E0A9010E94B12A87FFA6
:104CD000D8C1C12CD12C76010091B70324E0029FEA
:104CE0008001112402571C4FD8019A968D909D90F7
:104CF000AD90BC909D97A5019401C701B6010E949B
:104D0000462C2AE037ED43E25CE30E94172BA50115
:104D100094010E94472CF80162A773A784A795A766
:104D20004090A4035090A5036090A6037090A70341
:104D30008AE0ECE5F2E0DE01119601900D928A9591
:104D4000E1F7C301B20120E03AE245E755E10E94F4
:104D5000152CCA01B9012AE030E040E050E00E9481
:104D6000152C6B8B7C8B8D8B9E8BC301B20120E04D
:104D700031E545E252E00E94152CCA01B9012AE052
:104D800030E040E050E00E94152C6F87788B898BD3
:104D90009A8BC301B20120E83EEE46E350E00E9448
:104DA000152CCA01B9012AE030E040E050E00E9431
:104DB000152C6B877C878D879E87C301B20120E409
:104DC0003EE745E050E00E94152CCA01B9012AE0F7
:104DD00030E040E050E00E94152C6B017C01C301E3
:104DE000B20120EA3CE840E050E00E94152CCA01E4
:104DF000B9012AE030E040E050E00E94152C4B0160
:104E00005C01C301B20120E13EE040E050E00E94BD
:104E1000152CCA01B9012AE030E040E050E00E94C0
:104E2000152C2B016091EC05607F5091DB055F78BC
:104E30008091DA0580789091D90590782091D805F5
:104E400020783091D70530784091D6054078A1E0A0
:104E5000B0E0AC0FBD1FA40DB51D4B885C886D88FC
:104E60007E88411451046104710409F4E0C1E1E059
:104E7000F0E0EC0FFD1FE40DF51D70817F77472BEF
:104E80004093D605E1E0F0E0EC0FFD1F6F847888D9
:104E9000E60DF71D40814F77342B3093D705E1E0C5
:104EA000F0E0EC0FFD1F0B851C85E00FF11F30813A
:104EB0003F77232B2093D805E1E0F0E0EC0FFD1FB6
:104EC000EC0DFD1D20812F77922B9093D905E1E009
:104ED000F0E0EC0FFD1FE80DF91D90819F77892B05
:104EE0008093DA058C91982F9077592B5093DB059E
:104EF0008F70682B6093EC050E940104009172038F
:104F0000109173030F5F1F4F10937303009372038D
:104F100061E08091CD03811101C060E08AE10E94CF
:104F2000220300321105D1F4E091B70304E0E09FC1
:104F3000F0011124E257FC4F80916E0390916F03B2
:104F4000A0917003B091710382AB93ABA4ABB5ABEE
:104F50000E9430101092730310927203C0906A0383
:104F6000D0906B03E0906C03F0906D03109263039C
:104F700087E30E94F902892B11F4309263031091A8
:104F80006103111117C088E30E94F902019791F49F
:104F900029EBC2162BE0D20668F082E0809363030F
:104FA0000E94010460935D0370935E0380935F032E
:104FB000909360030E94010480905D0390905E03D3
:104FC000A0905F03B0906003681979098A099B0972
:104FD000693E73408105910578F0123069F488E3E9
:104FE0000E94F902019741F449EBC4164BE0D40644
:104FF00018F083E0809363038091630380936103DF
:1050000090910301811178C10E945D0D109262039D
:105010008091B70360E081117BC188E10E94220387
:1050200060E089E10E9422038091E40584608E7F24
:105030008093E4058091B303823009F433C208F011
:1050400073C1882309F47FC1813009F415C20E941D
:105050003E0534CD8D7FE9C88F77EEC88F77F3C8D2
:105060008F77FAC8877F06C98D7F2DCD8F7732CD98
:105070008F7737CD8F773ECD877F4ACD63E683E646
:10508000C2CD0E94730D20E030E04AE754E40E9454
:10509000B32C20E030E040EF52E40E945B2D812CE5
:1050A000912C30EFA32E32E4B32E181694F00E9408
:1050B000730D20E030E04AE754E40E94B32C4B012A
:1050C0005C0120E030E0A9010E945B2D18160CF075
:1050D00000CE0E941A1120E030E040EA51EC0E941C
:1050E000B12AC12CD12C2DE7E22E23E4F22E87FD2C
:1050F0001BC00E941A1120E030E040EF51E40E94F2
:105100005B2DC12C90E8D92E97E9E92E93E4F92E76
:10511000181654F00E941A1120E030E848E853E4D1
:105120000E94472C6B017C01A3019201C501B401CF
:105130000E94172BA70196010E94B32C20E030E0BB
:1051400040E05FE30E94172B20E030E040E752E4AC
:105150000E94B32C26E636E646E25FE30E94172B58
:105160002FE832EC47EE51E40E94172B2DEC3CEC7B
:105170004CEC5FE30E94172B25E236E045E051E45A
:105180000E94B32C2CE53FE842E45FE30E94B32C7D
:1051900020E030E04AE754E40E94B32C23E333E3F9
:1051A0004BE651E40E94B32C20E030E041E655E4A8
:1051B0000E94172B6B017C0180906603909067031F
:1051C000A0906803B090690320E030E040E251E431
:1051D000C501B4010E945B2D181674F420E030E084
:1051E00048EC52E4C701B6010E94172BA5019401B7
:1051F0000E94B32C6B017C0120E030E0A901C701C3
:10520000B6010E94B12A87FD64CD20E030E048EC71
:1052100052E4C701B6010E945B2D18160CF05CCD5C
:10522000C12CD12C88ECE82E82E4F82E55CD7C914F
:10523000E72FEF706E2B7077572B4F845888698853
:105240007A88411451046104710479F14093D605C0
:10525000E1E0F0E0EC0FFD1FE40DF51D40814F771C
:10526000342B3093D705E1E0F0E0EC0FFD1F6B84A9
:105270007C84E60DF71D30813F77232B2093D805E2
:10528000E1E0F0E0EC0FFD1FEC0DFD1D20812F771C
:10529000922B9093D905E1E0F0E0EC0FFD1FE80DB3
:1052A000F91D90819F77892B22C04B845C846D848B
:1052B0007E844093D6053093D70541145104610490
:1052C000710439F0E1E0F0E0EC0FFD1FE40DF51D95
:1052D000D2CF2093D805C114D104E104F10481F6A2
:1052E0009093D90581149104A104B104A1F680938F
:1052F000DA055093DB05FECD813009F485CE83308D
:1053000009F086CE81E00E945D0D3092620380CE6E
:1053100088E10E94220360E089E10E9422038091DB
:10532000E4058B7F816084CE843009F4E5C008F405
:10533000CFC0853009F08BCE8091DB0383FFFDC0A9
:105340000E941A11DFC0C0902F06D0903006E09066
:105350003106F0903206C701B60120E13EE040E0A0
:1053600050E00E94EB2BCA01B90128E130E040E097
:1053700050E00E94EB2B162F8AE0E2E5F2E0DE011E
:10538000119601900D928A95E1F7143608F06DC0E0
:10539000C701B6012CE330E040E050E00E94EB2B67
:1053A000CA01B9012CE330E040E050E00E94EB2B51
:1053B000362F812F6AE00E94F52DE1E0F0E0EC0F3E
:1053C000FD1FE90FF11D90812091E0052F70492FFD
:1053D000407F242B492F47709091DF055091DE05C7
:1053E000587F882309F444C0E1E0F0E0EC0FFD1F92
:1053F000E80FF11D8081682F6770562B5093DE05F2
:10540000807F9870982B942B9093DF054AE0832F30
:10541000642F0E94F52DE92F0E94F52DA1E0B0E048
:10542000AC0FBD1FA90FB11D3C91832F8770287F42
:10543000282B2093E00581E090E08C0F9D1F8E0FBC
:10544000911DFC0190818091E105307F8870832B54
:10545000292F2770822B8093E1058091E2058F70C0
:10546000907F892B8093E205F2CD33E613E6A1CF3E
:105470005093DE059870C7CFE091B70394E0E99FA1
:10548000F0011124E257FC4F628D738D848D958D50
:1054900020E13EE040E050E00E94152CC9010E944E
:1054A0007D0BD5CDE091B703A4E0EA9FF001112474
:1054B000E257FC4F20E030E048EC52E462A573A5CF
:1054C00084A595A50E94172B0E942C2DCB01E7CF18
:1054D000E091B703B4E0EB9FF0011124E257FC4FD9
:1054E00020E030E040E251E462A973A984A995A9C3
:1054F0000E94172B9F77E8CF8091DB0383FF0FC0BB
:105500000E94B31126E636E646EE5FE30E94172BB3
:1055100020E030E040E052E40E94472C0BC084FFC2
:1055200007C00E94B31123E333E948E853E4F4CF02
:105530000E94B3110E94252DC9CF84FF03C00E9491
:105540001A11F1CF0E941A11F5CF84E295E00E9462
:1055500012118AE295E00E94121180E395E00C940A
:1055600012110E94F32A08F481E00895E89409C01A
:1055700097FB3EF490958095709561957F4F8F4F86
:105580009F4F9923A9F0F92F96E9BB279395F6959C
:10559000879577956795B795F111F8CFFAF4BB0F1A
:1055A00011F460FF1BC06F5F7F4F8F4F9F4F16C07E
:1055B000882311F096E911C0772321F09EE8872F08
:1055C000762F05C0662371F096E8862F70E060E0C4
:1055D0002AF09A95660F771F881FDAF7880F96953D
:1055E000879597F90895990F0008550FAA0BE0E8E1
:1055F000FEEF16161706E807F907C0F01216130695
:10560000E407F50798F0621B730B840B950B39F4D4
:105610000A2661F0232B242B252B21F408950A263A
:1056200009F4A140A6958FEF811D811D08950E9468
:105630002A2B0C949B2B0E948D2B38F00E94942BCC
:1056400020F0952311F00C94842B0C948A2B1124B8
:105650000C94CF2B0E94AC2B70F3959FC1F3950F48
:1056600050E0551F629FF001729FBB27F00DB11DE6
:10567000639FAA27F00DB11DAA1F649F6627B00D76
:10568000A11D661F829F2227B00DA11D621F739F5F
:10569000B00DA11D621F839FA00D611D221F749F6D
:1056A0003327A00D611D231F849F600D211D822FB4
:1056B000762F6A2F11249F5750409AF0F1F08823DB
:1056C0004AF0EE0FFF1FBB1F661F771F881F915008
:1056D0005040A9F79E3F510580F00C94842B0C9408
:1056E000CF2B5F3FE4F3983ED4F38695779567958B
:1056F000B795F795E7959F5FC1F7FE2B880F911D32
:105700009695879597F9089597F99F6780E870E0D7
:1057100060E008959FEF80EC089500240A94161627
:10572000170618060906089500240A94121613068F
:10573000140605060895092E0394000C11F488231D
:1057400052F0BB0F40F4BF2B11F460FF04C06F5F39
:105750007F4F8F4F9F4F089557FD9058440F551F0F
:1057600059F05F3F71F04795880F97FB991F61F0E3
:105770009F3F79F087950895121613061406551F5A
:10578000F2CF4695F1DF08C0161617061806991FC6
:10579000F1CF86957105610508940895E894BB27BB
:1057A00066277727CB0197F90895F999FECF92BD27
:1057B00081BDF89A992780B50895262FF999FECFD3
:1057C0001FBA92BD81BD20BD0FB6F894FA9AF99A1E
:1057D0000FBE01960895052E97FB1EF400940E94BB
:1057E000022C57FD07D00E94152C07FC03D04EF465
:1057F0000C94022C50954095309521953F4F4F4F7A
:105800005F4F089590958095709561957F4F8F4F6C
:105810009F4F08950E94372CA59F900DB49F900D27
:10582000A49F800D911D11240895A1E21A2EAA1B98
:10583000BB1BFD010DC0AA1FBB1FEE1FFF1FA21740
:10584000B307E407F50720F0A21BB30BE40BF50B3D
:10585000661F771F881F991F1A9469F760957095C6
:10586000809590959B01AC01BD01CF010895A29F49
:10587000B001B39FC001A39F700D811D1124911D24
:10588000B29F700D811D1124911D08955058BB27A2
:10589000AA270E945E2C0C949B2B0E948D2B38F023
:1058A0000E94942B20F039F49F3F19F426F40C94B5
:1058B0008A2B0EF4E095E7FB0C94842BE92F0E94D1
:1058C000AC2B58F3BA17620773078407950720F0CB
:1058D00079F4A6F50C94CE2B0EF4E0950B2EBA2F8E
:1058E000A02D0B01B90190010C01CA01A0011124E6
:1058F000FF27591B99F0593F50F4503E68F11A1692
:10590000F040A22F232F342F4427585FF3CF469522
:1059100037952795A795F0405395C9F77EF41F1644
:10592000BA0B620B730B840BBAF09150A1F0FF0F0E
:10593000BB1F661F771F881FC2F70EC0BA0F621FFA
:10594000731F841F48F4879577956795B795F795EA
:105950009E3F08F0B0CF9395880F08F09927EE0F7F
:105960009795879508950E94C72C0C949B2B0E94B5
:10597000942B58F00E948D2B40F029F45F3F29F0C2
:105980000C94842B51110C94CF2B0C948A2B0E94D5
:10599000AC2B68F39923B1F3552391F3951B550B69
:1059A000BB27AA2762177307840738F09F5F5F4FF2
:1059B000220F331F441FAA1FA9F335D00E2E3AF031
:1059C000E0E832D091505040E695001CCAF72BD049
:1059D000FE2F29D0660F771F881FBB1F261737079A
:1059E0004807AB07B0E809F0BB0B802DBF01FF27CC
:1059F00093585F4F3AF09E3F510578F00C94842BFA
:105A00000C94CF2B5F3FE4F3983ED4F386957795C3
:105A10006795B795F7959F5FC9F7880F911D969584
:105A2000879597F90895E1E0660F771F881FBB1FE0
:105A3000621773078407BA0720F0621B730B840B8D
:105A4000BA0BEE1F88F7E09508950E942C2D6894FC
:105A5000B1110C94CF2B08950E94B42B88F09F575E
:105A600098F0B92F9927B751B0F0E1F0660F771F82
:105A7000881F991F1AF0BA95C9F714C0B13091F078
:105A80000E94CE2BB1E008950C94CE2B672F782F77
:105A90008827B85F39F0B93FCCF38695779567953D
:105AA000B395D9F73EF490958095709561957F4FA9
:105AB0008F4F9F4F08950E94F32A08F48FEF0895A7
:105AC00016F00C94B02D0C948A2B68940C94842BB3
:105AD0000E94B42BA8F39923C1F3AEF3DF93CF93C5
